{
  "_format": "hh-sol-artifact-1",
  "contractName": "FXAMORxGuild",
  "sourceName": "contracts/FXAMORxGuildToken.sol",
  "abi": [
    {
      "inputs": [],
      "name": "AddressZero",
      "type": "error"
    },
    {
      "inputs": [],
      "name": "AlreadySet",
      "type": "error"
    },
    {
      "inputs": [],
      "name": "EmptyArray",
      "type": "error"
    },
    {
      "inputs": [],
      "name": "InvalidAddress",
      "type": "error"
    },
    {
      "inputs": [],
      "name": "InvalidAmount",
      "type": "error"
    },
    {
      "inputs": [],
      "name": "InvalidApprove",
      "type": "error"
    },
    {
      "inputs": [],
      "name": "InvalidSender",
      "type": "error"
    },
    {
      "inputs": [],
      "name": "InvalidTransfer",
      "type": "error"
    },
    {
      "inputs": [],
      "name": "NotDelegatedAny",
      "type": "error"
    },
    {
      "inputs": [],
      "name": "Unauthorized",
      "type": "error"
    },
    {
      "anonymous": false,
      "inputs": [
        {
          "indexed": true,
          "internalType": "address",
          "name": "owner",
          "type": "address"
        },
        {
          "indexed": true,
          "internalType": "address",
          "name": "spender",
          "type": "address"
        },
        {
          "indexed": false,
          "internalType": "uint256",
          "name": "value",
          "type": "uint256"
        }
      ],
      "name": "Approval",
      "type": "event"
    },
    {
      "anonymous": false,
      "inputs": [
        {
          "indexed": false,
          "internalType": "bool",
          "name": "success",
          "type": "bool"
        },
        {
          "indexed": false,
          "internalType": "address",
          "name": "owner",
          "type": "address"
        },
        {
          "indexed": false,
          "internalType": "address",
          "name": "AMORxGuild",
          "type": "address"
        }
      ],
      "name": "Initialized",
      "type": "event"
    },
    {
      "anonymous": false,
      "inputs": [
        {
          "indexed": true,
          "internalType": "address",
          "name": "previousOwner",
          "type": "address"
        },
        {
          "indexed": true,
          "internalType": "address",
          "name": "newOwner",
          "type": "address"
        }
      ],
      "name": "OwnershipTransferred",
      "type": "event"
    },
    {
      "anonymous": false,
      "inputs": [
        {
          "indexed": true,
          "internalType": "address",
          "name": "from",
          "type": "address"
        },
        {
          "indexed": true,
          "internalType": "address",
          "name": "to",
          "type": "address"
        },
        {
          "indexed": false,
          "internalType": "uint256",
          "name": "value",
          "type": "uint256"
        }
      ],
      "name": "Transfer",
      "type": "event"
    },
    {
      "inputs": [],
      "name": "AMORxGuild",
      "outputs": [
        {
          "internalType": "address",
          "name": "",
          "type": "address"
        }
      ],
      "stateMutability": "view",
      "type": "function"
    },
    {
      "inputs": [],
      "name": "_authorized",
      "outputs": [
        {
          "internalType": "address",
          "name": "",
          "type": "address"
        }
      ],
      "stateMutability": "view",
      "type": "function"
    },
    {
      "inputs": [],
      "name": "_owner",
      "outputs": [
        {
          "internalType": "address",
          "name": "",
          "type": "address"
        }
      ],
      "stateMutability": "view",
      "type": "function"
    },
    {
      "inputs": [
        {
          "internalType": "address",
          "name": "owner",
          "type": "address"
        },
        {
          "internalType": "address",
          "name": "spender",
          "type": "address"
        }
      ],
      "name": "allowance",
      "outputs": [
        {
          "internalType": "uint256",
          "name": "",
          "type": "uint256"
        }
      ],
      "stateMutability": "view",
      "type": "function"
    },
    {
      "inputs": [
        {
          "internalType": "address",
          "name": "",
          "type": "address"
        }
      ],
      "name": "amountDelegated",
      "outputs": [
        {
          "internalType": "uint256",
          "name": "",
          "type": "uint256"
        }
      ],
      "stateMutability": "view",
      "type": "function"
    },
    {
      "inputs": [
        {
          "internalType": "address",
          "name": "spender",
          "type": "address"
        },
        {
          "internalType": "uint256",
          "name": "amount",
          "type": "uint256"
        }
      ],
      "name": "approve",
      "outputs": [
        {
          "internalType": "bool",
          "name": "",
          "type": "bool"
        }
      ],
      "stateMutability": "nonpayable",
      "type": "function"
    },
    {
      "inputs": [
        {
          "internalType": "address",
          "name": "account",
          "type": "address"
        }
      ],
      "name": "balanceOf",
      "outputs": [
        {
          "internalType": "uint256",
          "name": "",
          "type": "uint256"
        }
      ],
      "stateMutability": "view",
      "type": "function"
    },
    {
      "inputs": [
        {
          "internalType": "address",
          "name": "account",
          "type": "address"
        },
        {
          "internalType": "uint256",
          "name": "amount",
          "type": "uint256"
        }
      ],
      "name": "burn",
      "outputs": [],
      "stateMutability": "nonpayable",
      "type": "function"
    },
    {
      "inputs": [],
      "name": "controller",
      "outputs": [
        {
          "internalType": "address",
          "name": "",
          "type": "address"
        }
      ],
      "stateMutability": "view",
      "type": "function"
    },
    {
      "inputs": [],
      "name": "decimals",
      "outputs": [
        {
          "internalType": "uint8",
          "name": "",
          "type": "uint8"
        }
      ],
      "stateMutability": "view",
      "type": "function"
    },
    {
      "inputs": [
        {
          "internalType": "address",
          "name": "spender",
          "type": "address"
        },
        {
          "internalType": "uint256",
          "name": "subtractedValue",
          "type": "uint256"
        }
      ],
      "name": "decreaseAllowance",
      "outputs": [
        {
          "internalType": "bool",
          "name": "",
          "type": "bool"
        }
      ],
      "stateMutability": "nonpayable",
      "type": "function"
    },
    {
      "inputs": [
        {
          "internalType": "address",
          "name": "to",
          "type": "address"
        },
        {
          "internalType": "uint256",
          "name": "amount",
          "type": "uint256"
        }
      ],
      "name": "delegate",
      "outputs": [],
      "stateMutability": "nonpayable",
      "type": "function"
    },
    {
      "inputs": [
        {
          "internalType": "address",
          "name": "spender",
          "type": "address"
        },
        {
          "internalType": "uint256",
          "name": "addedValue",
          "type": "uint256"
        }
      ],
      "name": "increaseAllowance",
      "outputs": [
        {
          "internalType": "bool",
          "name": "",
          "type": "bool"
        }
      ],
      "stateMutability": "nonpayable",
      "type": "function"
    },
    {
      "inputs": [
        {
          "internalType": "string",
          "name": "name_",
          "type": "string"
        },
        {
          "internalType": "string",
          "name": "symbol_",
          "type": "string"
        },
        {
          "internalType": "address",
          "name": "initOwner_",
          "type": "address"
        },
        {
          "internalType": "address",
          "name": "AMORxGuild_",
          "type": "address"
        },
        {
          "internalType": "address",
          "name": "authorized_",
          "type": "address"
        }
      ],
      "name": "init",
      "outputs": [
        {
          "internalType": "bool",
          "name": "",
          "type": "bool"
        }
      ],
      "stateMutability": "nonpayable",
      "type": "function"
    },
    {
      "inputs": [],
      "name": "name",
      "outputs": [
        {
          "internalType": "string",
          "name": "",
          "type": "string"
        }
      ],
      "stateMutability": "view",
      "type": "function"
    },
    {
      "inputs": [],
      "name": "owner",
      "outputs": [
        {
          "internalType": "address",
          "name": "",
          "type": "address"
        }
      ],
      "stateMutability": "view",
      "type": "function"
    },
    {
      "inputs": [],
      "name": "renounceOwnership",
      "outputs": [],
      "stateMutability": "nonpayable",
      "type": "function"
    },
    {
      "inputs": [
        {
          "internalType": "address",
          "name": "_controller",
          "type": "address"
        }
      ],
      "name": "setController",
      "outputs": [],
      "stateMutability": "nonpayable",
      "type": "function"
    },
    {
      "inputs": [
        {
          "internalType": "address",
          "name": "to",
          "type": "address"
        },
        {
          "internalType": "uint256",
          "name": "amount",
          "type": "uint256"
        }
      ],
      "name": "stake",
      "outputs": [
        {
          "internalType": "uint256",
          "name": "",
          "type": "uint256"
        }
      ],
      "stateMutability": "nonpayable",
      "type": "function"
    },
    {
      "inputs": [],
      "name": "symbol",
      "outputs": [
        {
          "internalType": "string",
          "name": "",
          "type": "string"
        }
      ],
      "stateMutability": "view",
      "type": "function"
    },
    {
      "inputs": [],
      "name": "totalSupply",
      "outputs": [
        {
          "internalType": "uint256",
          "name": "",
          "type": "uint256"
        }
      ],
      "stateMutability": "view",
      "type": "function"
    },
    {
      "inputs": [
        {
          "internalType": "address",
          "name": "to",
          "type": "address"
        },
        {
          "internalType": "uint256",
          "name": "amount",
          "type": "uint256"
        }
      ],
      "name": "transfer",
      "outputs": [
        {
          "internalType": "bool",
          "name": "",
          "type": "bool"
        }
      ],
      "stateMutability": "nonpayable",
      "type": "function"
    },
    {
      "inputs": [
        {
          "internalType": "address",
          "name": "from",
          "type": "address"
        },
        {
          "internalType": "address",
          "name": "to",
          "type": "address"
        },
        {
          "internalType": "uint256",
          "name": "amount",
          "type": "uint256"
        }
      ],
      "name": "transferFrom",
      "outputs": [
        {
          "internalType": "bool",
          "name": "",
          "type": "bool"
        }
      ],
      "stateMutability": "nonpayable",
      "type": "function"
    },
    {
      "inputs": [
        {
          "internalType": "address",
          "name": "newOwner",
          "type": "address"
        }
      ],
      "name": "transferOwnership",
      "outputs": [],
      "stateMutability": "nonpayable",
      "type": "function"
    },
    {
      "inputs": [
        {
          "internalType": "address",
          "name": "account",
          "type": "address"
        },
        {
          "internalType": "uint256",
          "name": "amount",
          "type": "uint256"
        }
      ],
      "name": "undelegate",
      "outputs": [],
      "stateMutability": "nonpayable",
      "type": "function"
    }
  ],
  "bytecode": "0x608060405234801561001057600080fd5b5061001a3361001f565b61007b565b600580546001600160a01b038381166201000081810262010000600160b01b031985161790945560405193909204169182907f8be0079c531659141344cd1fd0a4f28419497f9722a3daafe3b4186f6b6457e090600090a35050565b611d208061008a6000396000f3fe608060405234801561001057600080fd5b50600436106101a35760003560e01c80637bb576f5116100ee578063a457c2d711610097578063b2bdfa7b11610071578063b2bdfa7b146103ce578063dd62ed3e146103f3578063f2fde38b14610439578063f77c47911461044c57600080fd5b8063a457c2d714610395578063a9059cbb146103a8578063adc9772e146103bb57600080fd5b806392eefe9b116100c857806392eefe9b1461036757806395d89b411461037a5780639dc29fac1461038257600080fd5b80637bb576f5146103035780638da5cb5b146103235780638e49d0fd1461034757600080fd5b8063395093511161015057806370a082311161012a57806370a08231146102b2578063715018a6146102e857806378f3ae74146102f057600080fd5b806339509351146102475780634d99dd161461025a578063502e24e51461026d57600080fd5b806318160ddd1161018157806318160ddd146101fe57806323b872dd14610210578063313ce5671461022357600080fd5b8063026e402b146101a857806306fdde03146101bd578063095ea7b3146101db575b600080fd5b6101bb6101b63660046117f8565b61046c565b005b6101c5610620565b6040516101d29190611822565b60405180910390f35b6101ee6101e93660046117f8565b6106ae565b60405190151581526020016101d2565b6002545b6040519081526020016101d2565b6101ee61021e366004611895565b6106c6565b60055461023590610100900460ff1681565b60405160ff90911681526020016101d2565b6101ee6102553660046117f8565b6106ea565b6101bb6102683660046117f8565b610736565b600b5461028d9073ffffffffffffffffffffffffffffffffffffffff1681565b60405173ffffffffffffffffffffffffffffffffffffffff90911681526020016101d2565b6102026102c03660046118d1565b73ffffffffffffffffffffffffffffffffffffffff1660009081526020819052604090205490565b6101bb6108d7565b6101ee6102fe3660046119cd565b6108eb565b600c5461028d9073ffffffffffffffffffffffffffffffffffffffff1681565b60055462010000900473ffffffffffffffffffffffffffffffffffffffff1661028d565b6102026103553660046118d1565b60096020526000908152604090205481565b6101bb6103753660046118d1565b610a8f565b6101c5610b76565b6101bb6103903660046117f8565b610b83565b6101ee6103a33660046117f8565b610d22565b6101ee6103b63660046117f8565b610d9d565b6102026103c93660046117f8565b610dab565b600a5461028d90610100900473ffffffffffffffffffffffffffffffffffffffff1681565b610202610401366004611a63565b73ffffffffffffffffffffffffffffffffffffffff918216600090815260016020908152604080832093909416825291909152205490565b6101bb6104473660046118d1565b611059565b600d5461028d9073ffffffffffffffffffffffffffffffffffffffff1681565b3373ffffffffffffffffffffffffffffffffffffffff8316036104bb576040517fddb5de5e00000000000000000000000000000000000000000000000000000000815260040160405180910390fd5b73ffffffffffffffffffffffffffffffffffffffff8216610508576040517f9fabe1c100000000000000000000000000000000000000000000000000000000815260040160405180910390fd5b336000908152600960209081526040808320546006909252822054909190610531908390611ac5565b90508281101561056d576040517f2c5211c600000000000000000000000000000000000000000000000000000000815260040160405180910390fd5b73ffffffffffffffffffffffffffffffffffffffff8416600081815260076020908152604080832080546001810182559084528284200180547fffffffffffffffffffffffff0000000000000000000000000000000000000000163390811790915583526008825280832093835292905290812080548592906105f1908490611adc565b90915550503360009081526009602052604081208054859290610615908490611adc565b909155505050505050565b6003805461062d90611af4565b80601f016020809104026020016040519081016040528092919081815260200182805461065990611af4565b80156106a65780601f1061067b576101008083540402835291602001916106a6565b820191906000526020600020905b81548152906001019060200180831161068957829003601f168201915b505050505081565b6000336106bc818585611110565b5060019392505050565b6000336106d48582856111ed565b6106df85858561128e565b506001949350505050565b33600081815260016020908152604080832073ffffffffffffffffffffffffffffffffffffffff871684529091528120549091906106bc9082908690610731908790611adc565b611110565b3373ffffffffffffffffffffffffffffffffffffffff831603610785576040517fddb5de5e00000000000000000000000000000000000000000000000000000000815260040160405180910390fd5b33600090815260086020908152604080832073ffffffffffffffffffffffffffffffffffffffff8616845290915281205490036107ee576040517f6f5e06a600000000000000000000000000000000000000000000000000000000815260040160405180910390fd5b33600090815260086020908152604080832073ffffffffffffffffffffffffffffffffffffffff8616845290915290205481116108945733600090815260086020908152604080832073ffffffffffffffffffffffffffffffffffffffff8616845290915281208054839290610865908490611ac5565b90915550503360009081526009602052604081208054839290610889908490611ac5565b909155506108d39050565b33600081815260086020908152604080832073ffffffffffffffffffffffffffffffffffffffff87168452825280832083905592825260099052908120555b5050565b6108df611413565b6108e9600061149b565b565b600a5460009060ff1615610960576040517f08c379a000000000000000000000000000000000000000000000000000000000815260206004820152601360248201527f416c726561647920696e697469616c697a65640000000000000000000000000060448201526064015b60405180910390fd5b6109698461149b565b600a805473ffffffffffffffffffffffffffffffffffffffff808716610100027fffffffffffffffffffffff0000000000000000000000000000000000000000ff90921691909117909155600c80548583167fffffffffffffffffffffffff000000000000000000000000000000000000000091821617909155600b8054928516929091169190911790556109fe868661151a565b600a80547fffffffffffffffffffffffffffffffffffffffffffffffffffffffffffffff001660019081179091556040805191825273ffffffffffffffffffffffffffffffffffffffff86811660208401528516908201527fc87c04922c077302cf4c93ca0785707d2272b98c125c11c3c98f545718f3e27c9060600160405180910390a150600195945050505050565b600b5473ffffffffffffffffffffffffffffffffffffffff16338114610ae1576040517f82b4290000000000000000000000000000000000000000000000000000000000815260040160405180910390fd5b73ffffffffffffffffffffffffffffffffffffffff8216610b2e576040517f9fabe1c100000000000000000000000000000000000000000000000000000000815260040160405180910390fd5b50600d80547fffffffffffffffffffffffff00000000000000000000000000000000000000001673ffffffffffffffffffffffffffffffffffffffff92909216919091179055565b6004805461062d90611af4565b600a54610100900473ffffffffffffffffffffffffffffffffffffffff16338114610bda576040517f82b4290000000000000000000000000000000000000000000000000000000000815260040160405180910390fd5b73ffffffffffffffffffffffffffffffffffffffff8316600090815260066020526040902054821115610c39576040517f2c5211c600000000000000000000000000000000000000000000000000000000815260040160405180910390fd5b610c4383836115a1565b73ffffffffffffffffffffffffffffffffffffffff831660009081526006602052604081208054849290610c78908490611ac5565b9091555050600c54600d546040517fa9059cbb00000000000000000000000000000000000000000000000000000000815273ffffffffffffffffffffffffffffffffffffffff91821660048201526024810185905291169063a9059cbb906044016020604051808303816000875af1158015610cf8573d6000803e3d6000fd5b505050506040513d601f19601f82011682018060405250810190610d1c9190611b47565b50505050565b33600081815260016020908152604080832073ffffffffffffffffffffffffffffffffffffffff8716845290915281205490919083811015610d90576040517f2c5211c600000000000000000000000000000000000000000000000000000000815260040160405180910390fd5b6106df8286868403611110565b6000336106bc81858561128e565b600a54600090610100900473ffffffffffffffffffffffffffffffffffffffff16338114610e05576040517f82b4290000000000000000000000000000000000000000000000000000000000815260040160405180910390fd5b3373ffffffffffffffffffffffffffffffffffffffff851603610e54576040517fddb5de5e00000000000000000000000000000000000000000000000000000000815260040160405180910390fd5b73ffffffffffffffffffffffffffffffffffffffff8416610ea1576040517f9fabe1c100000000000000000000000000000000000000000000000000000000815260040160405180910390fd5b600c546040517f70a08231000000000000000000000000000000000000000000000000000000008152336004820152849173ffffffffffffffffffffffffffffffffffffffff16906370a0823190602401602060405180830381865afa158015610f0f573d6000803e3d6000fd5b505050506040513d601f19601f82011682018060405250810190610f339190611b69565b1015610f6b576040517f2c5211c600000000000000000000000000000000000000000000000000000000815260040160405180910390fd5b600c546040517f23b872dd0000000000000000000000000000000000000000000000000000000081523360048201523060248201526044810185905273ffffffffffffffffffffffffffffffffffffffff909116906323b872dd906064016020604051808303816000875af1158015610fe8573d6000803e3d6000fd5b505050506040513d601f19601f8201168201806040525081019061100c9190611b47565b5061101784846116df565b73ffffffffffffffffffffffffffffffffffffffff84166000908152600660205260408120805485929061104c908490611adc565b9091555092949350505050565b611061611413565b73ffffffffffffffffffffffffffffffffffffffff8116611104576040517f08c379a000000000000000000000000000000000000000000000000000000000815260206004820152602660248201527f4f776e61626c653a206e6577206f776e657220697320746865207a65726f206160448201527f64647265737300000000000000000000000000000000000000000000000000006064820152608401610957565b61110d8161149b565b50565b73ffffffffffffffffffffffffffffffffffffffff83161580611147575073ffffffffffffffffffffffffffffffffffffffff8216155b1561117e576040517fbeac2bc600000000000000000000000000000000000000000000000000000000815260040160405180910390fd5b73ffffffffffffffffffffffffffffffffffffffff83811660008181526001602090815260408083209487168084529482529182902085905590518481527f8c5be1e5ebec7d5bd14f71427d1e84f3dd0314c0f7b2291e5b200ac8c7c3b92591015b60405180910390a3505050565b73ffffffffffffffffffffffffffffffffffffffff8381166000908152600160209081526040808320938616835292905220547fffffffffffffffffffffffffffffffffffffffffffffffffffffffffffffffff8114610d1c5781811015611281576040517f2c5211c600000000000000000000000000000000000000000000000000000000815260040160405180910390fd5b610d1c8484848403611110565b73ffffffffffffffffffffffffffffffffffffffff831615806112c5575073ffffffffffffffffffffffffffffffffffffffff8216155b156112fc576040517f2f35253100000000000000000000000000000000000000000000000000000000815260040160405180910390fd5b73ffffffffffffffffffffffffffffffffffffffff83166000908152602081905260409020548181101561135c576040517f2c5211c600000000000000000000000000000000000000000000000000000000815260040160405180910390fd5b73ffffffffffffffffffffffffffffffffffffffff8085166000908152602081905260408082208585039055918516815290812080548492906113a0908490611adc565b925050819055508273ffffffffffffffffffffffffffffffffffffffff168473ffffffffffffffffffffffffffffffffffffffff167fddf252ad1be2c89b69c2b068fc378daa952ba7f163c4a11628f55a4df523b3ef8460405161140691815260200190565b60405180910390a3610d1c565b60055473ffffffffffffffffffffffffffffffffffffffff620100009091041633146108e9576040517f08c379a000000000000000000000000000000000000000000000000000000000815260206004820181905260248201527f4f776e61626c653a2063616c6c6572206973206e6f7420746865206f776e65726044820152606401610957565b6005805473ffffffffffffffffffffffffffffffffffffffff838116620100008181027fffffffffffffffffffff0000000000000000000000000000000000000000ffff85161790945560405193909204169182907f8be0079c531659141344cd1fd0a4f28419497f9722a3daafe3b4186f6b6457e090600090a35050565b60055460ff1615611557576040517fa741a04500000000000000000000000000000000000000000000000000000000815260040160405180910390fd5b60036115638382611bd0565b5060046115708282611bd0565b5050600580547fffffffffffffffffffffffffffffffffffffffffffffffffffffffffffff00001661120117905550565b73ffffffffffffffffffffffffffffffffffffffff82166115ee576040517f2f35253100000000000000000000000000000000000000000000000000000000815260040160405180910390fd5b73ffffffffffffffffffffffffffffffffffffffff82166000908152602081905260409020548181101561164e576040517f2c5211c600000000000000000000000000000000000000000000000000000000815260040160405180910390fd5b73ffffffffffffffffffffffffffffffffffffffff8316600090815260208190526040812083830390556002805484929061168a908490611ac5565b909155505060405182815260009073ffffffffffffffffffffffffffffffffffffffff8516907fddf252ad1be2c89b69c2b068fc378daa952ba7f163c4a11628f55a4df523b3ef906020016111e0565b505050565b73ffffffffffffffffffffffffffffffffffffffff821661172c576040517fe6c4247b00000000000000000000000000000000000000000000000000000000815260040160405180910390fd5b806002600082825461173e9190611adc565b909155505073ffffffffffffffffffffffffffffffffffffffff821660009081526020819052604081208054839290611778908490611adc565b909155505060405181815273ffffffffffffffffffffffffffffffffffffffff8316906000907fddf252ad1be2c89b69c2b068fc378daa952ba7f163c4a11628f55a4df523b3ef9060200160405180910390a35050565b803573ffffffffffffffffffffffffffffffffffffffff811681146117f357600080fd5b919050565b6000806040838503121561180b57600080fd5b611814836117cf565b946020939093013593505050565b600060208083528351808285015260005b8181101561184f57858101830151858201604001528201611833565b81811115611861576000604083870101525b50601f017fffffffffffffffffffffffffffffffffffffffffffffffffffffffffffffffe016929092016040019392505050565b6000806000606084860312156118aa57600080fd5b6118b3846117cf565b92506118c1602085016117cf565b9150604084013590509250925092565b6000602082840312156118e357600080fd5b6118ec826117cf565b9392505050565b7f4e487b7100000000000000000000000000000000000000000000000000000000600052604160045260246000fd5b600082601f83011261193357600080fd5b813567ffffffffffffffff8082111561194e5761194e6118f3565b604051601f83017fffffffffffffffffffffffffffffffffffffffffffffffffffffffffffffffe0908116603f01168101908282118183101715611994576119946118f3565b816040528381528660208588010111156119ad57600080fd5b836020870160208301376000602085830101528094505050505092915050565b600080600080600060a086880312156119e557600080fd5b853567ffffffffffffffff808211156119fd57600080fd5b611a0989838a01611922565b96506020880135915080821115611a1f57600080fd5b50611a2c88828901611922565b945050611a3b604087016117cf565b9250611a49606087016117cf565b9150611a57608087016117cf565b90509295509295909350565b60008060408385031215611a7657600080fd5b611a7f836117cf565b9150611a8d602084016117cf565b90509250929050565b7f4e487b7100000000000000000000000000000000000000000000000000000000600052601160045260246000fd5b600082821015611ad757611ad7611a96565b500390565b60008219821115611aef57611aef611a96565b500190565b600181811c90821680611b0857607f821691505b602082108103611b41577f4e487b7100000000000000000000000000000000000000000000000000000000600052602260045260246000fd5b50919050565b600060208284031215611b5957600080fd5b815180151581146118ec57600080fd5b600060208284031215611b7b57600080fd5b5051919050565b601f8211156116da57600081815260208120601f850160051c81016020861015611ba95750805b601f850160051c820191505b81811015611bc857828155600101611bb5565b505050505050565b815167ffffffffffffffff811115611bea57611bea6118f3565b611bfe81611bf88454611af4565b84611b82565b602080601f831160018114611c515760008415611c1b5750858301515b7fffffffffffffffffffffffffffffffffffffffffffffffffffffffffffffffff600386901b1c1916600185901b178555611bc8565b6000858152602081207fffffffffffffffffffffffffffffffffffffffffffffffffffffffffffffffe08616915b82811015611c9e57888601518255948401946001909101908401611c7f565b5085821015611cda57878501517fffffffffffffffffffffffffffffffffffffffffffffffffffffffffffffffff600388901b60f8161c191681555b5050505050600190811b0190555056fea2646970667358221220e7c5911e884be730fb57c06a87be0ba3806e0c861b9096f97ff978b8c0da0fb664736f6c634300080f0033",
  "linkReferences": {},
  "deployedLinkReferences": {}
}