{
  "_format": "hh-sol-artifact-1",
  "contractName": "FXAMORxGuild",
  "sourceName": "contracts/FXAMORxGuildToken.sol",
  "abi": [
    {
      "inputs": [],
      "name": "AddressZero",
      "type": "error"
    },
    {
      "inputs": [],
      "name": "AlreadySet",
      "type": "error"
    },
    {
      "inputs": [],
      "name": "EmptyArray",
      "type": "error"
    },
    {
      "inputs": [
        {
          "internalType": "uint256",
          "name": "sent",
          "type": "uint256"
        },
        {
          "internalType": "uint256",
          "name": "minRequired",
          "type": "uint256"
        }
      ],
      "name": "InvalidAmount",
      "type": "error"
    },
    {
      "inputs": [],
      "name": "InvalidSender",
      "type": "error"
    },
    {
      "inputs": [],
      "name": "NotDelegatedAny",
      "type": "error"
    },
    {
      "inputs": [],
      "name": "Unauthorized",
      "type": "error"
    },
    {
      "anonymous": false,
      "inputs": [
        {
          "indexed": true,
          "internalType": "address",
          "name": "owner",
          "type": "address"
        },
        {
          "indexed": true,
          "internalType": "address",
          "name": "spender",
          "type": "address"
        },
        {
          "indexed": false,
          "internalType": "uint256",
          "name": "value",
          "type": "uint256"
        }
      ],
      "name": "Approval",
      "type": "event"
    },
    {
      "anonymous": false,
      "inputs": [
        {
          "indexed": false,
          "internalType": "bool",
          "name": "success",
          "type": "bool"
        },
        {
          "indexed": false,
          "internalType": "address",
          "name": "owner",
          "type": "address"
        },
        {
          "indexed": false,
          "internalType": "address",
          "name": "AMORxGuild",
          "type": "address"
        }
      ],
      "name": "Initialized",
      "type": "event"
    },
    {
      "anonymous": false,
      "inputs": [
        {
          "indexed": true,
          "internalType": "address",
          "name": "previousOwner",
          "type": "address"
        },
        {
          "indexed": true,
          "internalType": "address",
          "name": "newOwner",
          "type": "address"
        }
      ],
      "name": "OwnershipTransferred",
      "type": "event"
    },
    {
      "anonymous": false,
      "inputs": [
        {
          "indexed": true,
          "internalType": "address",
          "name": "from",
          "type": "address"
        },
        {
          "indexed": true,
          "internalType": "address",
          "name": "to",
          "type": "address"
        },
        {
          "indexed": false,
          "internalType": "uint256",
          "name": "value",
          "type": "uint256"
        }
      ],
      "name": "Transfer",
      "type": "event"
    },
    {
      "inputs": [],
      "name": "AMORxGuild",
      "outputs": [
        {
          "internalType": "address",
          "name": "",
          "type": "address"
        }
      ],
      "stateMutability": "view",
      "type": "function"
    },
    {
      "inputs": [],
      "name": "_owner",
      "outputs": [
        {
          "internalType": "address",
          "name": "",
          "type": "address"
        }
      ],
      "stateMutability": "view",
      "type": "function"
    },
    {
      "inputs": [
        {
          "internalType": "address",
          "name": "owner",
          "type": "address"
        },
        {
          "internalType": "address",
          "name": "spender",
          "type": "address"
        }
      ],
      "name": "allowance",
      "outputs": [
        {
          "internalType": "uint256",
          "name": "",
          "type": "uint256"
        }
      ],
      "stateMutability": "view",
      "type": "function"
    },
    {
      "inputs": [
        {
          "internalType": "address",
          "name": "",
          "type": "address"
        }
      ],
      "name": "amountDelegated",
      "outputs": [
        {
          "internalType": "uint256",
          "name": "",
          "type": "uint256"
        }
      ],
      "stateMutability": "view",
      "type": "function"
    },
    {
      "inputs": [
        {
          "internalType": "address",
          "name": "spender",
          "type": "address"
        },
        {
          "internalType": "uint256",
          "name": "amount",
          "type": "uint256"
        }
      ],
      "name": "approve",
      "outputs": [
        {
          "internalType": "bool",
          "name": "",
          "type": "bool"
        }
      ],
      "stateMutability": "nonpayable",
      "type": "function"
    },
    {
      "inputs": [
        {
          "internalType": "address",
          "name": "account",
          "type": "address"
        }
      ],
      "name": "balanceOf",
      "outputs": [
        {
          "internalType": "uint256",
          "name": "",
          "type": "uint256"
        }
      ],
      "stateMutability": "view",
      "type": "function"
    },
    {
      "inputs": [
        {
          "internalType": "address",
          "name": "account",
          "type": "address"
        },
        {
          "internalType": "uint256",
          "name": "amount",
          "type": "uint256"
        }
      ],
      "name": "burn",
      "outputs": [],
      "stateMutability": "nonpayable",
      "type": "function"
    },
    {
      "inputs": [],
      "name": "controller",
      "outputs": [
        {
          "internalType": "address",
          "name": "",
          "type": "address"
        }
      ],
      "stateMutability": "view",
      "type": "function"
    },
    {
      "inputs": [],
      "name": "decimals",
      "outputs": [
        {
          "internalType": "uint8",
          "name": "",
          "type": "uint8"
        }
      ],
      "stateMutability": "view",
      "type": "function"
    },
    {
      "inputs": [
        {
          "internalType": "address",
          "name": "spender",
          "type": "address"
        },
        {
          "internalType": "uint256",
          "name": "subtractedValue",
          "type": "uint256"
        }
      ],
      "name": "decreaseAllowance",
      "outputs": [
        {
          "internalType": "bool",
          "name": "",
          "type": "bool"
        }
      ],
      "stateMutability": "nonpayable",
      "type": "function"
    },
    {
      "inputs": [
        {
          "internalType": "address",
          "name": "to",
          "type": "address"
        },
        {
          "internalType": "uint256",
          "name": "amount",
          "type": "uint256"
        }
      ],
      "name": "delegate",
      "outputs": [],
      "stateMutability": "nonpayable",
      "type": "function"
    },
    {
      "inputs": [
        {
          "internalType": "address",
          "name": "spender",
          "type": "address"
        },
        {
          "internalType": "uint256",
          "name": "addedValue",
          "type": "uint256"
        }
      ],
      "name": "increaseAllowance",
      "outputs": [
        {
          "internalType": "bool",
          "name": "",
          "type": "bool"
        }
      ],
      "stateMutability": "nonpayable",
      "type": "function"
    },
    {
      "inputs": [
        {
          "internalType": "string",
          "name": "name_",
          "type": "string"
        },
        {
          "internalType": "string",
          "name": "symbol_",
          "type": "string"
        },
        {
          "internalType": "address",
          "name": "initOwner_",
          "type": "address"
        },
        {
          "internalType": "address",
          "name": "AMORxGuild_",
          "type": "address"
        }
      ],
      "name": "init",
      "outputs": [
        {
          "internalType": "bool",
          "name": "",
          "type": "bool"
        }
      ],
      "stateMutability": "nonpayable",
      "type": "function"
    },
    {
      "inputs": [],
      "name": "name",
      "outputs": [
        {
          "internalType": "string",
          "name": "",
          "type": "string"
        }
      ],
      "stateMutability": "view",
      "type": "function"
    },
    {
      "inputs": [],
      "name": "owner",
      "outputs": [
        {
          "internalType": "address",
          "name": "",
          "type": "address"
        }
      ],
      "stateMutability": "view",
      "type": "function"
    },
    {
      "inputs": [],
      "name": "renounceOwnership",
      "outputs": [],
      "stateMutability": "nonpayable",
      "type": "function"
    },
    {
      "inputs": [
        {
          "internalType": "address",
          "name": "_controller",
          "type": "address"
        }
      ],
      "name": "setController",
      "outputs": [],
      "stateMutability": "nonpayable",
      "type": "function"
    },
    {
      "inputs": [
        {
          "internalType": "address",
          "name": "to",
          "type": "address"
        },
        {
          "internalType": "uint256",
          "name": "amount",
          "type": "uint256"
        }
      ],
      "name": "stake",
      "outputs": [
        {
          "internalType": "uint256",
          "name": "",
          "type": "uint256"
        }
      ],
      "stateMutability": "nonpayable",
      "type": "function"
    },
    {
      "inputs": [],
      "name": "symbol",
      "outputs": [
        {
          "internalType": "string",
          "name": "",
          "type": "string"
        }
      ],
      "stateMutability": "view",
      "type": "function"
    },
    {
      "inputs": [],
      "name": "totalSupply",
      "outputs": [
        {
          "internalType": "uint256",
          "name": "",
          "type": "uint256"
        }
      ],
      "stateMutability": "view",
      "type": "function"
    },
    {
      "inputs": [
        {
          "internalType": "address",
          "name": "to",
          "type": "address"
        },
        {
          "internalType": "uint256",
          "name": "amount",
          "type": "uint256"
        }
      ],
      "name": "transfer",
      "outputs": [
        {
          "internalType": "bool",
          "name": "",
          "type": "bool"
        }
      ],
      "stateMutability": "nonpayable",
      "type": "function"
    },
    {
      "inputs": [
        {
          "internalType": "address",
          "name": "from",
          "type": "address"
        },
        {
          "internalType": "address",
          "name": "to",
          "type": "address"
        },
        {
          "internalType": "uint256",
          "name": "amount",
          "type": "uint256"
        }
      ],
      "name": "transferFrom",
      "outputs": [
        {
          "internalType": "bool",
          "name": "",
          "type": "bool"
        }
      ],
      "stateMutability": "nonpayable",
      "type": "function"
    },
    {
      "inputs": [
        {
          "internalType": "address",
          "name": "newOwner",
          "type": "address"
        }
      ],
      "name": "transferOwnership",
      "outputs": [],
      "stateMutability": "nonpayable",
      "type": "function"
    },
    {
      "inputs": [
        {
          "internalType": "address",
          "name": "account",
          "type": "address"
        },
        {
          "internalType": "uint256",
          "name": "amount",
          "type": "uint256"
        }
      ],
      "name": "undelegate",
      "outputs": [],
      "stateMutability": "nonpayable",
      "type": "function"
    }
  ],
  "bytecode": "0x608060405234801561001057600080fd5b5061001a3361001f565b610079565b600580546001600160a01b03838116610100818102610100600160a81b031985161790945560405193909204169182907f8be0079c531659141344cd1fd0a4f28419497f9722a3daafe3b4186f6b6457e090600090a35050565b61203e806100886000396000f3fe608060405234801561001057600080fd5b50600436106101985760003560e01c80638da5cb5b116100e3578063a9059cbb1161008c578063dd62ed3e11610066578063dd62ed3e146103b2578063f2fde38b146103f8578063f77c47911461040b57600080fd5b8063a9059cbb14610367578063adc9772e1461037a578063b2bdfa7b1461038d57600080fd5b806395d89b41116100bd57806395d89b41146103395780639dc29fac14610341578063a457c2d71461035457600080fd5b80638da5cb5b146102e35780638e49d0fd1461030657806392eefe9b1461032657600080fd5b8063313ce5671161014557806370a082311161011f57806370a0823114610260578063715018a6146102965780637bb576f51461029e57600080fd5b8063313ce5671461022b578063395093511461023a5780634d99dd161461024d57600080fd5b80630e07f854116101765780630e07f854146101f357806318160ddd1461020657806323b872dd1461021857600080fd5b8063026e402b1461019d57806306fdde03146101b2578063095ea7b3146101d0575b600080fd5b6101b06101ab366004611c8f565b61042b565b005b6101ba6105ee565b6040516101c79190611cb9565b60405180910390f35b6101e36101de366004611c8f565b610680565b60405190151581526020016101c7565b6101e3610201366004611e06565b610698565b6002545b6040519081526020016101c7565b6101e3610226366004611e8b565b610844565b604051601281526020016101c7565b6101e3610248366004611c8f565b610868565b6101b061025b366004611c8f565b6108b4565b61020a61026e366004611ec7565b73ffffffffffffffffffffffffffffffffffffffff1660009081526020819052604090205490565b6101b0610a55565b600b546102be9073ffffffffffffffffffffffffffffffffffffffff1681565b60405173ffffffffffffffffffffffffffffffffffffffff90911681526020016101c7565b600554610100900473ffffffffffffffffffffffffffffffffffffffff166102be565b61020a610314366004611ec7565b60096020526000908152604090205481565b6101b0610334366004611ec7565b610ae8565b6101ba610bd4565b6101b061034f366004611c8f565b610be3565b6101e3610362366004611c8f565b610db4565b6101e3610375366004611c8f565b610e85565b61020a610388366004611c8f565b610e93565b600a546102be90610100900473ffffffffffffffffffffffffffffffffffffffff1681565b61020a6103c0366004611ee9565b73ffffffffffffffffffffffffffffffffffffffff918216600090815260016020908152604080832093909416825291909152205490565b6101b0610406366004611ec7565b6111dc565b600c546102be9073ffffffffffffffffffffffffffffffffffffffff1681565b3373ffffffffffffffffffffffffffffffffffffffff83160361047a576040517fddb5de5e00000000000000000000000000000000000000000000000000000000815260040160405180910390fd5b73ffffffffffffffffffffffffffffffffffffffff82166104c7576040517f9fabe1c100000000000000000000000000000000000000000000000000000000815260040160405180910390fd5b3360009081526009602090815260408083205460069092528220549091906104f0908390611f4b565b90508281101561053b576040517f7c83fcf000000000000000000000000000000000000000000000000000000000815260048101849052602481018290526044015b60405180910390fd5b73ffffffffffffffffffffffffffffffffffffffff8416600081815260076020908152604080832080546001810182559084528284200180547fffffffffffffffffffffffff0000000000000000000000000000000000000000163390811790915583526008825280832093835292905290812080548592906105bf908490611f62565b909155505033600090815260096020526040812080548592906105e3908490611f62565b909155505050505050565b6060600380546105fd90611f7a565b80601f016020809104026020016040519081016040528092919081815260200182805461062990611f7a565b80156106765780601f1061064b57610100808354040283529160200191610676565b820191906000526020600020905b81548152906001019060200180831161065957829003601f168201915b5050505050905090565b60003361068e818585611312565b5060019392505050565b600a5460009060ff1615610708576040517f08c379a000000000000000000000000000000000000000000000000000000000815260206004820152601360248201527f416c726561647920696e697469616c697a6564000000000000000000000000006044820152606401610532565b610711836114c6565b600a80547fffffffffffffffffffffff0000000000000000000000000000000000000000ff1661010073ffffffffffffffffffffffffffffffffffffffff8681169190910291909117909155600b80547fffffffffffffffffffffffff000000000000000000000000000000000000000016918416919091179055845161079f906003906020880190611bcd565b5083516107b3906004906020870190611bcd565b50600a80547fffffffffffffffffffffffffffffffffffffffffffffffffffffffffffffff001660019081179091556040805191825273ffffffffffffffffffffffffffffffffffffffff85811660208401528416908201527fc87c04922c077302cf4c93ca0785707d2272b98c125c11c3c98f545718f3e27c9060600160405180910390a1506001949350505050565b600033610852858285611544565b61085d858585611615565b506001949350505050565b33600081815260016020908152604080832073ffffffffffffffffffffffffffffffffffffffff8716845290915281205490919061068e90829086906108af908790611f62565b611312565b3373ffffffffffffffffffffffffffffffffffffffff831603610903576040517fddb5de5e00000000000000000000000000000000000000000000000000000000815260040160405180910390fd5b33600090815260086020908152604080832073ffffffffffffffffffffffffffffffffffffffff86168452909152812054900361096c576040517f6f5e06a600000000000000000000000000000000000000000000000000000000815260040160405180910390fd5b33600090815260086020908152604080832073ffffffffffffffffffffffffffffffffffffffff861684529091529020548111610a125733600090815260086020908152604080832073ffffffffffffffffffffffffffffffffffffffff86168452909152812080548392906109e3908490611f4b565b90915550503360009081526009602052604081208054839290610a07908490611f4b565b90915550610a519050565b33600081815260086020908152604080832073ffffffffffffffffffffffffffffffffffffffff87168452825280832083905592825260099052908120555b5050565b60055473ffffffffffffffffffffffffffffffffffffffff610100909104163314610adc576040517f08c379a000000000000000000000000000000000000000000000000000000000815260206004820181905260248201527f4f776e61626c653a2063616c6c6572206973206e6f7420746865206f776e65726044820152606401610532565b610ae660006114c6565b565b600a54610100900473ffffffffffffffffffffffffffffffffffffffff16338114610b3f576040517f82b4290000000000000000000000000000000000000000000000000000000000815260040160405180910390fd5b73ffffffffffffffffffffffffffffffffffffffff8216610b8c576040517f9fabe1c100000000000000000000000000000000000000000000000000000000815260040160405180910390fd5b50600c80547fffffffffffffffffffffffff00000000000000000000000000000000000000001673ffffffffffffffffffffffffffffffffffffffff92909216919091179055565b6060600480546105fd90611f7a565b600a54610100900473ffffffffffffffffffffffffffffffffffffffff16338114610c3a576040517f82b4290000000000000000000000000000000000000000000000000000000000815260040160405180910390fd5b73ffffffffffffffffffffffffffffffffffffffff8316600090815260066020526040902054821115610ccb5773ffffffffffffffffffffffffffffffffffffffff8316600090815260066020526040908190205490517f7c83fcf0000000000000000000000000000000000000000000000000000000008152610532918491600401918252602082015260400190565b610cd583836118c8565b73ffffffffffffffffffffffffffffffffffffffff831660009081526006602052604081208054849290610d0a908490611f4b565b9091555050600b54600c546040517fa9059cbb00000000000000000000000000000000000000000000000000000000815273ffffffffffffffffffffffffffffffffffffffff91821660048201526024810185905291169063a9059cbb906044016020604051808303816000875af1158015610d8a573d6000803e3d6000fd5b505050506040513d601f19601f82011682018060405250810190610dae9190611fcd565b50505050565b33600081815260016020908152604080832073ffffffffffffffffffffffffffffffffffffffff8716845290915281205490919083811015610e78576040517f08c379a000000000000000000000000000000000000000000000000000000000815260206004820152602560248201527f45524332303a2064656372656173656420616c6c6f77616e63652062656c6f7760448201527f207a65726f0000000000000000000000000000000000000000000000000000006064820152608401610532565b61085d8286868403611312565b60003361068e818585611615565b600a54600090610100900473ffffffffffffffffffffffffffffffffffffffff16338114610eed576040517f82b4290000000000000000000000000000000000000000000000000000000000815260040160405180910390fd5b3373ffffffffffffffffffffffffffffffffffffffff851603610f3c576040517fddb5de5e00000000000000000000000000000000000000000000000000000000815260040160405180910390fd5b73ffffffffffffffffffffffffffffffffffffffff8416610f89576040517f9fabe1c100000000000000000000000000000000000000000000000000000000815260040160405180910390fd5b600b546040517f70a08231000000000000000000000000000000000000000000000000000000008152336004820152849173ffffffffffffffffffffffffffffffffffffffff16906370a0823190602401602060405180830381865afa158015610ff7573d6000803e3d6000fd5b505050506040513d601f19601f8201168201806040525081019061101b9190611fef565b10156110ee57600b546040517f70a08231000000000000000000000000000000000000000000000000000000008152336004820152849173ffffffffffffffffffffffffffffffffffffffff16906370a0823190602401602060405180830381865afa15801561108f573d6000803e3d6000fd5b505050506040513d601f19601f820116820180604052508101906110b39190611fef565b6040517f7c83fcf000000000000000000000000000000000000000000000000000000000815260048101929092526024820152604401610532565b600b546040517f23b872dd0000000000000000000000000000000000000000000000000000000081523360048201523060248201526044810185905273ffffffffffffffffffffffffffffffffffffffff909116906323b872dd906064016020604051808303816000875af115801561116b573d6000803e3d6000fd5b505050506040513d601f19601f8201168201806040525081019061118f9190611fcd565b5061119a8484611aad565b73ffffffffffffffffffffffffffffffffffffffff8416600090815260066020526040812080548592906111cf908490611f62565b9091555092949350505050565b60055473ffffffffffffffffffffffffffffffffffffffff610100909104163314611263576040517f08c379a000000000000000000000000000000000000000000000000000000000815260206004820181905260248201527f4f776e61626c653a2063616c6c6572206973206e6f7420746865206f776e65726044820152606401610532565b73ffffffffffffffffffffffffffffffffffffffff8116611306576040517f08c379a000000000000000000000000000000000000000000000000000000000815260206004820152602660248201527f4f776e61626c653a206e6577206f776e657220697320746865207a65726f206160448201527f64647265737300000000000000000000000000000000000000000000000000006064820152608401610532565b61130f816114c6565b50565b73ffffffffffffffffffffffffffffffffffffffff83166113b4576040517f08c379a0000000000000000000000000000000000000000000000000000000008152602060048201526024808201527f45524332303a20617070726f76652066726f6d20746865207a65726f2061646460448201527f72657373000000000000000000000000000000000000000000000000000000006064820152608401610532565b73ffffffffffffffffffffffffffffffffffffffff8216611457576040517f08c379a000000000000000000000000000000000000000000000000000000000815260206004820152602260248201527f45524332303a20617070726f766520746f20746865207a65726f20616464726560448201527f73730000000000000000000000000000000000000000000000000000000000006064820152608401610532565b73ffffffffffffffffffffffffffffffffffffffff83811660008181526001602090815260408083209487168084529482529182902085905590518481527f8c5be1e5ebec7d5bd14f71427d1e84f3dd0314c0f7b2291e5b200ac8c7c3b92591015b60405180910390a3505050565b6005805473ffffffffffffffffffffffffffffffffffffffff8381166101008181027fffffffffffffffffffffff0000000000000000000000000000000000000000ff85161790945560405193909204169182907f8be0079c531659141344cd1fd0a4f28419497f9722a3daafe3b4186f6b6457e090600090a35050565b73ffffffffffffffffffffffffffffffffffffffff8381166000908152600160209081526040808320938616835292905220547fffffffffffffffffffffffffffffffffffffffffffffffffffffffffffffffff8114610dae5781811015611608576040517f08c379a000000000000000000000000000000000000000000000000000000000815260206004820152601d60248201527f45524332303a20696e73756666696369656e7420616c6c6f77616e63650000006044820152606401610532565b610dae8484848403611312565b73ffffffffffffffffffffffffffffffffffffffff83166116b8576040517f08c379a000000000000000000000000000000000000000000000000000000000815260206004820152602560248201527f45524332303a207472616e736665722066726f6d20746865207a65726f20616460448201527f64726573730000000000000000000000000000000000000000000000000000006064820152608401610532565b73ffffffffffffffffffffffffffffffffffffffff821661175b576040517f08c379a000000000000000000000000000000000000000000000000000000000815260206004820152602360248201527f45524332303a207472616e7366657220746f20746865207a65726f206164647260448201527f65737300000000000000000000000000000000000000000000000000000000006064820152608401610532565b73ffffffffffffffffffffffffffffffffffffffff831660009081526020819052604090205481811015611811576040517f08c379a000000000000000000000000000000000000000000000000000000000815260206004820152602660248201527f45524332303a207472616e7366657220616d6f756e742065786365656473206260448201527f616c616e636500000000000000000000000000000000000000000000000000006064820152608401610532565b73ffffffffffffffffffffffffffffffffffffffff808516600090815260208190526040808220858503905591851681529081208054849290611855908490611f62565b925050819055508273ffffffffffffffffffffffffffffffffffffffff168473ffffffffffffffffffffffffffffffffffffffff167fddf252ad1be2c89b69c2b068fc378daa952ba7f163c4a11628f55a4df523b3ef846040516118bb91815260200190565b60405180910390a3610dae565b73ffffffffffffffffffffffffffffffffffffffff821661196b576040517f08c379a000000000000000000000000000000000000000000000000000000000815260206004820152602160248201527f45524332303a206275726e2066726f6d20746865207a65726f2061646472657360448201527f73000000000000000000000000000000000000000000000000000000000000006064820152608401610532565b73ffffffffffffffffffffffffffffffffffffffff821660009081526020819052604090205481811015611a21576040517f08c379a000000000000000000000000000000000000000000000000000000000815260206004820152602260248201527f45524332303a206275726e20616d6f756e7420657863656564732062616c616e60448201527f63650000000000000000000000000000000000000000000000000000000000006064820152608401610532565b73ffffffffffffffffffffffffffffffffffffffff83166000908152602081905260408120838303905560028054849290611a5d908490611f4b565b909155505060405182815260009073ffffffffffffffffffffffffffffffffffffffff8516907fddf252ad1be2c89b69c2b068fc378daa952ba7f163c4a11628f55a4df523b3ef906020016114b9565b73ffffffffffffffffffffffffffffffffffffffff8216611b2a576040517f08c379a000000000000000000000000000000000000000000000000000000000815260206004820152601f60248201527f45524332303a206d696e7420746f20746865207a65726f2061646472657373006044820152606401610532565b8060026000828254611b3c9190611f62565b909155505073ffffffffffffffffffffffffffffffffffffffff821660009081526020819052604081208054839290611b76908490611f62565b909155505060405181815273ffffffffffffffffffffffffffffffffffffffff8316906000907fddf252ad1be2c89b69c2b068fc378daa952ba7f163c4a11628f55a4df523b3ef9060200160405180910390a35050565b828054611bd990611f7a565b90600052602060002090601f016020900481019282611bfb5760008555611c41565b82601f10611c1457805160ff1916838001178555611c41565b82800160010185558215611c41579182015b82811115611c41578251825591602001919060010190611c26565b50611c4d929150611c51565b5090565b5b80821115611c4d5760008155600101611c52565b803573ffffffffffffffffffffffffffffffffffffffff81168114611c8a57600080fd5b919050565b60008060408385031215611ca257600080fd5b611cab83611c66565b946020939093013593505050565b600060208083528351808285015260005b81811015611ce657858101830151858201604001528201611cca565b81811115611cf8576000604083870101525b50601f017fffffffffffffffffffffffffffffffffffffffffffffffffffffffffffffffe016929092016040019392505050565b7f4e487b7100000000000000000000000000000000000000000000000000000000600052604160045260246000fd5b600082601f830112611d6c57600080fd5b813567ffffffffffffffff80821115611d8757611d87611d2c565b604051601f83017fffffffffffffffffffffffffffffffffffffffffffffffffffffffffffffffe0908116603f01168101908282118183101715611dcd57611dcd611d2c565b81604052838152866020858801011115611de657600080fd5b836020870160208301376000602085830101528094505050505092915050565b60008060008060808587031215611e1c57600080fd5b843567ffffffffffffffff80821115611e3457600080fd5b611e4088838901611d5b565b95506020870135915080821115611e5657600080fd5b50611e6387828801611d5b565b935050611e7260408601611c66565b9150611e8060608601611c66565b905092959194509250565b600080600060608486031215611ea057600080fd5b611ea984611c66565b9250611eb760208501611c66565b9150604084013590509250925092565b600060208284031215611ed957600080fd5b611ee282611c66565b9392505050565b60008060408385031215611efc57600080fd5b611f0583611c66565b9150611f1360208401611c66565b90509250929050565b7f4e487b7100000000000000000000000000000000000000000000000000000000600052601160045260246000fd5b600082821015611f5d57611f5d611f1c565b500390565b60008219821115611f7557611f75611f1c565b500190565b600181811c90821680611f8e57607f821691505b602082108103611fc7577f4e487b7100000000000000000000000000000000000000000000000000000000600052602260045260246000fd5b50919050565b600060208284031215611fdf57600080fd5b81518015158114611ee257600080fd5b60006020828403121561200157600080fd5b505191905056fea2646970667358221220d2f45bda49e18c2e7effc87e723e8f7b1862aa0f6e93cf192ecaa65dc15af32864736f6c634300080e0033",
  "linkReferences": {},
  "deployedLinkReferences": {}
}