{
  "_format": "hh-sol-artifact-1",
  "contractName": "DoinGudProxy",
  "sourceName": "contracts/DoinGudProxy.sol",
  "abi": [
    {
      "inputs": [],
      "name": "Initialized",
      "type": "error"
    },
    {
      "anonymous": false,
      "inputs": [
        {
          "indexed": false,
          "internalType": "address",
          "name": "previousAdmin",
          "type": "address"
        },
        {
          "indexed": false,
          "internalType": "address",
          "name": "newAdmin",
          "type": "address"
        }
      ],
      "name": "AdminChanged",
      "type": "event"
    },
    {
      "anonymous": false,
      "inputs": [
        {
          "indexed": true,
          "internalType": "address",
          "name": "beacon",
          "type": "address"
        }
      ],
      "name": "BeaconUpgraded",
      "type": "event"
    },
    {
      "anonymous": false,
      "inputs": [
        {
          "indexed": true,
          "internalType": "address",
          "name": "implementation",
          "type": "address"
        }
      ],
      "name": "Upgraded",
      "type": "event"
    },
    {
      "stateMutability": "payable",
      "type": "fallback"
    },
    {
      "inputs": [
        {
          "internalType": "address",
          "name": "_logic",
          "type": "address"
        }
      ],
      "name": "initProxy",
      "outputs": [],
      "stateMutability": "payable",
      "type": "function"
    },
    {
      "inputs": [
        {
          "internalType": "address",
          "name": "_newImplementation",
          "type": "address"
        }
      ],
      "name": "upgradeImplementation",
      "outputs": [],
      "stateMutability": "nonpayable",
      "type": "function"
    },
    {
      "inputs": [],
      "name": "viewImplementation",
      "outputs": [
        {
          "internalType": "address",
          "name": "",
          "type": "address"
        }
      ],
      "stateMutability": "view",
      "type": "function"
    },
    {
      "stateMutability": "payable",
      "type": "receive"
    }
  ],
  "bytecode": "0x608060405234801561001057600080fd5b50610389806100206000396000f3fe6080604052600436106100385760003560e01c80630b156bb61461004f57806383f94db71461008d5780639c020061146100ad57610047565b36610047576100456100c0565b005b6100456100c0565b34801561005b57600080fd5b506100646100d2565b60405173ffffffffffffffffffffffffffffffffffffffff909116815260200160405180910390f35b34801561009957600080fd5b506100456100a8366004610316565b610117565b6100456100bb366004610316565b610123565b6100d06100cb6100d2565b610197565b565b60006101127f360894a13ba1a3210667c828492db98dca3e2076cc3735a920a3ca505d382bbc5473ffffffffffffffffffffffffffffffffffffffff1690565b905090565b610120816101bb565b50565b60005460ff1615610160576040517f5daa87a000000000000000000000000000000000000000000000000000000000815260040160405180910390fd5b610169816101bb565b50600080547fffffffffffffffffffffffffffffffffffffffffffffffffffffffffffffff00166001179055565b3660008037600080366000845af43d6000803e8080156101b6573d6000f35b3d6000fd5b6101c481610208565b60405173ffffffffffffffffffffffffffffffffffffffff8216907fbc7cd75a20ee27fd9adebab32041f755214dbc6bffa90cc0225b39da2e5c2d3b90600090a250565b73ffffffffffffffffffffffffffffffffffffffff81163b6102b0576040517f08c379a000000000000000000000000000000000000000000000000000000000815260206004820152602d60248201527f455243313936373a206e657720696d706c656d656e746174696f6e206973206e60448201527f6f74206120636f6e747261637400000000000000000000000000000000000000606482015260840160405180910390fd5b7f360894a13ba1a3210667c828492db98dca3e2076cc3735a920a3ca505d382bbc80547fffffffffffffffffffffffff00000000000000000000000000000000000000001673ffffffffffffffffffffffffffffffffffffffff92909216919091179055565b60006020828403121561032857600080fd5b813573ffffffffffffffffffffffffffffffffffffffff8116811461034c57600080fd5b939250505056fea2646970667358221220911ab5c7cef94902139401725fa73ef239953abe9365f90d4cbafde6803d370064736f6c634300080f0033",
  "linkReferences": {},
  "deployedLinkReferences": {}
}