{
  "contracts/DoinGudProxy.sol": {
    "DoinGudProxy": {
      "abi": [
        {
          "inputs": [],
          "name": "Initialized",
          "type": "error"
        },
        {
          "anonymous": false,
          "inputs": [
            {
              "indexed": false,
              "internalType": "address",
              "name": "previousAdmin",
              "type": "address"
            },
            {
              "indexed": false,
              "internalType": "address",
              "name": "newAdmin",
              "type": "address"
            }
          ],
          "name": "AdminChanged",
          "type": "event"
        },
        {
          "anonymous": false,
          "inputs": [
            {
              "indexed": true,
              "internalType": "address",
              "name": "beacon",
              "type": "address"
            }
          ],
          "name": "BeaconUpgraded",
          "type": "event"
        },
        {
          "anonymous": false,
          "inputs": [
            {
              "indexed": true,
              "internalType": "address",
              "name": "implementation",
              "type": "address"
            }
          ],
          "name": "Upgraded",
          "type": "event"
        },
        {
          "stateMutability": "payable",
          "type": "fallback"
        },
        {
          "inputs": [
            {
              "internalType": "address",
              "name": "_logic",
              "type": "address"
            }
          ],
          "name": "initProxy",
          "outputs": [],
          "stateMutability": "payable",
          "type": "function"
        },
        {
          "inputs": [
            {
              "internalType": "address",
              "name": "_newImplementation",
              "type": "address"
            }
          ],
          "name": "upgradeImplementation",
          "outputs": [],
          "stateMutability": "nonpayable",
          "type": "function"
        },
        {
          "inputs": [],
          "name": "viewImplementation",
          "outputs": [
            {
              "internalType": "address",
              "name": "",
              "type": "address"
            }
          ],
          "stateMutability": "view",
          "type": "function"
        },
        {
          "stateMutability": "payable",
          "type": "receive"
        }
      ],
      "devdoc": {
        "kind": "dev",
        "methods": {
          "initProxy(address)": {
            "details": "Initializes the upgradeable proxy with an initial implementation specified by `_logic`. If `_data` is nonempty, it's used as data in a delegate call to `_logic`. This will typically be an encoded function call, and allows initializing the storage of the proxy like a Solidity constructor."
          }
        },
        "version": 1
      },
      "evm": {
        "bytecode": {
          "linkReferences": {},
          "object": "608060405234801561001057600080fd5b50610389806100206000396000f3fe6080604052600436106100385760003560e01c80630b156bb61461004f57806383f94db71461008d5780639c020061146100ad57610047565b36610047576100456100c0565b005b6100456100c0565b34801561005b57600080fd5b506100646100d2565b60405173ffffffffffffffffffffffffffffffffffffffff909116815260200160405180910390f35b34801561009957600080fd5b506100456100a8366004610316565b610117565b6100456100bb366004610316565b610123565b6100d06100cb6100d2565b610197565b565b60006101127f360894a13ba1a3210667c828492db98dca3e2076cc3735a920a3ca505d382bbc5473ffffffffffffffffffffffffffffffffffffffff1690565b905090565b610120816101bb565b50565b60005460ff1615610160576040517f5daa87a000000000000000000000000000000000000000000000000000000000815260040160405180910390fd5b610169816101bb565b50600080547fffffffffffffffffffffffffffffffffffffffffffffffffffffffffffffff00166001179055565b3660008037600080366000845af43d6000803e8080156101b6573d6000f35b3d6000fd5b6101c481610208565b60405173ffffffffffffffffffffffffffffffffffffffff8216907fbc7cd75a20ee27fd9adebab32041f755214dbc6bffa90cc0225b39da2e5c2d3b90600090a250565b73ffffffffffffffffffffffffffffffffffffffff81163b6102b0576040517f08c379a000000000000000000000000000000000000000000000000000000000815260206004820152602d60248201527f455243313936373a206e657720696d706c656d656e746174696f6e206973206e60448201527f6f74206120636f6e747261637400000000000000000000000000000000000000606482015260840160405180910390fd5b7f360894a13ba1a3210667c828492db98dca3e2076cc3735a920a3ca505d382bbc80547fffffffffffffffffffffffff00000000000000000000000000000000000000001673ffffffffffffffffffffffffffffffffffffffff92909216919091179055565b60006020828403121561032857600080fd5b813573ffffffffffffffffffffffffffffffffffffffff8116811461034c57600080fd5b939250505056fea2646970667358221220911ab5c7cef94902139401725fa73ef239953abe9365f90d4cbafde6803d370064736f6c634300080f0033",
          "opcodes": "PUSH1 0x80 PUSH1 0x40 MSTORE CALLVALUE DUP1 ISZERO PUSH2 0x10 JUMPI PUSH1 0x0 DUP1 REVERT JUMPDEST POP PUSH2 0x389 DUP1 PUSH2 0x20 PUSH1 0x0 CODECOPY PUSH1 0x0 RETURN INVALID PUSH1 0x80 PUSH1 0x40 MSTORE PUSH1 0x4 CALLDATASIZE LT PUSH2 0x38 JUMPI PUSH1 0x0 CALLDATALOAD PUSH1 0xE0 SHR DUP1 PUSH4 0xB156BB6 EQ PUSH2 0x4F JUMPI DUP1 PUSH4 0x83F94DB7 EQ PUSH2 0x8D JUMPI DUP1 PUSH4 0x9C020061 EQ PUSH2 0xAD JUMPI PUSH2 0x47 JUMP JUMPDEST CALLDATASIZE PUSH2 0x47 JUMPI PUSH2 0x45 PUSH2 0xC0 JUMP JUMPDEST STOP JUMPDEST PUSH2 0x45 PUSH2 0xC0 JUMP JUMPDEST CALLVALUE DUP1 ISZERO PUSH2 0x5B JUMPI PUSH1 0x0 DUP1 REVERT JUMPDEST POP PUSH2 0x64 PUSH2 0xD2 JUMP JUMPDEST PUSH1 0x40 MLOAD PUSH20 0xFFFFFFFFFFFFFFFFFFFFFFFFFFFFFFFFFFFFFFFF SWAP1 SWAP2 AND DUP2 MSTORE PUSH1 0x20 ADD PUSH1 0x40 MLOAD DUP1 SWAP2 SUB SWAP1 RETURN JUMPDEST CALLVALUE DUP1 ISZERO PUSH2 0x99 JUMPI PUSH1 0x0 DUP1 REVERT JUMPDEST POP PUSH2 0x45 PUSH2 0xA8 CALLDATASIZE PUSH1 0x4 PUSH2 0x316 JUMP JUMPDEST PUSH2 0x117 JUMP JUMPDEST PUSH2 0x45 PUSH2 0xBB CALLDATASIZE PUSH1 0x4 PUSH2 0x316 JUMP JUMPDEST PUSH2 0x123 JUMP JUMPDEST PUSH2 0xD0 PUSH2 0xCB PUSH2 0xD2 JUMP JUMPDEST PUSH2 0x197 JUMP JUMPDEST JUMP JUMPDEST PUSH1 0x0 PUSH2 0x112 PUSH32 0x360894A13BA1A3210667C828492DB98DCA3E2076CC3735A920A3CA505D382BBC SLOAD PUSH20 0xFFFFFFFFFFFFFFFFFFFFFFFFFFFFFFFFFFFFFFFF AND SWAP1 JUMP JUMPDEST SWAP1 POP SWAP1 JUMP JUMPDEST PUSH2 0x120 DUP2 PUSH2 0x1BB JUMP JUMPDEST POP JUMP JUMPDEST PUSH1 0x0 SLOAD PUSH1 0xFF AND ISZERO PUSH2 0x160 JUMPI PUSH1 0x40 MLOAD PUSH32 0x5DAA87A000000000000000000000000000000000000000000000000000000000 DUP2 MSTORE PUSH1 0x4 ADD PUSH1 0x40 MLOAD DUP1 SWAP2 SUB SWAP1 REVERT JUMPDEST PUSH2 0x169 DUP2 PUSH2 0x1BB JUMP JUMPDEST POP PUSH1 0x0 DUP1 SLOAD PUSH32 0xFFFFFFFFFFFFFFFFFFFFFFFFFFFFFFFFFFFFFFFFFFFFFFFFFFFFFFFFFFFFFF00 AND PUSH1 0x1 OR SWAP1 SSTORE JUMP JUMPDEST CALLDATASIZE PUSH1 0x0 DUP1 CALLDATACOPY PUSH1 0x0 DUP1 CALLDATASIZE PUSH1 0x0 DUP5 GAS DELEGATECALL RETURNDATASIZE PUSH1 0x0 DUP1 RETURNDATACOPY DUP1 DUP1 ISZERO PUSH2 0x1B6 JUMPI RETURNDATASIZE PUSH1 0x0 RETURN JUMPDEST RETURNDATASIZE PUSH1 0x0 REVERT JUMPDEST PUSH2 0x1C4 DUP2 PUSH2 0x208 JUMP JUMPDEST PUSH1 0x40 MLOAD PUSH20 0xFFFFFFFFFFFFFFFFFFFFFFFFFFFFFFFFFFFFFFFF DUP3 AND SWAP1 PUSH32 0xBC7CD75A20EE27FD9ADEBAB32041F755214DBC6BFFA90CC0225B39DA2E5C2D3B SWAP1 PUSH1 0x0 SWAP1 LOG2 POP JUMP JUMPDEST PUSH20 0xFFFFFFFFFFFFFFFFFFFFFFFFFFFFFFFFFFFFFFFF DUP2 AND EXTCODESIZE PUSH2 0x2B0 JUMPI PUSH1 0x40 MLOAD PUSH32 0x8C379A000000000000000000000000000000000000000000000000000000000 DUP2 MSTORE PUSH1 0x20 PUSH1 0x4 DUP3 ADD MSTORE PUSH1 0x2D PUSH1 0x24 DUP3 ADD MSTORE PUSH32 0x455243313936373A206E657720696D706C656D656E746174696F6E206973206E PUSH1 0x44 DUP3 ADD MSTORE PUSH32 0x6F74206120636F6E747261637400000000000000000000000000000000000000 PUSH1 0x64 DUP3 ADD MSTORE PUSH1 0x84 ADD PUSH1 0x40 MLOAD DUP1 SWAP2 SUB SWAP1 REVERT JUMPDEST PUSH32 0x360894A13BA1A3210667C828492DB98DCA3E2076CC3735A920A3CA505D382BBC DUP1 SLOAD PUSH32 0xFFFFFFFFFFFFFFFFFFFFFFFF0000000000000000000000000000000000000000 AND PUSH20 0xFFFFFFFFFFFFFFFFFFFFFFFFFFFFFFFFFFFFFFFF SWAP3 SWAP1 SWAP3 AND SWAP2 SWAP1 SWAP2 OR SWAP1 SSTORE JUMP JUMPDEST PUSH1 0x0 PUSH1 0x20 DUP3 DUP5 SUB SLT ISZERO PUSH2 0x328 JUMPI PUSH1 0x0 DUP1 REVERT JUMPDEST DUP2 CALLDATALOAD PUSH20 0xFFFFFFFFFFFFFFFFFFFFFFFFFFFFFFFFFFFFFFFF DUP2 AND DUP2 EQ PUSH2 0x34C JUMPI PUSH1 0x0 DUP1 REVERT JUMPDEST SWAP4 SWAP3 POP POP POP JUMP INVALID LOG2 PUSH5 0x6970667358 0x22 SLT KECCAK256 SWAP2 BYTE 0xB5 0xC7 0xCE 0xF9 0x49 MUL SGT SWAP5 ADD PUSH19 0x5FA73EF239953ABE9365F90D4CBAFDE6803D37 STOP PUSH5 0x736F6C6343 STOP ADDMOD 0xF STOP CALLER "
        },
        "gasEstimates": {
          "creation": {
            "codeDepositCost": "181000",
            "executionCost": "226",
            "totalCost": "181226"
          },
          "external": {
            "": "infinite",
            "initProxy(address)": "54678",
            "upgradeImplementation(address)": "28333",
            "viewImplementation()": "2311"
          },
          "internal": {
            "_implementation()": "infinite"
          }
        },
        "methodIdentifiers": {
          "initProxy(address)": "9c020061",
          "upgradeImplementation(address)": "83f94db7",
          "viewImplementation()": "0b156bb6"
        }
      },
      "storageLayout": {
        "storage": [
          {
            "astId": 791,
            "contract": "contracts/DoinGudProxy.sol:DoinGudProxy",
            "label": "_initializedProxy",
            "offset": 0,
            "slot": "0",
            "type": "t_bool"
          }
        ],
        "types": {
          "t_bool": {
            "encoding": "inplace",
            "label": "bool",
            "numberOfBytes": "1"
          }
        }
      },
      "userdoc": {
        "kind": "user",
        "methods": {},
        "version": 1
      }
    }
  }
}