{
  "_format": "hh-sol-artifact-1",
  "contractName": "AMORToken",
  "sourceName": "contracts/AMORToken.sol",
  "abi": [
    {
      "inputs": [],
      "name": "InvalidRate",
      "type": "error"
    },
    {
      "inputs": [],
      "name": "InvalidTaxCollector",
      "type": "error"
    },
    {
      "anonymous": false,
      "inputs": [
        {
          "indexed": true,
          "internalType": "address",
          "name": "owner",
          "type": "address"
        },
        {
          "indexed": true,
          "internalType": "address",
          "name": "spender",
          "type": "address"
        },
        {
          "indexed": false,
          "internalType": "uint256",
          "name": "value",
          "type": "uint256"
        }
      ],
      "name": "Approval",
      "type": "event"
    },
    {
      "anonymous": false,
      "inputs": [
        {
          "indexed": false,
          "internalType": "bool",
          "name": "success",
          "type": "bool"
        },
        {
          "indexed": false,
          "internalType": "address",
          "name": "taxCollector",
          "type": "address"
        },
        {
          "indexed": false,
          "internalType": "uint256",
          "name": "rate",
          "type": "uint256"
        }
      ],
      "name": "Initialized",
      "type": "event"
    },
    {
      "anonymous": false,
      "inputs": [
        {
          "indexed": true,
          "internalType": "address",
          "name": "previousOwner",
          "type": "address"
        },
        {
          "indexed": true,
          "internalType": "address",
          "name": "newOwner",
          "type": "address"
        }
      ],
      "name": "OwnershipTransferred",
      "type": "event"
    },
    {
      "anonymous": false,
      "inputs": [
        {
          "indexed": false,
          "internalType": "address",
          "name": "account",
          "type": "address"
        }
      ],
      "name": "Paused",
      "type": "event"
    },
    {
      "anonymous": false,
      "inputs": [
        {
          "indexed": true,
          "internalType": "address",
          "name": "from",
          "type": "address"
        },
        {
          "indexed": true,
          "internalType": "address",
          "name": "to",
          "type": "address"
        },
        {
          "indexed": false,
          "internalType": "uint256",
          "name": "value",
          "type": "uint256"
        }
      ],
      "name": "Transfer",
      "type": "event"
    },
    {
      "anonymous": false,
      "inputs": [
        {
          "indexed": false,
          "internalType": "address",
          "name": "account",
          "type": "address"
        }
      ],
      "name": "Unpaused",
      "type": "event"
    },
    {
      "inputs": [],
      "name": "BASIS_POINTS",
      "outputs": [
        {
          "internalType": "uint256",
          "name": "",
          "type": "uint256"
        }
      ],
      "stateMutability": "view",
      "type": "function"
    },
    {
      "inputs": [
        {
          "internalType": "address",
          "name": "owner",
          "type": "address"
        },
        {
          "internalType": "address",
          "name": "spender",
          "type": "address"
        }
      ],
      "name": "allowance",
      "outputs": [
        {
          "internalType": "uint256",
          "name": "",
          "type": "uint256"
        }
      ],
      "stateMutability": "view",
      "type": "function"
    },
    {
      "inputs": [
        {
          "internalType": "address",
          "name": "spender",
          "type": "address"
        },
        {
          "internalType": "uint256",
          "name": "amount",
          "type": "uint256"
        }
      ],
      "name": "approve",
      "outputs": [
        {
          "internalType": "bool",
          "name": "",
          "type": "bool"
        }
      ],
      "stateMutability": "nonpayable",
      "type": "function"
    },
    {
      "inputs": [
        {
          "internalType": "address",
          "name": "account",
          "type": "address"
        }
      ],
      "name": "balanceOf",
      "outputs": [
        {
          "internalType": "uint256",
          "name": "",
          "type": "uint256"
        }
      ],
      "stateMutability": "view",
      "type": "function"
    },
    {
      "inputs": [],
      "name": "decimals",
      "outputs": [
        {
          "internalType": "uint8",
          "name": "",
          "type": "uint8"
        }
      ],
      "stateMutability": "view",
      "type": "function"
    },
    {
      "inputs": [
        {
          "internalType": "address",
          "name": "spender",
          "type": "address"
        },
        {
          "internalType": "uint256",
          "name": "subtractedValue",
          "type": "uint256"
        }
      ],
      "name": "decreaseAllowance",
      "outputs": [
        {
          "internalType": "bool",
          "name": "",
          "type": "bool"
        }
      ],
      "stateMutability": "nonpayable",
      "type": "function"
    },
    {
      "inputs": [
        {
          "internalType": "address",
          "name": "spender",
          "type": "address"
        },
        {
          "internalType": "uint256",
          "name": "addedValue",
          "type": "uint256"
        }
      ],
      "name": "increaseAllowance",
      "outputs": [
        {
          "internalType": "bool",
          "name": "",
          "type": "bool"
        }
      ],
      "stateMutability": "nonpayable",
      "type": "function"
    },
    {
      "inputs": [
        {
          "internalType": "string",
          "name": "name",
          "type": "string"
        },
        {
          "internalType": "string",
          "name": "symbol",
          "type": "string"
        },
        {
          "internalType": "address",
          "name": "_initCollector",
          "type": "address"
        },
        {
          "internalType": "uint256",
          "name": "_initTaxRate",
          "type": "uint256"
        },
        {
          "internalType": "address",
          "name": "_multisig",
          "type": "address"
        }
      ],
      "name": "init",
      "outputs": [
        {
          "internalType": "bool",
          "name": "",
          "type": "bool"
        }
      ],
      "stateMutability": "nonpayable",
      "type": "function"
    },
    {
      "inputs": [],
      "name": "name",
      "outputs": [
        {
          "internalType": "string",
          "name": "",
          "type": "string"
        }
      ],
      "stateMutability": "view",
      "type": "function"
    },
    {
      "inputs": [],
      "name": "owner",
      "outputs": [
        {
          "internalType": "address",
          "name": "",
          "type": "address"
        }
      ],
      "stateMutability": "view",
      "type": "function"
    },
    {
      "inputs": [],
      "name": "pause",
      "outputs": [],
      "stateMutability": "nonpayable",
      "type": "function"
    },
    {
      "inputs": [],
      "name": "paused",
      "outputs": [
        {
          "internalType": "bool",
          "name": "",
          "type": "bool"
        }
      ],
      "stateMutability": "view",
      "type": "function"
    },
    {
      "inputs": [],
      "name": "renounceOwnership",
      "outputs": [],
      "stateMutability": "nonpayable",
      "type": "function"
    },
    {
      "inputs": [
        {
          "internalType": "uint256",
          "name": "newRate",
          "type": "uint256"
        }
      ],
      "name": "setTaxRate",
      "outputs": [],
      "stateMutability": "nonpayable",
      "type": "function"
    },
    {
      "inputs": [],
      "name": "symbol",
      "outputs": [
        {
          "internalType": "string",
          "name": "",
          "type": "string"
        }
      ],
      "stateMutability": "view",
      "type": "function"
    },
    {
      "inputs": [],
      "name": "totalSupply",
      "outputs": [
        {
          "internalType": "uint256",
          "name": "",
          "type": "uint256"
        }
      ],
      "stateMutability": "view",
      "type": "function"
    },
    {
      "inputs": [
        {
          "internalType": "address",
          "name": "to",
          "type": "address"
        },
        {
          "internalType": "uint256",
          "name": "amount",
          "type": "uint256"
        }
      ],
      "name": "transfer",
      "outputs": [
        {
          "internalType": "bool",
          "name": "",
          "type": "bool"
        }
      ],
      "stateMutability": "nonpayable",
      "type": "function"
    },
    {
      "inputs": [
        {
          "internalType": "address",
          "name": "from",
          "type": "address"
        },
        {
          "internalType": "address",
          "name": "to",
          "type": "address"
        },
        {
          "internalType": "uint256",
          "name": "amount",
          "type": "uint256"
        }
      ],
      "name": "transferFrom",
      "outputs": [
        {
          "internalType": "bool",
          "name": "",
          "type": "bool"
        }
      ],
      "stateMutability": "nonpayable",
      "type": "function"
    },
    {
      "inputs": [
        {
          "internalType": "address",
          "name": "newOwner",
          "type": "address"
        }
      ],
      "name": "transferOwnership",
      "outputs": [],
      "stateMutability": "nonpayable",
      "type": "function"
    },
    {
      "inputs": [],
      "name": "unpause",
      "outputs": [],
      "stateMutability": "nonpayable",
      "type": "function"
    },
    {
      "inputs": [
        {
          "internalType": "address",
          "name": "newTaxCollector",
          "type": "address"
        }
      ],
      "name": "updateController",
      "outputs": [],
      "stateMutability": "nonpayable",
      "type": "function"
    },
    {
      "inputs": [],
      "name": "viewBasisPoints",
      "outputs": [
        {
          "internalType": "uint256",
          "name": "",
          "type": "uint256"
        }
      ],
      "stateMutability": "pure",
      "type": "function"
    },
    {
      "inputs": [],
      "name": "viewCollector",
      "outputs": [
        {
          "internalType": "address",
          "name": "",
          "type": "address"
        }
      ],
      "stateMutability": "view",
      "type": "function"
    },
    {
      "inputs": [],
      "name": "viewRate",
      "outputs": [
        {
          "internalType": "uint256",
          "name": "",
          "type": "uint256"
        }
      ],
      "stateMutability": "view",
      "type": "function"
    }
  ],
  "bytecode": "0x608060405234801561001057600080fd5b506006805460ff60a01b191690556100273361002c565b61007e565b600780546001600160a01b038381166001600160a01b0319831681179093556040519116919082907f8be0079c531659141344cd1fd0a4f28419497f9722a3daafe3b4186f6b6457e090600090a35050565b611e018061008d6000396000f3fe608060405234801561001057600080fd5b50600436106101985760003560e01c8063715018a6116100e3578063a9059cbb1161008c578063dd62ed3e11610066578063dd62ed3e1461036c578063e1f1c4a7146103b2578063f2fde38b146103bb57600080fd5b8063a9059cbb14610333578063a9c246b314610346578063c6d69a301461035957600080fd5b806395d89b41116100bd57806395d89b4114610310578063a247a09b14610318578063a457c2d71461032057600080fd5b8063715018a6146102e25780638456cb59146102ea5780638da5cb5b146102f257600080fd5b8063313ce567116101455780634a1fdb4c1161011f5780634a1fdb4c1461024a5780635c975abb1461028957806370a08231146102ac57600080fd5b8063313ce56714610220578063395093511461022f5780633f4ba83a1461024257600080fd5b80630addd9ba116101765780630addd9ba146101f357806318160ddd1461020557806323b872dd1461020d57600080fd5b806306cb5b661461019d57806306fdde03146101b2578063095ea7b3146101d0575b600080fd5b6101b06101ab3660046118c3565b6103ce565b005b6101ba6104af565b6040516101c791906118e5565b60405180910390f35b6101e36101de366004611958565b610541565b60405190151581526020016101c7565b6127105b6040519081526020016101c7565b6002546101f7565b6101e361021b366004611982565b61055b565b604051601281526020016101c7565b6101e361023d366004611958565b61057f565b6101b06105cb565b60065473ffffffffffffffffffffffffffffffffffffffff165b60405173ffffffffffffffffffffffffffffffffffffffff90911681526020016101c7565b60065474010000000000000000000000000000000000000000900460ff166101e3565b6101f76102ba3660046118c3565b73ffffffffffffffffffffffffffffffffffffffff1660009081526020819052604090205490565b6101b0610656565b6101b06106e1565b60075473ffffffffffffffffffffffffffffffffffffffff16610264565b6101ba61076a565b6005546101f7565b6101e361032e366004611958565b610779565b6101e3610341366004611958565b61084a565b6101e3610354366004611a98565b610858565b6101b0610367366004611b27565b6109f2565b6101f761037a366004611b40565b73ffffffffffffffffffffffffffffffffffffffff918216600090815260016020908152604080832093909416825291909152205490565b6101f761271081565b6101b06103c93660046118c3565b610ab8565b60075473ffffffffffffffffffffffffffffffffffffffff163314610454576040517f08c379a000000000000000000000000000000000000000000000000000000000815260206004820181905260248201527f4f776e61626c653a2063616c6c6572206973206e6f7420746865206f776e657260448201526064015b60405180910390fd5b3073ffffffffffffffffffffffffffffffffffffffff8216036104a3576040517f1e29712200000000000000000000000000000000000000000000000000000000815260040160405180910390fd5b6104ac81610be5565b50565b6060600380546104be90611b73565b80601f01602080910402602001604051908101604052809291908181526020018280546104ea90611b73565b80156105375780601f1061050c57610100808354040283529160200191610537565b820191906000526020600020905b81548152906001019060200180831161051a57829003601f168201915b5050505050905090565b60003361054f818585610d2e565b60019150505b92915050565b600033610569858285610ee1565b610574858585610fb8565b506001949350505050565b33600081815260016020908152604080832073ffffffffffffffffffffffffffffffffffffffff8716845290915281205490919061054f90829086906105c6908790611bf5565b610d2e565b60075473ffffffffffffffffffffffffffffffffffffffff16331461064c576040517f08c379a000000000000000000000000000000000000000000000000000000000815260206004820181905260248201527f4f776e61626c653a2063616c6c6572206973206e6f7420746865206f776e6572604482015260640161044b565b6106546113ef565b565b60075473ffffffffffffffffffffffffffffffffffffffff1633146106d7576040517f08c379a000000000000000000000000000000000000000000000000000000000815260206004820181905260248201527f4f776e61626c653a2063616c6c6572206973206e6f7420746865206f776e6572604482015260640161044b565b61065460006114e8565b60075473ffffffffffffffffffffffffffffffffffffffff163314610762576040517f08c379a000000000000000000000000000000000000000000000000000000000815260206004820181905260248201527f4f776e61626c653a2063616c6c6572206973206e6f7420746865206f776e6572604482015260640161044b565b61065461155f565b6060600480546104be90611b73565b33600081815260016020908152604080832073ffffffffffffffffffffffffffffffffffffffff871684529091528120549091908381101561083d576040517f08c379a000000000000000000000000000000000000000000000000000000000815260206004820152602560248201527f45524332303a2064656372656173656420616c6c6f77616e63652062656c6f7760448201527f207a65726f000000000000000000000000000000000000000000000000000000606482015260840161044b565b6105748286868403610d2e565b60003361054f818585610fb8565b60075460009074010000000000000000000000000000000000000000900460ff16156108e0576040517f08c379a000000000000000000000000000000000000000000000000000000000815260206004820152601360248201527f416c726561647920696e697469616c697a656400000000000000000000000000604482015260640161044b565b6108e9826114e8565b85516108fc906003906020890190611801565b508451610910906004906020880190611801565b50610933826109216012600a611d2d565b61092e9062989680611d3c565b61164b565b61093c84610be5565b610945836109f2565b600780547fffffffffffffffffffffff00ffffffffffffffffffffffffffffffffffffffff167401000000000000000000000000000000000000000090811791829055604080519190920460ff161515815273ffffffffffffffffffffffffffffffffffffffff861660208201529081018490527fe2caa72f44603dc34ead113bb378c2afee107eaa0becf55010999a23723ced539060600160405180910390a150600195945050505050565b60075473ffffffffffffffffffffffffffffffffffffffff163314610a73576040517f08c379a000000000000000000000000000000000000000000000000000000000815260206004820181905260248201527f4f776e61626c653a2063616c6c6572206973206e6f7420746865206f776e6572604482015260640161044b565b6101f4811115610aaf576040517f6a43f8d100000000000000000000000000000000000000000000000000000000815260040160405180910390fd5b6104ac81600555565b60075473ffffffffffffffffffffffffffffffffffffffff163314610b39576040517f08c379a000000000000000000000000000000000000000000000000000000000815260206004820181905260248201527f4f776e61626c653a2063616c6c6572206973206e6f7420746865206f776e6572604482015260640161044b565b73ffffffffffffffffffffffffffffffffffffffff8116610bdc576040517f08c379a000000000000000000000000000000000000000000000000000000000815260206004820152602660248201527f4f776e61626c653a206e6577206f776e657220697320746865207a65726f206160448201527f6464726573730000000000000000000000000000000000000000000000000000606482015260840161044b565b6104ac816114e8565b60065473ffffffffffffffffffffffffffffffffffffffff90811690821603610c6a576040517f08c379a000000000000000000000000000000000000000000000000000000000815260206004820152600b60248201527f416c726561647920736574000000000000000000000000000000000000000000604482015260640161044b565b73ffffffffffffffffffffffffffffffffffffffff8116610ce7576040517f08c379a000000000000000000000000000000000000000000000000000000000815260206004820152600c60248201527f5a65726f20616464726573730000000000000000000000000000000000000000604482015260640161044b565b600680547fffffffffffffffffffffffff00000000000000000000000000000000000000001673ffffffffffffffffffffffffffffffffffffffff92909216919091179055565b73ffffffffffffffffffffffffffffffffffffffff8316610dd0576040517f08c379a0000000000000000000000000000000000000000000000000000000008152602060048201526024808201527f45524332303a20617070726f76652066726f6d20746865207a65726f2061646460448201527f7265737300000000000000000000000000000000000000000000000000000000606482015260840161044b565b73ffffffffffffffffffffffffffffffffffffffff8216610e73576040517f08c379a000000000000000000000000000000000000000000000000000000000815260206004820152602260248201527f45524332303a20617070726f766520746f20746865207a65726f20616464726560448201527f7373000000000000000000000000000000000000000000000000000000000000606482015260840161044b565b73ffffffffffffffffffffffffffffffffffffffff83811660008181526001602090815260408083209487168084529482529182902085905590518481527f8c5be1e5ebec7d5bd14f71427d1e84f3dd0314c0f7b2291e5b200ac8c7c3b925910160405180910390a3505050565b73ffffffffffffffffffffffffffffffffffffffff8381166000908152600160209081526040808320938616835292905220547fffffffffffffffffffffffffffffffffffffffffffffffffffffffffffffffff8114610fb25781811015610fa5576040517f08c379a000000000000000000000000000000000000000000000000000000000815260206004820152601d60248201527f45524332303a20696e73756666696369656e7420616c6c6f77616e6365000000604482015260640161044b565b610fb28484848403610d2e565b50505050565b73ffffffffffffffffffffffffffffffffffffffff831661105b576040517f08c379a000000000000000000000000000000000000000000000000000000000815260206004820152602560248201527f45524332303a207472616e736665722066726f6d20746865207a65726f20616460448201527f6472657373000000000000000000000000000000000000000000000000000000606482015260840161044b565b73ffffffffffffffffffffffffffffffffffffffff82166110fe576040517f08c379a000000000000000000000000000000000000000000000000000000000815260206004820152602360248201527f45524332303a207472616e7366657220746f20746865207a65726f206164647260448201527f6573730000000000000000000000000000000000000000000000000000000000606482015260840161044b565b611109838383611777565b73ffffffffffffffffffffffffffffffffffffffff8316600090815260208190526040902054818110156111bf576040517f08c379a000000000000000000000000000000000000000000000000000000000815260206004820152602660248201527f45524332303a207472616e7366657220616d6f756e742065786365656473206260448201527f616c616e63650000000000000000000000000000000000000000000000000000606482015260840161044b565b73ffffffffffffffffffffffffffffffffffffffff84166000908152602081905260409020828203905560055415611347576000612710600554846112049190611d3c565b61120e9190611d79565b9050600061121c8285611db4565b60065473ffffffffffffffffffffffffffffffffffffffff16600090815260208190526040812080549293508492909190611258908490611bf5565b909155505060065460405183815273ffffffffffffffffffffffffffffffffffffffff918216918816907fddf252ad1be2c89b69c2b068fc378daa952ba7f163c4a11628f55a4df523b3ef9060200160405180910390a373ffffffffffffffffffffffffffffffffffffffff8516600090815260208190526040812080548392906112e4908490611bf5565b909155505073ffffffffffffffffffffffffffffffffffffffff8086169087167fddf252ad1be2c89b69c2b068fc378daa952ba7f163c4a11628f55a4df523b3ef61132f8588611db4565b60405190815260200160405180910390a35050610fb2565b73ffffffffffffffffffffffffffffffffffffffff83166000908152602081905260408120805484929061137c908490611bf5565b925050819055508273ffffffffffffffffffffffffffffffffffffffff168473ffffffffffffffffffffffffffffffffffffffff167fddf252ad1be2c89b69c2b068fc378daa952ba7f163c4a11628f55a4df523b3ef846040516113e291815260200190565b60405180910390a3610fb2565b60065474010000000000000000000000000000000000000000900460ff16611473576040517f08c379a000000000000000000000000000000000000000000000000000000000815260206004820152601460248201527f5061757361626c653a206e6f7420706175736564000000000000000000000000604482015260640161044b565b600680547fffffffffffffffffffffff00ffffffffffffffffffffffffffffffffffffffff1690557f5db9ee0a495bf2e6ff9c91a7834c1ba4fdd244a5e8aa4e537bd38aeae4b073aa335b60405173ffffffffffffffffffffffffffffffffffffffff909116815260200160405180910390a1565b6007805473ffffffffffffffffffffffffffffffffffffffff8381167fffffffffffffffffffffffff0000000000000000000000000000000000000000831681179093556040519116919082907f8be0079c531659141344cd1fd0a4f28419497f9722a3daafe3b4186f6b6457e090600090a35050565b60065474010000000000000000000000000000000000000000900460ff16156115e4576040517f08c379a000000000000000000000000000000000000000000000000000000000815260206004820152601060248201527f5061757361626c653a2070617573656400000000000000000000000000000000604482015260640161044b565b600680547fffffffffffffffffffffff00ffffffffffffffffffffffffffffffffffffffff16740100000000000000000000000000000000000000001790557f62e78cea01bee320cd4e420270b5ea74000d11b0c9f74754ebdbfc544b05a2586114be3390565b73ffffffffffffffffffffffffffffffffffffffff82166116c8576040517f08c379a000000000000000000000000000000000000000000000000000000000815260206004820152601f60248201527f45524332303a206d696e7420746f20746865207a65726f206164647265737300604482015260640161044b565b6116d460008383611777565b80600260008282546116e69190611bf5565b909155505073ffffffffffffffffffffffffffffffffffffffff821660009081526020819052604081208054839290611720908490611bf5565b909155505060405181815273ffffffffffffffffffffffffffffffffffffffff8316906000907fddf252ad1be2c89b69c2b068fc378daa952ba7f163c4a11628f55a4df523b3ef9060200160405180910390a35050565b60065474010000000000000000000000000000000000000000900460ff16156117fc576040517f08c379a000000000000000000000000000000000000000000000000000000000815260206004820152601060248201527f5061757361626c653a2070617573656400000000000000000000000000000000604482015260640161044b565b505050565b82805461180d90611b73565b90600052602060002090601f01602090048101928261182f5760008555611875565b82601f1061184857805160ff1916838001178555611875565b82800160010185558215611875579182015b8281111561187557825182559160200191906001019061185a565b50611881929150611885565b5090565b5b808211156118815760008155600101611886565b803573ffffffffffffffffffffffffffffffffffffffff811681146118be57600080fd5b919050565b6000602082840312156118d557600080fd5b6118de8261189a565b9392505050565b600060208083528351808285015260005b81811015611912578581018301518582016040015282016118f6565b81811115611924576000604083870101525b50601f017fffffffffffffffffffffffffffffffffffffffffffffffffffffffffffffffe016929092016040019392505050565b6000806040838503121561196b57600080fd5b6119748361189a565b946020939093013593505050565b60008060006060848603121561199757600080fd5b6119a08461189a565b92506119ae6020850161189a565b9150604084013590509250925092565b7f4e487b7100000000000000000000000000000000000000000000000000000000600052604160045260246000fd5b600082601f8301126119fe57600080fd5b813567ffffffffffffffff80821115611a1957611a196119be565b604051601f83017fffffffffffffffffffffffffffffffffffffffffffffffffffffffffffffffe0908116603f01168101908282118183101715611a5f57611a5f6119be565b81604052838152866020858801011115611a7857600080fd5b836020870160208301376000602085830101528094505050505092915050565b600080600080600060a08688031215611ab057600080fd5b853567ffffffffffffffff80821115611ac857600080fd5b611ad489838a016119ed565b96506020880135915080821115611aea57600080fd5b50611af7888289016119ed565b945050611b066040870161189a565b925060608601359150611b1b6080870161189a565b90509295509295909350565b600060208284031215611b3957600080fd5b5035919050565b60008060408385031215611b5357600080fd5b611b5c8361189a565b9150611b6a6020840161189a565b90509250929050565b600181811c90821680611b8757607f821691505b602082108103611bc0577f4e487b7100000000000000000000000000000000000000000000000000000000600052602260045260246000fd5b50919050565b7f4e487b7100000000000000000000000000000000000000000000000000000000600052601160045260246000fd5b60008219821115611c0857611c08611bc6565b500190565b600181815b80851115611c6657817fffffffffffffffffffffffffffffffffffffffffffffffffffffffffffffffff04821115611c4c57611c4c611bc6565b80851615611c5957918102915b93841c9390800290611c12565b509250929050565b600082611c7d57506001610555565b81611c8a57506000610555565b8160018114611ca05760028114611caa57611cc6565b6001915050610555565b60ff841115611cbb57611cbb611bc6565b50506001821b610555565b5060208310610133831016604e8410600b8410161715611ce9575081810a610555565b611cf38383611c0d565b807fffffffffffffffffffffffffffffffffffffffffffffffffffffffffffffffff04821115611d2557611d25611bc6565b029392505050565b60006118de60ff841683611c6e565b6000817fffffffffffffffffffffffffffffffffffffffffffffffffffffffffffffffff0483118215151615611d7457611d74611bc6565b500290565b600082611daf577f4e487b7100000000000000000000000000000000000000000000000000000000600052601260045260246000fd5b500490565b600082821015611dc657611dc6611bc6565b50039056fea2646970667358221220b77dec3ede92db825df00d0446527f5d68b2df9804ee97f4e7b0b0ea9e26f6f864736f6c634300080e0033",
  "linkReferences": {},
  "deployedLinkReferences": {}
}