{
  "_format": "hh-sol-artifact-1",
  "contractName": "AMORTokenProxy",
  "sourceName": "contracts/AMORTokenProxy.sol",
  "abi": [
    {
      "inputs": [
        {
          "internalType": "address",
          "name": "_logic",
          "type": "address"
        },
        {
          "internalType": "bytes",
          "name": "_data",
          "type": "bytes"
        }
      ],
      "stateMutability": "payable",
      "type": "constructor"
    },
    {
      "anonymous": false,
      "inputs": [
        {
          "indexed": false,
          "internalType": "address",
          "name": "previousAdmin",
          "type": "address"
        },
        {
          "indexed": false,
          "internalType": "address",
          "name": "newAdmin",
          "type": "address"
        }
      ],
      "name": "AdminChanged",
      "type": "event"
    },
    {
      "anonymous": false,
      "inputs": [
        {
          "indexed": true,
          "internalType": "address",
          "name": "beacon",
          "type": "address"
        }
      ],
      "name": "BeaconUpgraded",
      "type": "event"
    },
    {
      "anonymous": false,
      "inputs": [
        {
          "indexed": true,
          "internalType": "address",
          "name": "previousOwner",
          "type": "address"
        },
        {
          "indexed": true,
          "internalType": "address",
          "name": "newOwner",
          "type": "address"
        }
      ],
      "name": "OwnershipTransferred",
      "type": "event"
    },
    {
      "anonymous": false,
      "inputs": [
        {
          "indexed": true,
          "internalType": "address",
          "name": "implementation",
          "type": "address"
        }
      ],
      "name": "Upgraded",
      "type": "event"
    },
    {
      "stateMutability": "payable",
      "type": "fallback"
    },
    {
      "inputs": [],
      "name": "getImplementation",
      "outputs": [
        {
          "internalType": "address",
          "name": "",
          "type": "address"
        }
      ],
      "stateMutability": "view",
      "type": "function"
    },
    {
      "inputs": [],
      "name": "owner",
      "outputs": [
        {
          "internalType": "address",
          "name": "",
          "type": "address"
        }
      ],
      "stateMutability": "view",
      "type": "function"
    },
    {
      "inputs": [],
      "name": "renounceOwnership",
      "outputs": [],
      "stateMutability": "nonpayable",
      "type": "function"
    },
    {
      "inputs": [
        {
          "internalType": "address",
          "name": "newOwner",
          "type": "address"
        }
      ],
      "name": "transferOwnership",
      "outputs": [],
      "stateMutability": "nonpayable",
      "type": "function"
    },
    {
      "inputs": [
        {
          "internalType": "address",
          "name": "_newImplementation",
          "type": "address"
        }
      ],
      "name": "upgradeTo",
      "outputs": [
        {
          "internalType": "bool",
          "name": "",
          "type": "bool"
        }
      ],
      "stateMutability": "nonpayable",
      "type": "function"
    },
    {
      "stateMutability": "payable",
      "type": "receive"
    }
  ],
  "bytecode": "0x608060405260405162000e7638038062000e768339810160408190526200002691620003e5565b81816200005560017f360894a13ba1a3210667c828492db98dca3e2076cc3735a920a3ca505d382bbd620004c0565b60008051602062000e2f83398151915214620000755762000075620004e6565b6200008382826000620000a4565b5062000091905033620000e1565b6200009c33620000e1565b50506200054f565b620000af8362000131565b600082511180620000bd5750805b15620000dc57620000da83836200017360201b620003ea1760201c565b505b505050565b600080546001600160a01b038381166001600160a01b0319831681178455604051919092169283917f8be0079c531659141344cd1fd0a4f28419497f9722a3daafe3b4186f6b6457e09190a35050565b6200013c81620001a2565b6040516001600160a01b038216907fbc7cd75a20ee27fd9adebab32041f755214dbc6bffa90cc0225b39da2e5c2d3b90600090a250565b60606200019b838360405180606001604052806027815260200162000e4f602791396200026a565b9392505050565b620001b8816200035060201b620004161760201c565b620002205760405162461bcd60e51b815260206004820152602d60248201527f455243313936373a206e657720696d706c656d656e746174696f6e206973206e60448201526c1bdd08184818dbdb9d1c9858dd609a1b60648201526084015b60405180910390fd5b806200024960008051602062000e2f83398151915260001b6200035f60201b620004321760201c565b80546001600160a01b0319166001600160a01b039290921691909117905550565b60606001600160a01b0384163b620002d45760405162461bcd60e51b815260206004820152602660248201527f416464726573733a2064656c65676174652063616c6c20746f206e6f6e2d636f6044820152651b9d1c9858dd60d21b606482015260840162000217565b600080856001600160a01b031685604051620002f19190620004fc565b600060405180830381855af49150503d80600081146200032e576040519150601f19603f3d011682016040523d82523d6000602084013e62000333565b606091505b5090925090506200034682828662000362565b9695505050505050565b6001600160a01b03163b151590565b90565b60608315620003735750816200019b565b825115620003845782518084602001fd5b8160405162461bcd60e51b81526004016200021791906200051a565b634e487b7160e01b600052604160045260246000fd5b60005b83811015620003d3578181015183820152602001620003b9565b83811115620000da5750506000910152565b60008060408385031215620003f957600080fd5b82516001600160a01b03811681146200041157600080fd5b60208401519092506001600160401b03808211156200042f57600080fd5b818501915085601f8301126200044457600080fd5b815181811115620004595762000459620003a0565b604051601f8201601f19908116603f01168101908382118183101715620004845762000484620003a0565b816040528281528860208487010111156200049e57600080fd5b620004b1836020830160208801620003b6565b80955050505050509250929050565b600082821015620004e157634e487b7160e01b600052601160045260246000fd5b500390565b634e487b7160e01b600052600160045260246000fd5b6000825162000510818460208701620003b6565b9190910192915050565b60208152600082518060208401526200053b816040850160208701620003b6565b601f01601f19169190910160400192915050565b6108d0806200055f6000396000f3fe60806040526004361061005e5760003560e01c80638da5cb5b116100435780638da5cb5b146100bf578063aaf10f421461010b578063f2fde38b146101205761006d565b80633659cfe614610075578063715018a6146100aa5761006d565b3661006d5761006b610140565b005b61006b610140565b34801561008157600080fd5b506100956100903660046107a0565b610152565b60405190151581526020015b60405180910390f35b3480156100b657600080fd5b5061006b6101ea565b3480156100cb57600080fd5b5060005473ffffffffffffffffffffffffffffffffffffffff165b60405173ffffffffffffffffffffffffffffffffffffffff90911681526020016100a1565b34801561011757600080fd5b506100e6610275565b34801561012c57600080fd5b5061006b61013b3660046107a0565b6102ba565b61015061014b610275565b610435565b565b6000805473ffffffffffffffffffffffffffffffffffffffff1633146101d9576040517f08c379a000000000000000000000000000000000000000000000000000000000815260206004820181905260248201527f4f776e61626c653a2063616c6c6572206973206e6f7420746865206f776e657260448201526064015b60405180910390fd5b6101e282610459565b506001919050565b60005473ffffffffffffffffffffffffffffffffffffffff16331461026b576040517f08c379a000000000000000000000000000000000000000000000000000000000815260206004820181905260248201527f4f776e61626c653a2063616c6c6572206973206e6f7420746865206f776e657260448201526064016101d0565b61015060006104a6565b60006102b57f360894a13ba1a3210667c828492db98dca3e2076cc3735a920a3ca505d382bbc5473ffffffffffffffffffffffffffffffffffffffff1690565b905090565b60005473ffffffffffffffffffffffffffffffffffffffff16331461033b576040517f08c379a000000000000000000000000000000000000000000000000000000000815260206004820181905260248201527f4f776e61626c653a2063616c6c6572206973206e6f7420746865206f776e657260448201526064016101d0565b73ffffffffffffffffffffffffffffffffffffffff81166103de576040517f08c379a000000000000000000000000000000000000000000000000000000000815260206004820152602660248201527f4f776e61626c653a206e6577206f776e657220697320746865207a65726f206160448201527f646472657373000000000000000000000000000000000000000000000000000060648201526084016101d0565b6103e7816104a6565b50565b606061040f83836040518060600160405280602781526020016108746027913961051b565b9392505050565b73ffffffffffffffffffffffffffffffffffffffff163b151590565b90565b3660008037600080366000845af43d6000803e808015610454573d6000f35b3d6000fd5b61046281610643565b60405173ffffffffffffffffffffffffffffffffffffffff8216907fbc7cd75a20ee27fd9adebab32041f755214dbc6bffa90cc0225b39da2e5c2d3b90600090a250565b6000805473ffffffffffffffffffffffffffffffffffffffff8381167fffffffffffffffffffffffff0000000000000000000000000000000000000000831681178455604051919092169283917f8be0079c531659141344cd1fd0a4f28419497f9722a3daafe3b4186f6b6457e09190a35050565b606073ffffffffffffffffffffffffffffffffffffffff84163b6105c1576040517f08c379a000000000000000000000000000000000000000000000000000000000815260206004820152602660248201527f416464726573733a2064656c65676174652063616c6c20746f206e6f6e2d636f60448201527f6e7472616374000000000000000000000000000000000000000000000000000060648201526084016101d0565b6000808573ffffffffffffffffffffffffffffffffffffffff16856040516105e99190610806565b600060405180830381855af49150503d8060008114610624576040519150601f19603f3d011682016040523d82523d6000602084013e610629565b606091505b509150915061063982828661074d565b9695505050505050565b73ffffffffffffffffffffffffffffffffffffffff81163b6106e7576040517f08c379a000000000000000000000000000000000000000000000000000000000815260206004820152602d60248201527f455243313936373a206e657720696d706c656d656e746174696f6e206973206e60448201527f6f74206120636f6e74726163740000000000000000000000000000000000000060648201526084016101d0565b7f360894a13ba1a3210667c828492db98dca3e2076cc3735a920a3ca505d382bbc80547fffffffffffffffffffffffff00000000000000000000000000000000000000001673ffffffffffffffffffffffffffffffffffffffff92909216919091179055565b6060831561075c57508161040f565b82511561076c5782518084602001fd5b816040517f08c379a00000000000000000000000000000000000000000000000000000000081526004016101d09190610822565b6000602082840312156107b257600080fd5b813573ffffffffffffffffffffffffffffffffffffffff8116811461040f57600080fd5b60005b838110156107f15781810151838201526020016107d9565b83811115610800576000848401525b50505050565b600082516108188184602087016107d6565b9190910192915050565b60208152600082518060208401526108418160408501602087016107d6565b601f017fffffffffffffffffffffffffffffffffffffffffffffffffffffffffffffffe016919091016040019291505056fe416464726573733a206c6f772d6c6576656c2064656c65676174652063616c6c206661696c6564a26469706673582212201c199bbb2aa9f554114165dcbaaa6c8f901887899462dd2ceb5808861f014c2564736f6c634300080e0033360894a13ba1a3210667c828492db98dca3e2076cc3735a920a3ca505d382bbc416464726573733a206c6f772d6c6576656c2064656c65676174652063616c6c206661696c6564",
  "linkReferences": {},
  "deployedLinkReferences": {}
}