{
  "_format": "hh-sol-artifact-1",
  "contractName": "GuildController",
  "sourceName": "contracts/GuildController.sol",
  "abi": [
    {
      "inputs": [],
      "name": "AddressZero",
      "type": "error"
    },
    {
      "inputs": [],
      "name": "EmptyArray",
      "type": "error"
    },
    {
      "inputs": [],
      "name": "InvalidAmount",
      "type": "error"
    },
    {
      "inputs": [],
      "name": "InvalidParameters",
      "type": "error"
    },
    {
      "inputs": [],
      "name": "InvalidSender",
      "type": "error"
    },
    {
      "inputs": [],
      "name": "ReportNotExists",
      "type": "error"
    },
    {
      "inputs": [],
      "name": "Unauthorized",
      "type": "error"
    },
    {
      "inputs": [],
      "name": "VotingTimeExpired",
      "type": "error"
    },
    {
      "inputs": [],
      "name": "VotingTimeNotFinished",
      "type": "error"
    },
    {
      "anonymous": false,
      "inputs": [
        {
          "indexed": false,
          "internalType": "bool",
          "name": "success",
          "type": "bool"
        },
        {
          "indexed": false,
          "internalType": "address",
          "name": "owner",
          "type": "address"
        },
        {
          "indexed": false,
          "internalType": "address",
          "name": "AMORxGuild",
          "type": "address"
        }
      ],
      "name": "Initialized",
      "type": "event"
    },
    {
      "inputs": [],
      "name": "FEE_DENOMINATOR",
      "outputs": [
        {
          "internalType": "uint256",
          "name": "",
          "type": "uint256"
        }
      ],
      "stateMutability": "view",
      "type": "function"
    },
    {
      "inputs": [],
      "name": "FXAMORxGuild",
      "outputs": [
        {
          "internalType": "address",
          "name": "",
          "type": "address"
        }
      ],
      "stateMutability": "view",
      "type": "function"
    },
    {
      "inputs": [],
      "name": "VOTING_TIME",
      "outputs": [
        {
          "internalType": "uint256",
          "name": "",
          "type": "uint256"
        }
      ],
      "stateMutability": "view",
      "type": "function"
    },
    {
      "inputs": [
        {
          "internalType": "uint256",
          "name": "amount",
          "type": "uint256"
        }
      ],
      "name": "donate",
      "outputs": [
        {
          "internalType": "uint256",
          "name": "",
          "type": "uint256"
        }
      ],
      "stateMutability": "nonpayable",
      "type": "function"
    },
    {
      "inputs": [],
      "name": "guild",
      "outputs": [
        {
          "internalType": "address",
          "name": "",
          "type": "address"
        }
      ],
      "stateMutability": "view",
      "type": "function"
    },
    {
      "inputs": [
        {
          "internalType": "address",
          "name": "initOwner_",
          "type": "address"
        },
        {
          "internalType": "address",
          "name": "AMORxGuild_",
          "type": "address"
        },
        {
          "internalType": "address",
          "name": "FXAMORxGuild_",
          "type": "address"
        },
        {
          "internalType": "address",
          "name": "guild_",
          "type": "address"
        },
        {
          "internalType": "address",
          "name": "firstImpactMaker",
          "type": "address"
        }
      ],
      "name": "init",
      "outputs": [
        {
          "internalType": "bool",
          "name": "",
          "type": "bool"
        }
      ],
      "stateMutability": "nonpayable",
      "type": "function"
    },
    {
      "inputs": [],
      "name": "owner",
      "outputs": [
        {
          "internalType": "address",
          "name": "",
          "type": "address"
        }
      ],
      "stateMutability": "view",
      "type": "function"
    },
    {
      "inputs": [],
      "name": "percentToConvert",
      "outputs": [
        {
          "internalType": "uint256",
          "name": "",
          "type": "uint256"
        }
      ],
      "stateMutability": "view",
      "type": "function"
    },
    {
      "inputs": [
        {
          "internalType": "uint256",
          "name": "",
          "type": "uint256"
        }
      ],
      "name": "reportsAuthors",
      "outputs": [
        {
          "internalType": "address",
          "name": "",
          "type": "address"
        }
      ],
      "stateMutability": "view",
      "type": "function"
    },
    {
      "inputs": [
        {
          "internalType": "uint256",
          "name": "",
          "type": "uint256"
        }
      ],
      "name": "reportsVoting",
      "outputs": [
        {
          "internalType": "uint256",
          "name": "",
          "type": "uint256"
        }
      ],
      "stateMutability": "view",
      "type": "function"
    },
    {
      "inputs": [
        {
          "internalType": "uint256",
          "name": "",
          "type": "uint256"
        }
      ],
      "name": "reportsWeight",
      "outputs": [
        {
          "internalType": "uint256",
          "name": "",
          "type": "uint256"
        }
      ],
      "stateMutability": "view",
      "type": "function"
    },
    {
      "inputs": [],
      "name": "totalReportsWeight",
      "outputs": [
        {
          "internalType": "uint256",
          "name": "",
          "type": "uint256"
        }
      ],
      "stateMutability": "view",
      "type": "function"
    },
    {
      "inputs": [
        {
          "internalType": "uint256",
          "name": "",
          "type": "uint256"
        },
        {
          "internalType": "uint256",
          "name": "",
          "type": "uint256"
        }
      ],
      "name": "voters",
      "outputs": [
        {
          "internalType": "address",
          "name": "",
          "type": "address"
        }
      ],
      "stateMutability": "view",
      "type": "function"
    },
    {
      "inputs": [
        {
          "internalType": "uint256",
          "name": "",
          "type": "uint256"
        },
        {
          "internalType": "address",
          "name": "",
          "type": "address"
        }
      ],
      "name": "votes",
      "outputs": [
        {
          "internalType": "uint256",
          "name": "",
          "type": "uint256"
        }
      ],
      "stateMutability": "view",
      "type": "function"
    }
  ],
  "bytecode": "0x60806040526064600f5534801561001557600080fd5b50610b7f806100256000396000f3fe608060405234801561001057600080fd5b50600436106100ea5760003560e01c8063b5a132b41161008c578063d73792a911610066578063d73792a914610244578063dc37bc7d1461024d578063f14faf6f14610256578063fba00cbd1461026957600080fd5b8063b5a132b4146101f0578063c12a03b114610210578063d23254b41461021957600080fd5b80636a067a49116100c85780636a067a491461018a5780636c2101dd1461019d5780638da5cb5b146101b0578063b209659b146101d057600080fd5b80630ba796de146100ef57806332f0b8fa1461014f578063359ef75b14610167575b600080fd5b6101256100fd3660046108ed565b60046020526000908152604090205473ffffffffffffffffffffffffffffffffffffffff1681565b60405173ffffffffffffffffffffffffffffffffffffffff90911681526020015b60405180910390f35b61015962093a8081565b604051908152602001610146565b61017a61017536600461092f565b61027c565b6040519015158152602001610146565b6101596101983660046108ed565b610428565b6101596101ab3660046108ed565b610449565b600b546101259073ffffffffffffffffffffffffffffffffffffffff1681565b600c546101259073ffffffffffffffffffffffffffffffffffffffff1681565b600d546101259073ffffffffffffffffffffffffffffffffffffffff1681565b61015960055481565b610159610227366004610994565b600160209081526000928352604080842090915290825290205481565b6101596103e881565b610159600f5481565b6101596102643660046108ed565b610459565b6101256102773660046109c0565b6108a8565b60105460009060ff16156102f0576040517f08c379a000000000000000000000000000000000000000000000000000000000815260206004820152601360248201527f416c726561647920696e697469616c697a656400000000000000000000000000604482015260640160405180910390fd5b600b80547fffffffffffffffffffffffff000000000000000000000000000000000000000090811673ffffffffffffffffffffffffffffffffffffffff898116918217909355600e80548316898516908117909155600c80548416898616179055600d805484168886161790556006805460018181019092557ff652222313e28459528d920b65115c16c04f3efc82aaedc97be59f3f377c0d3f0180549094169487169485179093556000938452600860209081526040948590208490556009849055601080547fffffffffffffffffffffffffffffffffffffffffffffffffffffffffffffff0016851790558451938452830191909152918101919091527fc87c04922c077302cf4c93ca0785707d2272b98c125c11c3c98f545718f3e27c9060600160405180910390a150600195945050505050565b6000818154811061043857600080fd5b600091825260209091200154905081565b6003818154811061043857600080fd5b600e546040517f70a08231000000000000000000000000000000000000000000000000000000008152336004820152600091839173ffffffffffffffffffffffffffffffffffffffff909116906370a0823190602401602060405180830381865afa1580156104cc573d6000803e3d6000fd5b505050506040513d601f19601f820116820180604052508101906104f091906109e2565b1015610528576040517f2c5211c600000000000000000000000000000000000000000000000000000000815260040160405180910390fd5b60006103e8600f548461053b9190610a2a565b6105459190610a67565b600e546040517f23b872dd0000000000000000000000000000000000000000000000000000000081523360048201523060248201526044810183905291925073ffffffffffffffffffffffffffffffffffffffff16906323b872dd906064016020604051808303816000875af11580156105c3573d6000803e3d6000fd5b505050506040513d601f19601f820116820180604052508101906105e79190610aa2565b50600e54600c546040517f095ea7b300000000000000000000000000000000000000000000000000000000815273ffffffffffffffffffffffffffffffffffffffff91821660048201526024810184905291169063095ea7b3906044016020604051808303816000875af1158015610663573d6000803e3d6000fd5b505050506040513d601f19601f820116820180604052508101906106879190610aa2565b50600c546040517fadc9772e0000000000000000000000000000000000000000000000000000000081523360048201526024810183905273ffffffffffffffffffffffffffffffffffffffff9091169063adc9772e906044016020604051808303816000875af11580156106ff573d6000803e3d6000fd5b505050506040513d601f19601f8201168201806040525081019061072391906109e2565b5060006107308285610acb565b905060005b60065481101561089f576000600954600860006006858154811061075b5761075b610ae2565b600091825260208083209091015473ffffffffffffffffffffffffffffffffffffffff1683528201929092526040019020546107979190610a67565b905060006107a58285610a2a565b600e546006805492935073ffffffffffffffffffffffffffffffffffffffff909116916323b872dd913391879081106107e0576107e0610ae2565b60009182526020909120015460405160e084901b7fffffffff0000000000000000000000000000000000000000000000000000000016815273ffffffffffffffffffffffffffffffffffffffff928316600482015291166024820152604481018490526064016020604051808303816000875af1158015610865573d6000803e3d6000fd5b505050506040513d601f19601f820116820180604052508101906108899190610aa2565b505050808061089790610b11565b915050610735565b50929392505050565b600260205281600052604060002081815481106108c457600080fd5b60009182526020909120015473ffffffffffffffffffffffffffffffffffffffff169150829050565b6000602082840312156108ff57600080fd5b5035919050565b803573ffffffffffffffffffffffffffffffffffffffff8116811461092a57600080fd5b919050565b600080600080600060a0868803121561094757600080fd5b61095086610906565b945061095e60208701610906565b935061096c60408701610906565b925061097a60608701610906565b915061098860808701610906565b90509295509295909350565b600080604083850312156109a757600080fd5b823591506109b760208401610906565b90509250929050565b600080604083850312156109d357600080fd5b50508035926020909101359150565b6000602082840312156109f457600080fd5b5051919050565b7f4e487b7100000000000000000000000000000000000000000000000000000000600052601160045260246000fd5b6000817fffffffffffffffffffffffffffffffffffffffffffffffffffffffffffffffff0483118215151615610a6257610a626109fb565b500290565b600082610a9d577f4e487b7100000000000000000000000000000000000000000000000000000000600052601260045260246000fd5b500490565b600060208284031215610ab457600080fd5b81518015158114610ac457600080fd5b9392505050565b600082821015610add57610add6109fb565b500390565b7f4e487b7100000000000000000000000000000000000000000000000000000000600052603260045260246000fd5b60007fffffffffffffffffffffffffffffffffffffffffffffffffffffffffffffffff8203610b4257610b426109fb565b506001019056fea26469706673582212205c175abeb15f34e6bb7d6abd34100e0af75e918801171b3f500f62860a37a60a64736f6c634300080f0033",
  "linkReferences": {},
  "deployedLinkReferences": {}
}