{
  "_format": "hh-sol-artifact-1",
  "contractName": "GuildController",
  "sourceName": "contracts/GuildController.sol",
  "abi": [
    {
      "inputs": [],
      "name": "AddressZero",
      "type": "error"
    },
    {
      "inputs": [],
      "name": "EmptyArray",
      "type": "error"
    },
    {
      "inputs": [],
      "name": "InvalidAmount",
      "type": "error"
    },
    {
      "inputs": [],
      "name": "InvalidParameters",
      "type": "error"
    },
    {
      "inputs": [],
      "name": "InvalidSender",
      "type": "error"
    },
    {
      "inputs": [],
      "name": "ReportNotExists",
      "type": "error"
    },
    {
      "inputs": [],
      "name": "Unauthorized",
      "type": "error"
    },
    {
      "inputs": [],
      "name": "VotingTimeExpired",
      "type": "error"
    },
    {
      "inputs": [],
      "name": "VotingTimeNotFinished",
      "type": "error"
    },
    {
      "anonymous": false,
      "inputs": [
        {
          "indexed": false,
          "internalType": "bool",
          "name": "success",
          "type": "bool"
        },
        {
          "indexed": false,
          "internalType": "address",
          "name": "owner",
          "type": "address"
        },
        {
          "indexed": false,
          "internalType": "address",
          "name": "AMORxGuild",
          "type": "address"
        }
      ],
      "name": "Initialized",
      "type": "event"
    },
    {
      "inputs": [],
      "name": "FEE_DENOMINATOR",
      "outputs": [
        {
          "internalType": "uint256",
          "name": "",
          "type": "uint256"
        }
      ],
      "stateMutability": "view",
      "type": "function"
    },
    {
      "inputs": [],
      "name": "FXAMORxGuild",
      "outputs": [
        {
          "internalType": "address",
          "name": "",
          "type": "address"
        }
      ],
      "stateMutability": "view",
      "type": "function"
    },
    {
      "inputs": [],
      "name": "VOTING_TIME",
      "outputs": [
        {
          "internalType": "uint256",
          "name": "",
          "type": "uint256"
        }
      ],
      "stateMutability": "view",
      "type": "function"
    },
    {
      "inputs": [
        {
          "internalType": "bytes32",
          "name": "report",
          "type": "bytes32"
        },
        {
          "internalType": "uint8",
          "name": "v",
          "type": "uint8"
        },
        {
          "internalType": "bytes32",
          "name": "r",
          "type": "bytes32"
        },
        {
          "internalType": "bytes32",
          "name": "s",
          "type": "bytes32"
        }
      ],
      "name": "addReport",
      "outputs": [],
      "stateMutability": "nonpayable",
      "type": "function"
    },
    {
      "inputs": [
        {
          "internalType": "uint256",
          "name": "amount",
          "type": "uint256"
        }
      ],
      "name": "donate",
      "outputs": [
        {
          "internalType": "uint256",
          "name": "",
          "type": "uint256"
        }
      ],
      "stateMutability": "nonpayable",
      "type": "function"
    },
    {
      "inputs": [
        {
          "internalType": "uint256",
          "name": "id",
          "type": "uint256"
        }
      ],
      "name": "finalizeReportVoting",
      "outputs": [],
      "stateMutability": "nonpayable",
      "type": "function"
    },
    {
      "inputs": [],
      "name": "guild",
      "outputs": [
        {
          "internalType": "address",
          "name": "",
          "type": "address"
        }
      ],
      "stateMutability": "view",
      "type": "function"
    },
    {
      "inputs": [
        {
          "internalType": "address",
          "name": "initOwner_",
          "type": "address"
        },
        {
          "internalType": "address",
          "name": "AMORxGuild_",
          "type": "address"
        },
        {
          "internalType": "address",
          "name": "FXAMORxGuild_",
          "type": "address"
        },
        {
          "internalType": "address",
          "name": "guild_",
          "type": "address"
        },
        {
          "internalType": "address",
          "name": "firstImpactMaker",
          "type": "address"
        }
      ],
      "name": "init",
      "outputs": [
        {
          "internalType": "bool",
          "name": "",
          "type": "bool"
        }
      ],
      "stateMutability": "nonpayable",
      "type": "function"
    },
    {
      "inputs": [],
      "name": "owner",
      "outputs": [
        {
          "internalType": "address",
          "name": "",
          "type": "address"
        }
      ],
      "stateMutability": "view",
      "type": "function"
    },
    {
      "inputs": [],
      "name": "percentToConvert",
      "outputs": [
        {
          "internalType": "uint256",
          "name": "",
          "type": "uint256"
        }
      ],
      "stateMutability": "view",
      "type": "function"
    },
    {
      "inputs": [
        {
          "internalType": "uint256",
          "name": "",
          "type": "uint256"
        }
      ],
      "name": "reportsAuthors",
      "outputs": [
        {
          "internalType": "address",
          "name": "",
          "type": "address"
        }
      ],
      "stateMutability": "view",
      "type": "function"
    },
    {
      "inputs": [
        {
          "internalType": "uint256",
          "name": "",
          "type": "uint256"
        }
      ],
      "name": "reportsVoting",
      "outputs": [
        {
          "internalType": "uint256",
          "name": "",
          "type": "uint256"
        }
      ],
      "stateMutability": "view",
      "type": "function"
    },
    {
      "inputs": [
        {
          "internalType": "uint256",
          "name": "",
          "type": "uint256"
        }
      ],
      "name": "reportsWeight",
      "outputs": [
        {
          "internalType": "uint256",
          "name": "",
          "type": "uint256"
        }
      ],
      "stateMutability": "view",
      "type": "function"
    },
    {
      "inputs": [],
      "name": "totalReportsWeight",
      "outputs": [
        {
          "internalType": "uint256",
          "name": "",
          "type": "uint256"
        }
      ],
      "stateMutability": "view",
      "type": "function"
    },
    {
      "inputs": [
        {
          "internalType": "uint256",
          "name": "id",
          "type": "uint256"
        },
        {
          "internalType": "uint256",
          "name": "amount",
          "type": "uint256"
        },
        {
          "internalType": "bool",
          "name": "sign",
          "type": "bool"
        }
      ],
      "name": "voteForReport",
      "outputs": [],
      "stateMutability": "nonpayable",
      "type": "function"
    },
    {
      "inputs": [
        {
          "internalType": "uint256",
          "name": "",
          "type": "uint256"
        },
        {
          "internalType": "uint256",
          "name": "",
          "type": "uint256"
        }
      ],
      "name": "voters",
      "outputs": [
        {
          "internalType": "address",
          "name": "",
          "type": "address"
        }
      ],
      "stateMutability": "view",
      "type": "function"
    },
    {
      "inputs": [
        {
          "internalType": "uint256",
          "name": "",
          "type": "uint256"
        },
        {
          "internalType": "address",
          "name": "",
          "type": "address"
        }
      ],
      "name": "votes",
      "outputs": [
        {
          "internalType": "uint256",
          "name": "",
          "type": "uint256"
        }
      ],
      "stateMutability": "view",
      "type": "function"
    }
  ],
  "bytecode": "0x60806040526064600f5534801561001557600080fd5b50611a4f806100256000396000f3fe608060405234801561001057600080fd5b506004361061011b5760003560e01c8063b209659b116100b2578063d73792a911610081578063f14faf6f11610066578063f14faf6f146102af578063fba00cbd146102c2578063fc0a8438146102d557600080fd5b8063d73792a91461029d578063dc37bc7d146102a657600080fd5b8063b209659b14610229578063b5a132b414610249578063c12a03b114610269578063d23254b41461027257600080fd5b8063435680a2116100ee578063435680a2146101d05780636a067a49146101e35780636c2101dd146101f65780638da5cb5b1461020957600080fd5b80630ba796de1461012057806332f0b8fa14610180578063359ef75b1461019857806342ddfebe146101bb575b600080fd5b61015661012e3660046116dc565b60046020526000908152604090205473ffffffffffffffffffffffffffffffffffffffff1681565b60405173ffffffffffffffffffffffffffffffffffffffff90911681526020015b60405180910390f35b61018a62093a8081565b604051908152602001610177565b6101ab6101a636600461171e565b6102e8565b6040519015158152602001610177565b6101ce6101c93660046116dc565b610494565b005b6101ce6101de366004611794565b610c75565b61018a6101f13660046116dc565b610ff3565b61018a6102043660046116dc565b611014565b600b546101569073ffffffffffffffffffffffffffffffffffffffff1681565b600c546101569073ffffffffffffffffffffffffffffffffffffffff1681565b600d546101569073ffffffffffffffffffffffffffffffffffffffff1681565b61018a60055481565b61018a6102803660046117cd565b600160209081526000928352604080842090915290825290205481565b61018a6103e881565b61018a600f5481565b61018a6102bd3660046116dc565b611024565b6101566102d03660046117f9565b611473565b6101ce6102e336600461181b565b6114b8565b60105460009060ff161561035c576040517f08c379a000000000000000000000000000000000000000000000000000000000815260206004820152601360248201527f416c726561647920696e697469616c697a656400000000000000000000000000604482015260640160405180910390fd5b600b80547fffffffffffffffffffffffff000000000000000000000000000000000000000090811673ffffffffffffffffffffffffffffffffffffffff898116918217909355600e80548316898516908117909155600c80548416898616179055600d805484168886161790556006805460018181019092557ff652222313e28459528d920b65115c16c04f3efc82aaedc97be59f3f377c0d3f0180549094169487169485179093556000938452600860209081526040948590208490556009849055601080547fffffffffffffffffffffffffffffffffffffffffffffffffffffffffffffff0016851790558451938452830191909152918101919091527fc87c04922c077302cf4c93ca0785707d2272b98c125c11c3c98f545718f3e27c9060600160405180910390a150600195945050505050565b6000548111156104d0576040517f513befd600000000000000000000000000000000000000000000000000000000815260040160405180910390fd5b62093a80600a82815481106104e7576104e761185e565b90600052602060002001546104fc91906118bc565b421015610535576040517f8a05045100000000000000000000000000000000000000000000000000000000815260040160405180910390fd5b600060646000838154811061054c5761054c61185e565b9060005260206000200154605061056391906118d4565b61056d9190611911565b905060006064600084815481106105865761058661185e565b9060005260206000200154603261059d91906118d4565b6105a79190611911565b60008481526002602090815260408083208054825181850281018501909352808352949550929390929183018282801561061757602002820191906000526020600020905b815473ffffffffffffffffffffffffffffffffffffffff1681526001909101906020018083116105ec575b5050505050905082600385815481106106325761063261185e565b9060005260206000200154111561090457600e546000858152600460208190526040918290205491517fa9059cbb00000000000000000000000000000000000000000000000000000000815273ffffffffffffffffffffffffffffffffffffffff928316918101919091526024810185905291169063a9059cbb906044016020604051808303816000875af11580156106cf573d6000803e3d6000fd5b505050506040513d601f19601f820116820180604052508101906106f3919061194c565b5060005b6000858152600260205260409020548110156108fe576000858152600160205260408120835182908590859081106107315761073161185e565b602002602001015173ffffffffffffffffffffffffffffffffffffffff1673ffffffffffffffffffffffffffffffffffffffff1681526020019081526020016000205411156108ec57600080868154811061078e5761078e61185e565b90600052602060002001546001600088815260200190815260200160002060008585815181106107c0576107c061185e565b602002602001015173ffffffffffffffffffffffffffffffffffffffff1673ffffffffffffffffffffffffffffffffffffffff1681526020019081526020016000205461080d9190611911565b90506000606461081d83876118d4565b6108279190611911565b600e54855191925073ffffffffffffffffffffffffffffffffffffffff169063a9059cbb9086908690811061085e5761085e61185e565b6020026020010151836040518363ffffffff1660e01b81526004016108a592919073ffffffffffffffffffffffffffffffffffffffff929092168252602082015260400190565b6020604051808303816000875af11580156108c4573d6000803e3d6000fd5b505050506040513d601f19601f820116820180604052508101906108e8919061194c565b5050505b806108f681611970565b9150506106f7565b50610c6f565b60005b600085815260026020526040902054811015610b2b576000858152600160205260408120835182908590859081106109415761094161185e565b602002602001015173ffffffffffffffffffffffffffffffffffffffff1673ffffffffffffffffffffffffffffffffffffffff168152602001908152602001600020541015610b1957600080868154811061099e5761099e61185e565b90600052602060002001546001600088815260200190815260200160002060008585815181106109d0576109d061185e565b602002602001015173ffffffffffffffffffffffffffffffffffffffff1673ffffffffffffffffffffffffffffffffffffffff16815260200190815260200160002054610a1d9190611911565b90506000808781548110610a3357610a3361185e565b90600052602060002001548286610a4a91906118d4565b610a549190611911565b600e54855191925073ffffffffffffffffffffffffffffffffffffffff169063a9059cbb90869086908110610a8b57610a8b61185e565b6020026020010151836040518363ffffffff1660e01b8152600401610ad292919073ffffffffffffffffffffffffffffffffffffffff929092168252602082015260400190565b6020604051808303816000875af1158015610af1573d6000803e3d6000fd5b505050506040513d601f19601f82011682018060405250810190610b15919061194c565b5050505b80610b2381611970565b915050610907565b5060005b600054811015610c6d576000808281548110610b4d57610b4d61185e565b90600052602060002001541115610c5b57600060055460008381548110610b7657610b7661185e565b9060005260206000200154610b8b9190611911565b905060006064610b9b83876118d4565b610ba59190611911565b600e546000858152600460208190526040918290205491517fa9059cbb00000000000000000000000000000000000000000000000000000000815273ffffffffffffffffffffffffffffffffffffffff9283169181019190915260248101849052929350169063a9059cbb906044016020604051808303816000875af1158015610c33573d6000803e3d6000fd5b505050506040513d601f19601f82011682018060405250810190610c57919061194c565b5050505b80610c6581611970565b915050610b2f565b505b50505050565b600054831115610cb1576040517f513befd600000000000000000000000000000000000000000000000000000000815260040160405180910390fd5b6000838152600260205260408120549003610ceb5742600a8481548110610cda57610cda61185e565b600091825260209091200155610d50565b62093a80600a8481548110610d0257610d0261185e565b9060005260206000200154610d1791906118bc565b421115610d50576040517fe9e735df00000000000000000000000000000000000000000000000000000000815260040160405180910390fd5b600c546040517f70a08231000000000000000000000000000000000000000000000000000000008152336004820152839173ffffffffffffffffffffffffffffffffffffffff16906370a0823190602401602060405180830381865afa158015610dbe573d6000803e3d6000fd5b505050506040513d601f19601f82011682018060405250810190610de291906119a8565b1015610e1a576040517f2c5211c600000000000000000000000000000000000000000000000000000000815260040160405180910390fd5b600c546040517f9dc29fac0000000000000000000000000000000000000000000000000000000081523360048201526024810184905273ffffffffffffffffffffffffffffffffffffffff90911690639dc29fac90604401600060405180830381600087803b158015610e8c57600080fd5b505af1158015610ea0573d6000803e3d6000fd5b5050506000848152600260209081526040822080546001810182559083529082200180547fffffffffffffffffffffffff00000000000000000000000000000000000000001633179055805484925085908110610eff57610eff61185e565b906000526020600020016000828254610f1891906118bc565b9091555050801515600103610f8d578160038481548110610f3b57610f3b61185e565b906000526020600020016000828254610f5491906118bc565b9091555050600083815260016020908152604080832033845290915281208054849290610f829084906118bc565b90915550610fee9050565b8160038481548110610fa157610fa161185e565b906000526020600020016000828254610fba91906119c1565b9091555050600083815260016020908152604080832033845290915281208054849290610fe89084906119c1565b90915550505b505050565b6000818154811061100357600080fd5b600091825260209091200154905081565b6003818154811061100357600080fd5b600e546040517f70a08231000000000000000000000000000000000000000000000000000000008152336004820152600091839173ffffffffffffffffffffffffffffffffffffffff909116906370a0823190602401602060405180830381865afa158015611097573d6000803e3d6000fd5b505050506040513d601f19601f820116820180604052508101906110bb91906119a8565b10156110f3576040517f2c5211c600000000000000000000000000000000000000000000000000000000815260040160405180910390fd5b60006103e8600f548461110691906118d4565b6111109190611911565b600e546040517f23b872dd0000000000000000000000000000000000000000000000000000000081523360048201523060248201526044810183905291925073ffffffffffffffffffffffffffffffffffffffff16906323b872dd906064016020604051808303816000875af115801561118e573d6000803e3d6000fd5b505050506040513d601f19601f820116820180604052508101906111b2919061194c565b50600e54600c546040517f095ea7b300000000000000000000000000000000000000000000000000000000815273ffffffffffffffffffffffffffffffffffffffff91821660048201526024810184905291169063095ea7b3906044016020604051808303816000875af115801561122e573d6000803e3d6000fd5b505050506040513d601f19601f82011682018060405250810190611252919061194c565b50600c546040517fadc9772e0000000000000000000000000000000000000000000000000000000081523360048201526024810183905273ffffffffffffffffffffffffffffffffffffffff9091169063adc9772e906044016020604051808303816000875af11580156112ca573d6000803e3d6000fd5b505050506040513d601f19601f820116820180604052508101906112ee91906119a8565b5060006112fb82856119c1565b905060005b60065481101561146a57600060095460086000600685815481106113265761132661185e565b600091825260208083209091015473ffffffffffffffffffffffffffffffffffffffff1683528201929092526040019020546113629190611911565b9050600061137082856118d4565b600e546006805492935073ffffffffffffffffffffffffffffffffffffffff909116916323b872dd913391879081106113ab576113ab61185e565b60009182526020909120015460405160e084901b7fffffffff0000000000000000000000000000000000000000000000000000000016815273ffffffffffffffffffffffffffffffffffffffff928316600482015291166024820152604481018490526064016020604051808303816000875af1158015611430573d6000803e3d6000fd5b505050506040513d601f19601f82011682018060405250810190611454919061194c565b505050808061146290611970565b915050611300565b50929392505050565b6002602052816000526040600020818154811061148f57600080fd5b60009182526020909120015473ffffffffffffffffffffffffffffffffffffffff169150829050565b60006040518060400160405280601c81526020017f19457468657265756d205369676e6564204d6573736167653a0a3332000000008152509050600081866040516020016115079291906119d8565b604080517fffffffffffffffffffffffffffffffffffffffffffffffffffffffffffffffe08184030181528282528051602091820120600080855291840180845281905260ff89169284019290925260608301879052608083018690529092509060019060a0016020604051602081039080840390855afa158015611590573d6000803e3d6000fd5b50506040517fffffffffffffffffffffffffffffffffffffffffffffffffffffffffffffffe0015191505073ffffffffffffffffffffffffffffffffffffffff8116331461160a576040517f82b4290000000000000000000000000000000000000000000000000000000000815260040160405180910390fd5b505060038054600090815260046020526040812080547fffffffffffffffffffffffff000000000000000000000000000000000000000016331790558054600181810183557f290decd9548b62a8d60345a988386fc84ba6bc95484008f6362f93160ef3e56390910182905582548082019093557fc2575a0e9e593c00f959f8c92f12db2869c3395a3b0502d05e2516446f71f85b909201819055600a8054928301815581527fc65a7bb8d6351c1cf70c95a316cc6a92839c986682d98bc35f958f4883f9d2a8909101555050505050565b6000602082840312156116ee57600080fd5b5035919050565b803573ffffffffffffffffffffffffffffffffffffffff8116811461171957600080fd5b919050565b600080600080600060a0868803121561173657600080fd5b61173f866116f5565b945061174d602087016116f5565b935061175b604087016116f5565b9250611769606087016116f5565b9150611777608087016116f5565b90509295509295909350565b801515811461179157600080fd5b50565b6000806000606084860312156117a957600080fd5b833592506020840135915060408401356117c281611783565b809150509250925092565b600080604083850312156117e057600080fd5b823591506117f0602084016116f5565b90509250929050565b6000806040838503121561180c57600080fd5b50508035926020909101359150565b6000806000806080858703121561183157600080fd5b84359350602085013560ff8116811461184957600080fd5b93969395505050506040820135916060013590565b7f4e487b7100000000000000000000000000000000000000000000000000000000600052603260045260246000fd5b7f4e487b7100000000000000000000000000000000000000000000000000000000600052601160045260246000fd5b600082198211156118cf576118cf61188d565b500190565b6000817fffffffffffffffffffffffffffffffffffffffffffffffffffffffffffffffff048311821515161561190c5761190c61188d565b500290565b600082611947577f4e487b7100000000000000000000000000000000000000000000000000000000600052601260045260246000fd5b500490565b60006020828403121561195e57600080fd5b815161196981611783565b9392505050565b60007fffffffffffffffffffffffffffffffffffffffffffffffffffffffffffffffff82036119a1576119a161188d565b5060010190565b6000602082840312156119ba57600080fd5b5051919050565b6000828210156119d3576119d361188d565b500390565b6000835160005b818110156119f957602081870181015185830152016119df565b81811115611a08576000828501525b50919091019182525060200191905056fea2646970667358221220e3524f708d7512317550b69bf2a11e67798db5fb5b3a58ded1472b2ccf278a2c64736f6c634300080f0033",
  "linkReferences": {},
  "deployedLinkReferences": {}
}