{
  "_format": "hh-sol-artifact-1",
  "contractName": "GuildController",
  "sourceName": "contracts/GuildController.sol",
  "abi": [
    {
      "inputs": [],
      "name": "AddressZero",
      "type": "error"
    },
    {
      "inputs": [],
      "name": "EmptyArray",
      "type": "error"
    },
    {
      "inputs": [],
      "name": "InvalidAmount",
      "type": "error"
    },
    {
      "inputs": [],
      "name": "InvalidParameters",
      "type": "error"
    },
    {
      "inputs": [],
      "name": "InvalidSender",
      "type": "error"
    },
    {
      "inputs": [],
      "name": "ReportNotExists",
      "type": "error"
    },
    {
      "inputs": [],
      "name": "Unauthorized",
      "type": "error"
    },
    {
      "inputs": [],
      "name": "VotingTimeExpired",
      "type": "error"
    },
    {
      "inputs": [],
      "name": "VotingTimeNotFinished",
      "type": "error"
    },
    {
      "anonymous": false,
      "inputs": [
        {
          "indexed": false,
          "internalType": "bool",
          "name": "success",
          "type": "bool"
        },
        {
          "indexed": false,
          "internalType": "address",
          "name": "owner",
          "type": "address"
        },
        {
          "indexed": false,
          "internalType": "address",
          "name": "AMORxGuild",
          "type": "address"
        }
      ],
      "name": "Initialized",
      "type": "event"
    },
    {
      "anonymous": false,
      "inputs": [
        {
          "indexed": true,
          "internalType": "address",
          "name": "previousOwner",
          "type": "address"
        },
        {
          "indexed": true,
          "internalType": "address",
          "name": "newOwner",
          "type": "address"
        }
      ],
      "name": "OwnershipTransferred",
      "type": "event"
    },
    {
      "inputs": [],
      "name": "FEE_DENOMINATOR",
      "outputs": [
        {
          "internalType": "uint256",
          "name": "",
          "type": "uint256"
        }
      ],
      "stateMutability": "view",
      "type": "function"
    },
    {
      "inputs": [],
      "name": "FXAMORxGuild",
      "outputs": [
        {
          "internalType": "address",
          "name": "",
          "type": "address"
        }
      ],
      "stateMutability": "view",
      "type": "function"
    },
    {
      "inputs": [],
      "name": "VOTING_TIME",
      "outputs": [
        {
          "internalType": "uint256",
          "name": "",
          "type": "uint256"
        }
      ],
      "stateMutability": "view",
      "type": "function"
    },
    {
      "inputs": [],
      "name": "WEIGHT_DENOMINATOR",
      "outputs": [
        {
          "internalType": "uint256",
          "name": "",
          "type": "uint256"
        }
      ],
      "stateMutability": "view",
      "type": "function"
    },
    {
      "inputs": [
        {
          "internalType": "uint256",
          "name": "amount",
          "type": "uint256"
        }
      ],
      "name": "donate",
      "outputs": [
        {
          "internalType": "uint256",
          "name": "",
          "type": "uint256"
        }
      ],
      "stateMutability": "nonpayable",
      "type": "function"
    },
    {
      "inputs": [
        {
          "internalType": "uint256",
          "name": "",
          "type": "uint256"
        }
      ],
      "name": "impactMakers",
      "outputs": [
        {
          "internalType": "address",
          "name": "",
          "type": "address"
        }
      ],
      "stateMutability": "view",
      "type": "function"
    },
    {
      "inputs": [
        {
          "internalType": "address",
          "name": "initOwner",
          "type": "address"
        },
        {
          "internalType": "address",
          "name": "AMORxGuild_",
          "type": "address"
        },
        {
          "internalType": "address",
          "name": "FXAMORxGuild_",
          "type": "address"
        }
      ],
      "name": "init",
      "outputs": [
        {
          "internalType": "bool",
          "name": "",
          "type": "bool"
        }
      ],
      "stateMutability": "nonpayable",
      "type": "function"
    },
    {
      "inputs": [],
      "name": "owner",
      "outputs": [
        {
          "internalType": "address",
          "name": "",
          "type": "address"
        }
      ],
      "stateMutability": "view",
      "type": "function"
    },
    {
      "inputs": [],
      "name": "percentToConvert",
      "outputs": [
        {
          "internalType": "uint256",
          "name": "",
          "type": "uint256"
        }
      ],
      "stateMutability": "view",
      "type": "function"
    },
    {
      "inputs": [],
      "name": "renounceOwnership",
      "outputs": [],
      "stateMutability": "nonpayable",
      "type": "function"
    },
    {
      "inputs": [
        {
          "internalType": "address[]",
          "name": "arrImpactMakers",
          "type": "address[]"
        },
        {
          "internalType": "uint256[]",
          "name": "arrWeight",
          "type": "uint256[]"
        }
      ],
      "name": "setImpactMakers",
      "outputs": [],
      "stateMutability": "nonpayable",
      "type": "function"
    },
    {
      "inputs": [
        {
          "internalType": "uint256",
          "name": "",
          "type": "uint256"
        }
      ],
      "name": "timeVoting",
      "outputs": [
        {
          "internalType": "uint256",
          "name": "",
          "type": "uint256"
        }
      ],
      "stateMutability": "view",
      "type": "function"
    },
    {
      "inputs": [],
      "name": "totalWeight",
      "outputs": [
        {
          "internalType": "uint256",
          "name": "",
          "type": "uint256"
        }
      ],
      "stateMutability": "view",
      "type": "function"
    },
    {
      "inputs": [
        {
          "internalType": "address",
          "name": "newOwner",
          "type": "address"
        }
      ],
      "name": "transferOwnership",
      "outputs": [],
      "stateMutability": "nonpayable",
      "type": "function"
    },
    {
      "inputs": [
        {
          "internalType": "address",
          "name": "",
          "type": "address"
        }
      ],
      "name": "weights",
      "outputs": [
        {
          "internalType": "uint256",
          "name": "",
          "type": "uint256"
        }
      ],
      "stateMutability": "view",
      "type": "function"
    }
  ],
  "bytecode": "0x6080604052606460075534801561001557600080fd5b5061001f33610024565b610074565b600080546001600160a01b038381166001600160a01b0319831681178455604051919092169283917f8be0079c531659141344cd1fd0a4f28419497f9722a3daafe3b4186f6b6457e09190a35050565b610f73806100836000396000f3fe608060405234801561001057600080fd5b50600436106100f55760003560e01c80638da5cb5b11610097578063d73792a911610066578063d73792a914610212578063dc37bc7d1461021b578063f14faf6f14610224578063f2fde38b1461023757600080fd5b80638da5cb5b146101ab57806396c82e57146101c9578063a7cac846146101d2578063b209659b146101f257600080fd5b806360885165116100d3578063608851651461014d578063715018a6146101625780637f005b421461016a578063809b18d5146101a257600080fd5b8063184b9559146100fa5780631beb275e1461012257806332f0b8fa14610143575b600080fd5b61010d610108366004610b7a565b61024a565b60405190151581526020015b60405180910390f35b610135610130366004610bbd565b610394565b604051908152602001610119565b61013562093a8081565b61016061015b366004610ce3565b6103b5565b005b6101606104fd565b61017d610178366004610bbd565b610511565b60405173ffffffffffffffffffffffffffffffffffffffff9091168152602001610119565b61013561271081565b60005473ffffffffffffffffffffffffffffffffffffffff1661017d565b61013560035481565b6101356101e0366004610da3565b60026020526000908152604090205481565b60065461017d9073ffffffffffffffffffffffffffffffffffffffff1681565b6101356103e881565b61013560075481565b610135610232366004610bbd565b610548565b610160610245366004610da3565b6109a4565b60085460009060ff16156102bf576040517f08c379a000000000000000000000000000000000000000000000000000000000815260206004820152601360248201527f416c726561647920696e697469616c697a65640000000000000000000000000060448201526064015b60405180910390fd5b6102c884610a5b565b600580547fffffffffffffffffffffffff000000000000000000000000000000000000000090811673ffffffffffffffffffffffffffffffffffffffff8681169182179093556006805490921685841617909155600880547fffffffffffffffffffffffffffffffffffffffffffffffffffffffffffffff00166001908117909155604080519182529287166020820152918201527fc87c04922c077302cf4c93ca0785707d2272b98c125c11c3c98f545718f3e27c9060600160405180910390a15060019392505050565b600481815481106103a457600080fd5b600091825260209091200154905081565b6103bd610ad0565b60005b82518110156104f85760018382815181106103dd576103dd610dc5565b60209081029190910181015182546001810184556000938452919092200180547fffffffffffffffffffffffff00000000000000000000000000000000000000001673ffffffffffffffffffffffffffffffffffffffff909216919091179055815182908290811061045157610451610dc5565b60200260200101516002600085848151811061046f5761046f610dc5565b602002602001015173ffffffffffffffffffffffffffffffffffffffff1673ffffffffffffffffffffffffffffffffffffffff168152602001908152602001600020819055508181815181106104c7576104c7610dc5565b6020026020010151600360008282546104e09190610e23565b909155508190506104f081610e3b565b9150506103c0565b505050565b610505610ad0565b61050f6000610a5b565b565b6001818154811061052157600080fd5b60009182526020909120015473ffffffffffffffffffffffffffffffffffffffff16905081565b6005546040517f70a08231000000000000000000000000000000000000000000000000000000008152336004820152600091839173ffffffffffffffffffffffffffffffffffffffff909116906370a0823190602401602060405180830381865afa1580156105bb573d6000803e3d6000fd5b505050506040513d601f19601f820116820180604052508101906105df9190610e73565b1015610617576040517f2c5211c600000000000000000000000000000000000000000000000000000000815260040160405180910390fd5b60006103e86007548461062a9190610e8c565b6106349190610ec9565b6005546040517f23b872dd0000000000000000000000000000000000000000000000000000000081523360048201523060248201526044810183905291925073ffffffffffffffffffffffffffffffffffffffff16906323b872dd906064016020604051808303816000875af11580156106b2573d6000803e3d6000fd5b505050506040513d601f19601f820116820180604052508101906106d69190610f04565b506005546006546040517f095ea7b300000000000000000000000000000000000000000000000000000000815273ffffffffffffffffffffffffffffffffffffffff91821660048201526024810184905291169063095ea7b3906044016020604051808303816000875af1158015610752573d6000803e3d6000fd5b505050506040513d601f19601f820116820180604052508101906107769190610f04565b506006546040517fadc9772e0000000000000000000000000000000000000000000000000000000081523360048201526024810183905273ffffffffffffffffffffffffffffffffffffffff9091169063adc9772e906044016020604051808303816000875af11580156107ee573d6000803e3d6000fd5b505050506040513d601f19601f820116820180604052508101906108129190610e73565b50600061081f8285610f26565b905060005b60015481101561099b576000612710600260006001858154811061084a5761084a610dc5565b600091825260208083209091015473ffffffffffffffffffffffffffffffffffffffff1683528201929092526040019020546003546108899190610ec9565b6108939190610ec9565b905060006108a18285610e8c565b6005546001805492935073ffffffffffffffffffffffffffffffffffffffff909116916323b872dd913391879081106108dc576108dc610dc5565b60009182526020909120015460405160e084901b7fffffffff0000000000000000000000000000000000000000000000000000000016815273ffffffffffffffffffffffffffffffffffffffff928316600482015291166024820152604481018490526064016020604051808303816000875af1158015610961573d6000803e3d6000fd5b505050506040513d601f19601f820116820180604052508101906109859190610f04565b505050808061099390610e3b565b915050610824565b50929392505050565b6109ac610ad0565b73ffffffffffffffffffffffffffffffffffffffff8116610a4f576040517f08c379a000000000000000000000000000000000000000000000000000000000815260206004820152602660248201527f4f776e61626c653a206e6577206f776e657220697320746865207a65726f206160448201527f646472657373000000000000000000000000000000000000000000000000000060648201526084016102b6565b610a5881610a5b565b50565b6000805473ffffffffffffffffffffffffffffffffffffffff8381167fffffffffffffffffffffffff0000000000000000000000000000000000000000831681178455604051919092169283917f8be0079c531659141344cd1fd0a4f28419497f9722a3daafe3b4186f6b6457e09190a35050565b60005473ffffffffffffffffffffffffffffffffffffffff16331461050f576040517f08c379a000000000000000000000000000000000000000000000000000000000815260206004820181905260248201527f4f776e61626c653a2063616c6c6572206973206e6f7420746865206f776e657260448201526064016102b6565b803573ffffffffffffffffffffffffffffffffffffffff81168114610b7557600080fd5b919050565b600080600060608486031215610b8f57600080fd5b610b9884610b51565b9250610ba660208501610b51565b9150610bb460408501610b51565b90509250925092565b600060208284031215610bcf57600080fd5b5035919050565b7f4e487b7100000000000000000000000000000000000000000000000000000000600052604160045260246000fd5b604051601f82017fffffffffffffffffffffffffffffffffffffffffffffffffffffffffffffffe016810167ffffffffffffffff81118282101715610c4c57610c4c610bd6565b604052919050565b600067ffffffffffffffff821115610c6e57610c6e610bd6565b5060051b60200190565b600082601f830112610c8957600080fd5b81356020610c9e610c9983610c54565b610c05565b82815260059290921b84018101918181019086841115610cbd57600080fd5b8286015b84811015610cd85780358352918301918301610cc1565b509695505050505050565b60008060408385031215610cf657600080fd5b823567ffffffffffffffff80821115610d0e57600080fd5b818501915085601f830112610d2257600080fd5b81356020610d32610c9983610c54565b82815260059290921b84018101918181019089841115610d5157600080fd5b948201945b83861015610d7657610d6786610b51565b82529482019490820190610d56565b96505086013592505080821115610d8c57600080fd5b50610d9985828601610c78565b9150509250929050565b600060208284031215610db557600080fd5b610dbe82610b51565b9392505050565b7f4e487b7100000000000000000000000000000000000000000000000000000000600052603260045260246000fd5b7f4e487b7100000000000000000000000000000000000000000000000000000000600052601160045260246000fd5b60008219821115610e3657610e36610df4565b500190565b60007fffffffffffffffffffffffffffffffffffffffffffffffffffffffffffffffff8203610e6c57610e6c610df4565b5060010190565b600060208284031215610e8557600080fd5b5051919050565b6000817fffffffffffffffffffffffffffffffffffffffffffffffffffffffffffffffff0483118215151615610ec457610ec4610df4565b500290565b600082610eff577f4e487b7100000000000000000000000000000000000000000000000000000000600052601260045260246000fd5b500490565b600060208284031215610f1657600080fd5b81518015158114610dbe57600080fd5b600082821015610f3857610f38610df4565b50039056fea264697066735822122076544cab5b857593f032919ca0e1fc99335b7df0e802ef53e4d66b6e8088921e64736f6c634300080f0033",
  "linkReferences": {},
  "deployedLinkReferences": {}
}