{
  "_format": "hh-sol-artifact-1",
  "contractName": "AMORxGuildToken",
  "sourceName": "contracts/AMORxGuildToken.sol",
  "abi": [
    {
      "inputs": [],
      "name": "AlreadyInitialized",
      "type": "error"
    },
    {
      "inputs": [],
      "name": "AlreadySet",
      "type": "error"
    },
    {
      "inputs": [],
      "name": "InvalidAddress",
      "type": "error"
    },
    {
      "inputs": [],
      "name": "InvalidAmount",
      "type": "error"
    },
    {
      "inputs": [],
      "name": "InvalidApprove",
      "type": "error"
    },
    {
      "inputs": [],
      "name": "InvalidTaxRate",
      "type": "error"
    },
    {
      "inputs": [],
      "name": "InvalidTransfer",
      "type": "error"
    },
    {
      "inputs": [],
      "name": "UnsufficientAmount",
      "type": "error"
    },
    {
      "anonymous": false,
      "inputs": [
        {
          "indexed": false,
          "internalType": "address",
          "name": "to",
          "type": "address"
        },
        {
          "indexed": false,
          "internalType": "uint256",
          "name": "amount",
          "type": "uint256"
        },
        {
          "indexed": false,
          "internalType": "uint256",
          "name": "mintAmount",
          "type": "uint256"
        }
      ],
      "name": "AmorStaked",
      "type": "event"
    },
    {
      "anonymous": false,
      "inputs": [
        {
          "indexed": false,
          "internalType": "address",
          "name": "to",
          "type": "address"
        },
        {
          "indexed": false,
          "internalType": "uint256",
          "name": "amorxguildAmount",
          "type": "uint256"
        },
        {
          "indexed": false,
          "internalType": "uint256",
          "name": "amorReturned",
          "type": "uint256"
        }
      ],
      "name": "AmorWithdrawed",
      "type": "event"
    },
    {
      "anonymous": false,
      "inputs": [
        {
          "indexed": true,
          "internalType": "address",
          "name": "owner",
          "type": "address"
        },
        {
          "indexed": true,
          "internalType": "address",
          "name": "spender",
          "type": "address"
        },
        {
          "indexed": false,
          "internalType": "uint256",
          "name": "value",
          "type": "uint256"
        }
      ],
      "name": "Approval",
      "type": "event"
    },
    {
      "anonymous": false,
      "inputs": [
        {
          "indexed": false,
          "internalType": "string",
          "name": "name",
          "type": "string"
        },
        {
          "indexed": false,
          "internalType": "string",
          "name": "symbol",
          "type": "string"
        },
        {
          "indexed": false,
          "internalType": "address",
          "name": "amorToken",
          "type": "address"
        }
      ],
      "name": "Initialized",
      "type": "event"
    },
    {
      "anonymous": false,
      "inputs": [
        {
          "indexed": true,
          "internalType": "address",
          "name": "previousOwner",
          "type": "address"
        },
        {
          "indexed": true,
          "internalType": "address",
          "name": "newOwner",
          "type": "address"
        }
      ],
      "name": "OwnershipTransferred",
      "type": "event"
    },
    {
      "anonymous": false,
      "inputs": [
        {
          "indexed": false,
          "internalType": "address",
          "name": "account",
          "type": "address"
        }
      ],
      "name": "Paused",
      "type": "event"
    },
    {
      "anonymous": false,
      "inputs": [
        {
          "indexed": true,
          "internalType": "address",
          "name": "newProxyAddress",
          "type": "address"
        }
      ],
      "name": "ProxyAddressChange",
      "type": "event"
    },
    {
      "anonymous": false,
      "inputs": [
        {
          "indexed": false,
          "internalType": "uint256",
          "name": "newRate",
          "type": "uint256"
        }
      ],
      "name": "TaxChanged",
      "type": "event"
    },
    {
      "anonymous": false,
      "inputs": [
        {
          "indexed": true,
          "internalType": "address",
          "name": "from",
          "type": "address"
        },
        {
          "indexed": true,
          "internalType": "address",
          "name": "to",
          "type": "address"
        },
        {
          "indexed": false,
          "internalType": "uint256",
          "name": "value",
          "type": "uint256"
        }
      ],
      "name": "Transfer",
      "type": "event"
    },
    {
      "anonymous": false,
      "inputs": [
        {
          "indexed": false,
          "internalType": "address",
          "name": "account",
          "type": "address"
        }
      ],
      "name": "Unpaused",
      "type": "event"
    },
    {
      "inputs": [],
      "name": "BASIS_POINTS",
      "outputs": [
        {
          "internalType": "uint256",
          "name": "",
          "type": "uint256"
        }
      ],
      "stateMutability": "view",
      "type": "function"
    },
    {
      "inputs": [
        {
          "internalType": "address",
          "name": "owner",
          "type": "address"
        },
        {
          "internalType": "address",
          "name": "spender",
          "type": "address"
        }
      ],
      "name": "allowance",
      "outputs": [
        {
          "internalType": "uint256",
          "name": "",
          "type": "uint256"
        }
      ],
      "stateMutability": "view",
      "type": "function"
    },
    {
      "inputs": [
        {
          "internalType": "address",
          "name": "spender",
          "type": "address"
        },
        {
          "internalType": "uint256",
          "name": "amount",
          "type": "uint256"
        }
      ],
      "name": "approve",
      "outputs": [
        {
          "internalType": "bool",
          "name": "",
          "type": "bool"
        }
      ],
      "stateMutability": "nonpayable",
      "type": "function"
    },
    {
      "inputs": [
        {
          "internalType": "address",
          "name": "account",
          "type": "address"
        }
      ],
      "name": "balanceOf",
      "outputs": [
        {
          "internalType": "uint256",
          "name": "",
          "type": "uint256"
        }
      ],
      "stateMutability": "view",
      "type": "function"
    },
    {
      "inputs": [],
      "name": "decimals",
      "outputs": [
        {
          "internalType": "uint8",
          "name": "",
          "type": "uint8"
        }
      ],
      "stateMutability": "view",
      "type": "function"
    },
    {
      "inputs": [
        {
          "internalType": "address",
          "name": "spender",
          "type": "address"
        },
        {
          "internalType": "uint256",
          "name": "subtractedValue",
          "type": "uint256"
        }
      ],
      "name": "decreaseAllowance",
      "outputs": [
        {
          "internalType": "bool",
          "name": "",
          "type": "bool"
        }
      ],
      "stateMutability": "nonpayable",
      "type": "function"
    },
    {
      "inputs": [],
      "name": "guildController",
      "outputs": [
        {
          "internalType": "address",
          "name": "",
          "type": "address"
        }
      ],
      "stateMutability": "view",
      "type": "function"
    },
    {
      "inputs": [
        {
          "internalType": "address",
          "name": "spender",
          "type": "address"
        },
        {
          "internalType": "uint256",
          "name": "addedValue",
          "type": "uint256"
        }
      ],
      "name": "increaseAllowance",
      "outputs": [
        {
          "internalType": "bool",
          "name": "",
          "type": "bool"
        }
      ],
      "stateMutability": "nonpayable",
      "type": "function"
    },
    {
      "inputs": [
        {
          "internalType": "string",
          "name": "name",
          "type": "string"
        },
        {
          "internalType": "string",
          "name": "symbol",
          "type": "string"
        },
        {
          "internalType": "address",
          "name": "amorAddress",
          "type": "address"
        },
        {
          "internalType": "address",
          "name": "controller",
          "type": "address"
        }
      ],
      "name": "init",
      "outputs": [],
      "stateMutability": "nonpayable",
      "type": "function"
    },
    {
      "inputs": [],
      "name": "name",
      "outputs": [
        {
          "internalType": "string",
          "name": "",
          "type": "string"
        }
      ],
      "stateMutability": "view",
      "type": "function"
    },
    {
      "inputs": [],
      "name": "owner",
      "outputs": [
        {
          "internalType": "address",
          "name": "",
          "type": "address"
        }
      ],
      "stateMutability": "view",
      "type": "function"
    },
    {
      "inputs": [],
      "name": "pause",
      "outputs": [],
      "stateMutability": "nonpayable",
      "type": "function"
    },
    {
      "inputs": [],
      "name": "paused",
      "outputs": [
        {
          "internalType": "bool",
          "name": "",
          "type": "bool"
        }
      ],
      "stateMutability": "view",
      "type": "function"
    },
    {
      "inputs": [],
      "name": "renounceOwnership",
      "outputs": [],
      "stateMutability": "nonpayable",
      "type": "function"
    },
    {
      "inputs": [
        {
          "internalType": "uint16",
          "name": "newRate",
          "type": "uint16"
        }
      ],
      "name": "setTax",
      "outputs": [],
      "stateMutability": "nonpayable",
      "type": "function"
    },
    {
      "inputs": [
        {
          "internalType": "address",
          "name": "to",
          "type": "address"
        },
        {
          "internalType": "uint256",
          "name": "amount",
          "type": "uint256"
        }
      ],
      "name": "stakeAmor",
      "outputs": [
        {
          "internalType": "uint256",
          "name": "",
          "type": "uint256"
        }
      ],
      "stateMutability": "nonpayable",
      "type": "function"
    },
    {
      "inputs": [],
      "name": "stakingTaxRate",
      "outputs": [
        {
          "internalType": "uint16",
          "name": "",
          "type": "uint16"
        }
      ],
      "stateMutability": "view",
      "type": "function"
    },
    {
      "inputs": [],
      "name": "symbol",
      "outputs": [
        {
          "internalType": "string",
          "name": "",
          "type": "string"
        }
      ],
      "stateMutability": "view",
      "type": "function"
    },
    {
      "inputs": [],
      "name": "totalSupply",
      "outputs": [
        {
          "internalType": "uint256",
          "name": "",
          "type": "uint256"
        }
      ],
      "stateMutability": "view",
      "type": "function"
    },
    {
      "inputs": [
        {
          "internalType": "address",
          "name": "to",
          "type": "address"
        },
        {
          "internalType": "uint256",
          "name": "amount",
          "type": "uint256"
        }
      ],
      "name": "transfer",
      "outputs": [
        {
          "internalType": "bool",
          "name": "",
          "type": "bool"
        }
      ],
      "stateMutability": "nonpayable",
      "type": "function"
    },
    {
      "inputs": [
        {
          "internalType": "address",
          "name": "from",
          "type": "address"
        },
        {
          "internalType": "address",
          "name": "to",
          "type": "address"
        },
        {
          "internalType": "uint256",
          "name": "amount",
          "type": "uint256"
        }
      ],
      "name": "transferFrom",
      "outputs": [
        {
          "internalType": "bool",
          "name": "",
          "type": "bool"
        }
      ],
      "stateMutability": "nonpayable",
      "type": "function"
    },
    {
      "inputs": [
        {
          "internalType": "address",
          "name": "newOwner",
          "type": "address"
        }
      ],
      "name": "transferOwnership",
      "outputs": [],
      "stateMutability": "nonpayable",
      "type": "function"
    },
    {
      "inputs": [],
      "name": "unpause",
      "outputs": [],
      "stateMutability": "nonpayable",
      "type": "function"
    },
    {
      "inputs": [
        {
          "internalType": "uint256",
          "name": "amount",
          "type": "uint256"
        }
      ],
      "name": "withdrawAmor",
      "outputs": [
        {
          "internalType": "uint256",
          "name": "",
          "type": "uint256"
        }
      ],
      "stateMutability": "nonpayable",
      "type": "function"
    }
  ],
  "bytecode": "0x608060405234801561001057600080fd5b506005805462ff0000191690556100263361002b565b610089565b600580546001600160a01b0383811663010000008181026301000000600160b81b031985161790945560405193909204169182907f8be0079c531659141344cd1fd0a4f28419497f9722a3daafe3b4186f6b6457e090600090a35050565b6123db806100986000396000f3fe608060405234801561001057600080fd5b50600436106101985760003560e01c806370a08231116100e357806395d89b411161008c578063dd62ed3e11610066578063dd62ed3e146103b8578063e1f1c4a7146103fe578063f2fde38b1461040757600080fd5b806395d89b411461038a578063a457c2d714610392578063a9059cbb146103a557600080fd5b806371e6c572116100bd57806371e6c5721461034a5780638456cb591461035d5780638da5cb5b1461036557600080fd5b806370a08231146102d357806370f0f38714610309578063715018a61461034257600080fd5b8063313ce567116101455780633f4ba83a1161011f5780633f4ba83a146102a75780635c975abb146102af5780636845b90a146102c057600080fd5b8063313ce5671461025d578063319f5f6a14610281578063395093511461029457600080fd5b806318160ddd1161017657806318160ddd146101f357806323b872dd1461020557806325eb1c871461021857600080fd5b806306fdde031461019d578063095ea7b3146101bb5780630e07f854146101de575b600080fd5b6101a561041a565b6040516101b29190611c5b565b60405180910390f35b6101ce6101c9366004611c92565b6104a8565b60405190151581526020016101b2565b6101f16101ec366004611d96565b6104c2565b005b6002545b6040519081526020016101b2565b6101ce610213366004611e1b565b61062a565b6007546102389073ffffffffffffffffffffffffffffffffffffffff1681565b60405173ffffffffffffffffffffffffffffffffffffffff90911681526020016101b2565b60055461026f90610100900460ff1681565b60405160ff90911681526020016101b2565b6101f161028f366004611e57565b610650565b6101ce6102a2366004611c92565b610719565b6101f1610765565b60055462010000900460ff166101ce565b6101f76102ce366004611c92565b610777565b6101f76102e1366004611e7b565b73ffffffffffffffffffffffffffffffffffffffff1660009081526020819052604090205490565b60065461032f9074010000000000000000000000000000000000000000900461ffff1681565b60405161ffff90911681526020016101b2565b6101f1610afc565b6101f7610358366004611e96565b610b0e565b6101f1610c2e565b6005546301000000900473ffffffffffffffffffffffffffffffffffffffff16610238565b6101a5610c3e565b6101ce6103a0366004611c92565b610c4b565b6101ce6103b3366004611c92565b610cd1565b6101f76103c6366004611eaf565b73ffffffffffffffffffffffffffffffffffffffff918216600090815260016020908152604080832093909416825291909152205490565b6101f761271081565b6101f1610415366004611e7b565b610cdf565b6003805461042790611ee2565b80601f016020809104026020016040519081016040528092919081815260200182805461045390611ee2565b80156104a05780601f10610475576101008083540402835291602001916104a0565b820191906000526020600020905b81548152906001019060200180831161048357829003601f168201915b505050505081565b6000336104b6818585610d9b565b60019150505b92915050565b60055477010000000000000000000000000000000000000000000000900460ff161561051a576040517f0dc149f000000000000000000000000000000000000000000000000000000000815260040160405180910390fd5b600680547fffffffffffffffffffffffff00000000000000000000000000000000000000001673ffffffffffffffffffffffffffffffffffffffff84161790556105648484610e78565b6007805473ffffffffffffffffffffffffffffffffffffffff83167fffffffffffffffffffffffff0000000000000000000000000000000000000000909116179055600580547fffffffffffffffff00ffffffffffffffffffffffffffffffffffffffffffffff16770100000000000000000000000000000000000000000000001790556040517f2d91d6d870a160ae226bba06eb7e3d58dac90fbc97ef11c41fc758ebdce7ec779061061c90869086908690611f35565b60405180910390a150505050565b600033610638858285610eff565b610643858585610fa6565b60019150505b9392505050565b61065861112b565b6107d08161ffff161115610698576040517f67e3b83500000000000000000000000000000000000000000000000000000000815260040160405180910390fd5b600680547fffffffffffffffffffff0000ffffffffffffffffffffffffffffffffffffffff167401000000000000000000000000000000000000000061ffff8416908102919091179091556040519081527f06cb183e2abbb8ffc414e0877616e04dfbd8f97c654d491fb0e9b3d91a4065ae9060200160405180910390a150565b33600081815260016020908152604080832073ffffffffffffffffffffffffffffffffffffffff871684529091528120549091906104b69082908690610760908790611fb0565b610d9b565b61076d61112b565b6107756111b4565b565b6000610781611231565b6006546040517f70a08231000000000000000000000000000000000000000000000000000000008152336004820152839173ffffffffffffffffffffffffffffffffffffffff16906370a0823190602401602060405180830381865afa1580156107ef573d6000803e3d6000fd5b505050506040513d601f19601f820116820180604052508101906108139190611fc8565b101561084b576040517f1294074900000000000000000000000000000000000000000000000000000000815260040160405180910390fd5b6006546040517f70a0823100000000000000000000000000000000000000000000000000000000815230600482015260009173ffffffffffffffffffffffffffffffffffffffff16906370a0823190602401602060405180830381865afa1580156108ba573d6000803e3d6000fd5b505050506040513d601f19601f820116820180604052508101906108de9190611fc8565b6006549091506109069073ffffffffffffffffffffffffffffffffffffffff163330866112a4565b6006546040517f70a08231000000000000000000000000000000000000000000000000000000008152306004820152600091839173ffffffffffffffffffffffffffffffffffffffff909116906370a0823190602401602060405180830381865afa158015610979573d6000803e3d6000fd5b505050506040513d601f19601f8201168201806040525081019061099d9190611fc8565b6109a79190611fe1565b905060006109b483611380565b6109c66109c18585611fb0565b611380565b6109d09190611ff8565b6109f0906fffffffffffffffffffffffffffffffff16633b9aca00612029565b600754600654919250610a4f9173ffffffffffffffffffffffffffffffffffffffff9091169061271090610a409074010000000000000000000000000000000000000000900461ffff1685612029565b610a4a9190612095565b611506565b60065461271090610a7c9074010000000000000000000000000000000000000000900461ffff1682611fe1565b610a869083612029565b610a909190612095565b9050610a9c8682611506565b6040805173ffffffffffffffffffffffffffffffffffffffff88168152602081018790529081018290527fd25274bb2539acf7dbde007da226679626083e42e373cd181446b074fa1bfa799060600160405180910390a195945050505050565b610b0461112b565b61077560006115f6565b6000610b18611231565b33600090815260208190526040902054821115610b61576040517f1294074900000000000000000000000000000000000000000000000000000000815260040160405180910390fd5b6000610b6c60025490565b90506000610b7f6002633b9aca006121f0565b6002610b8b8685611fe1565b610b9591906121f0565b610ba06002856121f0565b610baa9190611fe1565b610bb49190612095565b9050610bc03385611676565b600654610be49073ffffffffffffffffffffffffffffffffffffffff1633836117b4565b60408051338152602081018690529081018290527f1fcedabf5e3dfc618948643fb7aed15a6901a2e0e8c2960d0ee0ba6e1fe9db219060600160405180910390a19150505b919050565b610c3661112b565b61077561180a565b6004805461042790611ee2565b33600081815260016020908152604080832073ffffffffffffffffffffffffffffffffffffffff8716845290915281205490919083811015610cb9576040517f2c5211c600000000000000000000000000000000000000000000000000000000815260040160405180910390fd5b610cc68286868403610d9b565b506001949350505050565b6000336104b6818585610fa6565b610ce761112b565b73ffffffffffffffffffffffffffffffffffffffff8116610d8f576040517f08c379a000000000000000000000000000000000000000000000000000000000815260206004820152602660248201527f4f776e61626c653a206e6577206f776e657220697320746865207a65726f206160448201527f646472657373000000000000000000000000000000000000000000000000000060648201526084015b60405180910390fd5b610d98816115f6565b50565b73ffffffffffffffffffffffffffffffffffffffff83161580610dd2575073ffffffffffffffffffffffffffffffffffffffff8216155b15610e09576040517fbeac2bc600000000000000000000000000000000000000000000000000000000815260040160405180910390fd5b73ffffffffffffffffffffffffffffffffffffffff83811660008181526001602090815260408083209487168084529482529182902085905590518481527f8c5be1e5ebec7d5bd14f71427d1e84f3dd0314c0f7b2291e5b200ac8c7c3b92591015b60405180910390a3505050565b60055460ff1615610eb5576040517fa741a04500000000000000000000000000000000000000000000000000000000815260040160405180910390fd5b6003610ec1838261224d565b506004610ece828261224d565b5050600580547fffffffffffffffffffffffffffffffffffffffffffffffffffffffffffff00001661120117905550565b73ffffffffffffffffffffffffffffffffffffffff8381166000908152600160209081526040808320938616835292905220547fffffffffffffffffffffffffffffffffffffffffffffffffffffffffffffffff8114610fa05781811015610f93576040517f2c5211c600000000000000000000000000000000000000000000000000000000815260040160405180910390fd5b610fa08484848403610d9b565b50505050565b73ffffffffffffffffffffffffffffffffffffffff83161580610fdd575073ffffffffffffffffffffffffffffffffffffffff8216155b15611014576040517f2f35253100000000000000000000000000000000000000000000000000000000815260040160405180910390fd5b73ffffffffffffffffffffffffffffffffffffffff831660009081526020819052604090205481811015611074576040517f2c5211c600000000000000000000000000000000000000000000000000000000815260040160405180910390fd5b73ffffffffffffffffffffffffffffffffffffffff8085166000908152602081905260408082208585039055918516815290812080548492906110b8908490611fb0565b925050819055508273ffffffffffffffffffffffffffffffffffffffff168473ffffffffffffffffffffffffffffffffffffffff167fddf252ad1be2c89b69c2b068fc378daa952ba7f163c4a11628f55a4df523b3ef8460405161111e91815260200190565b60405180910390a3610fa0565b60055473ffffffffffffffffffffffffffffffffffffffff6301000000909104163314610775576040517f08c379a000000000000000000000000000000000000000000000000000000000815260206004820181905260248201527f4f776e61626c653a2063616c6c6572206973206e6f7420746865206f776e65726044820152606401610d86565b6111bc611867565b600580547fffffffffffffffffffffffffffffffffffffffffffffffffffffffffff00ffff1690557f5db9ee0a495bf2e6ff9c91a7834c1ba4fdd244a5e8aa4e537bd38aeae4b073aa335b60405173ffffffffffffffffffffffffffffffffffffffff909116815260200160405180910390a1565b60055462010000900460ff1615610775576040517f08c379a000000000000000000000000000000000000000000000000000000000815260206004820152601060248201527f5061757361626c653a20706175736564000000000000000000000000000000006044820152606401610d86565b60405173ffffffffffffffffffffffffffffffffffffffff80851660248301528316604482015260648101829052610fa09085907f23b872dd00000000000000000000000000000000000000000000000000000000906084015b604080517fffffffffffffffffffffffffffffffffffffffffffffffffffffffffffffffe08184030181529190526020810180517bffffffffffffffffffffffffffffffffffffffffffffffffffffffff167fffffffff00000000000000000000000000000000000000000000000000000000909316929092179091526118d9565b60008160000361139257506000919050565b81600170010000000000000000000000000000000082106113b85760809190911c9060401b5b6801000000000000000082106113d35760409190911c9060201b5b64010000000082106113ea5760209190911c9060101b5b6201000082106113ff5760109190911c9060081b5b61010082106114135760089190911c9060041b5b601082106114265760049190911c9060021b5b600882106114325760011b5b600181858161144357611443612066565b048201901c9050600181858161145b5761145b612066565b048201901c9050600181858161147357611473612066565b048201901c9050600181858161148b5761148b612066565b048201901c905060018185816114a3576114a3612066565b048201901c905060018185816114bb576114bb612066565b048201901c905060018185816114d3576114d3612066565b048201901c905060008185816114eb576114eb612066565b0490508082106114fb57806114fd565b815b95945050505050565b73ffffffffffffffffffffffffffffffffffffffff8216611553576040517fe6c4247b00000000000000000000000000000000000000000000000000000000815260040160405180910390fd5b80600260008282546115659190611fb0565b909155505073ffffffffffffffffffffffffffffffffffffffff82166000908152602081905260408120805483929061159f908490611fb0565b909155505060405181815273ffffffffffffffffffffffffffffffffffffffff8316906000907fddf252ad1be2c89b69c2b068fc378daa952ba7f163c4a11628f55a4df523b3ef9060200160405180910390a35050565b6005805473ffffffffffffffffffffffffffffffffffffffff83811663010000008181027fffffffffffffffffff0000000000000000000000000000000000000000ffffff85161790945560405193909204169182907f8be0079c531659141344cd1fd0a4f28419497f9722a3daafe3b4186f6b6457e090600090a35050565b73ffffffffffffffffffffffffffffffffffffffff82166116c3576040517f2f35253100000000000000000000000000000000000000000000000000000000815260040160405180910390fd5b73ffffffffffffffffffffffffffffffffffffffff821660009081526020819052604090205481811015611723576040517f2c5211c600000000000000000000000000000000000000000000000000000000815260040160405180910390fd5b73ffffffffffffffffffffffffffffffffffffffff8316600090815260208190526040812083830390556002805484929061175f908490611fe1565b909155505060405182815260009073ffffffffffffffffffffffffffffffffffffffff8516907fddf252ad1be2c89b69c2b068fc378daa952ba7f163c4a11628f55a4df523b3ef90602001610e6b565b505050565b60405173ffffffffffffffffffffffffffffffffffffffff83166024820152604481018290526117af9084907fa9059cbb00000000000000000000000000000000000000000000000000000000906064016112fe565b611812611231565b600580547fffffffffffffffffffffffffffffffffffffffffffffffffffffffffff00ffff16620100001790557f62e78cea01bee320cd4e420270b5ea74000d11b0c9f74754ebdbfc544b05a2586112073390565b60055462010000900460ff16610775576040517f08c379a000000000000000000000000000000000000000000000000000000000815260206004820152601460248201527f5061757361626c653a206e6f74207061757365640000000000000000000000006044820152606401610d86565b600061193b826040518060400160405280602081526020017f5361666545524332303a206c6f772d6c6576656c2063616c6c206661696c65648152508573ffffffffffffffffffffffffffffffffffffffff166119e59092919063ffffffff16565b8051909150156117af57808060200190518101906119599190612367565b6117af576040517f08c379a000000000000000000000000000000000000000000000000000000000815260206004820152602a60248201527f5361666545524332303a204552433230206f7065726174696f6e20646964206e60448201527f6f742073756363656564000000000000000000000000000000000000000000006064820152608401610d86565b60606119f484846000856119fc565b949350505050565b606082471015611a8e576040517f08c379a000000000000000000000000000000000000000000000000000000000815260206004820152602660248201527f416464726573733a20696e73756666696369656e742062616c616e636520666f60448201527f722063616c6c00000000000000000000000000000000000000000000000000006064820152608401610d86565b73ffffffffffffffffffffffffffffffffffffffff85163b611b0c576040517f08c379a000000000000000000000000000000000000000000000000000000000815260206004820152601d60248201527f416464726573733a2063616c6c20746f206e6f6e2d636f6e74726163740000006044820152606401610d86565b6000808673ffffffffffffffffffffffffffffffffffffffff168587604051611b359190612389565b60006040518083038185875af1925050503d8060008114611b72576040519150601f19603f3d011682016040523d82523d6000602084013e611b77565b606091505b5091509150611b87828286611b92565b979650505050505050565b60608315611ba1575081610649565b825115611bb15782518084602001fd5b816040517f08c379a0000000000000000000000000000000000000000000000000000000008152600401610d869190611c5b565b60005b83811015611c00578181015183820152602001611be8565b83811115610fa05750506000910152565b60008151808452611c29816020860160208601611be5565b601f017fffffffffffffffffffffffffffffffffffffffffffffffffffffffffffffffe0169290920160200192915050565b6020815260006106496020830184611c11565b803573ffffffffffffffffffffffffffffffffffffffff81168114610c2957600080fd5b60008060408385031215611ca557600080fd5b611cae83611c6e565b946020939093013593505050565b7f4e487b7100000000000000000000000000000000000000000000000000000000600052604160045260246000fd5b600082601f830112611cfc57600080fd5b813567ffffffffffffffff80821115611d1757611d17611cbc565b604051601f83017fffffffffffffffffffffffffffffffffffffffffffffffffffffffffffffffe0908116603f01168101908282118183101715611d5d57611d5d611cbc565b81604052838152866020858801011115611d7657600080fd5b836020870160208301376000602085830101528094505050505092915050565b60008060008060808587031215611dac57600080fd5b843567ffffffffffffffff80821115611dc457600080fd5b611dd088838901611ceb565b95506020870135915080821115611de657600080fd5b50611df387828801611ceb565b935050611e0260408601611c6e565b9150611e1060608601611c6e565b905092959194509250565b600080600060608486031215611e3057600080fd5b611e3984611c6e565b9250611e4760208501611c6e565b9150604084013590509250925092565b600060208284031215611e6957600080fd5b813561ffff8116811461064957600080fd5b600060208284031215611e8d57600080fd5b61064982611c6e565b600060208284031215611ea857600080fd5b5035919050565b60008060408385031215611ec257600080fd5b611ecb83611c6e565b9150611ed960208401611c6e565b90509250929050565b600181811c90821680611ef657607f821691505b602082108103611f2f577f4e487b7100000000000000000000000000000000000000000000000000000000600052602260045260246000fd5b50919050565b606081526000611f486060830186611c11565b8281036020840152611f5a8186611c11565b91505073ffffffffffffffffffffffffffffffffffffffff83166040830152949350505050565b7f4e487b7100000000000000000000000000000000000000000000000000000000600052601160045260246000fd5b60008219821115611fc357611fc3611f81565b500190565b600060208284031215611fda57600080fd5b5051919050565b600082821015611ff357611ff3611f81565b500390565b60006fffffffffffffffffffffffffffffffff8381169083168181101561202157612021611f81565b039392505050565b6000817fffffffffffffffffffffffffffffffffffffffffffffffffffffffffffffffff048311821515161561206157612061611f81565b500290565b7f4e487b7100000000000000000000000000000000000000000000000000000000600052601260045260246000fd5b6000826120cb577f4e487b7100000000000000000000000000000000000000000000000000000000600052601260045260246000fd5b500490565b600181815b8085111561212957817fffffffffffffffffffffffffffffffffffffffffffffffffffffffffffffffff0482111561210f5761210f611f81565b8085161561211c57918102915b93841c93908002906120d5565b509250929050565b600082612140575060016104bc565b8161214d575060006104bc565b8160018114612163576002811461216d57612189565b60019150506104bc565b60ff84111561217e5761217e611f81565b50506001821b6104bc565b5060208310610133831016604e8410600b84101617156121ac575081810a6104bc565b6121b683836120d0565b807fffffffffffffffffffffffffffffffffffffffffffffffffffffffffffffffff048211156121e8576121e8611f81565b029392505050565b600061064960ff841683612131565b601f8211156117af57600081815260208120601f850160051c810160208610156122265750805b601f850160051c820191505b8181101561224557828155600101612232565b505050505050565b815167ffffffffffffffff81111561226757612267611cbc565b61227b816122758454611ee2565b846121ff565b602080601f8311600181146122ce57600084156122985750858301515b7fffffffffffffffffffffffffffffffffffffffffffffffffffffffffffffffff600386901b1c1916600185901b178555612245565b6000858152602081207fffffffffffffffffffffffffffffffffffffffffffffffffffffffffffffffe08616915b8281101561231b578886015182559484019460019091019084016122fc565b508582101561235757878501517fffffffffffffffffffffffffffffffffffffffffffffffffffffffffffffffff600388901b60f8161c191681555b5050505050600190811b01905550565b60006020828403121561237957600080fd5b8151801515811461064957600080fd5b6000825161239b818460208701611be5565b919091019291505056fea264697066735822122068bf085a9faf123d3c6208d8beda006735600d68ac3c003f84e101055c0d41ac64736f6c634300080f0033",
  "linkReferences": {},
  "deployedLinkReferences": {}
}