{
  "_format": "hh-sol-artifact-1",
  "contractName": "AvatarxGuild",
  "sourceName": "contracts/AvatarxGuild.sol",
  "abi": [
    {
      "inputs": [],
      "name": "AlreadyInitialized",
      "type": "error"
    },
    {
      "inputs": [],
      "name": "AlreadySet",
      "type": "error"
    },
    {
      "inputs": [],
      "name": "InvalidParameters",
      "type": "error"
    },
    {
      "inputs": [],
      "name": "NotDisabled",
      "type": "error"
    },
    {
      "inputs": [],
      "name": "NotEnabled",
      "type": "error"
    },
    {
      "inputs": [],
      "name": "NotWhitelisted",
      "type": "error"
    },
    {
      "inputs": [],
      "name": "Unauthorized",
      "type": "error"
    },
    {
      "anonymous": false,
      "inputs": [
        {
          "indexed": false,
          "internalType": "address",
          "name": "module",
          "type": "address"
        }
      ],
      "name": "DisabledModule",
      "type": "event"
    },
    {
      "anonymous": false,
      "inputs": [
        {
          "indexed": false,
          "internalType": "address",
          "name": "module",
          "type": "address"
        }
      ],
      "name": "EnabledModule",
      "type": "event"
    },
    {
      "anonymous": false,
      "inputs": [
        {
          "indexed": false,
          "internalType": "address",
          "name": "governorAddress",
          "type": "address"
        }
      ],
      "name": "ExecutionFromGovernorFailure",
      "type": "event"
    },
    {
      "anonymous": false,
      "inputs": [
        {
          "indexed": false,
          "internalType": "address",
          "name": "governorAddress",
          "type": "address"
        }
      ],
      "name": "ExecutionFromGovernorSuccess",
      "type": "event"
    },
    {
      "anonymous": false,
      "inputs": [
        {
          "indexed": true,
          "internalType": "address",
          "name": "module",
          "type": "address"
        }
      ],
      "name": "ExecutionFromModuleFailure",
      "type": "event"
    },
    {
      "anonymous": false,
      "inputs": [
        {
          "indexed": true,
          "internalType": "address",
          "name": "module",
          "type": "address"
        }
      ],
      "name": "ExecutionFromModuleSuccess",
      "type": "event"
    },
    {
      "anonymous": false,
      "inputs": [
        {
          "indexed": false,
          "internalType": "address",
          "name": "newGovernor",
          "type": "address"
        }
      ],
      "name": "GovernorSet",
      "type": "event"
    },
    {
      "anonymous": false,
      "inputs": [
        {
          "indexed": false,
          "internalType": "address",
          "name": "owner",
          "type": "address"
        },
        {
          "indexed": false,
          "internalType": "address",
          "name": "governorAddress",
          "type": "address"
        }
      ],
      "name": "Initialized",
      "type": "event"
    },
    {
      "inputs": [
        {
          "internalType": "address",
          "name": "prevModule",
          "type": "address"
        },
        {
          "internalType": "address",
          "name": "module",
          "type": "address"
        }
      ],
      "name": "disableModule",
      "outputs": [],
      "stateMutability": "nonpayable",
      "type": "function"
    },
    {
      "inputs": [
        {
          "internalType": "address",
          "name": "module",
          "type": "address"
        }
      ],
      "name": "enableModule",
      "outputs": [],
      "stateMutability": "nonpayable",
      "type": "function"
    },
    {
      "inputs": [
        {
          "internalType": "address",
          "name": "to",
          "type": "address"
        },
        {
          "internalType": "uint256",
          "name": "value",
          "type": "uint256"
        },
        {
          "internalType": "bytes",
          "name": "data",
          "type": "bytes"
        },
        {
          "internalType": "enum Enum.Operation",
          "name": "operation",
          "type": "uint8"
        }
      ],
      "name": "execTransactionFromModule",
      "outputs": [
        {
          "internalType": "bool",
          "name": "success",
          "type": "bool"
        }
      ],
      "stateMutability": "nonpayable",
      "type": "function"
    },
    {
      "inputs": [
        {
          "internalType": "address",
          "name": "to",
          "type": "address"
        },
        {
          "internalType": "uint256",
          "name": "value",
          "type": "uint256"
        },
        {
          "internalType": "bytes",
          "name": "data",
          "type": "bytes"
        },
        {
          "internalType": "enum Enum.Operation",
          "name": "operation",
          "type": "uint8"
        }
      ],
      "name": "execTransactionFromModuleReturnData",
      "outputs": [
        {
          "internalType": "bool",
          "name": "success",
          "type": "bool"
        },
        {
          "internalType": "bytes",
          "name": "returnData",
          "type": "bytes"
        }
      ],
      "stateMutability": "nonpayable",
      "type": "function"
    },
    {
      "inputs": [
        {
          "internalType": "address",
          "name": "target",
          "type": "address"
        },
        {
          "internalType": "uint256",
          "name": "value",
          "type": "uint256"
        },
        {
          "internalType": "bytes",
          "name": "proposal",
          "type": "bytes"
        },
        {
          "internalType": "enum Enum.Operation",
          "name": "operation",
          "type": "uint8"
        }
      ],
      "name": "executeProposal",
      "outputs": [
        {
          "internalType": "bool",
          "name": "",
          "type": "bool"
        }
      ],
      "stateMutability": "nonpayable",
      "type": "function"
    },
    {
      "inputs": [
        {
          "internalType": "address",
          "name": "start",
          "type": "address"
        },
        {
          "internalType": "uint256",
          "name": "pageSize",
          "type": "uint256"
        }
      ],
      "name": "getModulesPaginated",
      "outputs": [
        {
          "internalType": "address[]",
          "name": "array",
          "type": "address[]"
        },
        {
          "internalType": "address",
          "name": "next",
          "type": "address"
        }
      ],
      "stateMutability": "view",
      "type": "function"
    },
    {
      "inputs": [],
      "name": "governor",
      "outputs": [
        {
          "internalType": "address",
          "name": "",
          "type": "address"
        }
      ],
      "stateMutability": "view",
      "type": "function"
    },
    {
      "inputs": [
        {
          "internalType": "address",
          "name": "realityAddress",
          "type": "address"
        },
        {
          "internalType": "address",
          "name": "governorAddress",
          "type": "address"
        }
      ],
      "name": "init",
      "outputs": [
        {
          "internalType": "bool",
          "name": "",
          "type": "bool"
        }
      ],
      "stateMutability": "nonpayable",
      "type": "function"
    },
    {
      "inputs": [
        {
          "internalType": "address",
          "name": "module",
          "type": "address"
        }
      ],
      "name": "isModuleEnabled",
      "outputs": [
        {
          "internalType": "bool",
          "name": "",
          "type": "bool"
        }
      ],
      "stateMutability": "view",
      "type": "function"
    },
    {
      "inputs": [
        {
          "internalType": "address[]",
          "name": "targets",
          "type": "address[]"
        },
        {
          "internalType": "uint256[]",
          "name": "values",
          "type": "uint256[]"
        },
        {
          "internalType": "bytes[]",
          "name": "data",
          "type": "bytes[]"
        }
      ],
      "name": "proposeAfterVote",
      "outputs": [],
      "stateMutability": "nonpayable",
      "type": "function"
    },
    {
      "inputs": [],
      "name": "reality",
      "outputs": [
        {
          "internalType": "address",
          "name": "",
          "type": "address"
        }
      ],
      "stateMutability": "view",
      "type": "function"
    },
    {
      "inputs": [
        {
          "internalType": "address",
          "name": "newGovernor",
          "type": "address"
        }
      ],
      "name": "setGovernor",
      "outputs": [],
      "stateMutability": "nonpayable",
      "type": "function"
    }
  ],
  "bytecode": "0x608060405234801561001057600080fd5b50611845806100206000396000f3fe608060405234801561001057600080fd5b50600436106100d45760003560e01c8063a4e02b0b11610081578063cc2f84521161005b578063cc2f8452146101e8578063e009cfde14610209578063f09a40161461021c57600080fd5b8063a4e02b0b146101a2578063be3ab83c146101b5578063c42cf535146101d557600080fd5b80634ed2c963116100b25780634ed2c963146101595780635229073f1461016c578063610b59251461018d57600080fd5b80630c340a24146100d95780632d9ad53d14610123578063468721a714610146575b600080fd5b6000546100f99073ffffffffffffffffffffffffffffffffffffffff1681565b60405173ffffffffffffffffffffffffffffffffffffffff90911681526020015b60405180910390f35b61013661013136600461104a565b61022f565b604051901515815260200161011a565b61013661015436600461107b565b610284565b610136610167366004611197565b610483565b61017f61017a36600461107b565b61064b565b60405161011a9291906112a5565b6101a061019b36600461104a565b610815565b005b6101a06101b03660046113d3565b6109d8565b6001546100f99073ffffffffffffffffffffffffffffffffffffffff1681565b6101a06101e336600461104a565b610acf565b6101fb6101f63660046114ba565b610bd0565b60405161011a929190611535565b6101a061021736600461156d565b610cfd565b61013661022a36600461156d565b610eaa565b6000600173ffffffffffffffffffffffffffffffffffffffff83161480159061027e575073ffffffffffffffffffffffffffffffffffffffff8281166000908152600260205260409020541615155b92915050565b600033600114806102b857503360009081526002602052604090205473ffffffffffffffffffffffffffffffffffffffff16155b156102ef576040517f584a793800000000000000000000000000000000000000000000000000000000815260040160405180910390fd5b60405133907f6895c13664aa4f67288b25d7a21d7aaa34916e355fb9b6fae0a139a9085becb890600090a281600181111561032c5761032c6115a0565b60ff166001036103a8578573ffffffffffffffffffffffffffffffffffffffff16848460405161035d9291906115cf565b600060405180830381855af49150503d8060008114610398576040519150601f19603f3d011682016040523d82523d6000602084013e61039d565b606091505b505080915050610418565b8573ffffffffffffffffffffffffffffffffffffffff168585856040516103d09291906115cf565b60006040518083038185875af1925050503d806000811461040d576040519150601f19603f3d011682016040523d82523d6000602084013e610412565b606091505b50909150505b801561044e5760405133907f6895c13664aa4f67288b25d7a21d7aaa34916e355fb9b6fae0a139a9085becb890600090a261047a565b60405133907facd2c8702804128fdb0db2bb49f6d127dd0181c13fd45dbfe16de0930e2bd37590600090a25b95945050505050565b6000805473ffffffffffffffffffffffffffffffffffffffff1633146104d5576040517f82b4290000000000000000000000000000000000000000000000000000000000815260040160405180910390fd5b60008260018111156104e9576104e96115a0565b60ff16600103610563578573ffffffffffffffffffffffffffffffffffffffff168460405161051891906115df565b600060405180830381855af49150503d8060008114610553576040519150601f19603f3d011682016040523d82523d6000602084013e610558565b606091505b5050809150506105d1565b8573ffffffffffffffffffffffffffffffffffffffff16858560405161058991906115df565b60006040518083038185875af1925050503d80600081146105c6576040519150601f19603f3d011682016040523d82523d6000602084013e6105cb565b606091505b50909150505b801561060f576040513381527f419042a06aef1fd82621f5ded2b69de152b3826c11b125ef4b8bccf780b27bed9060200160405180910390a161047a565b6040513381527f8dd6c7c84239eb0a066e4cc72c8aa1d89da995ca7fe9629d124c14a5d2dea1339060200160405180910390a195945050505050565b3360009081526002602052604081205460609073ffffffffffffffffffffffffffffffffffffffff166106aa576040517f584a793800000000000000000000000000000000000000000000000000000000815260040160405180910390fd5b8260018111156106bc576106bc6115a0565b60ff16600103610738578673ffffffffffffffffffffffffffffffffffffffff1685856040516106ed9291906115cf565b600060405180830381855af49150503d8060008114610728576040519150601f19603f3d011682016040523d82523d6000602084013e61072d565b606091505b5050809250506107a9565b8673ffffffffffffffffffffffffffffffffffffffff168686866040516107609291906115cf565b60006040518083038185875af1925050503d806000811461079d576040519150601f19603f3d011682016040523d82523d6000602084013e6107a2565b606091505b5090925090505b81156107df5760405133907f6895c13664aa4f67288b25d7a21d7aaa34916e355fb9b6fae0a139a9085becb890600090a261080b565b60405133907facd2c8702804128fdb0db2bb49f6d127dd0181c13fd45dbfe16de0930e2bd37590600090a25b9550959350505050565b33301461084e576040517f82b4290000000000000000000000000000000000000000000000000000000000815260040160405180910390fd5b73ffffffffffffffffffffffffffffffffffffffff81161580610887575073ffffffffffffffffffffffffffffffffffffffff81166001145b156108be576040517f7ea8ac5600000000000000000000000000000000000000000000000000000000815260040160405180910390fd5b73ffffffffffffffffffffffffffffffffffffffff818116600090815260026020526040902054161561091d576040517fe523909000000000000000000000000000000000000000000000000000000000815260040160405180910390fd5b600260209081527fe90b7bceb6e7df5418fb78d8ee546e97c83a08bbccc01a0644d599ccd2a7c2e0805473ffffffffffffffffffffffffffffffffffffffff848116600081815260408082208054949095167fffffffffffffffffffffffff0000000000000000000000000000000000000000948516179094556001905283549091168117909255519081527fecdf3a3effea5783a3c4c2140e677577666428d44ed9d474a0b3a4c9943f844091015b60405180910390a150565b60015473ffffffffffffffffffffffffffffffffffffffff163314610a29576040517f82b4290000000000000000000000000000000000000000000000000000000000815260040160405180910390fd5b6000546040517fa8f8425900000000000000000000000000000000000000000000000000000000815273ffffffffffffffffffffffffffffffffffffffff9091169063a8f8425990610a85908790879087908790600401611644565b6020604051808303816000875af1158015610aa4573d6000803e3d6000fd5b505050506040513d601f19601f82011682018060405250810190610ac89190611768565b5050505050565b333014610b08576040517f82b4290000000000000000000000000000000000000000000000000000000000815260040160405180910390fd5b60005473ffffffffffffffffffffffffffffffffffffffff90811690821603610b5d576040517f0dc149f000000000000000000000000000000000000000000000000000000000815260040160405180910390fd5b600080547fffffffffffffffffffffffff00000000000000000000000000000000000000001673ffffffffffffffffffffffffffffffffffffffff83169081179091556040519081527f1cbb37f5a02c38ab13773cb770fae505cce417a4d81560117389e3a9f7e001f2906020016109cd565b606060008267ffffffffffffffff811115610bed57610bed611119565b604051908082528060200260200182016040528015610c16578160200160208202803683370190505b5073ffffffffffffffffffffffffffffffffffffffff80861660009081526002602052604081205492945091165b73ffffffffffffffffffffffffffffffffffffffff811615801590610c80575073ffffffffffffffffffffffffffffffffffffffff8116600114155b8015610c8b57508482105b15610cf05780848381518110610ca357610ca3611781565b73ffffffffffffffffffffffffffffffffffffffff928316602091820292909201810191909152918116600090815260029092526040909120541681610ce8816117b0565b925050610c44565b90835290505b9250929050565b333014610d36576040517f82b4290000000000000000000000000000000000000000000000000000000000815260040160405180910390fd5b73ffffffffffffffffffffffffffffffffffffffff81161580610d6f575073ffffffffffffffffffffffffffffffffffffffff81166001145b15610da6576040517f5b3d539f00000000000000000000000000000000000000000000000000000000815260040160405180910390fd5b73ffffffffffffffffffffffffffffffffffffffff828116600090815260026020526040902054811690821614610e09576040517fe523909000000000000000000000000000000000000000000000000000000000815260040160405180910390fd5b73ffffffffffffffffffffffffffffffffffffffff8181166000818152600260209081526040808320805488871685528285208054919097167fffffffffffffffffffffffff00000000000000000000000000000000000000009182161790965592849052825490941690915591519081527faab4fa2b463f581b2b32cb3b7e3b704b9ce37cc209b5fb4d77e593ace4054276910160405180910390a15050565b60015460009074010000000000000000000000000000000000000000900460ff1615610f02576040517f0dc149f000000000000000000000000000000000000000000000000000000000815260040160405180910390fd5b6000805473ffffffffffffffffffffffffffffffffffffffff8085167fffffffffffffffffffffffff0000000000000000000000000000000000000000928316178355600180547fffffffffffffffffffffff000000000000000000000000000000000000000000168783161774010000000000000000000000000000000000000000178082559352600260208190527fe90b7bceb6e7df5418fb78d8ee546e97c83a08bbccc01a0644d599ccd2a7c2e08054909316179091556040517f3cd5ec01b1ae7cfec6ca1863e2cd6aa25d6d1702825803ff2b7cc95010fffdc292611010921690859073ffffffffffffffffffffffffffffffffffffffff92831681529116602082015260400190565b60405180910390a150600192915050565b803573ffffffffffffffffffffffffffffffffffffffff8116811461104557600080fd5b919050565b60006020828403121561105c57600080fd5b61106582611021565b9392505050565b80356002811061104557600080fd5b60008060008060006080868803121561109357600080fd5b61109c86611021565b945060208601359350604086013567ffffffffffffffff808211156110c057600080fd5b818801915088601f8301126110d457600080fd5b8135818111156110e357600080fd5b8960208285010111156110f557600080fd5b60208301955080945050505061110d6060870161106c565b90509295509295909350565b7f4e487b7100000000000000000000000000000000000000000000000000000000600052604160045260246000fd5b604051601f82017fffffffffffffffffffffffffffffffffffffffffffffffffffffffffffffffe016810167ffffffffffffffff8111828210171561118f5761118f611119565b604052919050565b600080600080608085870312156111ad57600080fd5b6111b685611021565b93506020808601359350604086013567ffffffffffffffff808211156111db57600080fd5b818801915088601f8301126111ef57600080fd5b81358181111561120157611201611119565b611231847fffffffffffffffffffffffffffffffffffffffffffffffffffffffffffffffe0601f84011601611148565b9150808252898482850101111561124757600080fd5b808484018584013760008482840101525080945050505061126a6060860161106c565b905092959194509250565b60005b83811015611290578181015183820152602001611278565b8381111561129f576000848401525b50505050565b821515815260406020820152600082518060408401526112cc816060850160208701611275565b601f017fffffffffffffffffffffffffffffffffffffffffffffffffffffffffffffffe016919091016060019392505050565b600067ffffffffffffffff82111561131957611319611119565b5060051b60200190565b600082601f83011261133457600080fd5b81356020611349611344836112ff565b611148565b82815260059290921b8401810191818101908684111561136857600080fd5b8286015b84811015611383578035835291830191830161136c565b509695505050505050565b60008083601f8401126113a057600080fd5b50813567ffffffffffffffff8111156113b857600080fd5b6020830191508360208260051b8501011115610cf657600080fd5b600080600080606085870312156113e957600080fd5b843567ffffffffffffffff8082111561140157600080fd5b818701915087601f83011261141557600080fd5b81356020611425611344836112ff565b82815260059290921b8401810191818101908b84111561144457600080fd5b948201945b838610156114695761145a86611021565b82529482019490820190611449565b9850508801359250508082111561147f57600080fd5b61148b88838901611323565b945060408701359150808211156114a157600080fd5b506114ae8782880161138e565b95989497509550505050565b600080604083850312156114cd57600080fd5b6114d683611021565b946020939093013593505050565b600081518084526020808501945080840160005b8381101561152a57815173ffffffffffffffffffffffffffffffffffffffff16875295820195908201906001016114f8565b509495945050505050565b60408152600061154860408301856114e4565b905073ffffffffffffffffffffffffffffffffffffffff831660208301529392505050565b6000806040838503121561158057600080fd5b61158983611021565b915061159760208401611021565b90509250929050565b7f4e487b7100000000000000000000000000000000000000000000000000000000600052602160045260246000fd5b8183823760009101908152919050565b600082516115f1818460208701611275565b9190910192915050565b8183528181602085013750600060208284010152600060207fffffffffffffffffffffffffffffffffffffffffffffffffffffffffffffffe0601f840116840101905092915050565b60608152600061165760608301876114e4565b82810360208481019190915286518083528782019282019060005b8181101561168e57845183529383019391830191600101611672565b505084810360408601528581528181019250600586901b810182018760005b88811015611758577fffffffffffffffffffffffffffffffffffffffffffffffffffffffffffffffe084840301865281357fffffffffffffffffffffffffffffffffffffffffffffffffffffffffffffffe18b360301811261170e57600080fd5b8a01858101903567ffffffffffffffff81111561172a57600080fd5b80360382131561173957600080fd5b6117448582846115fb565b9787019794505050908401906001016116ad565b50909a9950505050505050505050565b60006020828403121561177a57600080fd5b5051919050565b7f4e487b7100000000000000000000000000000000000000000000000000000000600052603260045260246000fd5b60007fffffffffffffffffffffffffffffffffffffffffffffffffffffffffffffffff8203611808577f4e487b7100000000000000000000000000000000000000000000000000000000600052601160045260246000fd5b506001019056fea2646970667358221220cb9ec92f1a287a778daabcd4f3068572c1c937e8fe9d69455bcde1e19fe8fa4b64736f6c634300080f0033",
  "linkReferences": {},
  "deployedLinkReferences": {}
}