{
  "_format": "hh-sol-artifact-1",
  "contractName": "dAMORxGuild",
  "sourceName": "contracts/dAMORxGuild.sol",
  "abi": [
    {
      "inputs": [],
      "name": "AddressZero",
      "type": "error"
    },
    {
      "inputs": [],
      "name": "AlreadyInitialized",
      "type": "error"
    },
    {
      "inputs": [],
      "name": "AlreadySet",
      "type": "error"
    },
    {
      "inputs": [],
      "name": "EmptyArray",
      "type": "error"
    },
    {
      "inputs": [],
      "name": "InvalidAddress",
      "type": "error"
    },
    {
      "inputs": [],
      "name": "InvalidAmount",
      "type": "error"
    },
    {
      "inputs": [],
      "name": "InvalidApprove",
      "type": "error"
    },
    {
      "inputs": [],
      "name": "InvalidSender",
      "type": "error"
    },
    {
      "inputs": [],
      "name": "InvalidTransfer",
      "type": "error"
    },
    {
      "inputs": [],
      "name": "NotDelegatedAny",
      "type": "error"
    },
    {
      "inputs": [],
      "name": "TimeTooBig",
      "type": "error"
    },
    {
      "inputs": [],
      "name": "TimeTooSmall",
      "type": "error"
    },
    {
      "inputs": [],
      "name": "Unauthorized",
      "type": "error"
    },
    {
      "anonymous": false,
      "inputs": [
        {
          "indexed": false,
          "internalType": "address",
          "name": "from",
          "type": "address"
        },
        {
          "indexed": false,
          "internalType": "uint256",
          "name": "amount",
          "type": "uint256"
        },
        {
          "indexed": false,
          "internalType": "uint256",
          "name": "mintAmount",
          "type": "uint256"
        },
        {
          "indexed": false,
          "internalType": "uint256",
          "name": "time",
          "type": "uint256"
        }
      ],
      "name": "AMORxGuildStakIncreasedToDAMOR",
      "type": "event"
    },
    {
      "anonymous": false,
      "inputs": [
        {
          "indexed": false,
          "internalType": "address",
          "name": "from",
          "type": "address"
        },
        {
          "indexed": false,
          "internalType": "uint256",
          "name": "amount",
          "type": "uint256"
        },
        {
          "indexed": false,
          "internalType": "uint256",
          "name": "mintAmount",
          "type": "uint256"
        },
        {
          "indexed": false,
          "internalType": "uint256",
          "name": "time",
          "type": "uint256"
        }
      ],
      "name": "AMORxGuildStakedToDAMOR",
      "type": "event"
    },
    {
      "anonymous": false,
      "inputs": [
        {
          "indexed": false,
          "internalType": "address",
          "name": "to",
          "type": "address"
        },
        {
          "indexed": false,
          "internalType": "uint256",
          "name": "burnedDAMORxGuild",
          "type": "uint256"
        },
        {
          "indexed": false,
          "internalType": "uint256",
          "name": "returnedAMORxGuild",
          "type": "uint256"
        }
      ],
      "name": "AMORxGuildWithdrawedFromDAMOR",
      "type": "event"
    },
    {
      "anonymous": false,
      "inputs": [
        {
          "indexed": true,
          "internalType": "address",
          "name": "owner",
          "type": "address"
        },
        {
          "indexed": true,
          "internalType": "address",
          "name": "spender",
          "type": "address"
        },
        {
          "indexed": false,
          "internalType": "uint256",
          "name": "value",
          "type": "uint256"
        }
      ],
      "name": "Approval",
      "type": "event"
    },
    {
      "anonymous": false,
      "inputs": [
        {
          "indexed": false,
          "internalType": "bool",
          "name": "success",
          "type": "bool"
        },
        {
          "indexed": false,
          "internalType": "address",
          "name": "owner",
          "type": "address"
        },
        {
          "indexed": false,
          "internalType": "address",
          "name": "AMORxGuild",
          "type": "address"
        },
        {
          "indexed": false,
          "internalType": "uint256",
          "name": "amount",
          "type": "uint256"
        }
      ],
      "name": "Initialized",
      "type": "event"
    },
    {
      "anonymous": false,
      "inputs": [
        {
          "indexed": true,
          "internalType": "address",
          "name": "previousOwner",
          "type": "address"
        },
        {
          "indexed": true,
          "internalType": "address",
          "name": "newOwner",
          "type": "address"
        }
      ],
      "name": "OwnershipTransferred",
      "type": "event"
    },
    {
      "anonymous": false,
      "inputs": [
        {
          "indexed": true,
          "internalType": "address",
          "name": "from",
          "type": "address"
        },
        {
          "indexed": true,
          "internalType": "address",
          "name": "to",
          "type": "address"
        },
        {
          "indexed": false,
          "internalType": "uint256",
          "name": "value",
          "type": "uint256"
        }
      ],
      "name": "Transfer",
      "type": "event"
    },
    {
      "anonymous": false,
      "inputs": [
        {
          "indexed": false,
          "internalType": "address",
          "name": "to",
          "type": "address"
        },
        {
          "indexed": false,
          "internalType": "address",
          "name": "owner",
          "type": "address"
        },
        {
          "indexed": false,
          "internalType": "uint256",
          "name": "amount",
          "type": "uint256"
        }
      ],
      "name": "dAMORxGuildDelegated",
      "type": "event"
    },
    {
      "anonymous": false,
      "inputs": [
        {
          "indexed": false,
          "internalType": "address",
          "name": "from",
          "type": "address"
        },
        {
          "indexed": false,
          "internalType": "address",
          "name": "owner",
          "type": "address"
        },
        {
          "indexed": false,
          "internalType": "uint256",
          "name": "amount",
          "type": "uint256"
        }
      ],
      "name": "dAMORxGuildUndelegated",
      "type": "event"
    },
    {
      "inputs": [],
      "name": "COEFFICIENT",
      "outputs": [
        {
          "internalType": "uint256",
          "name": "",
          "type": "uint256"
        }
      ],
      "stateMutability": "view",
      "type": "function"
    },
    {
      "inputs": [],
      "name": "MAX_LOCK_TIME",
      "outputs": [
        {
          "internalType": "uint256",
          "name": "",
          "type": "uint256"
        }
      ],
      "stateMutability": "view",
      "type": "function"
    },
    {
      "inputs": [],
      "name": "MIN_LOCK_TIME",
      "outputs": [
        {
          "internalType": "uint256",
          "name": "",
          "type": "uint256"
        }
      ],
      "stateMutability": "view",
      "type": "function"
    },
    {
      "inputs": [],
      "name": "TIME_DENOMINATOR",
      "outputs": [
        {
          "internalType": "uint256",
          "name": "",
          "type": "uint256"
        }
      ],
      "stateMutability": "view",
      "type": "function"
    },
    {
      "inputs": [
        {
          "internalType": "address",
          "name": "owner",
          "type": "address"
        },
        {
          "internalType": "address",
          "name": "spender",
          "type": "address"
        }
      ],
      "name": "allowance",
      "outputs": [
        {
          "internalType": "uint256",
          "name": "",
          "type": "uint256"
        }
      ],
      "stateMutability": "view",
      "type": "function"
    },
    {
      "inputs": [
        {
          "internalType": "address",
          "name": "",
          "type": "address"
        }
      ],
      "name": "amountDelegated",
      "outputs": [
        {
          "internalType": "uint256",
          "name": "",
          "type": "uint256"
        }
      ],
      "stateMutability": "view",
      "type": "function"
    },
    {
      "inputs": [
        {
          "internalType": "address",
          "name": "spender",
          "type": "address"
        },
        {
          "internalType": "uint256",
          "name": "amount",
          "type": "uint256"
        }
      ],
      "name": "approve",
      "outputs": [
        {
          "internalType": "bool",
          "name": "",
          "type": "bool"
        }
      ],
      "stateMutability": "nonpayable",
      "type": "function"
    },
    {
      "inputs": [
        {
          "internalType": "address",
          "name": "account",
          "type": "address"
        }
      ],
      "name": "balanceOf",
      "outputs": [
        {
          "internalType": "uint256",
          "name": "",
          "type": "uint256"
        }
      ],
      "stateMutability": "view",
      "type": "function"
    },
    {
      "inputs": [],
      "name": "decimals",
      "outputs": [
        {
          "internalType": "uint8",
          "name": "",
          "type": "uint8"
        }
      ],
      "stateMutability": "view",
      "type": "function"
    },
    {
      "inputs": [
        {
          "internalType": "address",
          "name": "spender",
          "type": "address"
        },
        {
          "internalType": "uint256",
          "name": "subtractedValue",
          "type": "uint256"
        }
      ],
      "name": "decreaseAllowance",
      "outputs": [
        {
          "internalType": "bool",
          "name": "",
          "type": "bool"
        }
      ],
      "stateMutability": "nonpayable",
      "type": "function"
    },
    {
      "inputs": [
        {
          "internalType": "address",
          "name": "to",
          "type": "address"
        },
        {
          "internalType": "uint256",
          "name": "amount",
          "type": "uint256"
        }
      ],
      "name": "delegate",
      "outputs": [],
      "stateMutability": "nonpayable",
      "type": "function"
    },
    {
      "inputs": [
        {
          "internalType": "address",
          "name": "",
          "type": "address"
        },
        {
          "internalType": "uint256",
          "name": "",
          "type": "uint256"
        }
      ],
      "name": "delegation",
      "outputs": [
        {
          "internalType": "address",
          "name": "",
          "type": "address"
        }
      ],
      "stateMutability": "view",
      "type": "function"
    },
    {
      "inputs": [
        {
          "internalType": "address",
          "name": "",
          "type": "address"
        },
        {
          "internalType": "address",
          "name": "",
          "type": "address"
        }
      ],
      "name": "delegations",
      "outputs": [
        {
          "internalType": "uint256",
          "name": "",
          "type": "uint256"
        }
      ],
      "stateMutability": "view",
      "type": "function"
    },
    {
      "inputs": [
        {
          "internalType": "address",
          "name": "",
          "type": "address"
        },
        {
          "internalType": "uint256",
          "name": "",
          "type": "uint256"
        }
      ],
      "name": "delegators",
      "outputs": [
        {
          "internalType": "address",
          "name": "",
          "type": "address"
        }
      ],
      "stateMutability": "view",
      "type": "function"
    },
    {
      "inputs": [
        {
          "internalType": "address",
          "name": "spender",
          "type": "address"
        },
        {
          "internalType": "uint256",
          "name": "addedValue",
          "type": "uint256"
        }
      ],
      "name": "increaseAllowance",
      "outputs": [
        {
          "internalType": "bool",
          "name": "",
          "type": "bool"
        }
      ],
      "stateMutability": "nonpayable",
      "type": "function"
    },
    {
      "inputs": [
        {
          "internalType": "uint256",
          "name": "amount",
          "type": "uint256"
        }
      ],
      "name": "increaseStake",
      "outputs": [
        {
          "internalType": "uint256",
          "name": "",
          "type": "uint256"
        }
      ],
      "stateMutability": "nonpayable",
      "type": "function"
    },
    {
      "inputs": [
        {
          "internalType": "string",
          "name": "name",
          "type": "string"
        },
        {
          "internalType": "string",
          "name": "symbol",
          "type": "string"
        },
        {
          "internalType": "address",
          "name": "initOwner",
          "type": "address"
        },
        {
          "internalType": "address",
          "name": "_AMORxGuild",
          "type": "address"
        },
        {
          "internalType": "uint256",
          "name": "amount",
          "type": "uint256"
        }
      ],
      "name": "init",
      "outputs": [
        {
          "internalType": "bool",
          "name": "",
          "type": "bool"
        }
      ],
      "stateMutability": "nonpayable",
      "type": "function"
    },
    {
      "inputs": [],
      "name": "name",
      "outputs": [
        {
          "internalType": "string",
          "name": "",
          "type": "string"
        }
      ],
      "stateMutability": "view",
      "type": "function"
    },
    {
      "inputs": [],
      "name": "owner",
      "outputs": [
        {
          "internalType": "address",
          "name": "",
          "type": "address"
        }
      ],
      "stateMutability": "view",
      "type": "function"
    },
    {
      "inputs": [],
      "name": "renounceOwnership",
      "outputs": [],
      "stateMutability": "nonpayable",
      "type": "function"
    },
    {
      "inputs": [
        {
          "internalType": "uint256",
          "name": "amount",
          "type": "uint256"
        },
        {
          "internalType": "uint256",
          "name": "time",
          "type": "uint256"
        }
      ],
      "name": "stake",
      "outputs": [
        {
          "internalType": "uint256",
          "name": "",
          "type": "uint256"
        }
      ],
      "stateMutability": "nonpayable",
      "type": "function"
    },
    {
      "inputs": [
        {
          "internalType": "address",
          "name": "",
          "type": "address"
        }
      ],
      "name": "stakes",
      "outputs": [
        {
          "internalType": "uint256",
          "name": "",
          "type": "uint256"
        }
      ],
      "stateMutability": "view",
      "type": "function"
    },
    {
      "inputs": [
        {
          "internalType": "address",
          "name": "",
          "type": "address"
        }
      ],
      "name": "stakesAMOR",
      "outputs": [
        {
          "internalType": "uint256",
          "name": "",
          "type": "uint256"
        }
      ],
      "stateMutability": "view",
      "type": "function"
    },
    {
      "inputs": [
        {
          "internalType": "address",
          "name": "",
          "type": "address"
        }
      ],
      "name": "stakesTimes",
      "outputs": [
        {
          "internalType": "uint256",
          "name": "",
          "type": "uint256"
        }
      ],
      "stateMutability": "view",
      "type": "function"
    },
    {
      "inputs": [],
      "name": "symbol",
      "outputs": [
        {
          "internalType": "string",
          "name": "",
          "type": "string"
        }
      ],
      "stateMutability": "view",
      "type": "function"
    },
    {
      "inputs": [],
      "name": "totalSupply",
      "outputs": [
        {
          "internalType": "uint256",
          "name": "",
          "type": "uint256"
        }
      ],
      "stateMutability": "view",
      "type": "function"
    },
    {
      "inputs": [],
      "name": "transfer",
      "outputs": [
        {
          "internalType": "bool",
          "name": "",
          "type": "bool"
        }
      ],
      "stateMutability": "pure",
      "type": "function"
    },
    {
      "inputs": [
        {
          "internalType": "address",
          "name": "to",
          "type": "address"
        },
        {
          "internalType": "uint256",
          "name": "amount",
          "type": "uint256"
        }
      ],
      "name": "transfer",
      "outputs": [
        {
          "internalType": "bool",
          "name": "",
          "type": "bool"
        }
      ],
      "stateMutability": "nonpayable",
      "type": "function"
    },
    {
      "inputs": [
        {
          "internalType": "address",
          "name": "from",
          "type": "address"
        },
        {
          "internalType": "address",
          "name": "to",
          "type": "address"
        },
        {
          "internalType": "uint256",
          "name": "amount",
          "type": "uint256"
        }
      ],
      "name": "transferFrom",
      "outputs": [
        {
          "internalType": "bool",
          "name": "",
          "type": "bool"
        }
      ],
      "stateMutability": "nonpayable",
      "type": "function"
    },
    {
      "inputs": [],
      "name": "transferFrom",
      "outputs": [
        {
          "internalType": "bool",
          "name": "",
          "type": "bool"
        }
      ],
      "stateMutability": "pure",
      "type": "function"
    },
    {
      "inputs": [
        {
          "internalType": "address",
          "name": "newOwner",
          "type": "address"
        }
      ],
      "name": "transferOwnership",
      "outputs": [],
      "stateMutability": "nonpayable",
      "type": "function"
    },
    {
      "inputs": [
        {
          "internalType": "address",
          "name": "account",
          "type": "address"
        },
        {
          "internalType": "uint256",
          "name": "amount",
          "type": "uint256"
        }
      ],
      "name": "undelegate",
      "outputs": [],
      "stateMutability": "nonpayable",
      "type": "function"
    },
    {
      "inputs": [],
      "name": "undelegateAll",
      "outputs": [],
      "stateMutability": "nonpayable",
      "type": "function"
    },
    {
      "inputs": [],
      "name": "withdraw",
      "outputs": [
        {
          "internalType": "uint256",
          "name": "",
          "type": "uint256"
        }
      ],
      "stateMutability": "nonpayable",
      "type": "function"
    }
  ],
  "bytecode": "0x608060405234801561001057600080fd5b5061001a3361001f565b61007b565b600580546001600160a01b038381166201000081810262010000600160b01b031985161790945560405193909204169182907f8be0079c531659141344cd1fd0a4f28419497f9722a3daafe3b4186f6b6457e090600090a35050565b612dc5806200008b6000396000f3fe608060405234801561001057600080fd5b50600436106102265760003560e01c8063715018a61161012a578063a457c2d7116100bd578063c64814dd1161008c578063eedad66b11610071578063eedad66b1461051a578063f2fde38b1461052d578063fa78668f1461054057600080fd5b8063c64814dd146104a9578063dd62ed3e146104d457600080fd5b8063a457c2d714610468578063a9059cbb1461047b578063ae3dd0951461048e578063b302f393146104a157600080fd5b80638da5cb5b116100f95780638da5cb5b146103fc5780638e49d0fd14610420578063900e1ef61461044057806395d89b411461046057600080fd5b8063715018a6146103da5780637b0472f0146103e2578063811c34d3146103f55780638a4068dd146103f557600080fd5b8063313ce567116101bd5780634d60a9c81161018c5780636649764b116101715780636649764b146103595780636f6f58091461039157806370a08231146103a457600080fd5b80634d60a9c8146103375780634d99dd161461034657600080fd5b8063313ce567146102ee57806339509351146103125780633ccfd60b146103255780633ff032071461032d57600080fd5b806309a4da85116101f957806309a4da851461029357806316934fc4146102b357806318160ddd146102d357806323b872dd146102db57600080fd5b8063026e402b1461022b578063065decc61461024057806306fdde031461025b578063095ea7b314610270575b600080fd5b61023e61023936600461273e565b61054b565b005b610248600281565b6040519081526020015b60405180910390f35b610263610782565b6040516102529190612794565b61028361027e36600461273e565b610810565b6040519015158152602001610252565b6102486102a13660046127e5565b60066020526000908152604090205481565b6102486102c13660046127e5565b60076020526000908152604090205481565b600254610248565b6102836102e9366004612800565b610828565b60055461030090610100900460ff1681565b60405160ff9091168152602001610252565b61028361032036600461273e565b61084e565b61024861089a565b61024862093a8081565b610248670de0b6b3a764000081565b61023e61035436600461273e565b610bce565b61036c61036736600461273e565b6111cc565b60405173ffffffffffffffffffffffffffffffffffffffff9091168152602001610252565b61036c61039f36600461273e565b611211565b6102486103b23660046127e5565b73ffffffffffffffffffffffffffffffffffffffff1660009081526020819052604090205490565b61023e61122d565b6102486103f036600461283c565b611241565b6000610283565b60055462010000900473ffffffffffffffffffffffffffffffffffffffff1661036c565b61024861042e3660046127e5565b600c6020526000908152604090205481565b61024861044e3660046127e5565b60086020526000908152604090205481565b610263611481565b61028361047636600461273e565b61148e565b61028361048936600461273e565b611514565b61028361049c366004612938565b611522565b61023e611651565b6102486104b73660046129c5565b600a60209081526000928352604080842090915290825290205481565b6102486104e23660046129c5565b73ffffffffffffffffffffffffffffffffffffffff918216600090815260016020908152604080832093909416825291909152205490565b6102486105283660046129f8565b6119ac565b61023e61053b3660046127e5565b611b4a565b6102486301e1338081565b3373ffffffffffffffffffffffffffffffffffffffff83160361059a576040517fddb5de5e00000000000000000000000000000000000000000000000000000000815260040160405180910390fd5b336000908152600c602090815260408083205460079092528220549091906105c3908390612a40565b9050828110156105ff576040517f2c5211c600000000000000000000000000000000000000000000000000000000815260040160405180910390fd5b336000908152600a6020908152604080832073ffffffffffffffffffffffffffffffffffffffff8816845290915281205490036106bd57336000818152600b6020908152604080832080546001818101835591855283852001805473ffffffffffffffffffffffffffffffffffffffff8b167fffffffffffffffffffffffff00000000000000000000000000000000000000009182168117909255908552600984529184208054918201815584529190922001805490911690911790555b336000908152600a6020908152604080832073ffffffffffffffffffffffffffffffffffffffff88168452909152812080548592906106fd908490612a57565b9091555050336000908152600c602052604081208054859290610721908490612a57565b90915550506040805173ffffffffffffffffffffffffffffffffffffffff861681523360208201529081018490527f11a4ef8f7dec385120facdab733d3d7743694dc4076dbd28a35830c2e25998b99060600160405180910390a150505050565b6003805461078f90612a6f565b80601f01602080910402602001604051908101604052809291908181526020018280546107bb90612a6f565b80156108085780601f106107dd57610100808354040283529160200191610808565b820191906000526020600020905b8154815290600101906020018083116107eb57829003601f168201915b505050505081565b60003361081e818585611c06565b5060019392505050565b600033610836858285611ce3565b610841858585611d8a565b60019150505b9392505050565b33600081815260016020908152604080832073ffffffffffffffffffffffffffffffffffffffff8716845290915281205490919061081e9082908690610895908790612a57565b611c06565b336000908152600660205260408120544210156108e3576040517f73454ea700000000000000000000000000000000000000000000000000000000815260040160405180910390fd5b336000908152600860205260409081902054600d5491517f70a082310000000000000000000000000000000000000000000000000000000081523060048201529091829161010090910473ffffffffffffffffffffffffffffffffffffffff16906370a0823190602401602060405180830381865afa15801561096a573d6000803e3d6000fd5b505050506040513d601f19601f8201168201806040525081019061098e9190612ac2565b10156109c6576040517f2c5211c600000000000000000000000000000000000000000000000000000000815260040160405180910390fd5b3360009081526007602052604090205480610a0d576040517f2c5211c600000000000000000000000000000000000000000000000000000000815260040160405180910390fd5b610a173382611f0f565b3360009081526007602090815260408083208390556009825280832080548251818502810185019093528083529192909190830182828015610a8f57602002820191906000526020600020905b815473ffffffffffffffffffffffffffffffffffffffff168152600190910190602001808311610a64575b5050505050905060005b8151811015610b2157336000908152600a602052604081208351909190849084908110610ac857610ac8612adb565b602002602001015173ffffffffffffffffffffffffffffffffffffffff1673ffffffffffffffffffffffffffffffffffffffff168152602001908152602001600020600090558080610b1990612b0a565b915050610a99565b50336000818152600c6020526040812055600d54610b5c9161010090910473ffffffffffffffffffffffffffffffffffffffff16908561204d565b336000908152600860209081526040808320839055600b90915290205415610b8657610b86611651565b60408051338152602081018490529081018490527f2ad60abaeb121b17594238a3eda32ad44638171c02adbcc5f6e258bcb8603fe79060600160405180910390a15092915050565b3373ffffffffffffffffffffffffffffffffffffffff831603610c1d576040517fddb5de5e00000000000000000000000000000000000000000000000000000000815260040160405180910390fd5b336000908152600a6020908152604080832073ffffffffffffffffffffffffffffffffffffffff861684529091528120549003610c86576040517f6f5e06a600000000000000000000000000000000000000000000000000000000815260040160405180910390fd5b336000908152600a6020908152604080832073ffffffffffffffffffffffffffffffffffffffff861684529091529020548111610d2c57336000908152600a6020908152604080832073ffffffffffffffffffffffffffffffffffffffff8616845290915281208054839290610cfd908490612a40565b9091555050336000908152600c602052604081208054839290610d21908490612a40565b909155506111729050565b50336000818152600a6020908152604080832073ffffffffffffffffffffffffffffffffffffffff86168452825280832054938352600c90915281208054839290610d78908490612a40565b9091555050336000908152600a6020908152604080832073ffffffffffffffffffffffffffffffffffffffff8616845290915281208190555b336000908152600b6020526040902054811015610f7857336000908152600b60205260409020805473ffffffffffffffffffffffffffffffffffffffff8516919083908110610e0257610e02612adb565b60009182526020909120015473ffffffffffffffffffffffffffffffffffffffff1603610f6657336000908152600b602052604090208054610e4690600190612a40565b81548110610e5657610e56612adb565b6000918252602080832090910154338352600b9091526040909120805473ffffffffffffffffffffffffffffffffffffffff9092169183908110610e9c57610e9c612adb565b600091825260208083209190910180547fffffffffffffffffffffffff00000000000000000000000000000000000000001673ffffffffffffffffffffffffffffffffffffffff9490941693909317909255338152600b90915260409020805480610f0957610f09612b42565b60008281526020902081017fffffffffffffffffffffffffffffffffffffffffffffffffffffffffffffffff90810180547fffffffffffffffffffffffff0000000000000000000000000000000000000000169055019055610f78565b80610f7081612b0a565b915050610db1565b5060005b73ffffffffffffffffffffffffffffffffffffffff83166000908152600960205260409020548110156111705773ffffffffffffffffffffffffffffffffffffffff83166000908152600960205260409020805433919083908110610fe357610fe3612adb565b60009182526020909120015473ffffffffffffffffffffffffffffffffffffffff160361115e5773ffffffffffffffffffffffffffffffffffffffff83166000908152600960205260409020805461103d90600190612a40565b8154811061104d5761104d612adb565b600091825260208083209091015473ffffffffffffffffffffffffffffffffffffffff86811684526009909252604090922080549190921691908390811061109757611097612adb565b600091825260208083209190910180547fffffffffffffffffffffffff00000000000000000000000000000000000000001673ffffffffffffffffffffffffffffffffffffffff948516179055918516815260099091526040902080548061110157611101612b42565b60008281526020902081017fffffffffffffffffffffffffffffffffffffffffffffffffffffffffffffffff90810180547fffffffffffffffffffffffff0000000000000000000000000000000000000000169055019055611170565b8061116881612b0a565b915050610f7c565b505b6040805173ffffffffffffffffffffffffffffffffffffffff841681523360208201529081018290527f0369756454e9835486bef6e39a2162f7e2b8f0877aeaad69e66a5c1710da84a99060600160405180910390a15050565b600b60205281600052604060002081815481106111e857600080fd5b60009182526020909120015473ffffffffffffffffffffffffffffffffffffffff169150829050565b600960205281600052604060002081815481106111e857600080fd5b611235612121565b61123f60006121a9565b565b600062093a80821015611280576040517f73454ea700000000000000000000000000000000000000000000000000000000815260040160405180910390fd5b6301e133808211156112be576040517f1a9bb44e00000000000000000000000000000000000000000000000000000000815260040160405180910390fd5b600d546040517f70a082310000000000000000000000000000000000000000000000000000000081523360048201528491610100900473ffffffffffffffffffffffffffffffffffffffff16906370a0823190602401602060405180830381865afa158015611331573d6000803e3d6000fd5b505050506040513d601f19601f820116820180604052508101906113559190612ac2565b101561138d576040517f2c5211c600000000000000000000000000000000000000000000000000000000815260040160405180910390fd5b600d546113b790610100900473ffffffffffffffffffffffffffffffffffffffff16333086612228565b60006113c38484612286565b90506113cf8342612a57565b336000908152600660209081526040808320939093556007905290812080548392906113fc908490612a57565b90915550503360009081526008602052604081208054869290611420908490612a57565b9091555050336000818152600660209081526040918290205482519384529083018790528282018490526060830152517fefb928233b0b5062fc7a915b164055531160d10b93855b3f17df1e9f61683d5e9181900360800190a19392505050565b6004805461078f90612a6f565b33600081815260016020908152604080832073ffffffffffffffffffffffffffffffffffffffff87168452909152812054909190838110156114fc576040517f2c5211c600000000000000000000000000000000000000000000000000000000815260040160405180910390fd5b6115098286868403611c06565b506001949350505050565b60003361081e818585611d8a565b600d5460009060ff1615611562576040517f0dc149f000000000000000000000000000000000000000000000000000000000815260040160405180910390fd5b61156b846121a9565b600d80547fffffffffffffffffffffff0000000000000000000000000000000000000000ff1661010073ffffffffffffffffffffffffffffffffffffffff8616021790556115b986866122fe565b600d80547fffffffffffffffffffffffffffffffffffffffffffffffffffffffffffffff001660019081179091556040805191825273ffffffffffffffffffffffffffffffffffffffff8681166020840152851690820152606081018390527fbe4985a944401434239f4dda415d2cfefe7b57aef283e6eeae01bb32e6c5a2a19060800160405180910390a150600195945050505050565b336000908152600b60209081526040808320805482518185028101850190935280835291929091908301828280156116bf57602002820191906000526020600020905b815473ffffffffffffffffffffffffffffffffffffffff168152600190910190602001808311611694575b505050505090508051600003611701576040517f6f5e06a600000000000000000000000000000000000000000000000000000000815260040160405180910390fd5b6000805b82518110156119675782818151811061172057611720612adb565b602090810291909101810151336000908152600a8352604080822073ffffffffffffffffffffffffffffffffffffffff8416835290935291822082905592505b73ffffffffffffffffffffffffffffffffffffffff83166000908152600960205260409020548110156119545773ffffffffffffffffffffffffffffffffffffffff831660009081526009602052604090208054339190839081106117c7576117c7612adb565b60009182526020909120015473ffffffffffffffffffffffffffffffffffffffff16036119425773ffffffffffffffffffffffffffffffffffffffff83166000908152600960205260409020805461182190600190612a40565b8154811061183157611831612adb565b600091825260208083209091015473ffffffffffffffffffffffffffffffffffffffff86811684526009909252604090922080549190921691908390811061187b5761187b612adb565b600091825260208083209190910180547fffffffffffffffffffffffff00000000000000000000000000000000000000001673ffffffffffffffffffffffffffffffffffffffff94851617905591851681526009909152604090208054806118e5576118e5612b42565b60008281526020902081017fffffffffffffffffffffffffffffffffffffffffffffffffffffffffffffffff90810180547fffffffffffffffffffffffff0000000000000000000000000000000000000000169055019055611954565b8061194c81612b0a565b915050611760565b508061195f81612b0a565b915050611705565b50336000908152600b60205260408120611980916126e3565b336000908152600960205260408120611998916126e3565b5050336000908152600c6020526040812055565b600d546040517f70a08231000000000000000000000000000000000000000000000000000000008152336004820152600091839161010090910473ffffffffffffffffffffffffffffffffffffffff16906370a0823190602401602060405180830381865afa158015611a23573d6000803e3d6000fd5b505050506040513d601f19601f82011682018060405250810190611a479190612ac2565b1015611a7f576040517f2c5211c600000000000000000000000000000000000000000000000000000000815260040160405180910390fd5b600d54611aa990610100900473ffffffffffffffffffffffffffffffffffffffff16333085612228565b33600090815260066020526040812054611ac4904290612a40565b90506000611ad28483612286565b33600090815260076020526040812080549293508392909190611af6908490612a57565b90915550506040805133815260208101869052908101829052606081018390527f85e37be558afaf6260294e3541cb2b531cde959f221560aebd2293fb3861a8939060800160405180910390a19392505050565b611b52612121565b73ffffffffffffffffffffffffffffffffffffffff8116611bfa576040517f08c379a000000000000000000000000000000000000000000000000000000000815260206004820152602660248201527f4f776e61626c653a206e6577206f776e657220697320746865207a65726f206160448201527f646472657373000000000000000000000000000000000000000000000000000060648201526084015b60405180910390fd5b611c03816121a9565b50565b73ffffffffffffffffffffffffffffffffffffffff83161580611c3d575073ffffffffffffffffffffffffffffffffffffffff8216155b15611c74576040517fbeac2bc600000000000000000000000000000000000000000000000000000000815260040160405180910390fd5b73ffffffffffffffffffffffffffffffffffffffff83811660008181526001602090815260408083209487168084529482529182902085905590518481527f8c5be1e5ebec7d5bd14f71427d1e84f3dd0314c0f7b2291e5b200ac8c7c3b92591015b60405180910390a3505050565b73ffffffffffffffffffffffffffffffffffffffff8381166000908152600160209081526040808320938616835292905220547fffffffffffffffffffffffffffffffffffffffffffffffffffffffffffffffff8114611d845781811015611d77576040517f2c5211c600000000000000000000000000000000000000000000000000000000815260040160405180910390fd5b611d848484848403611c06565b50505050565b73ffffffffffffffffffffffffffffffffffffffff83161580611dc1575073ffffffffffffffffffffffffffffffffffffffff8216155b15611df8576040517f2f35253100000000000000000000000000000000000000000000000000000000815260040160405180910390fd5b73ffffffffffffffffffffffffffffffffffffffff831660009081526020819052604090205481811015611e58576040517f2c5211c600000000000000000000000000000000000000000000000000000000815260040160405180910390fd5b73ffffffffffffffffffffffffffffffffffffffff808516600090815260208190526040808220858503905591851681529081208054849290611e9c908490612a57565b925050819055508273ffffffffffffffffffffffffffffffffffffffff168473ffffffffffffffffffffffffffffffffffffffff167fddf252ad1be2c89b69c2b068fc378daa952ba7f163c4a11628f55a4df523b3ef84604051611f0291815260200190565b60405180910390a3611d84565b73ffffffffffffffffffffffffffffffffffffffff8216611f5c576040517f2f35253100000000000000000000000000000000000000000000000000000000815260040160405180910390fd5b73ffffffffffffffffffffffffffffffffffffffff821660009081526020819052604090205481811015611fbc576040517f2c5211c600000000000000000000000000000000000000000000000000000000815260040160405180910390fd5b73ffffffffffffffffffffffffffffffffffffffff83166000908152602081905260408120838303905560028054849290611ff8908490612a40565b909155505060405182815260009073ffffffffffffffffffffffffffffffffffffffff8516907fddf252ad1be2c89b69c2b068fc378daa952ba7f163c4a11628f55a4df523b3ef90602001611cd6565b505050565b60405173ffffffffffffffffffffffffffffffffffffffff83166024820152604481018290526120489084907fa9059cbb00000000000000000000000000000000000000000000000000000000906064015b604080517fffffffffffffffffffffffffffffffffffffffffffffffffffffffffffffffe08184030181529190526020810180517bffffffffffffffffffffffffffffffffffffffffffffffffffffffff167fffffffff0000000000000000000000000000000000000000000000000000000090931692909217909152612385565b60055473ffffffffffffffffffffffffffffffffffffffff6201000090910416331461123f576040517f08c379a000000000000000000000000000000000000000000000000000000000815260206004820181905260248201527f4f776e61626c653a2063616c6c6572206973206e6f7420746865206f776e65726044820152606401611bf1565b6005805473ffffffffffffffffffffffffffffffffffffffff838116620100008181027fffffffffffffffffffff0000000000000000000000000000000000000000ffff85161790945560405193909204169182907f8be0079c531659141344cd1fd0a4f28419497f9722a3daafe3b4186f6b6457e090600090a35050565b60405173ffffffffffffffffffffffffffffffffffffffff80851660248301528316604482015260648101829052611d849085907f23b872dd000000000000000000000000000000000000000000000000000000009060840161209f565b6000806301e133806122a0670de0b6b3a764000085612b71565b6122aa9190612bae565b905060006122c0670de0b6b3a764000080612b71565b856122cb8480612b71565b6122d6906002612b71565b6122e09190612b71565b6122ea9190612bae565b90506122f63382612491565b949350505050565b60055460ff161561233b576040517fa741a04500000000000000000000000000000000000000000000000000000000815260040160405180910390fd5b60036123478382612c37565b5060046123548282612c37565b5050600580547fffffffffffffffffffffffffffffffffffffffffffffffffffffffffffff00001661120117905550565b60006123e7826040518060400160405280602081526020017f5361666545524332303a206c6f772d6c6576656c2063616c6c206661696c65648152508573ffffffffffffffffffffffffffffffffffffffff166125819092919063ffffffff16565b80519091501561204857808060200190518101906124059190612d51565b612048576040517f08c379a000000000000000000000000000000000000000000000000000000000815260206004820152602a60248201527f5361666545524332303a204552433230206f7065726174696f6e20646964206e60448201527f6f742073756363656564000000000000000000000000000000000000000000006064820152608401611bf1565b73ffffffffffffffffffffffffffffffffffffffff82166124de576040517fe6c4247b00000000000000000000000000000000000000000000000000000000815260040160405180910390fd5b80600260008282546124f09190612a57565b909155505073ffffffffffffffffffffffffffffffffffffffff82166000908152602081905260408120805483929061252a908490612a57565b909155505060405181815273ffffffffffffffffffffffffffffffffffffffff8316906000907fddf252ad1be2c89b69c2b068fc378daa952ba7f163c4a11628f55a4df523b3ef9060200160405180910390a35050565b60606122f684846000858573ffffffffffffffffffffffffffffffffffffffff85163b61260a576040517f08c379a000000000000000000000000000000000000000000000000000000000815260206004820152601d60248201527f416464726573733a2063616c6c20746f206e6f6e2d636f6e74726163740000006044820152606401611bf1565b6000808673ffffffffffffffffffffffffffffffffffffffff1685876040516126339190612d73565b60006040518083038185875af1925050503d8060008114612670576040519150601f19603f3d011682016040523d82523d6000602084013e612675565b606091505b5091509150612685828286612690565b979650505050505050565b6060831561269f575081610847565b8251156126af5782518084602001fd5b816040517f08c379a0000000000000000000000000000000000000000000000000000000008152600401611bf19190612794565b5080546000825590600052602060002090810190611c0391905b8082111561271157600081556001016126fd565b5090565b803573ffffffffffffffffffffffffffffffffffffffff8116811461273957600080fd5b919050565b6000806040838503121561275157600080fd5b61275a83612715565b946020939093013593505050565b60005b8381101561278357818101518382015260200161276b565b83811115611d845750506000910152565b60208152600082518060208401526127b3816040850160208701612768565b601f017fffffffffffffffffffffffffffffffffffffffffffffffffffffffffffffffe0169190910160400192915050565b6000602082840312156127f757600080fd5b61084782612715565b60008060006060848603121561281557600080fd5b61281e84612715565b925061282c60208501612715565b9150604084013590509250925092565b6000806040838503121561284f57600080fd5b50508035926020909101359150565b7f4e487b7100000000000000000000000000000000000000000000000000000000600052604160045260246000fd5b600082601f83011261289e57600080fd5b813567ffffffffffffffff808211156128b9576128b961285e565b604051601f83017fffffffffffffffffffffffffffffffffffffffffffffffffffffffffffffffe0908116603f011681019082821181831017156128ff576128ff61285e565b8160405283815286602085880101111561291857600080fd5b836020870160208301376000602085830101528094505050505092915050565b600080600080600060a0868803121561295057600080fd5b853567ffffffffffffffff8082111561296857600080fd5b61297489838a0161288d565b9650602088013591508082111561298a57600080fd5b506129978882890161288d565b9450506129a660408701612715565b92506129b460608701612715565b949793965091946080013592915050565b600080604083850312156129d857600080fd5b6129e183612715565b91506129ef60208401612715565b90509250929050565b600060208284031215612a0a57600080fd5b5035919050565b7f4e487b7100000000000000000000000000000000000000000000000000000000600052601160045260246000fd5b600082821015612a5257612a52612a11565b500390565b60008219821115612a6a57612a6a612a11565b500190565b600181811c90821680612a8357607f821691505b602082108103612abc577f4e487b7100000000000000000000000000000000000000000000000000000000600052602260045260246000fd5b50919050565b600060208284031215612ad457600080fd5b5051919050565b7f4e487b7100000000000000000000000000000000000000000000000000000000600052603260045260246000fd5b60007fffffffffffffffffffffffffffffffffffffffffffffffffffffffffffffffff8203612b3b57612b3b612a11565b5060010190565b7f4e487b7100000000000000000000000000000000000000000000000000000000600052603160045260246000fd5b6000817fffffffffffffffffffffffffffffffffffffffffffffffffffffffffffffffff0483118215151615612ba957612ba9612a11565b500290565b600082612be4577f4e487b7100000000000000000000000000000000000000000000000000000000600052601260045260246000fd5b500490565b601f82111561204857600081815260208120601f850160051c81016020861015612c105750805b601f850160051c820191505b81811015612c2f57828155600101612c1c565b505050505050565b815167ffffffffffffffff811115612c5157612c5161285e565b612c6581612c5f8454612a6f565b84612be9565b602080601f831160018114612cb85760008415612c825750858301515b7fffffffffffffffffffffffffffffffffffffffffffffffffffffffffffffffff600386901b1c1916600185901b178555612c2f565b6000858152602081207fffffffffffffffffffffffffffffffffffffffffffffffffffffffffffffffe08616915b82811015612d0557888601518255948401946001909101908401612ce6565b5085821015612d4157878501517fffffffffffffffffffffffffffffffffffffffffffffffffffffffffffffffff600388901b60f8161c191681555b5050505050600190811b01905550565b600060208284031215612d6357600080fd5b8151801515811461084757600080fd5b60008251612d85818460208701612768565b919091019291505056fea26469706673582212204bae568feb47888586c3f6984917ca42bef72876811743f9aa1821d911ffac4164736f6c634300080f0033",
  "linkReferences": {},
  "deployedLinkReferences": {}
}