{
  "_format": "hh-sol-artifact-1",
  "contractName": "DoinGudGovernor",
  "sourceName": "contracts/Governor.sol",
  "abi": [
    {
      "inputs": [],
      "name": "AlreadyInitialized",
      "type": "error"
    },
    {
      "inputs": [],
      "name": "AlreadyVoted",
      "type": "error"
    },
    {
      "inputs": [],
      "name": "CancelNotApproved",
      "type": "error"
    },
    {
      "inputs": [],
      "name": "InvalidAmount",
      "type": "error"
    },
    {
      "inputs": [],
      "name": "InvalidParameters",
      "type": "error"
    },
    {
      "inputs": [],
      "name": "InvalidProposalId",
      "type": "error"
    },
    {
      "inputs": [],
      "name": "InvalidState",
      "type": "error"
    },
    {
      "inputs": [],
      "name": "NotEnoughGuardians",
      "type": "error"
    },
    {
      "inputs": [],
      "name": "ProposalNotExists",
      "type": "error"
    },
    {
      "inputs": [],
      "name": "Unauthorized",
      "type": "error"
    },
    {
      "inputs": [],
      "name": "UnderlyingTransactionReverted",
      "type": "error"
    },
    {
      "inputs": [],
      "name": "VotingTimeExpired",
      "type": "error"
    },
    {
      "anonymous": false,
      "inputs": [
        {
          "indexed": false,
          "internalType": "uint256",
          "name": "newLimit",
          "type": "uint256"
        }
      ],
      "name": "ChangedGuardiansLimit",
      "type": "event"
    },
    {
      "anonymous": false,
      "inputs": [
        {
          "indexed": false,
          "internalType": "address",
          "name": "newGuardian",
          "type": "address"
        }
      ],
      "name": "GuardianAdded",
      "type": "event"
    },
    {
      "anonymous": false,
      "inputs": [
        {
          "indexed": false,
          "internalType": "uint256",
          "name": "oldGuardian",
          "type": "uint256"
        },
        {
          "indexed": false,
          "internalType": "address",
          "name": "newGuardian",
          "type": "address"
        }
      ],
      "name": "GuardianChanged",
      "type": "event"
    },
    {
      "anonymous": false,
      "inputs": [
        {
          "indexed": false,
          "internalType": "address",
          "name": "guardian",
          "type": "address"
        }
      ],
      "name": "GuardianRemoved",
      "type": "event"
    },
    {
      "anonymous": false,
      "inputs": [
        {
          "indexed": false,
          "internalType": "address[]",
          "name": "arrGuardians",
          "type": "address[]"
        }
      ],
      "name": "GuardiansSetted",
      "type": "event"
    },
    {
      "anonymous": false,
      "inputs": [
        {
          "indexed": false,
          "internalType": "address",
          "name": "avatarAddress",
          "type": "address"
        }
      ],
      "name": "Initialized",
      "type": "event"
    },
    {
      "anonymous": false,
      "inputs": [
        {
          "indexed": false,
          "internalType": "uint256",
          "name": "proposalId",
          "type": "uint256"
        }
      ],
      "name": "ProposalCanceled",
      "type": "event"
    },
    {
      "anonymous": false,
      "inputs": [
        {
          "indexed": false,
          "internalType": "uint256",
          "name": "proposalId",
          "type": "uint256"
        },
        {
          "indexed": false,
          "internalType": "address",
          "name": "proposer",
          "type": "address"
        },
        {
          "indexed": false,
          "internalType": "address[]",
          "name": "targets",
          "type": "address[]"
        },
        {
          "indexed": false,
          "internalType": "uint256[]",
          "name": "values",
          "type": "uint256[]"
        },
        {
          "indexed": false,
          "internalType": "bytes[]",
          "name": "calldatas",
          "type": "bytes[]"
        },
        {
          "indexed": false,
          "internalType": "uint256",
          "name": "startBlock",
          "type": "uint256"
        },
        {
          "indexed": false,
          "internalType": "uint256",
          "name": "endBlock",
          "type": "uint256"
        }
      ],
      "name": "ProposalCreated",
      "type": "event"
    },
    {
      "anonymous": false,
      "inputs": [
        {
          "indexed": false,
          "internalType": "uint256",
          "name": "proposalId",
          "type": "uint256"
        }
      ],
      "name": "ProposalExecuted",
      "type": "event"
    },
    {
      "anonymous": false,
      "inputs": [
        {
          "indexed": false,
          "internalType": "uint256",
          "name": "proposalId",
          "type": "uint256"
        },
        {
          "indexed": false,
          "internalType": "bool",
          "name": "support",
          "type": "bool"
        },
        {
          "indexed": false,
          "internalType": "address",
          "name": "votedGuardian",
          "type": "address"
        }
      ],
      "name": "VoteCasted",
      "type": "event"
    },
    {
      "inputs": [],
      "name": "PROPOSAL_MAX_OPERATIONS",
      "outputs": [
        {
          "internalType": "uint256",
          "name": "",
          "type": "uint256"
        }
      ],
      "stateMutability": "view",
      "type": "function"
    },
    {
      "inputs": [
        {
          "internalType": "address",
          "name": "guardian",
          "type": "address"
        }
      ],
      "name": "addGuardian",
      "outputs": [],
      "stateMutability": "nonpayable",
      "type": "function"
    },
    {
      "inputs": [],
      "name": "avatarAddress",
      "outputs": [
        {
          "internalType": "address",
          "name": "",
          "type": "address"
        }
      ],
      "stateMutability": "view",
      "type": "function"
    },
    {
      "inputs": [
        {
          "internalType": "uint256",
          "name": "proposalId",
          "type": "uint256"
        }
      ],
      "name": "cancel",
      "outputs": [],
      "stateMutability": "nonpayable",
      "type": "function"
    },
    {
      "inputs": [
        {
          "internalType": "uint256",
          "name": "",
          "type": "uint256"
        },
        {
          "internalType": "uint256",
          "name": "",
          "type": "uint256"
        }
      ],
      "name": "cancellers",
      "outputs": [
        {
          "internalType": "address",
          "name": "",
          "type": "address"
        }
      ],
      "stateMutability": "view",
      "type": "function"
    },
    {
      "inputs": [
        {
          "internalType": "uint256",
          "name": "proposalId",
          "type": "uint256"
        },
        {
          "internalType": "bool",
          "name": "support",
          "type": "bool"
        }
      ],
      "name": "castVote",
      "outputs": [],
      "stateMutability": "nonpayable",
      "type": "function"
    },
    {
      "inputs": [
        {
          "internalType": "uint256",
          "name": "proposalId",
          "type": "uint256"
        }
      ],
      "name": "castVoteForCancelling",
      "outputs": [],
      "stateMutability": "nonpayable",
      "type": "function"
    },
    {
      "inputs": [
        {
          "internalType": "uint256",
          "name": "current",
          "type": "uint256"
        },
        {
          "internalType": "address",
          "name": "newGuardian",
          "type": "address"
        }
      ],
      "name": "changeGuardian",
      "outputs": [],
      "stateMutability": "nonpayable",
      "type": "function"
    },
    {
      "inputs": [
        {
          "internalType": "uint256",
          "name": "newLimit",
          "type": "uint256"
        }
      ],
      "name": "changeGuardiansLimit",
      "outputs": [],
      "stateMutability": "nonpayable",
      "type": "function"
    },
    {
      "inputs": [
        {
          "internalType": "address[]",
          "name": "targets",
          "type": "address[]"
        },
        {
          "internalType": "uint256[]",
          "name": "values",
          "type": "uint256[]"
        },
        {
          "internalType": "bytes[]",
          "name": "calldatas",
          "type": "bytes[]"
        }
      ],
      "name": "execute",
      "outputs": [
        {
          "internalType": "uint256",
          "name": "",
          "type": "uint256"
        }
      ],
      "stateMutability": "nonpayable",
      "type": "function"
    },
    {
      "inputs": [
        {
          "internalType": "uint256",
          "name": "",
          "type": "uint256"
        }
      ],
      "name": "guardians",
      "outputs": [
        {
          "internalType": "address",
          "name": "",
          "type": "address"
        }
      ],
      "stateMutability": "view",
      "type": "function"
    },
    {
      "inputs": [],
      "name": "guardiansLimit",
      "outputs": [
        {
          "internalType": "uint256",
          "name": "",
          "type": "uint256"
        }
      ],
      "stateMutability": "view",
      "type": "function"
    },
    {
      "inputs": [
        {
          "internalType": "address[]",
          "name": "targets",
          "type": "address[]"
        },
        {
          "internalType": "uint256[]",
          "name": "values",
          "type": "uint256[]"
        },
        {
          "internalType": "bytes[]",
          "name": "calldatas",
          "type": "bytes[]"
        }
      ],
      "name": "hashProposal",
      "outputs": [
        {
          "internalType": "uint256",
          "name": "",
          "type": "uint256"
        }
      ],
      "stateMutability": "pure",
      "type": "function"
    },
    {
      "inputs": [
        {
          "internalType": "address",
          "name": "AMORxGuild_",
          "type": "address"
        },
        {
          "internalType": "address",
          "name": "avatarAddress_",
          "type": "address"
        },
        {
          "internalType": "address",
          "name": "initialGuardian",
          "type": "address"
        }
      ],
      "name": "init",
      "outputs": [
        {
          "internalType": "bool",
          "name": "",
          "type": "bool"
        }
      ],
      "stateMutability": "nonpayable",
      "type": "function"
    },
    {
      "inputs": [
        {
          "internalType": "uint256",
          "name": "",
          "type": "uint256"
        }
      ],
      "name": "proposalCancelApproval",
      "outputs": [
        {
          "internalType": "int256",
          "name": "",
          "type": "int256"
        }
      ],
      "stateMutability": "view",
      "type": "function"
    },
    {
      "inputs": [
        {
          "internalType": "uint256",
          "name": "",
          "type": "uint256"
        }
      ],
      "name": "proposalVoting",
      "outputs": [
        {
          "internalType": "int256",
          "name": "",
          "type": "int256"
        }
      ],
      "stateMutability": "view",
      "type": "function"
    },
    {
      "inputs": [
        {
          "internalType": "uint256",
          "name": "",
          "type": "uint256"
        }
      ],
      "name": "proposalWeight",
      "outputs": [
        {
          "internalType": "int256",
          "name": "",
          "type": "int256"
        }
      ],
      "stateMutability": "view",
      "type": "function"
    },
    {
      "inputs": [
        {
          "internalType": "uint256",
          "name": "",
          "type": "uint256"
        }
      ],
      "name": "proposals",
      "outputs": [
        {
          "internalType": "uint256",
          "name": "",
          "type": "uint256"
        }
      ],
      "stateMutability": "view",
      "type": "function"
    },
    {
      "inputs": [
        {
          "internalType": "address[]",
          "name": "targets",
          "type": "address[]"
        },
        {
          "internalType": "uint256[]",
          "name": "values",
          "type": "uint256[]"
        },
        {
          "internalType": "bytes[]",
          "name": "calldatas",
          "type": "bytes[]"
        }
      ],
      "name": "propose",
      "outputs": [
        {
          "internalType": "uint256",
          "name": "",
          "type": "uint256"
        }
      ],
      "stateMutability": "nonpayable",
      "type": "function"
    },
    {
      "inputs": [
        {
          "internalType": "address",
          "name": "guardian",
          "type": "address"
        }
      ],
      "name": "removeGuardian",
      "outputs": [],
      "stateMutability": "nonpayable",
      "type": "function"
    },
    {
      "inputs": [
        {
          "internalType": "address[]",
          "name": "arrGuardians",
          "type": "address[]"
        }
      ],
      "name": "setGuardians",
      "outputs": [],
      "stateMutability": "nonpayable",
      "type": "function"
    },
    {
      "inputs": [
        {
          "internalType": "uint256",
          "name": "proposalId",
          "type": "uint256"
        }
      ],
      "name": "state",
      "outputs": [
        {
          "internalType": "enum IDoinGudGovernor.ProposalState",
          "name": "",
          "type": "uint8"
        }
      ],
      "stateMutability": "view",
      "type": "function"
    },
    {
      "inputs": [
        {
          "internalType": "uint256",
          "name": "",
          "type": "uint256"
        },
        {
          "internalType": "uint256",
          "name": "",
          "type": "uint256"
        }
      ],
      "name": "voters",
      "outputs": [
        {
          "internalType": "address",
          "name": "",
          "type": "address"
        }
      ],
      "stateMutability": "view",
      "type": "function"
    },
    {
      "inputs": [],
      "name": "votingDelay",
      "outputs": [
        {
          "internalType": "uint256",
          "name": "",
          "type": "uint256"
        }
      ],
      "stateMutability": "view",
      "type": "function"
    },
    {
      "inputs": [],
      "name": "votingPeriod",
      "outputs": [
        {
          "internalType": "uint256",
          "name": "",
          "type": "uint256"
        }
      ],
      "stateMutability": "view",
      "type": "function"
    },
    {
      "inputs": [
        {
          "internalType": "address",
          "name": "",
          "type": "address"
        }
      ],
      "name": "weights",
      "outputs": [
        {
          "internalType": "uint256",
          "name": "",
          "type": "uint256"
        }
      ],
      "stateMutability": "view",
      "type": "function"
    }
  ],
  "bytecode": "0x608060405234801561001057600080fd5b50612b69806100206000396000f3fe608060405234801561001057600080fd5b50600436106101ae5760003560e01c806371404156116100ee578063a7cac84611610097578063f047435011610071578063f0474350146103eb578063f560c7341461040b578063fba00cbd1461041e578063fef0f6f21461043157600080fd5b8063a7cac846146103a5578063a8f84259146103c5578063bbd0a19f146103d857600080fd5b80639b70dec3116100c85780639b70dec31461036c578063a516a5bf1461037f578063a526d83b1461039257600080fd5b8063714041561461033357806380b884df146103465780638377a9511461035957600080fd5b80633e4f49e61161015b578063532dea6a11610135578063532dea6a146102cd5780635459f179146102ed5780635cb782fe1461030d57806367d784981461032057600080fd5b80633e4f49e61461025557806340e58ee5146102755780634d3831761461028857600080fd5b8063184b95591161018c578063184b95591461021457806336e7048a146102375780633932abb11461023f57600080fd5b8063013cf08b146101b357806302a251a3146101d957806315373e3d146101ff575b600080fd5b6101c66101c13660046120ba565b61043a565b6040519081526020015b60405180910390f35b600c546c0100000000000000000000000090046bffffffffffffffffffffffff166101c6565b61021261020d3660046120e1565b61045b565b005b61022761022236600461213a565b6106df565b60405190151581526020016101d0565b6101c6600a81565b600c546bffffffffffffffffffffffff166101c6565b6102686102633660046120ba565b61088c565b6040516101d091906121ac565b6102126102833660046120ba565b6109b5565b600a546102a89073ffffffffffffffffffffffffffffffffffffffff1681565b60405173ffffffffffffffffffffffffffffffffffffffff90911681526020016101d0565b6101c66102db3660046120ba565b60016020526000908152604090205481565b6101c66102fb3660046120ba565b60056020526000908152604090205481565b61021261031b3660046121c6565b610c41565b6102a861032e3660046121f2565b610e13565b610212610341366004612214565b610e58565b6102126103543660046120ba565b61109c565b6102126103673660046120ba565b611255565b61021261037a36600461234a565b6112db565b6101c661038d366004612489565b6117c6565b6102126103a0366004612214565b611a39565b6101c66103b3366004612214565b60096020526000908152604090205481565b6101c66103d3366004612489565b611bcc565b6101c66103e6366004612489565b611fd8565b6101c66103f93660046120ba565b60066020526000908152604090205481565b6102a86104193660046120ba565b61202d565b6102a861042c3660046121f2565b612064565b6101c660075481565b6003818154811061044a57600080fd5b600091825260209091200154905081565b3360009081526009602052604081205490036104a3576040517f82b4290000000000000000000000000000000000000000000000000000000000815260040160405180910390fd5b60075460085410156104e1576040517fd760fb7200000000000000000000000000000000000000000000000000000000815260040160405180910390fd5b60016104ec8361088c565b60058111156104fd576104fd61217d565b14610534576040517fbaf3f0f700000000000000000000000000000000000000000000000000000000815260040160405180910390fd5b60005b6000838152600460205260409020548110156105db57600083815260046020526040902080543391908390811061057057610570612565565b60009182526020909120015473ffffffffffffffffffffffffffffffffffffffff16036105c9576040517f7c9a1cf900000000000000000000000000000000000000000000000000000000815260040160405180910390fd5b806105d3816125c3565b915050610537565b5060008281526006602052604081208054600192906105fb9084906125fb565b909155505080151560010361062f5760008281526005602052604081208054600192906106299084906125fb565b90915550505b60008281526004602090815260408083208054600181018255908452919092200180547fffffffffffffffffffffffff0000000000000000000000000000000000000000163390811790915590517f128190a201dac9a6caadc1ccd93f2f9a6788412a605cdf38f294bce91173d680916106d39185918591928352901515602083015273ffffffffffffffffffffffffffffffffffffffff16604082015260600190565b60405180910390a15050565b600b5460009074010000000000000000000000000000000000000000900460ff1615610737576040517f0dc149f000000000000000000000000000000000000000000000000000000000815260040160405180910390fd5b6008805460018082019092557ff3f7a9fe364faab93b216da50a3214154f22a0a2b415b23a84c8169e8b636ee301805473ffffffffffffffffffffffffffffffffffffffff8581167fffffffffffffffffffffffff00000000000000000000000000000000000000009283168117909355600092835260096020908152604093849020859055600b8054600a80548b86169616861790557fffffffffffffffffffffff00000000000000000000000000000000000000000016928a16929092177401000000000000000000000000000000000000000017909155600c80546e1275000000000000000000000000017fffffffffffffffff00000000000000000000000000000000000000000000000090911617905560079390935590519081527f908408e307fc569b417f6cbec5d5a06f44a0a505ac0479b47d421a4b2fd6a1e6910160405180910390a15060019392505050565b600081815260208190526040812080546bffffffffffffffffffffffff1682036108e2576040517f0992f7ad00000000000000000000000000000000000000000000000000000000815260040160405180910390fd5b8054426bffffffffffffffffffffffff909116106109035750600092915050565b8054426c010000000000000000000000009091046bffffffffffffffffffffffff16106109335750600192915050565b6008546000848152600560205260409020546014919061095490606461266f565b61095e919061275a565b1215801561099e57506000838152600660209081526040808320546005909252909120546033919061099190606461266f565b61099b919061275a565b12155b156109ac5750600492915050565b50600392915050565b60006109c08261088c565b905060018160058111156109d6576109d661217d565b14610a0d576040517fbaf3f0f700000000000000000000000000000000000000000000000000000000815260040160405180910390fd5b600854606490610a1e9060146127c2565b610a2891906127ff565b6000838152600160205260409020541280610a4f5750600082815260016020526040902054155b15610a86576040517f53a0ee7800000000000000000000000000000000000000000000000000000000815260040160405180910390fd5b600082815260208190526040812080547fffffffffffff00ffffffffffffffffffffffffffffffffffffffffffffffffff167901000000000000000000000000000000000000000000000000001790555b600354811015610b8d578260038281548110610af557610af5612565565b906000526020600020015403610b7b5760038054610b1590600190612813565b81548110610b2557610b25612565565b906000526020600020015460038281548110610b4357610b43612565565b6000918252602090912001556003805480610b6057610b6061282a565b60019003818190600052602060002001600090559055610b8d565b80610b85816125c3565b915050610ad7565b5060008281526006602090815260408083208390556005825280832083905560049091528120610bbc91612080565b6000828152600260205260408120610bd391612080565b60008281526001602090815260408083208390558282529182902080547fffffffffffff000000000000000000000000000000000000000000000000000016905590518381527f789cf55be980739dad1d0699b93b58e806b51c9d96619bfa8fe0a28abaa7b30c91016106d3565b600a5473ffffffffffffffffffffffffffffffffffffffff163314610c92576040517f82b4290000000000000000000000000000000000000000000000000000000000815260040160405180910390fd5b60005b600854811015610d225760088181548110610cb257610cb2612565565b60009182526020909120015473ffffffffffffffffffffffffffffffffffffffff90811690831603610d10576040517fe523909000000000000000000000000000000000000000000000000000000000815260040160405180910390fd5b80610d1a816125c3565b915050610c95565b508060088381548110610d3757610d37612565565b9060005260206000200160006101000a81548173ffffffffffffffffffffffffffffffffffffffff021916908373ffffffffffffffffffffffffffffffffffffffff1602179055506009600060088481548110610d9657610d96612565565b60009182526020808320919091015473ffffffffffffffffffffffffffffffffffffffff908116845283820194909452604092830182208290559284168082526009845290829020600190558151858152928301527f1e47894dfcedc9d56b2b25d566620ca3918deea105857813b77a69d027f8b74191016106d3565b60026020528160005260406000208181548110610e2f57600080fd5b60009182526020909120015473ffffffffffffffffffffffffffffffffffffffff169150829050565b600a5473ffffffffffffffffffffffffffffffffffffffff163314610ea9576040517f82b4290000000000000000000000000000000000000000000000000000000000815260040160405180910390fd5b60005b60085481101561104e578173ffffffffffffffffffffffffffffffffffffffff1660088281548110610ee057610ee0612565565b60009182526020909120015473ffffffffffffffffffffffffffffffffffffffff160361103c5760088054610f1790600190612813565b81548110610f2757610f27612565565b6000918252602090912001546008805473ffffffffffffffffffffffffffffffffffffffff9092169183908110610f6057610f60612565565b9060005260206000200160006101000a81548173ffffffffffffffffffffffffffffffffffffffff021916908373ffffffffffffffffffffffffffffffffffffffff1602179055506008805480610fb957610fb961282a565b6000828152602080822083017fffffffffffffffffffffffffffffffffffffffffffffffffffffffffffffffff90810180547fffffffffffffffffffffffff000000000000000000000000000000000000000016905590920190925573ffffffffffffffffffffffffffffffffffffffff8416825260099052604081205561104e565b80611046816125c3565b915050610eac565b5060405173ffffffffffffffffffffffffffffffffffffffff821681527fb8107d0c6b40be480ce3172ee66ba6d64b71f6b1685a851340036e6e2e3e3c52906020015b60405180910390a150565b3360009081526009602052604081205490036110e4576040517f82b4290000000000000000000000000000000000000000000000000000000000815260040160405180910390fd5b60006110ef8261088c565b905060018160058111156111055761110561217d565b1461113c576040517fbaf3f0f700000000000000000000000000000000000000000000000000000000815260040160405180910390fd5b60005b6000838152600260205260409020548110156111e357600083815260026020526040902080543391908390811061117857611178612565565b60009182526020909120015473ffffffffffffffffffffffffffffffffffffffff16036111d1576040517f7c9a1cf900000000000000000000000000000000000000000000000000000000815260040160405180910390fd5b806111db816125c3565b91505061113f565b506001806000848152602001908152602001600020600082825461120791906125fb565b90915550505060009081526002602090815260408220805460018101825590835291200180547fffffffffffffffffffffffff00000000000000000000000000000000000000001633179055565b600a5473ffffffffffffffffffffffffffffffffffffffff1633146112a6576040517f82b4290000000000000000000000000000000000000000000000000000000000815260040160405180910390fd5b60078190556040518181527f747a92da1557c5b07af036cf85347baaf1a1bfe759421af06300b1501225645590602001611091565b600a5473ffffffffffffffffffffffffffffffffffffffff16331461132c576040517f82b4290000000000000000000000000000000000000000000000000000000000815260040160405180910390fd5b8051600003611367576040517fe523909000000000000000000000000000000000000000000000000000000000815260040160405180910390fd5b805160085410156115aa5760005b6008548110156114b057600960006008838154811061139657611396612565565b600091825260208083209091015473ffffffffffffffffffffffffffffffffffffffff16835282019290925260400181205581518290829081106113dc576113dc612565565b6020026020010151600882815481106113f7576113f7612565565b9060005260206000200160006101000a81548173ffffffffffffffffffffffffffffffffffffffff021916908373ffffffffffffffffffffffffffffffffffffffff16021790555060016009600084848151811061145757611457612565565b602002602001015173ffffffffffffffffffffffffffffffffffffffff1673ffffffffffffffffffffffffffffffffffffffff1681526020019081526020016000208190555080806114a8906125c3565b915050611375565b506008545b81518110156115a45760088282815181106114d2576114d2612565565b60209081029190910181015182546001808201855560009485529284200180547fffffffffffffffffffffffff00000000000000000000000000000000000000001673ffffffffffffffffffffffffffffffffffffffff9092169190911790558351909160099185908590811061154b5761154b612565565b602002602001015173ffffffffffffffffffffffffffffffffffffffff1673ffffffffffffffffffffffffffffffffffffffff16815260200190815260200160002081905550808061159c906125c3565b9150506114b5565b50611797565b60005b81518110156116e75760096000600883815481106115cd576115cd612565565b600091825260208083209091015473ffffffffffffffffffffffffffffffffffffffff168352820192909252604001812055815182908290811061161357611613612565565b60200260200101516008828154811061162e5761162e612565565b9060005260206000200160006101000a81548173ffffffffffffffffffffffffffffffffffffffff021916908373ffffffffffffffffffffffffffffffffffffffff16021790555060016009600084848151811061168e5761168e612565565b602002602001015173ffffffffffffffffffffffffffffffffffffffff1673ffffffffffffffffffffffffffffffffffffffff1681526020019081526020016000208190555080806116df906125c3565b9150506115ad565b5080515b600854811015611795576008818154811061170857611708612565565b6000918252602082200180547fffffffffffffffffffffffff00000000000000000000000000000000000000001690556008805460099291908490811061175157611751612565565b600091825260208083209091015473ffffffffffffffffffffffffffffffffffffffff1683528201929092526040018120558061178d816125c3565b9150506116eb565b505b7f2cc77ce4deef5ecc16c037ed098db18a06d16baf13e73e178dccd7ed21acc1a28160405161109191906128aa565b6007546008546000911115611807576040517fd760fb7200000000000000000000000000000000000000000000000000000000815260040160405180910390fd5b6000611814858585611fd8565b905060006118218261088c565b905060048160058111156118375761183761217d565b1461186e576040517fbaf3f0f700000000000000000000000000000000000000000000000000000000815260040160405180910390fd5b60005b865181101561199b57600a54875160009173ffffffffffffffffffffffffffffffffffffffff1690634ed2c963908a90859081106118b1576118b1612565565b60200260200101518985815181106118cb576118cb612565565b60200260200101518986815181106118e5576118e5612565565b602002602001015160006040518563ffffffff1660e01b815260040161190e9493929190612928565b6020604051808303816000875af115801561192d573d6000803e3d6000fd5b505050506040513d601f19601f82011682018060405250810190611951919061297e565b90508061198a576040517fc5df25a600000000000000000000000000000000000000000000000000000000815260040160405180910390fd5b50611994816125c3565b9050611871565b506040518281527f712ae1383f79ac853f8d882153778e0260ef8f03b504e2866e0593e04d2b291f9060200160405180910390a160008281526020818152604080832080547fffffffffffff000000000000000000000000000000000000000000000000000016905560049091528120611a1491612080565b5060008181526005602090815260408083208390556006909152812055949350505050565b600a5473ffffffffffffffffffffffffffffffffffffffff163314611a8a576040517f82b4290000000000000000000000000000000000000000000000000000000000815260040160405180910390fd5b60005b600854811015611b1a5760088181548110611aaa57611aaa612565565b60009182526020909120015473ffffffffffffffffffffffffffffffffffffffff90811690831603611b08576040517fe523909000000000000000000000000000000000000000000000000000000000815260040160405180910390fd5b80611b12816125c3565b915050611a8d565b506008805460018082019092557ff3f7a9fe364faab93b216da50a3214154f22a0a2b415b23a84c8169e8b636ee30180547fffffffffffffffffffffffff00000000000000000000000000000000000000001673ffffffffffffffffffffffffffffffffffffffff841690811790915560008181526009602090815260409182902093909355519081527f038596bb31e2e7d3d9f184d4c98b310103f6d7f5830e5eec32bffe6f1728f9699101611091565b600a5460009073ffffffffffffffffffffffffffffffffffffffff163314611c20576040517f82b4290000000000000000000000000000000000000000000000000000000000815260040160405180910390fd5b6007546008541015611c5e576040517fd760fb7200000000000000000000000000000000000000000000000000000000815260040160405180910390fd5b82518451148015611c70575081518451145b611ca6576040517fe523909000000000000000000000000000000000000000000000000000000000815260040160405180910390fd5b8351600003611ce1576040517fe523909000000000000000000000000000000000000000000000000000000000815260040160405180910390fd5b600a84511115611d1d576040517fe523909000000000000000000000000000000000000000000000000000000000815260040160405180910390fd5b6000611d2a858585611fd8565b60008181526020819052604090208054919250906bffffffffffffffffffffffff1615611d83576040517fbaf3f0f700000000000000000000000000000000000000000000000000000000815260040160405180910390fd5b600c54600090611da1906bffffffffffffffffffffffff164261299b565b600c54909150600090611dd2906c0100000000000000000000000090046bffffffffffffffffffffffff16836129b3565b83546bffffffffffffffffffffffff8083166c010000000000000000000000009081027fffffffffffffffff0000000000000000000000000000000000000000000000009384168388161717875560008881526005602090815260408083208390556006825280832083905590829052808220895481547fffffffffffffffffffffffffffffffffffffffff000000000000000000000000811691871691821783558b548690049096169094029490951690921792909217808455875460ff780100000000000000000000000000000000000000000000000091829004811615159091027fffffffffffffff00ffffffffffffffffffffffffffffffffffffffffffffffff83168117865589547901000000000000000000000000000000000000000000000000009081900490921615159091027fffffffffffff00ffffffffffffffffffffffffffffffffffffffffffffffffff9091167fffffffffffff0000ffffffffffffffffffffffffffffffffffffffffffffffff90921691909117179092556003805460018101825591527fc2575a0e9e593c00f959f8c92f12db2869c3395a3b0502d05e2516446f71f85b01869055519091507fa2366c4f1e103949cc41bc8117f334969890a670cfe1bbc5f09eb8ceaac0bae090611fc490869033908c908c908c9089908990612a68565b60405180910390a150919695505050505050565b6000838383604051602001611fef93929190612af0565b604080517fffffffffffffffffffffffffffffffffffffffffffffffffffffffffffffffe08184030181529190528051602090910120949350505050565b6008818154811061203d57600080fd5b60009182526020909120015473ffffffffffffffffffffffffffffffffffffffff16905081565b60046020528160005260406000208181548110610e2f57600080fd5b508054600082559060005260206000209081019061209e91906120a1565b50565b5b808211156120b657600081556001016120a2565b5090565b6000602082840312156120cc57600080fd5b5035919050565b801515811461209e57600080fd5b600080604083850312156120f457600080fd5b823591506020830135612106816120d3565b809150509250929050565b803573ffffffffffffffffffffffffffffffffffffffff8116811461213557600080fd5b919050565b60008060006060848603121561214f57600080fd5b61215884612111565b925061216660208501612111565b915061217460408501612111565b90509250925092565b7f4e487b7100000000000000000000000000000000000000000000000000000000600052602160045260246000fd5b60208101600683106121c0576121c061217d565b91905290565b600080604083850312156121d957600080fd5b823591506121e960208401612111565b90509250929050565b6000806040838503121561220557600080fd5b50508035926020909101359150565b60006020828403121561222657600080fd5b61222f82612111565b9392505050565b7f4e487b7100000000000000000000000000000000000000000000000000000000600052604160045260246000fd5b604051601f82017fffffffffffffffffffffffffffffffffffffffffffffffffffffffffffffffe016810167ffffffffffffffff811182821017156122ac576122ac612236565b604052919050565b600067ffffffffffffffff8211156122ce576122ce612236565b5060051b60200190565b600082601f8301126122e957600080fd5b813560206122fe6122f9836122b4565b612265565b82815260059290921b8401810191818101908684111561231d57600080fd5b8286015b8481101561233f5761233281612111565b8352918301918301612321565b509695505050505050565b60006020828403121561235c57600080fd5b813567ffffffffffffffff81111561237357600080fd5b61237f848285016122d8565b949350505050565b6000601f838184011261239957600080fd5b823560206123a96122f9836122b4565b82815260059290921b850181019181810190878411156123c857600080fd5b8287015b8481101561247d57803567ffffffffffffffff808211156123ed5760008081fd5b818a0191508a603f8301126124025760008081fd5b8582013560408282111561241857612418612236565b612447887fffffffffffffffffffffffffffffffffffffffffffffffffffffffffffffffe08c85011601612265565b92508183528c8183860101111561245e5760008081fd5b81818501898501375060009082018701528452509183019183016123cc565b50979650505050505050565b60008060006060848603121561249e57600080fd5b833567ffffffffffffffff808211156124b657600080fd5b6124c2878388016122d8565b94506020915081860135818111156124d957600080fd5b8601601f810188136124ea57600080fd5b80356124f86122f9826122b4565b81815260059190911b8201840190848101908a83111561251757600080fd5b928501925b828410156125355783358252928501929085019061251c565b9650505050604086013591508082111561254e57600080fd5b5061255b86828701612387565b9150509250925092565b7f4e487b7100000000000000000000000000000000000000000000000000000000600052603260045260246000fd5b7f4e487b7100000000000000000000000000000000000000000000000000000000600052601160045260246000fd5b60007fffffffffffffffffffffffffffffffffffffffffffffffffffffffffffffffff82036125f4576125f4612594565b5060010190565b6000808212827f7fffffffffffffffffffffffffffffffffffffffffffffffffffffffffffffff0384138115161561263557612635612594565b827f800000000000000000000000000000000000000000000000000000000000000003841281161561266957612669612594565b50500190565b60007f7fffffffffffffffffffffffffffffffffffffffffffffffffffffffffffffff6000841360008413858304851182821616156126b0576126b0612594565b7f800000000000000000000000000000000000000000000000000000000000000060008712868205881281841616156126eb576126eb612594565b6000871292508782058712848416161561270757612707612594565b8785058712818416161561271d5761271d612594565b505050929093029392505050565b7f4e487b7100000000000000000000000000000000000000000000000000000000600052601260045260246000fd5b6000826127695761276961272b565b7fffffffffffffffffffffffffffffffffffffffffffffffffffffffffffffffff83147f8000000000000000000000000000000000000000000000000000000000000000831416156127bd576127bd612594565b500590565b6000817fffffffffffffffffffffffffffffffffffffffffffffffffffffffffffffffff04831182151516156127fa576127fa612594565b500290565b60008261280e5761280e61272b565b500490565b60008282101561282557612825612594565b500390565b7f4e487b7100000000000000000000000000000000000000000000000000000000600052603160045260246000fd5b600081518084526020808501945080840160005b8381101561289f57815173ffffffffffffffffffffffffffffffffffffffff168752958201959082019060010161286d565b509495945050505050565b60208152600061222f6020830184612859565b6000815180845260005b818110156128e3576020818501810151868301820152016128c7565b818111156128f5576000602083870101525b50601f017fffffffffffffffffffffffffffffffffffffffffffffffffffffffffffffffe0169290920160200192915050565b73ffffffffffffffffffffffffffffffffffffffff8516815283602082015260806040820152600061295d60808301856128bd565b90506002831061296f5761296f61217d565b82606083015295945050505050565b60006020828403121561299057600080fd5b815161222f816120d3565b600082198211156129ae576129ae612594565b500190565b60006bffffffffffffffffffffffff8083168185168083038211156129da576129da612594565b01949350505050565b600081518084526020808501945080840160005b8381101561289f578151875295820195908201906001016129f7565b600081518084526020808501808196508360051b8101915082860160005b85811015612a5b578284038952612a498483516128bd565b98850198935090840190600101612a31565b5091979650505050505050565b87815273ffffffffffffffffffffffffffffffffffffffff8716602082015260e060408201526000612a9d60e0830188612859565b8281036060840152612aaf81886129e3565b90508281036080840152612ac38187612a13565b9150506bffffffffffffffffffffffff80851660a084015280841660c08401525098975050505050505050565b606081526000612b036060830186612859565b8281036020840152612b1581866129e3565b90508281036040840152612b298185612a13565b969550505050505056fea2646970667358221220a8502946a4fb0f880f8e4faad0abd9662aff5f2d5e28ba63d47a9e2801b4d5b764736f6c634300080f0033",
  "linkReferences": {},
  "deployedLinkReferences": {}
}