{
  "_format": "hh-sol-artifact-1",
  "contractName": "FXAMORxGuild",
  "sourceName": "contracts/FXAMORxGuildToken.sol",
  "abi": [
    {
      "inputs": [],
      "name": "AddressZero",
      "type": "error"
    },
    {
      "inputs": [],
      "name": "AlreadyInitialized",
      "type": "error"
    },
    {
      "inputs": [],
      "name": "AlreadySet",
      "type": "error"
    },
    {
      "inputs": [],
      "name": "EmptyArray",
      "type": "error"
    },
    {
      "inputs": [],
      "name": "InvalidAddress",
      "type": "error"
    },
    {
      "inputs": [],
      "name": "InvalidAmount",
      "type": "error"
    },
    {
      "inputs": [],
      "name": "InvalidApprove",
      "type": "error"
    },
    {
      "inputs": [],
      "name": "InvalidSender",
      "type": "error"
    },
    {
      "inputs": [],
      "name": "InvalidTransfer",
      "type": "error"
    },
    {
      "inputs": [],
      "name": "NotDelegatedAny",
      "type": "error"
    },
    {
      "inputs": [],
      "name": "Unauthorized",
      "type": "error"
    },
    {
      "anonymous": false,
      "inputs": [
        {
          "indexed": false,
          "internalType": "address",
          "name": "to",
          "type": "address"
        },
        {
          "indexed": false,
          "internalType": "uint256",
          "name": "amount",
          "type": "uint256"
        }
      ],
      "name": "AMORxGuildStakedToFXAMOR",
      "type": "event"
    },
    {
      "anonymous": false,
      "inputs": [
        {
          "indexed": false,
          "internalType": "address",
          "name": "to",
          "type": "address"
        },
        {
          "indexed": false,
          "internalType": "uint256",
          "name": "amount",
          "type": "uint256"
        }
      ],
      "name": "AMORxGuildWithdrawedFromFXAMOR",
      "type": "event"
    },
    {
      "anonymous": false,
      "inputs": [
        {
          "indexed": true,
          "internalType": "address",
          "name": "owner",
          "type": "address"
        },
        {
          "indexed": true,
          "internalType": "address",
          "name": "spender",
          "type": "address"
        },
        {
          "indexed": false,
          "internalType": "uint256",
          "name": "value",
          "type": "uint256"
        }
      ],
      "name": "Approval",
      "type": "event"
    },
    {
      "anonymous": false,
      "inputs": [
        {
          "indexed": false,
          "internalType": "bool",
          "name": "success",
          "type": "bool"
        },
        {
          "indexed": false,
          "internalType": "address",
          "name": "owner",
          "type": "address"
        },
        {
          "indexed": false,
          "internalType": "address",
          "name": "AMORxGuild",
          "type": "address"
        }
      ],
      "name": "Initialized",
      "type": "event"
    },
    {
      "anonymous": false,
      "inputs": [
        {
          "indexed": true,
          "internalType": "address",
          "name": "previousOwner",
          "type": "address"
        },
        {
          "indexed": true,
          "internalType": "address",
          "name": "newOwner",
          "type": "address"
        }
      ],
      "name": "OwnershipTransferred",
      "type": "event"
    },
    {
      "anonymous": false,
      "inputs": [
        {
          "indexed": true,
          "internalType": "address",
          "name": "from",
          "type": "address"
        },
        {
          "indexed": true,
          "internalType": "address",
          "name": "to",
          "type": "address"
        },
        {
          "indexed": false,
          "internalType": "uint256",
          "name": "value",
          "type": "uint256"
        }
      ],
      "name": "Transfer",
      "type": "event"
    },
    {
      "inputs": [],
      "name": "AMORxGuild",
      "outputs": [
        {
          "internalType": "contract IERC20",
          "name": "",
          "type": "address"
        }
      ],
      "stateMutability": "view",
      "type": "function"
    },
    {
      "inputs": [],
      "name": "_owner",
      "outputs": [
        {
          "internalType": "address",
          "name": "",
          "type": "address"
        }
      ],
      "stateMutability": "view",
      "type": "function"
    },
    {
      "inputs": [
        {
          "internalType": "address",
          "name": "owner",
          "type": "address"
        },
        {
          "internalType": "address",
          "name": "spender",
          "type": "address"
        }
      ],
      "name": "allowance",
      "outputs": [
        {
          "internalType": "uint256",
          "name": "",
          "type": "uint256"
        }
      ],
      "stateMutability": "view",
      "type": "function"
    },
    {
      "inputs": [
        {
          "internalType": "address",
          "name": "",
          "type": "address"
        }
      ],
      "name": "amountDelegated",
      "outputs": [
        {
          "internalType": "uint256",
          "name": "",
          "type": "uint256"
        }
      ],
      "stateMutability": "view",
      "type": "function"
    },
    {
      "inputs": [
        {
          "internalType": "address",
          "name": "spender",
          "type": "address"
        },
        {
          "internalType": "uint256",
          "name": "amount",
          "type": "uint256"
        }
      ],
      "name": "approve",
      "outputs": [
        {
          "internalType": "bool",
          "name": "",
          "type": "bool"
        }
      ],
      "stateMutability": "nonpayable",
      "type": "function"
    },
    {
      "inputs": [
        {
          "internalType": "address",
          "name": "account",
          "type": "address"
        }
      ],
      "name": "balanceOf",
      "outputs": [
        {
          "internalType": "uint256",
          "name": "",
          "type": "uint256"
        }
      ],
      "stateMutability": "view",
      "type": "function"
    },
    {
      "inputs": [
        {
          "internalType": "address",
          "name": "account",
          "type": "address"
        },
        {
          "internalType": "uint256",
          "name": "amount",
          "type": "uint256"
        }
      ],
      "name": "burn",
      "outputs": [],
      "stateMutability": "nonpayable",
      "type": "function"
    },
    {
      "inputs": [],
      "name": "controller",
      "outputs": [
        {
          "internalType": "address",
          "name": "",
          "type": "address"
        }
      ],
      "stateMutability": "view",
      "type": "function"
    },
    {
      "inputs": [],
      "name": "decimals",
      "outputs": [
        {
          "internalType": "uint8",
          "name": "",
          "type": "uint8"
        }
      ],
      "stateMutability": "view",
      "type": "function"
    },
    {
      "inputs": [
        {
          "internalType": "address",
          "name": "spender",
          "type": "address"
        },
        {
          "internalType": "uint256",
          "name": "subtractedValue",
          "type": "uint256"
        }
      ],
      "name": "decreaseAllowance",
      "outputs": [
        {
          "internalType": "bool",
          "name": "",
          "type": "bool"
        }
      ],
      "stateMutability": "nonpayable",
      "type": "function"
    },
    {
      "inputs": [
        {
          "internalType": "address",
          "name": "to",
          "type": "address"
        },
        {
          "internalType": "uint256",
          "name": "amount",
          "type": "uint256"
        }
      ],
      "name": "delegate",
      "outputs": [],
      "stateMutability": "nonpayable",
      "type": "function"
    },
    {
      "inputs": [
        {
          "internalType": "address",
          "name": "",
          "type": "address"
        },
        {
          "internalType": "address",
          "name": "",
          "type": "address"
        }
      ],
      "name": "delegations",
      "outputs": [
        {
          "internalType": "uint256",
          "name": "",
          "type": "uint256"
        }
      ],
      "stateMutability": "view",
      "type": "function"
    },
    {
      "inputs": [
        {
          "internalType": "address",
          "name": "",
          "type": "address"
        },
        {
          "internalType": "uint256",
          "name": "",
          "type": "uint256"
        }
      ],
      "name": "delegators",
      "outputs": [
        {
          "internalType": "address",
          "name": "",
          "type": "address"
        }
      ],
      "stateMutability": "view",
      "type": "function"
    },
    {
      "inputs": [
        {
          "internalType": "address",
          "name": "spender",
          "type": "address"
        },
        {
          "internalType": "uint256",
          "name": "addedValue",
          "type": "uint256"
        }
      ],
      "name": "increaseAllowance",
      "outputs": [
        {
          "internalType": "bool",
          "name": "",
          "type": "bool"
        }
      ],
      "stateMutability": "nonpayable",
      "type": "function"
    },
    {
      "inputs": [
        {
          "internalType": "string",
          "name": "name_",
          "type": "string"
        },
        {
          "internalType": "string",
          "name": "symbol_",
          "type": "string"
        },
        {
          "internalType": "address",
          "name": "initOwner_",
          "type": "address"
        },
        {
          "internalType": "address",
          "name": "AMORxGuild_",
          "type": "address"
        }
      ],
      "name": "init",
      "outputs": [],
      "stateMutability": "nonpayable",
      "type": "function"
    },
    {
      "inputs": [],
      "name": "name",
      "outputs": [
        {
          "internalType": "string",
          "name": "",
          "type": "string"
        }
      ],
      "stateMutability": "view",
      "type": "function"
    },
    {
      "inputs": [],
      "name": "owner",
      "outputs": [
        {
          "internalType": "address",
          "name": "",
          "type": "address"
        }
      ],
      "stateMutability": "view",
      "type": "function"
    },
    {
      "inputs": [],
      "name": "renounceOwnership",
      "outputs": [],
      "stateMutability": "nonpayable",
      "type": "function"
    },
    {
      "inputs": [
        {
          "internalType": "address",
          "name": "_controller",
          "type": "address"
        }
      ],
      "name": "setController",
      "outputs": [],
      "stateMutability": "nonpayable",
      "type": "function"
    },
    {
      "inputs": [
        {
          "internalType": "address",
          "name": "to",
          "type": "address"
        },
        {
          "internalType": "uint256",
          "name": "amount",
          "type": "uint256"
        }
      ],
      "name": "stake",
      "outputs": [
        {
          "internalType": "uint256",
          "name": "",
          "type": "uint256"
        }
      ],
      "stateMutability": "nonpayable",
      "type": "function"
    },
    {
      "inputs": [
        {
          "internalType": "address",
          "name": "",
          "type": "address"
        }
      ],
      "name": "stakes",
      "outputs": [
        {
          "internalType": "uint256",
          "name": "",
          "type": "uint256"
        }
      ],
      "stateMutability": "view",
      "type": "function"
    },
    {
      "inputs": [],
      "name": "symbol",
      "outputs": [
        {
          "internalType": "string",
          "name": "",
          "type": "string"
        }
      ],
      "stateMutability": "view",
      "type": "function"
    },
    {
      "inputs": [],
      "name": "totalSupply",
      "outputs": [
        {
          "internalType": "uint256",
          "name": "",
          "type": "uint256"
        }
      ],
      "stateMutability": "view",
      "type": "function"
    },
    {
      "inputs": [
        {
          "internalType": "address",
          "name": "to",
          "type": "address"
        },
        {
          "internalType": "uint256",
          "name": "amount",
          "type": "uint256"
        }
      ],
      "name": "transfer",
      "outputs": [
        {
          "internalType": "bool",
          "name": "",
          "type": "bool"
        }
      ],
      "stateMutability": "nonpayable",
      "type": "function"
    },
    {
      "inputs": [
        {
          "internalType": "address",
          "name": "from",
          "type": "address"
        },
        {
          "internalType": "address",
          "name": "to",
          "type": "address"
        },
        {
          "internalType": "uint256",
          "name": "amount",
          "type": "uint256"
        }
      ],
      "name": "transferFrom",
      "outputs": [
        {
          "internalType": "bool",
          "name": "",
          "type": "bool"
        }
      ],
      "stateMutability": "nonpayable",
      "type": "function"
    },
    {
      "inputs": [
        {
          "internalType": "address",
          "name": "newOwner",
          "type": "address"
        }
      ],
      "name": "transferOwnership",
      "outputs": [],
      "stateMutability": "nonpayable",
      "type": "function"
    },
    {
      "inputs": [
        {
          "internalType": "address",
          "name": "account",
          "type": "address"
        },
        {
          "internalType": "uint256",
          "name": "amount",
          "type": "uint256"
        }
      ],
      "name": "undelegate",
      "outputs": [],
      "stateMutability": "nonpayable",
      "type": "function"
    }
  ],
  "bytecode": "0x608060405234801561001057600080fd5b5061001a3361001f565b61007b565b600580546001600160a01b038381166201000081810262010000600160b01b031985161790945560405193909204169182907f8be0079c531659141344cd1fd0a4f28419497f9722a3daafe3b4186f6b6457e090600090a35050565b61210c8061008a6000396000f3fe608060405234801561001057600080fd5b50600436106101b95760003560e01c80637bb576f5116100f9578063a9059cbb11610097578063c64814dd11610071578063c64814dd14610420578063dd62ed3e1461044b578063f2fde38b14610491578063f77c4791146104a457600080fd5b8063a9059cbb146103d5578063adc9772e146103e8578063b2bdfa7b146103fb57600080fd5b806392eefe9b116100d357806392eefe9b1461039457806395d89b41146103a75780639dc29fac146103af578063a457c2d7146103c257600080fd5b80637bb576f5146103305780638da5cb5b146103505780638e49d0fd1461037457600080fd5b806323b872dd116101665780634d99dd16116101405780634d99dd16146102a75780636f6f5809146102ba57806370a08231146102f2578063715018a61461032857600080fd5b806323b872dd1461025d578063313ce56714610270578063395093511461029457600080fd5b80630e07f854116101975780630e07f8541461021457806316934fc41461022757806318160ddd1461025557600080fd5b8063026e402b146101be57806306fdde03146101d3578063095ea7b3146101f1575b600080fd5b6101d16101cc366004611bd6565b6104c4565b005b6101db610673565b6040516101e89190611c2c565b60405180910390f35b6102046101ff366004611bd6565b610701565b60405190151581526020016101e8565b6101d1610222366004611d57565b610719565b610247610235366004611ddc565b60066020526000908152604090205481565b6040519081526020016101e8565b600254610247565b61020461026b366004611df7565b610889565b60055461028290610100900460ff1681565b60405160ff90911681526020016101e8565b6102046102a2366004611bd6565b6108af565b6101d16102b5366004611bd6565b6108fb565b6102cd6102c8366004611bd6565b610a9c565b60405173ffffffffffffffffffffffffffffffffffffffff90911681526020016101e8565b610247610300366004611ddc565b73ffffffffffffffffffffffffffffffffffffffff1660009081526020819052604090205490565b6101d1610ae1565b600c546102cd9073ffffffffffffffffffffffffffffffffffffffff1681565b60055462010000900473ffffffffffffffffffffffffffffffffffffffff166102cd565b610247610382366004611ddc565b60096020526000908152604090205481565b6101d16103a2366004611ddc565b610af5565b6101db610be1565b6101d16103bd366004611bd6565b610bee565b6102046103d0366004611bd6565b610d66565b6102046103e3366004611bd6565b610dec565b6102476103f6366004611bd6565b610dfa565b600a546102cd90610100900473ffffffffffffffffffffffffffffffffffffffff1681565b61024761042e366004611e33565b600860209081526000928352604080842090915290825290205481565b610247610459366004611e33565b73ffffffffffffffffffffffffffffffffffffffff918216600090815260016020908152604080832093909416825291909152205490565b6101d161049f366004611ddc565b611075565b600b546102cd9073ffffffffffffffffffffffffffffffffffffffff1681565b3373ffffffffffffffffffffffffffffffffffffffff831603610513576040517fddb5de5e00000000000000000000000000000000000000000000000000000000815260040160405180910390fd5b73ffffffffffffffffffffffffffffffffffffffff8216610560576040517f9fabe1c100000000000000000000000000000000000000000000000000000000815260040160405180910390fd5b3360009081526009602090815260408083205460069092528220546105859190611e95565b9050818110156105c1576040517f2c5211c600000000000000000000000000000000000000000000000000000000815260040160405180910390fd5b73ffffffffffffffffffffffffffffffffffffffff8316600081815260076020908152604080832080546001810182559084528284200180547fffffffffffffffffffffffff000000000000000000000000000000000000000016339081179091558352600882528083209383529290529081208054849290610645908490611eac565b90915550503360009081526009602052604081208054849290610669908490611eac565b9091555050505050565b6003805461068090611ec4565b80601f01602080910402602001604051908101604052809291908181526020018280546106ac90611ec4565b80156106f95780601f106106ce576101008083540402835291602001916106f9565b820191906000526020600020905b8154815290600101906020018083116106dc57829003601f168201915b505050505081565b60003361070f818585611131565b5060019392505050565b600a5460ff1615610756576040517f0dc149f000000000000000000000000000000000000000000000000000000000815260040160405180910390fd5b61075f8261120e565b600a80547fffffffffffffffffffffff0000000000000000000000000000000000000000ff1661010073ffffffffffffffffffffffffffffffffffffffff85811691820292909217909255600b80547fffffffffffffffffffffffff00000000000000000000000000000000000000009081169093179055600c805490921690831617905560036107f08582611f65565b5060046107fd8482611f65565b50600a80547fffffffffffffffffffffffffffffffffffffffffffffffffffffffffffffff001660019081179091556040805191825273ffffffffffffffffffffffffffffffffffffffff84811660208401528316908201527fc87c04922c077302cf4c93ca0785707d2272b98c125c11c3c98f545718f3e27c9060600160405180910390a150505050565b60003361089785828561128d565b6108a2858585611334565b60019150505b9392505050565b33600081815260016020908152604080832073ffffffffffffffffffffffffffffffffffffffff8716845290915281205490919061070f90829086906108f6908790611eac565b611131565b3373ffffffffffffffffffffffffffffffffffffffff83160361094a576040517fddb5de5e00000000000000000000000000000000000000000000000000000000815260040160405180910390fd5b33600090815260086020908152604080832073ffffffffffffffffffffffffffffffffffffffff8616845290915281205490036109b3576040517f6f5e06a600000000000000000000000000000000000000000000000000000000815260040160405180910390fd5b33600090815260086020908152604080832073ffffffffffffffffffffffffffffffffffffffff861684529091529020548111610a595733600090815260086020908152604080832073ffffffffffffffffffffffffffffffffffffffff8616845290915281208054839290610a2a908490611e95565b90915550503360009081526009602052604081208054839290610a4e908490611e95565b90915550610a989050565b33600081815260086020908152604080832073ffffffffffffffffffffffffffffffffffffffff87168452825280832083905592825260099052908120555b5050565b60076020528160005260406000208181548110610ab857600080fd5b60009182526020909120015473ffffffffffffffffffffffffffffffffffffffff169150829050565b610ae96114b9565b610af3600061120e565b565b600a54610100900473ffffffffffffffffffffffffffffffffffffffff16338114610b4c576040517f82b4290000000000000000000000000000000000000000000000000000000000815260040160405180910390fd5b73ffffffffffffffffffffffffffffffffffffffff8216610b99576040517f9fabe1c100000000000000000000000000000000000000000000000000000000815260040160405180910390fd5b50600b80547fffffffffffffffffffffffff00000000000000000000000000000000000000001673ffffffffffffffffffffffffffffffffffffffff92909216919091179055565b6004805461068090611ec4565b600a54610100900473ffffffffffffffffffffffffffffffffffffffff16338114610c45576040517f82b4290000000000000000000000000000000000000000000000000000000000815260040160405180910390fd5b73ffffffffffffffffffffffffffffffffffffffff8316600090815260066020526040902054821115610ca4576040517f2c5211c600000000000000000000000000000000000000000000000000000000815260040160405180910390fd5b610cae8383611541565b600b54600c54610cd89173ffffffffffffffffffffffffffffffffffffffff91821691168461167f565b73ffffffffffffffffffffffffffffffffffffffff831660009081526006602052604081208054849290610d0d908490611e95565b90915550506040805173ffffffffffffffffffffffffffffffffffffffff85168152602081018490527f461529783cdb1feba10d057996c42850a05a1c18b8966599d5aab6695c727283910160405180910390a1505050565b33600081815260016020908152604080832073ffffffffffffffffffffffffffffffffffffffff8716845290915281205490919083811015610dd4576040517f2c5211c600000000000000000000000000000000000000000000000000000000815260040160405180910390fd5b610de18286868403611131565b506001949350505050565b60003361070f818585611334565b600b5460009073ffffffffffffffffffffffffffffffffffffffff16338114610e4f576040517f82b4290000000000000000000000000000000000000000000000000000000000815260040160405180910390fd5b3373ffffffffffffffffffffffffffffffffffffffff851603610e9e576040517fddb5de5e00000000000000000000000000000000000000000000000000000000815260040160405180910390fd5b73ffffffffffffffffffffffffffffffffffffffff8416610eeb576040517f9fabe1c100000000000000000000000000000000000000000000000000000000815260040160405180910390fd5b600c546040517f70a08231000000000000000000000000000000000000000000000000000000008152336004820152849173ffffffffffffffffffffffffffffffffffffffff16906370a0823190602401602060405180830381865afa158015610f59573d6000803e3d6000fd5b505050506040513d601f19601f82011682018060405250810190610f7d919061207f565b1015610fb5576040517f2c5211c600000000000000000000000000000000000000000000000000000000815260040160405180910390fd5b600c54610fda9073ffffffffffffffffffffffffffffffffffffffff16333086611753565b610fe484846117b1565b73ffffffffffffffffffffffffffffffffffffffff841660009081526006602052604081208054859290611019908490611eac565b90915550506040805173ffffffffffffffffffffffffffffffffffffffff86168152602081018590527f1984c683c173b775668f0c27e4d25c6f9e0759cadf07b22e4669be458f4f21a8910160405180910390a1509092915050565b61107d6114b9565b73ffffffffffffffffffffffffffffffffffffffff8116611125576040517f08c379a000000000000000000000000000000000000000000000000000000000815260206004820152602660248201527f4f776e61626c653a206e6577206f776e657220697320746865207a65726f206160448201527f646472657373000000000000000000000000000000000000000000000000000060648201526084015b60405180910390fd5b61112e8161120e565b50565b73ffffffffffffffffffffffffffffffffffffffff83161580611168575073ffffffffffffffffffffffffffffffffffffffff8216155b1561119f576040517fbeac2bc600000000000000000000000000000000000000000000000000000000815260040160405180910390fd5b73ffffffffffffffffffffffffffffffffffffffff83811660008181526001602090815260408083209487168084529482529182902085905590518481527f8c5be1e5ebec7d5bd14f71427d1e84f3dd0314c0f7b2291e5b200ac8c7c3b92591015b60405180910390a3505050565b6005805473ffffffffffffffffffffffffffffffffffffffff838116620100008181027fffffffffffffffffffff0000000000000000000000000000000000000000ffff85161790945560405193909204169182907f8be0079c531659141344cd1fd0a4f28419497f9722a3daafe3b4186f6b6457e090600090a35050565b73ffffffffffffffffffffffffffffffffffffffff8381166000908152600160209081526040808320938616835292905220547fffffffffffffffffffffffffffffffffffffffffffffffffffffffffffffffff811461132e5781811015611321576040517f2c5211c600000000000000000000000000000000000000000000000000000000815260040160405180910390fd5b61132e8484848403611131565b50505050565b73ffffffffffffffffffffffffffffffffffffffff8316158061136b575073ffffffffffffffffffffffffffffffffffffffff8216155b156113a2576040517f2f35253100000000000000000000000000000000000000000000000000000000815260040160405180910390fd5b73ffffffffffffffffffffffffffffffffffffffff831660009081526020819052604090205481811015611402576040517f2c5211c600000000000000000000000000000000000000000000000000000000815260040160405180910390fd5b73ffffffffffffffffffffffffffffffffffffffff808516600090815260208190526040808220858503905591851681529081208054849290611446908490611eac565b925050819055508273ffffffffffffffffffffffffffffffffffffffff168473ffffffffffffffffffffffffffffffffffffffff167fddf252ad1be2c89b69c2b068fc378daa952ba7f163c4a11628f55a4df523b3ef846040516114ac91815260200190565b60405180910390a361132e565b60055473ffffffffffffffffffffffffffffffffffffffff62010000909104163314610af3576040517f08c379a000000000000000000000000000000000000000000000000000000000815260206004820181905260248201527f4f776e61626c653a2063616c6c6572206973206e6f7420746865206f776e6572604482015260640161111c565b73ffffffffffffffffffffffffffffffffffffffff821661158e576040517f2f35253100000000000000000000000000000000000000000000000000000000815260040160405180910390fd5b73ffffffffffffffffffffffffffffffffffffffff8216600090815260208190526040902054818110156115ee576040517f2c5211c600000000000000000000000000000000000000000000000000000000815260040160405180910390fd5b73ffffffffffffffffffffffffffffffffffffffff8316600090815260208190526040812083830390556002805484929061162a908490611e95565b909155505060405182815260009073ffffffffffffffffffffffffffffffffffffffff8516907fddf252ad1be2c89b69c2b068fc378daa952ba7f163c4a11628f55a4df523b3ef90602001611201565b505050565b60405173ffffffffffffffffffffffffffffffffffffffff831660248201526044810182905261167a9084907fa9059cbb00000000000000000000000000000000000000000000000000000000906064015b604080517fffffffffffffffffffffffffffffffffffffffffffffffffffffffffffffffe08184030181529190526020810180517bffffffffffffffffffffffffffffffffffffffffffffffffffffffff167fffffffff00000000000000000000000000000000000000000000000000000000909316929092179091526118a1565b60405173ffffffffffffffffffffffffffffffffffffffff8085166024830152831660448201526064810182905261132e9085907f23b872dd00000000000000000000000000000000000000000000000000000000906084016116d1565b73ffffffffffffffffffffffffffffffffffffffff82166117fe576040517fe6c4247b00000000000000000000000000000000000000000000000000000000815260040160405180910390fd5b80600260008282546118109190611eac565b909155505073ffffffffffffffffffffffffffffffffffffffff82166000908152602081905260408120805483929061184a908490611eac565b909155505060405181815273ffffffffffffffffffffffffffffffffffffffff8316906000907fddf252ad1be2c89b69c2b068fc378daa952ba7f163c4a11628f55a4df523b3ef9060200160405180910390a35050565b6000611903826040518060400160405280602081526020017f5361666545524332303a206c6f772d6c6576656c2063616c6c206661696c65648152508573ffffffffffffffffffffffffffffffffffffffff166119ad9092919063ffffffff16565b80519091501561167a57808060200190518101906119219190612098565b61167a576040517f08c379a000000000000000000000000000000000000000000000000000000000815260206004820152602a60248201527f5361666545524332303a204552433230206f7065726174696f6e20646964206e60448201527f6f74207375636365656400000000000000000000000000000000000000000000606482015260840161111c565b60606119bc84846000856119c4565b949350505050565b606082471015611a56576040517f08c379a000000000000000000000000000000000000000000000000000000000815260206004820152602660248201527f416464726573733a20696e73756666696369656e742062616c616e636520666f60448201527f722063616c6c0000000000000000000000000000000000000000000000000000606482015260840161111c565b73ffffffffffffffffffffffffffffffffffffffff85163b611ad4576040517f08c379a000000000000000000000000000000000000000000000000000000000815260206004820152601d60248201527f416464726573733a2063616c6c20746f206e6f6e2d636f6e7472616374000000604482015260640161111c565b6000808673ffffffffffffffffffffffffffffffffffffffff168587604051611afd91906120ba565b60006040518083038185875af1925050503d8060008114611b3a576040519150601f19603f3d011682016040523d82523d6000602084013e611b3f565b606091505b5091509150611b4f828286611b5a565b979650505050505050565b60608315611b695750816108a8565b825115611b795782518084602001fd5b816040517f08c379a000000000000000000000000000000000000000000000000000000000815260040161111c9190611c2c565b803573ffffffffffffffffffffffffffffffffffffffff81168114611bd157600080fd5b919050565b60008060408385031215611be957600080fd5b611bf283611bad565b946020939093013593505050565b60005b83811015611c1b578181015183820152602001611c03565b8381111561132e5750506000910152565b6020815260008251806020840152611c4b816040850160208701611c00565b601f017fffffffffffffffffffffffffffffffffffffffffffffffffffffffffffffffe0169190910160400192915050565b7f4e487b7100000000000000000000000000000000000000000000000000000000600052604160045260246000fd5b600082601f830112611cbd57600080fd5b813567ffffffffffffffff80821115611cd857611cd8611c7d565b604051601f83017fffffffffffffffffffffffffffffffffffffffffffffffffffffffffffffffe0908116603f01168101908282118183101715611d1e57611d1e611c7d565b81604052838152866020858801011115611d3757600080fd5b836020870160208301376000602085830101528094505050505092915050565b60008060008060808587031215611d6d57600080fd5b843567ffffffffffffffff80821115611d8557600080fd5b611d9188838901611cac565b95506020870135915080821115611da757600080fd5b50611db487828801611cac565b935050611dc360408601611bad565b9150611dd160608601611bad565b905092959194509250565b600060208284031215611dee57600080fd5b6108a882611bad565b600080600060608486031215611e0c57600080fd5b611e1584611bad565b9250611e2360208501611bad565b9150604084013590509250925092565b60008060408385031215611e4657600080fd5b611e4f83611bad565b9150611e5d60208401611bad565b90509250929050565b7f4e487b7100000000000000000000000000000000000000000000000000000000600052601160045260246000fd5b600082821015611ea757611ea7611e66565b500390565b60008219821115611ebf57611ebf611e66565b500190565b600181811c90821680611ed857607f821691505b602082108103611f11577f4e487b7100000000000000000000000000000000000000000000000000000000600052602260045260246000fd5b50919050565b601f82111561167a57600081815260208120601f850160051c81016020861015611f3e5750805b601f850160051c820191505b81811015611f5d57828155600101611f4a565b505050505050565b815167ffffffffffffffff811115611f7f57611f7f611c7d565b611f9381611f8d8454611ec4565b84611f17565b602080601f831160018114611fe65760008415611fb05750858301515b7fffffffffffffffffffffffffffffffffffffffffffffffffffffffffffffffff600386901b1c1916600185901b178555611f5d565b6000858152602081207fffffffffffffffffffffffffffffffffffffffffffffffffffffffffffffffe08616915b8281101561203357888601518255948401946001909101908401612014565b508582101561206f57878501517fffffffffffffffffffffffffffffffffffffffffffffffffffffffffffffffff600388901b60f8161c191681555b5050505050600190811b01905550565b60006020828403121561209157600080fd5b5051919050565b6000602082840312156120aa57600080fd5b815180151581146108a857600080fd5b600082516120cc818460208701611c00565b919091019291505056fea26469706673582212201130871b2a4bf57a58558934dbc9e550647fa021a1420669bc2defef1b8ef06e64736f6c634300080f0033",
  "linkReferences": {},
  "deployedLinkReferences": {}
}