{
  "_format": "hh-sol-artifact-1",
  "contractName": "GuildFactory",
  "sourceName": "contracts/GuildFactory.sol",
  "abi": [
    {
      "inputs": [
        {
          "internalType": "address",
          "name": "_amorToken",
          "type": "address"
        },
        {
          "internalType": "address",
          "name": "_amorxGuildToken",
          "type": "address"
        },
        {
          "internalType": "address",
          "name": "_fxAMORxGuildToken",
          "type": "address"
        },
        {
          "internalType": "address",
          "name": "_dAMORxGuildToken",
          "type": "address"
        },
        {
          "internalType": "address",
          "name": "_doinGudProxy",
          "type": "address"
        },
        {
          "internalType": "address",
          "name": "_controllerxGuild",
          "type": "address"
        },
        {
          "internalType": "address",
          "name": "_governor",
          "type": "address"
        },
        {
          "internalType": "address",
          "name": "_avatarxGuild",
          "type": "address"
        },
        {
          "internalType": "address",
          "name": "_metaDaoController",
          "type": "address"
        }
      ],
      "stateMutability": "nonpayable",
      "type": "constructor"
    },
    {
      "inputs": [],
      "name": "ArrayMismatch",
      "type": "error"
    },
    {
      "inputs": [],
      "name": "CreationFailed",
      "type": "error"
    },
    {
      "inputs": [],
      "name": "Unsuccessful",
      "type": "error"
    },
    {
      "anonymous": false,
      "inputs": [
        {
          "indexed": true,
          "internalType": "address",
          "name": "previousOwner",
          "type": "address"
        },
        {
          "indexed": true,
          "internalType": "address",
          "name": "newOwner",
          "type": "address"
        }
      ],
      "name": "OwnershipTransferred",
      "type": "event"
    },
    {
      "anonymous": false,
      "inputs": [
        {
          "indexed": false,
          "internalType": "address",
          "name": "GuildController",
          "type": "address"
        },
        {
          "indexed": false,
          "internalType": "address",
          "name": "AmorGuildToken",
          "type": "address"
        },
        {
          "indexed": false,
          "internalType": "address",
          "name": "DAmorxGuild",
          "type": "address"
        },
        {
          "indexed": false,
          "internalType": "address",
          "name": "FXAmorxGuild",
          "type": "address"
        },
        {
          "indexed": false,
          "internalType": "address",
          "name": "AvatarxGuild",
          "type": "address"
        },
        {
          "indexed": false,
          "internalType": "address",
          "name": "GovernorxGuild",
          "type": "address"
        }
      ],
      "name": "guildContractsCreated",
      "type": "event"
    },
    {
      "inputs": [],
      "name": "DEFAULT_GUARDIAN_THRESHOLD",
      "outputs": [
        {
          "internalType": "uint256",
          "name": "",
          "type": "uint256"
        }
      ],
      "stateMutability": "view",
      "type": "function"
    },
    {
      "inputs": [],
      "name": "amorToken",
      "outputs": [
        {
          "internalType": "address",
          "name": "",
          "type": "address"
        }
      ],
      "stateMutability": "view",
      "type": "function"
    },
    {
      "inputs": [],
      "name": "amorxGuildToken",
      "outputs": [
        {
          "internalType": "address",
          "name": "",
          "type": "address"
        }
      ],
      "stateMutability": "view",
      "type": "function"
    },
    {
      "inputs": [],
      "name": "avatarxGuild",
      "outputs": [
        {
          "internalType": "address",
          "name": "",
          "type": "address"
        }
      ],
      "stateMutability": "view",
      "type": "function"
    },
    {
      "inputs": [],
      "name": "cloneTarget",
      "outputs": [
        {
          "internalType": "address",
          "name": "",
          "type": "address"
        }
      ],
      "stateMutability": "view",
      "type": "function"
    },
    {
      "inputs": [],
      "name": "controllerxGuild",
      "outputs": [
        {
          "internalType": "address",
          "name": "",
          "type": "address"
        }
      ],
      "stateMutability": "view",
      "type": "function"
    },
    {
      "inputs": [],
      "name": "dAmorxGuild",
      "outputs": [
        {
          "internalType": "address",
          "name": "",
          "type": "address"
        }
      ],
      "stateMutability": "view",
      "type": "function"
    },
    {
      "inputs": [
        {
          "internalType": "address",
          "name": "reality",
          "type": "address"
        },
        {
          "internalType": "address",
          "name": "initialGuardian",
          "type": "address"
        },
        {
          "internalType": "string",
          "name": "_name",
          "type": "string"
        },
        {
          "internalType": "string",
          "name": "_symbol",
          "type": "string"
        }
      ],
      "name": "deployGuildContracts",
      "outputs": [
        {
          "internalType": "address",
          "name": "controller",
          "type": "address"
        },
        {
          "internalType": "address",
          "name": "avatar",
          "type": "address"
        },
        {
          "internalType": "address",
          "name": "governor",
          "type": "address"
        }
      ],
      "stateMutability": "nonpayable",
      "type": "function"
    },
    {
      "inputs": [],
      "name": "fXAmorxGuild",
      "outputs": [
        {
          "internalType": "address",
          "name": "",
          "type": "address"
        }
      ],
      "stateMutability": "view",
      "type": "function"
    },
    {
      "inputs": [],
      "name": "governorxGuild",
      "outputs": [
        {
          "internalType": "address",
          "name": "",
          "type": "address"
        }
      ],
      "stateMutability": "view",
      "type": "function"
    },
    {
      "inputs": [
        {
          "internalType": "address",
          "name": "",
          "type": "address"
        }
      ],
      "name": "guilds",
      "outputs": [
        {
          "internalType": "address",
          "name": "AmorGuildToken",
          "type": "address"
        },
        {
          "internalType": "address",
          "name": "DAmorxGuild",
          "type": "address"
        },
        {
          "internalType": "address",
          "name": "FXAmorxGuild",
          "type": "address"
        },
        {
          "internalType": "address",
          "name": "AvatarxGuild",
          "type": "address"
        },
        {
          "internalType": "address",
          "name": "GovernorxGuild",
          "type": "address"
        }
      ],
      "stateMutability": "view",
      "type": "function"
    },
    {
      "inputs": [],
      "name": "metaDaoController",
      "outputs": [
        {
          "internalType": "address",
          "name": "",
          "type": "address"
        }
      ],
      "stateMutability": "view",
      "type": "function"
    },
    {
      "inputs": [],
      "name": "owner",
      "outputs": [
        {
          "internalType": "address",
          "name": "",
          "type": "address"
        }
      ],
      "stateMutability": "view",
      "type": "function"
    },
    {
      "inputs": [],
      "name": "renounceOwnership",
      "outputs": [],
      "stateMutability": "nonpayable",
      "type": "function"
    },
    {
      "inputs": [
        {
          "internalType": "address",
          "name": "newOwner",
          "type": "address"
        }
      ],
      "name": "transferOwnership",
      "outputs": [],
      "stateMutability": "nonpayable",
      "type": "function"
    }
  ],
  "bytecode": "0x6101806040523480156200001257600080fd5b50604051620019e3380380620019e3833981016040819052620000359162000103565b620000403362000096565b6001600160a01b03988916608052600180546001600160a01b031916988a169890981790975594871661012052928616610100528516610140529084166101605290831660e052821660c0521660a052620001be565b600080546001600160a01b038381166001600160a01b0319831681178455604051919092169283917f8be0079c531659141344cd1fd0a4f28419497f9722a3daafe3b4186f6b6457e09190a35050565b80516001600160a01b0381168114620000fe57600080fd5b919050565b60008060008060008060008060006101208a8c0312156200012357600080fd5b6200012e8a620000e6565b98506200013e60208b01620000e6565b97506200014e60408b01620000e6565b96506200015e60608b01620000e6565b95506200016e60808b01620000e6565b94506200017e60a08b01620000e6565b93506200018e60c08b01620000e6565b92506200019e60e08b01620000e6565b9150620001af6101008b01620000e6565b90509295985092959850929598565b60805160a05160c05160e051610100516101205161014051610160516117656200027e6000396000818161024a0152610f010152600081816101e501526109860152600081816101b401526104e4015260008181610386015261059b0152600081816101770152610e5d01526000818161015001528181610925015281816109fd01528181610baf01528181610dfc0152610ea00152600081816103150152610fd801526000818160ff01528181610b430152610fa101526117656000f3fe608060405234801561001057600080fd5b50600436106100f55760003560e01c8063877194c511610097578063a9fca10711610066578063a9fca10714610310578063b723681a14610337578063bbb2dc6e14610381578063f2fde38b146103a857600080fd5b8063877194c5146102075780638da5cb5b146102275780639b86afbb14610245578063a75859e11461026c57600080fd5b806362d59e21116100d357806362d59e21146101995780636524e4aa146101af578063715018a6146101d65780637f01df22146101e057600080fd5b80630377a416146100fa5780632953836c1461014b578063554208b614610172575b600080fd5b6101217f000000000000000000000000000000000000000000000000000000000000000081565b60405173ffffffffffffffffffffffffffffffffffffffff90911681526020015b60405180910390f35b6101217f000000000000000000000000000000000000000000000000000000000000000081565b6101217f000000000000000000000000000000000000000000000000000000000000000081565b6101a1600a81565b604051908152602001610142565b6101217f000000000000000000000000000000000000000000000000000000000000000081565b6101de6103bb565b005b6101217f000000000000000000000000000000000000000000000000000000000000000081565b6001546101219073ffffffffffffffffffffffffffffffffffffffff1681565b60005473ffffffffffffffffffffffffffffffffffffffff16610121565b6101217f000000000000000000000000000000000000000000000000000000000000000081565b6102c961027a3660046112d7565b60026020819052600091825260409091208054600182015492820154600383015460049093015473ffffffffffffffffffffffffffffffffffffffff9283169483169391831692918216911685565b6040805173ffffffffffffffffffffffffffffffffffffffff968716815294861660208601529285169284019290925283166060830152909116608082015260a001610142565b6101217f000000000000000000000000000000000000000000000000000000000000000081565b61034a6103453660046113d3565b6103cf565b6040805173ffffffffffffffffffffffffffffffffffffffff94851681529284166020840152921691810191909152606001610142565b6101217f000000000000000000000000000000000000000000000000000000000000000081565b6101de6103b63660046112d7565b61076b565b6103c3610827565b6103cd60006108a8565b565b60008060006060806103df61091d565b73ffffffffffffffffffffffffffffffffffffffff81166000908152600260209081526040918290209151929750909161041b918a9101611484565b60405160208183030381529060405292508660405160200161043d91906114c9565b604051602081830303815290604052915061045883836109f5565b81547fffffffffffffffffffffffff00000000000000000000000000000000000000001673ffffffffffffffffffffffffffffffffffffffff919091161781556040516104a990899060200161150e565b6040516020818303038152906040529250866040516020016104cb9190611553565b60405160208183030381529060405291506105088684847f0000000000000000000000000000000000000000000000000000000000000000610ba7565b6002820180547fffffffffffffffffffffffff00000000000000000000000000000000000000001673ffffffffffffffffffffffffffffffffffffffff92909216919091179055604051610560908990602001611598565b60405160208183030381529060405292508660405160200161058291906115dd565b60405160208183030381529060405291506105bf8684847f0000000000000000000000000000000000000000000000000000000000000000610ba7565b6001820180547fffffffffffffffffffffffff00000000000000000000000000000000000000001673ffffffffffffffffffffffffffffffffffffffff9290921691909117905561060e610df4565b6003820180547fffffffffffffffffffffffff00000000000000000000000000000000000000001673ffffffffffffffffffffffffffffffffffffffff9290921691909117905561065d610e98565b6004820180547fffffffffffffffffffffffff00000000000000000000000000000000000000001673ffffffffffffffffffffffffffffffffffffffff929092169190911790556106af868b8b610f3c565b805460018201546002830154600384015460048501546040805173ffffffffffffffffffffffffffffffffffffffff808e1682529687166020820152948616908501529184166060840152831660808301529190911660a08201527fb298b9aad065b6d70d2817478002f16b235b8cde17be512f4133c9ed299d29a89060c00160405180910390a1600481015460039091015473ffffffffffffffffffffffffffffffffffffffff918216955016925050509450945094915050565b610773610827565b73ffffffffffffffffffffffffffffffffffffffff811661081b576040517f08c379a000000000000000000000000000000000000000000000000000000000815260206004820152602660248201527f4f776e61626c653a206e6577206f776e657220697320746865207a65726f206160448201527f646472657373000000000000000000000000000000000000000000000000000060648201526084015b60405180910390fd5b610824816108a8565b50565b60005473ffffffffffffffffffffffffffffffffffffffff1633146103cd576040517f08c379a000000000000000000000000000000000000000000000000000000000815260206004820181905260248201527f4f776e61626c653a2063616c6c6572206973206e6f7420746865206f776e65726044820152606401610812565b6000805473ffffffffffffffffffffffffffffffffffffffff8381167fffffffffffffffffffffffff0000000000000000000000000000000000000000831681178455604051919092169283917f8be0079c531659141344cd1fd0a4f28419497f9722a3daafe3b4186f6b6457e09190a35050565b6000806109497f00000000000000000000000000000000000000000000000000000000000000006111d1565b6040517f9c02006100000000000000000000000000000000000000000000000000000000815273ffffffffffffffffffffffffffffffffffffffff7f00000000000000000000000000000000000000000000000000000000000000008116600483015291925090821690639c020061906024015b600060405180830381600087803b1580156109d757600080fd5b505af11580156109eb573d6000803e3d6000fd5b5092949350505050565b600080610a217f00000000000000000000000000000000000000000000000000000000000000006111d1565b905073ffffffffffffffffffffffffffffffffffffffff8116610a70576040517fd786d39300000000000000000000000000000000000000000000000000000000815260040160405180910390fd5b6001546040517f9c02006100000000000000000000000000000000000000000000000000000000815273ffffffffffffffffffffffffffffffffffffffff918216600482015290821690639c02006190602401600060405180830381600087803b158015610add57600080fd5b505af1158015610af1573d6000803e3d6000fd5b50506040517f0e07f85400000000000000000000000000000000000000000000000000000000815273ffffffffffffffffffffffffffffffffffffffff84169250630e07f8549150610b6d90879087907f000000000000000000000000000000000000000000000000000000000000000090339060040161165f565b600060405180830381600087803b158015610b8757600080fd5b505af1158015610b9b573d6000803e3d6000fd5b50929695505050505050565b600080610bd37f00000000000000000000000000000000000000000000000000000000000000006111d1565b6040517f9c02006100000000000000000000000000000000000000000000000000000000815273ffffffffffffffffffffffffffffffffffffffff858116600483015291925090821690639c02006190602401600060405180830381600087803b158015610c4057600080fd5b505af1158015610c54573d6000803e3d6000fd5b5050505073ffffffffffffffffffffffffffffffffffffffff868116600090815260026020819052604090912001541615610d4b5773ffffffffffffffffffffffffffffffffffffffff868116600090815260026020526040908190206003810154905491517fae3dd0950000000000000000000000000000000000000000000000000000000081528385169363ae3dd09593610d02938b938b939182169290911690600a906004016116b6565b6020604051808303816000875af1158015610d21573d6000803e3d6000fd5b505050506040513d601f19601f82011682018060405250810190610d45919061170d565b50610deb565b73ffffffffffffffffffffffffffffffffffffffff868116600090815260026020526040908190205490517f0e07f85400000000000000000000000000000000000000000000000000000000815282841692630e07f85492610db8928a928a928d9291169060040161165f565b600060405180830381600087803b158015610dd257600080fd5b505af1158015610de6573d6000803e3d6000fd5b505050505b95945050505050565b600080610e207f00000000000000000000000000000000000000000000000000000000000000006111d1565b6040517f9c02006100000000000000000000000000000000000000000000000000000000815273ffffffffffffffffffffffffffffffffffffffff7f00000000000000000000000000000000000000000000000000000000000000008116600483015291925090821690639c020061906024016109bd565b600080610ec47f00000000000000000000000000000000000000000000000000000000000000006111d1565b6040517f9c02006100000000000000000000000000000000000000000000000000000000815273ffffffffffffffffffffffffffffffffffffffff7f00000000000000000000000000000000000000000000000000000000000000008116600483015291925090821690639c020061906024016109bd565b73ffffffffffffffffffffffffffffffffffffffff83811660008181526002602081905260409182902060038101548154919092015492517f359ef75b00000000000000000000000000000000000000000000000000000000815291851660048301527f0000000000000000000000000000000000000000000000000000000000000000851660248301528416604482015290831660648201527f000000000000000000000000000000000000000000000000000000000000000090921660848301529063359ef75b9060a4016020604051808303816000875af1158015611028573d6000803e3d6000fd5b505050506040513d601f19601f8201168201806040525081019061104c919061170d565b5073ffffffffffffffffffffffffffffffffffffffff83811660009081526002602052604090819020600381015460049182015492517ff09a401600000000000000000000000000000000000000000000000000000000815286851692810192909252918316602482015291169063f09a4016906044016020604051808303816000875af11580156110e2573d6000803e3d6000fd5b505050506040513d601f19601f82011682018060405250810190611106919061170d565b5073ffffffffffffffffffffffffffffffffffffffff83811660009081526002602052604090819020600480820154825460039093015493517f184b9559000000000000000000000000000000000000000000000000000000008152928516918301919091529183166024820152838316604482015291169063184b9559906064016020604051808303816000875af11580156111a7573d6000803e3d6000fd5b505050506040513d601f19601f820116820180604052508101906111cb919061170d565b50505050565b60006040517f3d602d80600a3d3981f3363d3d373d3d3d363d7300000000000000000000000081528260601b60148201527f5af43d82803e903d91602b57fd5bf3000000000000000000000000000000000060288201526037816000f091505073ffffffffffffffffffffffffffffffffffffffff81166112ae576040517f08c379a000000000000000000000000000000000000000000000000000000000815260206004820152601660248201527f455243313136373a20637265617465206661696c6564000000000000000000006044820152606401610812565b919050565b803573ffffffffffffffffffffffffffffffffffffffff811681146112ae57600080fd5b6000602082840312156112e957600080fd5b6112f2826112b3565b9392505050565b7f4e487b7100000000000000000000000000000000000000000000000000000000600052604160045260246000fd5b600082601f83011261133957600080fd5b813567ffffffffffffffff80821115611354576113546112f9565b604051601f83017fffffffffffffffffffffffffffffffffffffffffffffffffffffffffffffffe0908116603f0116810190828211818310171561139a5761139a6112f9565b816040528381528660208588010111156113b357600080fd5b836020870160208301376000602085830101528094505050505092915050565b600080600080608085870312156113e957600080fd5b6113f2856112b3565b9350611400602086016112b3565b9250604085013567ffffffffffffffff8082111561141d57600080fd5b61142988838901611328565b9350606087013591508082111561143f57600080fd5b5061144c87828801611328565b91505092959194509250565b60005b8381101561147357818101518382015260200161145b565b838111156111cb5750506000910152565b7f414d4f52780000000000000000000000000000000000000000000000000000008152600082516114bc816005850160208701611458565b9190910160050192915050565b7f4178000000000000000000000000000000000000000000000000000000000000815260008251611501816002850160208701611458565b9190910160020192915050565b7f4658414d4f527800000000000000000000000000000000000000000000000000815260008251611546816007850160208701611458565b9190910160070192915050565b7f465878000000000000000000000000000000000000000000000000000000000081526000825161158b816003850160208701611458565b9190910160030192915050565b7f64414d4f527800000000000000000000000000000000000000000000000000008152600082516115d0816006850160208701611458565b9190910160060192915050565b7f4478000000000000000000000000000000000000000000000000000000000000815260008251611501816002850160208701611458565b6000815180845261162d816020860160208601611458565b601f017fffffffffffffffffffffffffffffffffffffffffffffffffffffffffffffffe0169290920160200192915050565b6080815260006116726080830187611615565b82810360208401526116848187611615565b91505073ffffffffffffffffffffffffffffffffffffffff808516604084015280841660608401525095945050505050565b60a0815260006116c960a0830188611615565b82810360208401526116db8188611615565b73ffffffffffffffffffffffffffffffffffffffff968716604085015294909516606083015250608001529392505050565b60006020828403121561171f57600080fd5b815180151581146112f257600080fdfea2646970667358221220e95f3999327aa1138016db2127fd3ad51e6336a2dbc90dc11165fbd01b8768f264736f6c634300080f0033",
  "linkReferences": {},
  "deployedLinkReferences": {}
}