{
  "_format": "hh-sol-artifact-1",
  "contractName": "MetaDaoController",
  "sourceName": "contracts/MetaDaoController.sol",
  "abi": [
    {
      "inputs": [],
      "name": "Exists",
      "type": "error"
    },
    {
      "inputs": [],
      "name": "IndexError",
      "type": "error"
    },
    {
      "inputs": [],
      "name": "InvalidArray",
      "type": "error"
    },
    {
      "inputs": [],
      "name": "InvalidClaim",
      "type": "error"
    },
    {
      "inputs": [],
      "name": "InvalidGuild",
      "type": "error"
    },
    {
      "inputs": [],
      "name": "NoIndex",
      "type": "error"
    },
    {
      "inputs": [],
      "name": "NotListed",
      "type": "error"
    },
    {
      "anonymous": false,
      "inputs": [
        {
          "indexed": false,
          "internalType": "uint256",
          "name": "amount",
          "type": "uint256"
        },
        {
          "indexed": false,
          "internalType": "address",
          "name": "token",
          "type": "address"
        },
        {
          "indexed": false,
          "internalType": "uint256",
          "name": "index",
          "type": "uint256"
        },
        {
          "indexed": false,
          "internalType": "address",
          "name": "sender",
          "type": "address"
        }
      ],
      "name": "DonatedToIndex",
      "type": "event"
    },
    {
      "anonymous": false,
      "inputs": [
        {
          "indexed": false,
          "internalType": "address",
          "name": "guildController",
          "type": "address"
        },
        {
          "indexed": false,
          "internalType": "uint256",
          "name": "guildCounter",
          "type": "uint256"
        }
      ],
      "name": "GuildAdded",
      "type": "event"
    },
    {
      "anonymous": false,
      "inputs": [
        {
          "indexed": false,
          "internalType": "address",
          "name": "realityModule",
          "type": "address"
        },
        {
          "indexed": false,
          "internalType": "address",
          "name": "initialGuardian",
          "type": "address"
        },
        {
          "indexed": false,
          "internalType": "string",
          "name": "name",
          "type": "string"
        },
        {
          "indexed": false,
          "internalType": "string",
          "name": "tokenSymbol",
          "type": "string"
        },
        {
          "indexed": false,
          "internalType": "address",
          "name": "guildController",
          "type": "address"
        },
        {
          "indexed": false,
          "internalType": "uint256",
          "name": "guildCounter",
          "type": "uint256"
        }
      ],
      "name": "GuildCreated",
      "type": "event"
    },
    {
      "anonymous": false,
      "inputs": [
        {
          "indexed": false,
          "internalType": "address",
          "name": "guildController",
          "type": "address"
        },
        {
          "indexed": false,
          "internalType": "uint256",
          "name": "guildCounter",
          "type": "uint256"
        }
      ],
      "name": "GuildRemoved",
      "type": "event"
    },
    {
      "anonymous": false,
      "inputs": [
        {
          "indexed": true,
          "internalType": "address",
          "name": "previousOwner",
          "type": "address"
        },
        {
          "indexed": true,
          "internalType": "address",
          "name": "newOwner",
          "type": "address"
        }
      ],
      "name": "OwnershipTransferred",
      "type": "event"
    },
    {
      "anonymous": false,
      "inputs": [
        {
          "indexed": false,
          "internalType": "address",
          "name": "token",
          "type": "address"
        }
      ],
      "name": "TokenWhitelisted",
      "type": "event"
    },
    {
      "inputs": [],
      "name": "FEES_INDEX",
      "outputs": [
        {
          "internalType": "bytes32",
          "name": "",
          "type": "bytes32"
        }
      ],
      "stateMutability": "view",
      "type": "function"
    },
    {
      "inputs": [],
      "name": "SENTINEL",
      "outputs": [
        {
          "internalType": "address",
          "name": "",
          "type": "address"
        }
      ],
      "stateMutability": "view",
      "type": "function"
    },
    {
      "inputs": [
        {
          "internalType": "address",
          "name": "guildAddress",
          "type": "address"
        }
      ],
      "name": "addExternalGuild",
      "outputs": [],
      "stateMutability": "nonpayable",
      "type": "function"
    },
    {
      "inputs": [
        {
          "internalType": "bytes[]",
          "name": "weights",
          "type": "bytes[]"
        }
      ],
      "name": "addIndex",
      "outputs": [
        {
          "internalType": "uint256",
          "name": "",
          "type": "uint256"
        }
      ],
      "stateMutability": "nonpayable",
      "type": "function"
    },
    {
      "inputs": [
        {
          "internalType": "address",
          "name": "_token",
          "type": "address"
        }
      ],
      "name": "addWhitelist",
      "outputs": [],
      "stateMutability": "nonpayable",
      "type": "function"
    },
    {
      "inputs": [],
      "name": "amorToken",
      "outputs": [
        {
          "internalType": "contract IERC20",
          "name": "",
          "type": "address"
        }
      ],
      "stateMutability": "view",
      "type": "function"
    },
    {
      "inputs": [
        {
          "internalType": "address",
          "name": "guild",
          "type": "address"
        }
      ],
      "name": "claimFees",
      "outputs": [],
      "stateMutability": "nonpayable",
      "type": "function"
    },
    {
      "inputs": [
        {
          "internalType": "address",
          "name": "token",
          "type": "address"
        }
      ],
      "name": "claimToken",
      "outputs": [],
      "stateMutability": "nonpayable",
      "type": "function"
    },
    {
      "inputs": [
        {
          "internalType": "address",
          "name": "realityModule",
          "type": "address"
        },
        {
          "internalType": "address",
          "name": "initialGuardian",
          "type": "address"
        },
        {
          "internalType": "string",
          "name": "name",
          "type": "string"
        },
        {
          "internalType": "string",
          "name": "tokenSymbol",
          "type": "string"
        }
      ],
      "name": "createGuild",
      "outputs": [],
      "stateMutability": "nonpayable",
      "type": "function"
    },
    {
      "inputs": [],
      "name": "distributeFees",
      "outputs": [],
      "stateMutability": "nonpayable",
      "type": "function"
    },
    {
      "inputs": [
        {
          "internalType": "address",
          "name": "token",
          "type": "address"
        },
        {
          "internalType": "uint256",
          "name": "amount",
          "type": "uint256"
        },
        {
          "internalType": "uint256",
          "name": "index",
          "type": "uint256"
        }
      ],
      "name": "donate",
      "outputs": [],
      "stateMutability": "nonpayable",
      "type": "function"
    },
    {
      "inputs": [
        {
          "internalType": "address",
          "name": "",
          "type": "address"
        }
      ],
      "name": "donations",
      "outputs": [
        {
          "internalType": "uint256",
          "name": "",
          "type": "uint256"
        }
      ],
      "stateMutability": "view",
      "type": "function"
    },
    {
      "inputs": [
        {
          "internalType": "address",
          "name": "",
          "type": "address"
        }
      ],
      "name": "guildAvatar",
      "outputs": [
        {
          "internalType": "address",
          "name": "",
          "type": "address"
        }
      ],
      "stateMutability": "view",
      "type": "function"
    },
    {
      "inputs": [],
      "name": "guildCounter",
      "outputs": [
        {
          "internalType": "uint32",
          "name": "",
          "type": "uint32"
        }
      ],
      "stateMutability": "view",
      "type": "function"
    },
    {
      "inputs": [],
      "name": "guildFactory",
      "outputs": [
        {
          "internalType": "address",
          "name": "",
          "type": "address"
        }
      ],
      "stateMutability": "view",
      "type": "function"
    },
    {
      "inputs": [
        {
          "internalType": "address",
          "name": "",
          "type": "address"
        }
      ],
      "name": "guildFees",
      "outputs": [
        {
          "internalType": "uint256",
          "name": "",
          "type": "uint256"
        }
      ],
      "stateMutability": "view",
      "type": "function"
    },
    {
      "inputs": [
        {
          "internalType": "address",
          "name": "",
          "type": "address"
        },
        {
          "internalType": "address",
          "name": "",
          "type": "address"
        }
      ],
      "name": "guildFunds",
      "outputs": [
        {
          "internalType": "uint256",
          "name": "",
          "type": "uint256"
        }
      ],
      "stateMutability": "view",
      "type": "function"
    },
    {
      "inputs": [
        {
          "internalType": "address",
          "name": "",
          "type": "address"
        }
      ],
      "name": "guildWeight",
      "outputs": [
        {
          "internalType": "uint256",
          "name": "",
          "type": "uint256"
        }
      ],
      "stateMutability": "view",
      "type": "function"
    },
    {
      "inputs": [
        {
          "internalType": "address",
          "name": "",
          "type": "address"
        }
      ],
      "name": "guilds",
      "outputs": [
        {
          "internalType": "address",
          "name": "",
          "type": "address"
        }
      ],
      "stateMutability": "view",
      "type": "function"
    },
    {
      "inputs": [],
      "name": "guildsTotalWeight",
      "outputs": [
        {
          "internalType": "uint256",
          "name": "",
          "type": "uint256"
        }
      ],
      "stateMutability": "view",
      "type": "function"
    },
    {
      "inputs": [
        {
          "internalType": "uint256",
          "name": "",
          "type": "uint256"
        }
      ],
      "name": "indexHashes",
      "outputs": [
        {
          "internalType": "bytes32",
          "name": "",
          "type": "bytes32"
        }
      ],
      "stateMutability": "view",
      "type": "function"
    },
    {
      "inputs": [
        {
          "internalType": "bytes32",
          "name": "",
          "type": "bytes32"
        }
      ],
      "name": "indexes",
      "outputs": [
        {
          "internalType": "address",
          "name": "creator",
          "type": "address"
        },
        {
          "internalType": "uint256",
          "name": "indexDenominator",
          "type": "uint256"
        }
      ],
      "stateMutability": "view",
      "type": "function"
    },
    {
      "inputs": [
        {
          "internalType": "address",
          "name": "amor",
          "type": "address"
        },
        {
          "internalType": "address",
          "name": "cloneFactory",
          "type": "address"
        },
        {
          "internalType": "address",
          "name": "avatar",
          "type": "address"
        }
      ],
      "name": "init",
      "outputs": [],
      "stateMutability": "nonpayable",
      "type": "function"
    },
    {
      "inputs": [
        {
          "internalType": "address",
          "name": "token",
          "type": "address"
        }
      ],
      "name": "isWhitelisted",
      "outputs": [
        {
          "internalType": "bool",
          "name": "",
          "type": "bool"
        }
      ],
      "stateMutability": "view",
      "type": "function"
    },
    {
      "inputs": [],
      "name": "owner",
      "outputs": [
        {
          "internalType": "address",
          "name": "",
          "type": "address"
        }
      ],
      "stateMutability": "view",
      "type": "function"
    },
    {
      "inputs": [
        {
          "internalType": "address",
          "name": "controller",
          "type": "address"
        }
      ],
      "name": "removeGuild",
      "outputs": [],
      "stateMutability": "nonpayable",
      "type": "function"
    },
    {
      "inputs": [],
      "name": "renounceOwnership",
      "outputs": [],
      "stateMutability": "nonpayable",
      "type": "function"
    },
    {
      "inputs": [],
      "name": "sentinelGuilds",
      "outputs": [
        {
          "internalType": "address",
          "name": "",
          "type": "address"
        }
      ],
      "stateMutability": "view",
      "type": "function"
    },
    {
      "inputs": [],
      "name": "sentinelWhitelist",
      "outputs": [
        {
          "internalType": "address",
          "name": "",
          "type": "address"
        }
      ],
      "stateMutability": "view",
      "type": "function"
    },
    {
      "inputs": [
        {
          "internalType": "address",
          "name": "newOwner",
          "type": "address"
        }
      ],
      "name": "transferOwnership",
      "outputs": [],
      "stateMutability": "nonpayable",
      "type": "function"
    },
    {
      "inputs": [
        {
          "internalType": "bytes[]",
          "name": "weights",
          "type": "bytes[]"
        },
        {
          "internalType": "uint256",
          "name": "index",
          "type": "uint256"
        }
      ],
      "name": "updateIndex",
      "outputs": [
        {
          "internalType": "uint256",
          "name": "",
          "type": "uint256"
        }
      ],
      "stateMutability": "nonpayable",
      "type": "function"
    },
    {
      "inputs": [
        {
          "internalType": "address",
          "name": "",
          "type": "address"
        }
      ],
      "name": "whitelist",
      "outputs": [
        {
          "internalType": "address",
          "name": "",
          "type": "address"
        }
      ],
      "stateMutability": "view",
      "type": "function"
    }
  ],
  "bytecode": "0x608060405234801561001057600080fd5b5061001a3361001f565b61006f565b600080546001600160a01b038381166001600160a01b0319831681178455604051919092169283917f8be0079c531659141344cd1fd0a4f28419497f9722a3daafe3b4186f6b6457e09190a35050565b6129b08061007e6000396000f3fe608060405234801561001057600080fd5b50600436106101f05760003560e01c8063999773321161010f578063d83b8d6d116100a2578063f2fde38b11610071578063f2fde38b146105b6578063f7180c12146105c9578063f80f5dd5146105dc578063fb4662bf146105ef57600080fd5b8063d83b8d6d14610531578063e390f3241461056e578063e8f2a3511461058e578063f00cab43146105ae57600080fd5b8063bb57ad20116100de578063bb57ad201461048a578063c8b9fb7614610492578063cc6cb19a146104fe578063d46322761461051e57600080fd5b806399977332146103d75780639b19251a146103fe578063a6c9f63514610434578063a75859e11461045457600080fd5b8063715018a6116101875780638da5cb5b116101565780638da5cb5b146103735780639254ad7d1461039157806392e2daf2146103a45780639494d817146103b757600080fd5b8063715018a6146103215780637c1bcfc514610329578063826a425514610340578063857c30261461036057600080fd5b806332f289cf116101c357806332f289cf1461027a5780633af32abf1461028d5780633dfcd8e7146102d85780636d10dce21461030e57600080fd5b80630377a416146101f55780631041095d1461023f57806315a0ea6a14610254578063184b955914610267575b600080fd5b600c546102159073ffffffffffffffffffffffffffffffffffffffff1681565b60405173ffffffffffffffffffffffffffffffffffffffff90911681526020015b60405180910390f35b61025261024d366004612158565b61061a565b005b610252610262366004612158565b6108fc565b610252610275366004612175565b6109b8565b610252610288366004612158565b610b26565b6102c861029b366004612158565b73ffffffffffffffffffffffffffffffffffffffff90811660009081526009602052604090205416151590565b6040519015158152602001610236565b6102156102e6366004612158565b60066020526000908152604090205473ffffffffffffffffffffffffffffffffffffffff1681565b61025261031c366004612158565b610c69565b610252610dd7565b61033260055481565b604051908152602001610236565b61033261034e366004612158565b60036020526000908152604090205481565b61025261036e36600461229a565b610deb565b60005473ffffffffffffffffffffffffffffffffffffffff16610215565b61033261039f36600461236f565b610fac565b6103326103b23660046123bb565b611155565b600a546102159073ffffffffffffffffffffffffffffffffffffffff1681565b6103327f5ad9e2d19e9d3c60c3ce63f9fc00f54a1daac743b8e56fbfc74101ea268f816d81565b61021561040c366004612158565b60096020526000908152604090205473ffffffffffffffffffffffffffffffffffffffff1681565b610332610442366004612158565b60076020526000908152604090205481565b610215610462366004612158565b60016020526000908152604090205473ffffffffffffffffffffffffffffffffffffffff1681565b61025261125e565b6104d26104a03660046123fd565b600d602052600090815260409020805460019091015473ffffffffffffffffffffffffffffffffffffffff9091169082565b6040805173ffffffffffffffffffffffffffffffffffffffff9093168352602083019190915201610236565b61033261050c366004612158565b60086020526000908152604090205481565b61025261052c366004612416565b61143d565b6002546105599074010000000000000000000000000000000000000000900463ffffffff1681565b60405163ffffffff9091168152602001610236565b600b546102159073ffffffffffffffffffffffffffffffffffffffff1681565b6002546102159073ffffffffffffffffffffffffffffffffffffffff1681565b610215600181565b6102526105c4366004612158565b611818565b6103326105d73660046123fd565b6118d4565b6102526105ea366004612158565b6118f5565b6103326105fd36600461244b565b600460209081526000928352604080842090915290825290205481565b61062261199f565b73ffffffffffffffffffffffffffffffffffffffff81811660009081526001602052604090205416610680576040517fc10499a600000000000000000000000000000000000000000000000000000000815260040160405180910390fd5b60015b73ffffffffffffffffffffffffffffffffffffffff8181166000908152600960205260409020541660011461077b5773ffffffffffffffffffffffffffffffffffffffff828116600090815260016020908152604080832054841683526004825280832085851684526009835281842054909416835292815282822054600890915291812080549091906107189084906124b3565b909155505073ffffffffffffffffffffffffffffffffffffffff8083166000908152600160209081526040808320548416835260048252808320948416808452600980845282852080548716865296845291842084905590925252905416610683565b5060015b73ffffffffffffffffffffffffffffffffffffffff8181166000908152600160205260409020548116908316146107dd5773ffffffffffffffffffffffffffffffffffffffff9081166000908152600160205260409020541661077f565b73ffffffffffffffffffffffffffffffffffffffff8281166000818152600160209081526040808320805487871685528285208054919097167fffffffffffffffffffffffff000000000000000000000000000000000000000091821617909655928490528254909416909155600280547fffffffffffffffff00000000ffffffffffffffffffffffffffffffffffffffff8116740100000000000000000000000000000000000000009182900463ffffffff9081167fffffffffffffffffffffffffffffffffffffffffffffffffffffffffffffffff018116830291909117928390558551948552910416908201527fccefe125a875de5de7cd41566e0e519e6ce48ca5148c90fb4ee153742536eaf1910160405180910390a15050565b73ffffffffffffffffffffffffffffffffffffffff8181166000908152600160205260409020541661095a576040517fc10499a600000000000000000000000000000000000000000000000000000000815260040160405180910390fd5b73ffffffffffffffffffffffffffffffffffffffff808216600090815260076020526040902054600c546109919216908390611a20565b73ffffffffffffffffffffffffffffffffffffffff16600090815260076020526040812055565b6109c181611af4565b50600c805473ffffffffffffffffffffffffffffffffffffffff9384167fffffffffffffffffffffffff00000000000000000000000000000000000000009182168117909255600b805493851693821693909317909255600a8054831682179055600081815260096020908152604082208054851660019081179091557f92e85d02570a8092d09a6e3a57665bc3815a2699a4074001bf1ccabf660f5a3680548616909417909355600e80548085019091557f5ad9e2d19e9d3c60c3ce63f9fc00f54a1daac743b8e56fbfc74101ea268f816d7fbb7b4a454dc3493923482f07822329ed19e8244eff582cc204f8554c3620c3fd9091015581547fa10f1292141c9063355d8ac3fcee936047e6f5d5cfb6c551904c66ba5a65a16180548616919096161790945560028054841683179055819052918290527fcc69885fda6bcc1a4ace058b4a62bf5e179ea78fd58a1ccd71c22cc9b688792f80549091169091179055565b3360009081526001602052604090205473ffffffffffffffffffffffffffffffffffffffff16610b82576040517fc10499a600000000000000000000000000000000000000000000000000000000815260040160405180910390fd5b33600090815260046020908152604080832073ffffffffffffffffffffffffffffffffffffffff8516845290915281205490819003610bed576040517fed3c247c00000000000000000000000000000000000000000000000000000000815260040160405180910390fd5b73ffffffffffffffffffffffffffffffffffffffff821660009081526008602052604081208054839290610c229084906124cb565b909155505033600081815260046020908152604080832073ffffffffffffffffffffffffffffffffffffffff87168085529252822091909155610c659183611a20565b5050565b610c7161199f565b73ffffffffffffffffffffffffffffffffffffffff8181166000908152600160205260409020541615610cd0576040517f846ec05600000000000000000000000000000000000000000000000000000000815260040160405180910390fd5b6002805473ffffffffffffffffffffffffffffffffffffffff908116600090815260016020818152604080842080547fffffffffffffffffffffffff00000000000000000000000000000000000000009081169689169687179091558654811686178755858552938190208054909416831790935584547fffffffffffffffff00000000ffffffffffffffffffffffffffffffffffffffff8116740100000000000000000000000000000000000000009182900463ffffffff908116909401841682021795869055835194855290940416928201929092527f5d13aaec3366ba79e3a6f10ef09caaa7115a2e89fef44b4ce3326ffd5c375aec91015b60405180910390a150565b610ddf61199f565b610de96000611af4565b565b610df361199f565b600b546040517fb723681a00000000000000000000000000000000000000000000000000000000815260009173ffffffffffffffffffffffffffffffffffffffff169063b723681a90610e50908890889088908890600401612558565b6060604051808303816000875af1158015610e6f573d6000803e3d6000fd5b505050506040513d601f19601f82011682018060405250810190610e9391906125a3565b50506002805473ffffffffffffffffffffffffffffffffffffffff908116600090815260016020819052604080832080549487167fffffffffffffffffffffffff00000000000000000000000000000000000000009586168117909155855485168117865583529182902080549093168117909255825463ffffffff740100000000000000000000000000000000000000008083048216909401811684027fffffffffffffffff00000000ffffffffffffffffffffffffffffffffffffffff909216919091179384905590519394507f33e6c7f9be6825422c2d3eb20465ee797935b98da833bab02288b8a09ce1756c93610f9d938a938a938a938a938a939004909116906125e5565b60405180910390a15050505050565b60003373ffffffffffffffffffffffffffffffffffffffff16600d6000600e8581548110610fdc57610fdc612651565b6000918252602080832090910154835282019290925260400190205473ffffffffffffffffffffffffffffffffffffffff1614611045576040517fa857911300000000000000000000000000000000000000000000000000000000815260040160405180910390fd5b600061106f8585600e868154811061105f5761105f612651565b9060005260206000200154611b69565b9050821561114857600e8054611087906001906124cb565b8154811061109757611097612651565b9060005260206000200154600e84815481106110b5576110b5612651565b600091825260209091200155600e8054806110d2576110d2612680565b60008281526020812082017fffffffffffffffffffffffffffffffffffffffffffffffffffffffffffffffff908101829055909101909155600e8054600181018255918190527fbb7b4a454dc3493923482f07822329ed19e8244eff582cc204f8554c3620c3fd9091019190915554905061114e565b60009150505b9392505050565b600080838360405160200161116b9291906126f8565b604080517fffffffffffffffffffffffffffffffffffffffffffffffffffffffffffffffe081840301815291815281516020928301206000818152600d909352912060010154909150156111eb576040517f846ec05600000000000000000000000000000000000000000000000000000000815260040160405180910390fd5b600e80546001818101835560008390527fbb7b4a454dc3493923482f07822329ed19e8244eff582cc204f8554c3620c3fd9091018390558154611246928792879261123691906124cb565b8154811061105f5761105f612651565b50600e54611256906001906124cb565b949350505050565b600c5473ffffffffffffffffffffffffffffffffffffffff166000818152600860205260408082205490517f70a082310000000000000000000000000000000000000000000000000000000081523060048201527fa10f1292141c9063355d8ac3fcee936047e6f5d5cfb6c551904c66ba5a65a1619360019392916370a0823190602401602060405180830381865afa1580156112ff573d6000803e3d6000fd5b505050506040513d601f19601f8201168201806040525081019061132391906127cf565b61132d91906124cb565b90505b73ffffffffffffffffffffffffffffffffffffffff828116600090815260016020819052604090912054909116146114385760018084015473ffffffffffffffffffffffffffffffffffffffff808516600090815260209384526040808220549092168152600287019093528220546113a990846127e8565b6113b39190612825565b905080156114075773ffffffffffffffffffffffffffffffffffffffff80841660009081526001602090815260408083205490931682526007905290812080548392906114019084906124b3565b90915550505b5073ffffffffffffffffffffffffffffffffffffffff91821660009081526001602052604090205490911690611330565b505050565b6040517f3af32abf00000000000000000000000000000000000000000000000000000000815273ffffffffffffffffffffffffffffffffffffffff841660048201523090633af32abf90602401602060405180830381865afa1580156114a7573d6000803e3d6000fd5b505050506040513d601f19601f820116820180604052508101906114cb9190612860565b1515600003611506576040517f665c1c5700000000000000000000000000000000000000000000000000000000815260040160405180910390fd5b7f5ad9e2d19e9d3c60c3ce63f9fc00f54a1daac743b8e56fbfc74101ea268f816d6000908152600d6020527fa10f1292141c9063355d8ac3fcee936047e6f5d5cfb6c551904c66ba5a65a16254900361158b576040517f1f4ac37a00000000000000000000000000000000000000000000000000000000815260040160405180910390fd5b600c5473ffffffffffffffffffffffffffffffffffffffff9081169084160361174f57600c546040517f70a0823100000000000000000000000000000000000000000000000000000000815230600482015260009173ffffffffffffffffffffffffffffffffffffffff16906370a0823190602401602060405180830381865afa15801561161d573d6000803e3d6000fd5b505050506040513d601f19601f8201168201806040525081019061164191906127cf565b905061166573ffffffffffffffffffffffffffffffffffffffff8516333086611d14565b600c546040517f70a08231000000000000000000000000000000000000000000000000000000008152306004820152829173ffffffffffffffffffffffffffffffffffffffff16906370a0823190602401602060405180830381865afa1580156116d3573d6000803e3d6000fd5b505050506040513d601f19601f820116820180604052508101906116f791906127cf565b61170191906124cb565b905061170e848284611d78565b73ffffffffffffffffffffffffffffffffffffffff8416600090815260086020526040812080548392906117439084906124b3565b909155506117b7915050565b73ffffffffffffffffffffffffffffffffffffffff8316600090815260086020526040812080548492906117849084906124b3565b909155506117ac905073ffffffffffffffffffffffffffffffffffffffff8416333085611d14565b6117b7838383611d78565b6040805183815273ffffffffffffffffffffffffffffffffffffffff851660208201529081018290523360608201527f2d724fa358851c61bc2ef2fad9d1aefd4db7e42384877208f36336a2125da89b9060800160405180910390a1505050565b61182061199f565b73ffffffffffffffffffffffffffffffffffffffff81166118c8576040517f08c379a000000000000000000000000000000000000000000000000000000000815260206004820152602660248201527f4f776e61626c653a206e6577206f776e657220697320746865207a65726f206160448201527f646472657373000000000000000000000000000000000000000000000000000060648201526084015b60405180910390fd5b6118d181611af4565b50565b600e81815481106118e457600080fd5b600091825260209091200154905081565b6118fd61199f565b600a805473ffffffffffffffffffffffffffffffffffffffff908116600090815260096020908152604080832080549487167fffffffffffffffffffffffff00000000000000000000000000000000000000009586168117909155855485168117909555848352918290208054909316600117909255519182527f6a65f90b1a644d2faac467a21e07e50e3f8fa5846e26231d30ae79a417d3d2629101610dcc565b60005473ffffffffffffffffffffffffffffffffffffffff163314610de9576040517f08c379a000000000000000000000000000000000000000000000000000000000815260206004820181905260248201527f4f776e61626c653a2063616c6c6572206973206e6f7420746865206f776e657260448201526064016118bf565b60405173ffffffffffffffffffffffffffffffffffffffff83166024820152604481018290526114389084907fa9059cbb00000000000000000000000000000000000000000000000000000000906064015b604080517fffffffffffffffffffffffffffffffffffffffffffffffffffffffffffffffe08184030181529190526020810180517bffffffffffffffffffffffffffffffffffffffffffffffffffffffff167fffffffff0000000000000000000000000000000000000000000000000000000090931692909217909152611ec8565b6000805473ffffffffffffffffffffffffffffffffffffffff8381167fffffffffffffffffffffffff0000000000000000000000000000000000000000831681178455604051919092169283917f8be0079c531659141344cd1fd0a4f28419497f9722a3daafe3b4186f6b6457e09190a35050565b60007f5ad9e2d19e9d3c60c3ce63f9fc00f54a1daac743b8e56fbfc74101ea268f816d8214611bf9576000828152600d6020908152604080832080547fffffffffffffffffffffffff0000000000000000000000000000000000000000168155600101929092559051611be09186918691016126f8565b6040516020818303038152906040528051906020012091505b6000828152600d60205260408120905b84811015611d0a57600080878784818110611c2657611c26612651565b9050602002810190611c389190612882565b810190611c4591906128e7565b73ffffffffffffffffffffffffffffffffffffffff8216600090815260028701602052604081205460018801805494965092945092611c859084906124cb565b909155505073ffffffffffffffffffffffffffffffffffffffff821660009081526002850160205260408120829055600185018054839290611cc89084906124b3565b909155505083547fffffffffffffffffffffffff0000000000000000000000000000000000000000163317845550819050611d0281612913565b915050611c09565b5091949350505050565b60405173ffffffffffffffffffffffffffffffffffffffff80851660248301528316604482015260648101829052611d729085907f23b872dd0000000000000000000000000000000000000000000000000000000090608401611a72565b50505050565b6000600190506000600d6000600e8581548110611d9757611d97612651565b9060005260206000200154815260200190815260200160002090505b73ffffffffffffffffffffffffffffffffffffffff82811660009081526001602081905260409091205490911614611ec15760018082015473ffffffffffffffffffffffffffffffffffffffff80851660009081526020938452604080822054909216815260028501909352822054611e2c90876127e8565b611e369190612825565b73ffffffffffffffffffffffffffffffffffffffff8085166000908152600160209081526040808320548416835260048252808320938b16835292905290812080549293508392909190611e8b9084906124b3565b90915550505073ffffffffffffffffffffffffffffffffffffffff91821660009081526001602052604090205490911690611db3565b5050505050565b6000611f2a826040518060400160405280602081526020017f5361666545524332303a206c6f772d6c6576656c2063616c6c206661696c65648152508573ffffffffffffffffffffffffffffffffffffffff16611fd49092919063ffffffff16565b8051909150156114385780806020019051810190611f489190612860565b611438576040517f08c379a000000000000000000000000000000000000000000000000000000000815260206004820152602a60248201527f5361666545524332303a204552433230206f7065726174696f6e20646964206e60448201527f6f7420737563636565640000000000000000000000000000000000000000000060648201526084016118bf565b606061125684846000858573ffffffffffffffffffffffffffffffffffffffff85163b61205d576040517f08c379a000000000000000000000000000000000000000000000000000000000815260206004820152601d60248201527f416464726573733a2063616c6c20746f206e6f6e2d636f6e747261637400000060448201526064016118bf565b6000808673ffffffffffffffffffffffffffffffffffffffff168587604051612086919061294b565b60006040518083038185875af1925050503d80600081146120c3576040519150601f19603f3d011682016040523d82523d6000602084013e6120c8565b606091505b50915091506120d88282866120e3565b979650505050505050565b606083156120f257508161114e565b8251156121025782518084602001fd5b816040517f08c379a00000000000000000000000000000000000000000000000000000000081526004016118bf9190612967565b73ffffffffffffffffffffffffffffffffffffffff811681146118d157600080fd5b60006020828403121561216a57600080fd5b813561114e81612136565b60008060006060848603121561218a57600080fd5b833561219581612136565b925060208401356121a581612136565b915060408401356121b581612136565b809150509250925092565b7f4e487b7100000000000000000000000000000000000000000000000000000000600052604160045260246000fd5b600082601f83011261220057600080fd5b813567ffffffffffffffff8082111561221b5761221b6121c0565b604051601f83017fffffffffffffffffffffffffffffffffffffffffffffffffffffffffffffffe0908116603f01168101908282118183101715612261576122616121c0565b8160405283815286602085880101111561227a57600080fd5b836020870160208301376000602085830101528094505050505092915050565b600080600080608085870312156122b057600080fd5b84356122bb81612136565b935060208501356122cb81612136565b9250604085013567ffffffffffffffff808211156122e857600080fd5b6122f4888389016121ef565b9350606087013591508082111561230a57600080fd5b50612317878288016121ef565b91505092959194509250565b60008083601f84011261233557600080fd5b50813567ffffffffffffffff81111561234d57600080fd5b6020830191508360208260051b850101111561236857600080fd5b9250929050565b60008060006040848603121561238457600080fd5b833567ffffffffffffffff81111561239b57600080fd5b6123a786828701612323565b909790965060209590950135949350505050565b600080602083850312156123ce57600080fd5b823567ffffffffffffffff8111156123e557600080fd5b6123f185828601612323565b90969095509350505050565b60006020828403121561240f57600080fd5b5035919050565b60008060006060848603121561242b57600080fd5b833561243681612136565b95602085013595506040909401359392505050565b6000806040838503121561245e57600080fd5b823561246981612136565b9150602083013561247981612136565b809150509250929050565b7f4e487b7100000000000000000000000000000000000000000000000000000000600052601160045260246000fd5b600082198211156124c6576124c6612484565b500190565b6000828210156124dd576124dd612484565b500390565b60005b838110156124fd5781810151838201526020016124e5565b83811115611d725750506000910152565b600081518084526125268160208601602086016124e2565b601f017fffffffffffffffffffffffffffffffffffffffffffffffffffffffffffffffe0169290920160200192915050565b600073ffffffffffffffffffffffffffffffffffffffff808716835280861660208401525060806040830152612591608083018561250e565b82810360608401526120d8818561250e565b6000806000606084860312156125b857600080fd5b83516125c381612136565b60208501519093506125d481612136565b60408501519092506121b581612136565b600073ffffffffffffffffffffffffffffffffffffffff8089168352808816602084015260c0604084015261261d60c084018861250e565b838103606085015261262f818861250e565b959091166080840152505063ffffffff9190911660a090910152949350505050565b7f4e487b7100000000000000000000000000000000000000000000000000000000600052603260045260246000fd5b7f4e487b7100000000000000000000000000000000000000000000000000000000600052603160045260246000fd5b8183528181602085013750600060208284010152600060207fffffffffffffffffffffffffffffffffffffffffffffffffffffffffffffffe0601f840116840101905092915050565b60208082528181018390526000906040600585901b8401810190840186845b878110156127c2577fffffffffffffffffffffffffffffffffffffffffffffffffffffffffffffffc087850301835281357fffffffffffffffffffffffffffffffffffffffffffffffffffffffffffffffe18a360301811261277857600080fd5b8901858101903567ffffffffffffffff81111561279457600080fd5b8036038213156127a357600080fd5b6127ae8682846126af565b955050509184019190840190600101612717565b5091979650505050505050565b6000602082840312156127e157600080fd5b5051919050565b6000817fffffffffffffffffffffffffffffffffffffffffffffffffffffffffffffffff048311821515161561282057612820612484565b500290565b60008261285b577f4e487b7100000000000000000000000000000000000000000000000000000000600052601260045260246000fd5b500490565b60006020828403121561287257600080fd5b8151801515811461114e57600080fd5b60008083357fffffffffffffffffffffffffffffffffffffffffffffffffffffffffffffffe18436030181126128b757600080fd5b83018035915067ffffffffffffffff8211156128d257600080fd5b60200191503681900382131561236857600080fd5b600080604083850312156128fa57600080fd5b823561290581612136565b946020939093013593505050565b60007fffffffffffffffffffffffffffffffffffffffffffffffffffffffffffffffff820361294457612944612484565b5060010190565b6000825161295d8184602087016124e2565b9190910192915050565b60208152600061114e602083018461250e56fea2646970667358221220c04d98a06e6b71298673987beac28c7b258cf91b6dac404666de8cf4406fc7e764736f6c634300080f0033",
  "linkReferences": {},
  "deployedLinkReferences": {}
}