{
  "_format": "hh-sol-artifact-1",
  "contractName": "Vesting",
  "sourceName": "contracts/Vesting.sol",
  "abi": [
    {
      "inputs": [
        {
          "internalType": "address",
          "name": "metaDao",
          "type": "address"
        },
        {
          "internalType": "address",
          "name": "amor",
          "type": "address"
        }
      ],
      "stateMutability": "nonpayable",
      "type": "constructor"
    },
    {
      "inputs": [],
      "name": "AlreadyAllocated",
      "type": "error"
    },
    {
      "inputs": [],
      "name": "InsufficientFunds",
      "type": "error"
    },
    {
      "inputs": [],
      "name": "InvalidDate",
      "type": "error"
    },
    {
      "inputs": [],
      "name": "NotFound",
      "type": "error"
    },
    {
      "inputs": [],
      "name": "NotVested",
      "type": "error"
    },
    {
      "inputs": [],
      "name": "TransferUnsuccessful",
      "type": "error"
    },
    {
      "anonymous": false,
      "inputs": [
        {
          "indexed": false,
          "internalType": "address",
          "name": "to",
          "type": "address"
        },
        {
          "indexed": false,
          "internalType": "uint256",
          "name": "amount",
          "type": "uint256"
        }
      ],
      "name": "AmorWithdrawed",
      "type": "event"
    },
    {
      "anonymous": false,
      "inputs": [
        {
          "indexed": true,
          "internalType": "address",
          "name": "previousOwner",
          "type": "address"
        },
        {
          "indexed": true,
          "internalType": "address",
          "name": "newOwner",
          "type": "address"
        }
      ],
      "name": "OwnershipTransferred",
      "type": "event"
    },
    {
      "inputs": [],
      "name": "SENTINEL",
      "outputs": [
        {
          "internalType": "address",
          "name": "",
          "type": "address"
        }
      ],
      "stateMutability": "view",
      "type": "function"
    },
    {
      "inputs": [],
      "name": "SENTINELOwner",
      "outputs": [
        {
          "internalType": "address",
          "name": "",
          "type": "address"
        }
      ],
      "stateMutability": "view",
      "type": "function"
    },
    {
      "inputs": [
        {
          "internalType": "address",
          "name": "target",
          "type": "address"
        },
        {
          "internalType": "uint256",
          "name": "amount",
          "type": "uint256"
        },
        {
          "internalType": "uint256",
          "name": "cliff",
          "type": "uint256"
        },
        {
          "internalType": "uint256",
          "name": "vestingStart",
          "type": "uint256"
        },
        {
          "internalType": "uint256",
          "name": "vestingDate",
          "type": "uint256"
        }
      ],
      "name": "allocateVestedTokens",
      "outputs": [],
      "stateMutability": "nonpayable",
      "type": "function"
    },
    {
      "inputs": [
        {
          "internalType": "address",
          "name": "",
          "type": "address"
        }
      ],
      "name": "allocations",
      "outputs": [
        {
          "internalType": "uint256",
          "name": "tokensAllocated",
          "type": "uint256"
        },
        {
          "internalType": "uint256",
          "name": "vestingStart",
          "type": "uint256"
        },
        {
          "internalType": "uint256",
          "name": "cliff",
          "type": "uint256"
        },
        {
          "internalType": "uint256",
          "name": "vestingDate",
          "type": "uint256"
        },
        {
          "internalType": "uint256",
          "name": "tokensClaimed",
          "type": "uint256"
        }
      ],
      "stateMutability": "view",
      "type": "function"
    },
    {
      "inputs": [],
      "name": "amorToken",
      "outputs": [
        {
          "internalType": "contract IERC20",
          "name": "",
          "type": "address"
        }
      ],
      "stateMutability": "view",
      "type": "function"
    },
    {
      "inputs": [
        {
          "internalType": "address",
          "name": "target",
          "type": "address"
        }
      ],
      "name": "balanceOf",
      "outputs": [
        {
          "internalType": "uint256",
          "name": "",
          "type": "uint256"
        }
      ],
      "stateMutability": "view",
      "type": "function"
    },
    {
      "inputs": [
        {
          "internalType": "address",
          "name": "",
          "type": "address"
        }
      ],
      "name": "beneficiaries",
      "outputs": [
        {
          "internalType": "address",
          "name": "",
          "type": "address"
        }
      ],
      "stateMutability": "view",
      "type": "function"
    },
    {
      "inputs": [
        {
          "internalType": "address",
          "name": "target",
          "type": "address"
        },
        {
          "internalType": "uint256",
          "name": "amount",
          "type": "uint256"
        },
        {
          "internalType": "uint256",
          "name": "cliff",
          "type": "uint256"
        },
        {
          "internalType": "uint256",
          "name": "vestingStart",
          "type": "uint256"
        },
        {
          "internalType": "uint256",
          "name": "vestingDate",
          "type": "uint256"
        }
      ],
      "name": "modifyAllocation",
      "outputs": [],
      "stateMutability": "nonpayable",
      "type": "function"
    },
    {
      "inputs": [],
      "name": "owner",
      "outputs": [
        {
          "internalType": "address",
          "name": "",
          "type": "address"
        }
      ],
      "stateMutability": "view",
      "type": "function"
    },
    {
      "inputs": [],
      "name": "renounceOwnership",
      "outputs": [],
      "stateMutability": "nonpayable",
      "type": "function"
    },
    {
      "inputs": [],
      "name": "tokensAllocated",
      "outputs": [
        {
          "internalType": "uint256",
          "name": "",
          "type": "uint256"
        }
      ],
      "stateMutability": "view",
      "type": "function"
    },
    {
      "inputs": [
        {
          "internalType": "address",
          "name": "beneficiary",
          "type": "address"
        }
      ],
      "name": "tokensAvailable",
      "outputs": [
        {
          "internalType": "uint256",
          "name": "",
          "type": "uint256"
        }
      ],
      "stateMutability": "view",
      "type": "function"
    },
    {
      "inputs": [],
      "name": "tokensWithdrawn",
      "outputs": [
        {
          "internalType": "uint256",
          "name": "",
          "type": "uint256"
        }
      ],
      "stateMutability": "view",
      "type": "function"
    },
    {
      "inputs": [
        {
          "internalType": "address",
          "name": "newOwner",
          "type": "address"
        }
      ],
      "name": "transferOwnership",
      "outputs": [],
      "stateMutability": "nonpayable",
      "type": "function"
    },
    {
      "inputs": [],
      "name": "unallocatedAMOR",
      "outputs": [
        {
          "internalType": "uint256",
          "name": "",
          "type": "uint256"
        }
      ],
      "stateMutability": "view",
      "type": "function"
    },
    {
      "inputs": [
        {
          "internalType": "uint256",
          "name": "amount",
          "type": "uint256"
        }
      ],
      "name": "withdrawAmor",
      "outputs": [],
      "stateMutability": "nonpayable",
      "type": "function"
    }
  ],
  "bytecode": "0x60806040523480156200001157600080fd5b5060405162000f4c38038062000f4c8339810160408190526200003491620001f9565b6200003f33620000ab565b6200004a82620000fb565b600680546001600160a01b039092166001600160a01b031992831617905560038054821690556000805260046020527f17ef568e3e12ab5b9c7254a8d58478811de00f9e6eb34345acd53bf8fd09d3ec805490911660011790555062000231565b600080546001600160a01b038381166001600160a01b0319831681178455604051919092169283917f8be0079c531659141344cd1fd0a4f28419497f9722a3daafe3b4186f6b6457e09190a35050565b620001056200017e565b6001600160a01b038116620001705760405162461bcd60e51b815260206004820152602660248201527f4f776e61626c653a206e6577206f776e657220697320746865207a65726f206160448201526564647265737360d01b60648201526084015b60405180910390fd5b6200017b81620000ab565b50565b6000546001600160a01b03163314620001da5760405162461bcd60e51b815260206004820181905260248201527f4f776e61626c653a2063616c6c6572206973206e6f7420746865206f776e6572604482015260640162000167565b565b80516001600160a01b0381168114620001f457600080fd5b919050565b600080604083850312156200020d57600080fd5b6200021883620001dc565b91506200022860208401620001dc565b90509250929050565b610d0b80620002416000396000f3fe608060405234801561001057600080fd5b50600436106101005760003560e01c806371e6c57211610097578063a943799511610066578063a943799514610293578063c902ee36146102a6578063f00cab43146102b9578063f2fde38b146102c157600080fd5b806371e6c57214610246578063755e3e281461025957806389e2c014146102625780638da5cb5b1461027557600080fd5b8063497fb5b9116100d3578063497fb5b9146101bb57806352a9039c146101c457806370a0823114610229578063715018a61461023c57600080fd5b806301567739146101055780630377a4161461016557806304d002ec1461018557806314004a211461019b575b600080fd5b61013b610113366004610b4e565b60046020526000908152604090205473ffffffffffffffffffffffffffffffffffffffff1681565b60405173ffffffffffffffffffffffffffffffffffffffff90911681526020015b60405180910390f35b60065461013b9073ffffffffffffffffffffffffffffffffffffffff1681565b61018d6102d4565b60405190815260200161015c565b60035461013b9073ffffffffffffffffffffffffffffffffffffffff1681565b61018d60025481565b6102016101d2366004610b4e565b600560205260009081526040902080546001820154600283015460038401546004909401549293919290919085565b604080519586526020860194909452928401919091526060830152608082015260a00161015c565b61018d610237366004610b4e565b610388565b6102446103c4565b005b610244610254366004610b69565b6103d8565b61018d60015481565b610244610270366004610b82565b610535565b60005473ffffffffffffffffffffffffffffffffffffffff1661013b565b6102446102a1366004610b82565b610603565b61018d6102b4366004610b4e565b610676565b61013b600181565b6102446102cf366004610b4e565b6107b1565b6001546002546006546040517f70a08231000000000000000000000000000000000000000000000000000000008152306004820152600093929173ffffffffffffffffffffffffffffffffffffffff16906370a0823190602401602060405180830381865afa15801561034b573d6000803e3d6000fd5b505050506040513d601f19601f8201168201806040525081019061036f9190610bc4565b6103799190610c0c565b6103839190610c24565b905090565b73ffffffffffffffffffffffffffffffffffffffff81166000908152600560205260408120600481015490546103be9190610c24565b92915050565b6103cc61086d565b6103d660006108ee565b565b6103e133610676565b81111561041a576040517f356680b700000000000000000000000000000000000000000000000000000000815260040160405180910390fd5b3360009081526005602052604081206004810180549192849261043e908490610c0c565b9250508190555081600260008282546104579190610c0c565b90915550506006546040517fa9059cbb0000000000000000000000000000000000000000000000000000000081523360048201526024810184905273ffffffffffffffffffffffffffffffffffffffff9091169063a9059cbb906044016020604051808303816000875af11580156104d3573d6000803e3d6000fd5b505050506040513d601f19601f820116820180604052508101906104f79190610c3b565b5060408051338152602081018490527f18398d10654158d0872c8cd188ac6fe07ec98daf5400d87b09249ed83d924b14910160405180910390a15050565b61053d61086d565b61054a8585858585610963565b836001600082825461055c9190610c0c565b909155505073ffffffffffffffffffffffffffffffffffffffff858116600090815260046020526040902054166105fc576003805473ffffffffffffffffffffffffffffffffffffffff90811660009081526004602052604080822080547fffffffffffffffffffffffff0000000000000000000000000000000000000000908116948b1694851790915583835291208054821660011790558254161790555b5050505050565b61060b61086d565b73ffffffffffffffffffffffffffffffffffffffff85811660009081526004602052604090205416610669576040517fc5723b5100000000000000000000000000000000000000000000000000000000815260040160405180910390fd5b6105fc8585858585610963565b73ffffffffffffffffffffffffffffffffffffffff8181166000908152600460205260408120549091166106d6576040517fc5723b5100000000000000000000000000000000000000000000000000000000815260040160405180910390fd5b73ffffffffffffffffffffffffffffffffffffffff821660009081526005602052604090206003810154421061071e57600481015481546107179190610c24565b9392505050565b428160020154111561075c576040517f9225b94100000000000000000000000000000000000000000000000000000000815260040160405180910390fd5b6000816001015482600301546107729190610c24565b60018301546107819042610c24565b835461078d9190610c5d565b6107979190610c9a565b90508160040154816107a99190610c24565b949350505050565b6107b961086d565b73ffffffffffffffffffffffffffffffffffffffff8116610861576040517f08c379a000000000000000000000000000000000000000000000000000000000815260206004820152602660248201527f4f776e61626c653a206e6577206f776e657220697320746865207a65726f206160448201527f646472657373000000000000000000000000000000000000000000000000000060648201526084015b60405180910390fd5b61086a816108ee565b50565b60005473ffffffffffffffffffffffffffffffffffffffff1633146103d6576040517f08c379a000000000000000000000000000000000000000000000000000000000815260206004820181905260248201527f4f776e61626c653a2063616c6c6572206973206e6f7420746865206f776e65726044820152606401610858565b6000805473ffffffffffffffffffffffffffffffffffffffff8381167fffffffffffffffffffffffff0000000000000000000000000000000000000000831681178455604051919092169283917f8be0079c531659141344cd1fd0a4f28419497f9722a3daafe3b4186f6b6457e09190a35050565b8361096c6102d4565b10156109a4576040517f356680b700000000000000000000000000000000000000000000000000000000815260040160405180910390fd5b828211806109b157508083115b156109e8576040517f81bf7f6700000000000000000000000000000000000000000000000000000000815260040160405180910390fd5b73ffffffffffffffffffffffffffffffffffffffff8516600090815260056020526040902060020154831080610a45575073ffffffffffffffffffffffffffffffffffffffff851660009081526005602052604090206003015481105b80610a77575073ffffffffffffffffffffffffffffffffffffffff851660009081526005602052604090206001015482105b80610a8157504282105b15610ab8576040517f81bf7f6700000000000000000000000000000000000000000000000000000000815260040160405180910390fd5b73ffffffffffffffffffffffffffffffffffffffff85166000908152600560205260408120600281018590556001810154909103610af857600181018390555b84816000016000828254610b0c9190610c0c565b9091555050600381019190915560020191909155505050565b803573ffffffffffffffffffffffffffffffffffffffff81168114610b4957600080fd5b919050565b600060208284031215610b6057600080fd5b61071782610b25565b600060208284031215610b7b57600080fd5b5035919050565b600080600080600060a08688031215610b9a57600080fd5b610ba386610b25565b97602087013597506040870135966060810135965060800135945092505050565b600060208284031215610bd657600080fd5b5051919050565b7f4e487b7100000000000000000000000000000000000000000000000000000000600052601160045260246000fd5b60008219821115610c1f57610c1f610bdd565b500190565b600082821015610c3657610c36610bdd565b500390565b600060208284031215610c4d57600080fd5b8151801515811461071757600080fd5b6000817fffffffffffffffffffffffffffffffffffffffffffffffffffffffffffffffff0483118215151615610c9557610c95610bdd565b500290565b600082610cd0577f4e487b7100000000000000000000000000000000000000000000000000000000600052601260045260246000fd5b50049056fea2646970667358221220f9301fabf519d8127ea3ffe38bada73b6ba5c99b02c35876de266fb30ceddf5c64736f6c634300080f0033",
  "linkReferences": {},
  "deployedLinkReferences": {}
}