{
  "_format": "hh-sol-artifact-1",
  "contractName": "AMORToken",
  "sourceName": "contracts/AMORToken.sol",
  "abi": [
    {
      "inputs": [],
      "name": "AlreadyInitialized",
      "type": "error"
    },
    {
      "inputs": [],
      "name": "AlreadySet",
      "type": "error"
    },
    {
      "inputs": [],
      "name": "InvalidAddress",
      "type": "error"
    },
    {
      "inputs": [],
      "name": "InvalidAmount",
      "type": "error"
    },
    {
      "inputs": [],
      "name": "InvalidApprove",
      "type": "error"
    },
    {
      "inputs": [],
      "name": "InvalidRate",
      "type": "error"
    },
    {
      "inputs": [],
      "name": "InvalidTaxCollector",
      "type": "error"
    },
    {
      "inputs": [],
      "name": "InvalidTransfer",
      "type": "error"
    },
    {
      "anonymous": false,
      "inputs": [
        {
          "indexed": true,
          "internalType": "address",
          "name": "owner",
          "type": "address"
        },
        {
          "indexed": true,
          "internalType": "address",
          "name": "spender",
          "type": "address"
        },
        {
          "indexed": false,
          "internalType": "uint256",
          "name": "value",
          "type": "uint256"
        }
      ],
      "name": "Approval",
      "type": "event"
    },
    {
      "anonymous": false,
      "inputs": [
        {
          "indexed": false,
          "internalType": "bool",
          "name": "success",
          "type": "bool"
        },
        {
          "indexed": false,
          "internalType": "address",
          "name": "taxCollector",
          "type": "address"
        },
        {
          "indexed": false,
          "internalType": "uint256",
          "name": "rate",
          "type": "uint256"
        }
      ],
      "name": "Initialized",
      "type": "event"
    },
    {
      "anonymous": false,
      "inputs": [
        {
          "indexed": true,
          "internalType": "address",
          "name": "previousOwner",
          "type": "address"
        },
        {
          "indexed": true,
          "internalType": "address",
          "name": "newOwner",
          "type": "address"
        }
      ],
      "name": "OwnershipTransferred",
      "type": "event"
    },
    {
      "anonymous": false,
      "inputs": [
        {
          "indexed": false,
          "internalType": "address",
          "name": "account",
          "type": "address"
        }
      ],
      "name": "Paused",
      "type": "event"
    },
    {
      "anonymous": false,
      "inputs": [
        {
          "indexed": true,
          "internalType": "address",
          "name": "from",
          "type": "address"
        },
        {
          "indexed": true,
          "internalType": "address",
          "name": "to",
          "type": "address"
        },
        {
          "indexed": false,
          "internalType": "uint256",
          "name": "value",
          "type": "uint256"
        }
      ],
      "name": "Transfer",
      "type": "event"
    },
    {
      "anonymous": false,
      "inputs": [
        {
          "indexed": false,
          "internalType": "address",
          "name": "account",
          "type": "address"
        }
      ],
      "name": "Unpaused",
      "type": "event"
    },
    {
      "inputs": [],
      "name": "BASIS_POINTS",
      "outputs": [
        {
          "internalType": "uint256",
          "name": "",
          "type": "uint256"
        }
      ],
      "stateMutability": "view",
      "type": "function"
    },
    {
      "inputs": [
        {
          "internalType": "address",
          "name": "owner",
          "type": "address"
        },
        {
          "internalType": "address",
          "name": "spender",
          "type": "address"
        }
      ],
      "name": "allowance",
      "outputs": [
        {
          "internalType": "uint256",
          "name": "",
          "type": "uint256"
        }
      ],
      "stateMutability": "view",
      "type": "function"
    },
    {
      "inputs": [
        {
          "internalType": "address",
          "name": "spender",
          "type": "address"
        },
        {
          "internalType": "uint256",
          "name": "amount",
          "type": "uint256"
        }
      ],
      "name": "approve",
      "outputs": [
        {
          "internalType": "bool",
          "name": "",
          "type": "bool"
        }
      ],
      "stateMutability": "nonpayable",
      "type": "function"
    },
    {
      "inputs": [
        {
          "internalType": "address",
          "name": "account",
          "type": "address"
        }
      ],
      "name": "balanceOf",
      "outputs": [
        {
          "internalType": "uint256",
          "name": "",
          "type": "uint256"
        }
      ],
      "stateMutability": "view",
      "type": "function"
    },
    {
      "inputs": [],
      "name": "decimals",
      "outputs": [
        {
          "internalType": "uint8",
          "name": "",
          "type": "uint8"
        }
      ],
      "stateMutability": "view",
      "type": "function"
    },
    {
      "inputs": [
        {
          "internalType": "address",
          "name": "spender",
          "type": "address"
        },
        {
          "internalType": "uint256",
          "name": "subtractedValue",
          "type": "uint256"
        }
      ],
      "name": "decreaseAllowance",
      "outputs": [
        {
          "internalType": "bool",
          "name": "",
          "type": "bool"
        }
      ],
      "stateMutability": "nonpayable",
      "type": "function"
    },
    {
      "inputs": [
        {
          "internalType": "address",
          "name": "spender",
          "type": "address"
        },
        {
          "internalType": "uint256",
          "name": "addedValue",
          "type": "uint256"
        }
      ],
      "name": "increaseAllowance",
      "outputs": [
        {
          "internalType": "bool",
          "name": "",
          "type": "bool"
        }
      ],
      "stateMutability": "nonpayable",
      "type": "function"
    },
    {
      "inputs": [
        {
          "internalType": "string",
          "name": "_name",
          "type": "string"
        },
        {
          "internalType": "string",
          "name": "_symbol",
          "type": "string"
        },
        {
          "internalType": "address",
          "name": "_initCollector",
          "type": "address"
        },
        {
          "internalType": "uint256",
          "name": "_initTaxRate",
          "type": "uint256"
        },
        {
          "internalType": "address",
          "name": "_multisig",
          "type": "address"
        }
      ],
      "name": "init",
      "outputs": [
        {
          "internalType": "bool",
          "name": "",
          "type": "bool"
        }
      ],
      "stateMutability": "nonpayable",
      "type": "function"
    },
    {
      "inputs": [],
      "name": "name",
      "outputs": [
        {
          "internalType": "string",
          "name": "",
          "type": "string"
        }
      ],
      "stateMutability": "view",
      "type": "function"
    },
    {
      "inputs": [],
      "name": "owner",
      "outputs": [
        {
          "internalType": "address",
          "name": "",
          "type": "address"
        }
      ],
      "stateMutability": "view",
      "type": "function"
    },
    {
      "inputs": [],
      "name": "pause",
      "outputs": [],
      "stateMutability": "nonpayable",
      "type": "function"
    },
    {
      "inputs": [],
      "name": "paused",
      "outputs": [
        {
          "internalType": "bool",
          "name": "",
          "type": "bool"
        }
      ],
      "stateMutability": "view",
      "type": "function"
    },
    {
      "inputs": [],
      "name": "renounceOwnership",
      "outputs": [],
      "stateMutability": "nonpayable",
      "type": "function"
    },
    {
      "inputs": [
        {
          "internalType": "uint256",
          "name": "newRate",
          "type": "uint256"
        }
      ],
      "name": "setTaxRate",
      "outputs": [],
      "stateMutability": "nonpayable",
      "type": "function"
    },
    {
      "inputs": [],
      "name": "symbol",
      "outputs": [
        {
          "internalType": "string",
          "name": "",
          "type": "string"
        }
      ],
      "stateMutability": "view",
      "type": "function"
    },
    {
      "inputs": [],
      "name": "taxController",
      "outputs": [
        {
          "internalType": "address",
          "name": "",
          "type": "address"
        }
      ],
      "stateMutability": "view",
      "type": "function"
    },
    {
      "inputs": [],
      "name": "taxRate",
      "outputs": [
        {
          "internalType": "uint256",
          "name": "",
          "type": "uint256"
        }
      ],
      "stateMutability": "view",
      "type": "function"
    },
    {
      "inputs": [],
      "name": "totalSupply",
      "outputs": [
        {
          "internalType": "uint256",
          "name": "",
          "type": "uint256"
        }
      ],
      "stateMutability": "view",
      "type": "function"
    },
    {
      "inputs": [
        {
          "internalType": "address",
          "name": "to",
          "type": "address"
        },
        {
          "internalType": "uint256",
          "name": "amount",
          "type": "uint256"
        }
      ],
      "name": "transfer",
      "outputs": [
        {
          "internalType": "bool",
          "name": "",
          "type": "bool"
        }
      ],
      "stateMutability": "nonpayable",
      "type": "function"
    },
    {
      "inputs": [
        {
          "internalType": "address",
          "name": "from",
          "type": "address"
        },
        {
          "internalType": "address",
          "name": "to",
          "type": "address"
        },
        {
          "internalType": "uint256",
          "name": "amount",
          "type": "uint256"
        }
      ],
      "name": "transferFrom",
      "outputs": [
        {
          "internalType": "bool",
          "name": "",
          "type": "bool"
        }
      ],
      "stateMutability": "nonpayable",
      "type": "function"
    },
    {
      "inputs": [
        {
          "internalType": "address",
          "name": "newOwner",
          "type": "address"
        }
      ],
      "name": "transferOwnership",
      "outputs": [],
      "stateMutability": "nonpayable",
      "type": "function"
    },
    {
      "inputs": [],
      "name": "unpause",
      "outputs": [],
      "stateMutability": "nonpayable",
      "type": "function"
    },
    {
      "inputs": [
        {
          "internalType": "address",
          "name": "newTaxCollector",
          "type": "address"
        }
      ],
      "name": "updateController",
      "outputs": [],
      "stateMutability": "nonpayable",
      "type": "function"
    }
  ],
  "bytecode": "0x608060405234801561001057600080fd5b506005805462ff0000191690556100263361002b565b610089565b600580546001600160a01b0383811663010000008181026301000000600160b81b031985161790945560405193909204169182907f8be0079c531659141344cd1fd0a4f28419497f9722a3daafe3b4186f6b6457e090600090a35050565b6117db806100986000396000f3fe608060405234801561001057600080fd5b506004361061018d5760003560e01c8063715018a6116100e3578063a9059cbb1161008c578063dd62ed3e11610066578063dd62ed3e1461036a578063e1f1c4a7146103b0578063f2fde38b146103b957600080fd5b8063a9059cbb14610331578063a9c246b314610344578063c6d69a301461035757600080fd5b80638da5cb5b116100bd5780638da5cb5b146102f157806395d89b4114610316578063a457c2d71461031e57600080fd5b8063715018a6146102d8578063771a3a1d146102e05780638456cb59146102e957600080fd5b8063313ce5671161014557806349e049a41161011f57806349e049a41461024c5780635c975abb1461029157806370a08231146102a257600080fd5b8063313ce5671461020d57806339509351146102315780633f4ba83a1461024457600080fd5b8063095ea7b311610176578063095ea7b3146101c557806318160ddd146101e857806323b872dd146101fa57600080fd5b806306cb5b661461019257806306fdde03146101a7575b600080fd5b6101a56101a0366004611135565b6103cc565b005b6101af610469565b6040516101bc9190611157565b60405180910390f35b6101d86101d33660046111ca565b6104f7565b60405190151581526020016101bc565b6002545b6040519081526020016101bc565b6101d86102083660046111f4565b610511565b60055461021f90610100900460ff1681565b60405160ff90911681526020016101bc565b6101d861023f3660046111ca565b610535565b6101a5610581565b60065461026c9073ffffffffffffffffffffffffffffffffffffffff1681565b60405173ffffffffffffffffffffffffffffffffffffffff90911681526020016101bc565b60055462010000900460ff166101d8565b6101ec6102b0366004611135565b73ffffffffffffffffffffffffffffffffffffffff1660009081526020819052604090205490565b6101a5610593565b6101ec60075481565b6101a56105a5565b6005546301000000900473ffffffffffffffffffffffffffffffffffffffff1661026c565b6101af6105b5565b6101d861032c3660046111ca565b6105c2565b6101d861033f3660046111ca565b61063d565b6101d861035236600461130a565b61064b565b6101a5610365366004611399565b6107a9565b6101ec6103783660046113b2565b73ffffffffffffffffffffffffffffffffffffffff918216600090815260016020908152604080832093909416825291909152205490565b6101ec61271081565b6101a56103c7366004611135565b6107f6565b6103d46108af565b3073ffffffffffffffffffffffffffffffffffffffff821603610423576040517f1e29712200000000000000000000000000000000000000000000000000000000815260040160405180910390fd5b600680547fffffffffffffffffffffffff00000000000000000000000000000000000000001673ffffffffffffffffffffffffffffffffffffffff831617905550565b50565b60038054610476906113e5565b80601f01602080910402602001604051908101604052809291908181526020018280546104a2906113e5565b80156104ef5780601f106104c4576101008083540402835291602001916104ef565b820191906000526020600020905b8154815290600101906020018083116104d257829003601f168201915b505050505081565b600033610505818585610938565b60019150505b92915050565b60003361051f858285610a14565b61052a858585610abb565b506001949350505050565b33600081815260016020908152604080832073ffffffffffffffffffffffffffffffffffffffff87168452909152812054909190610505908290869061057c908790611467565b610938565b6105896108af565b610591610dc4565b565b61059b6108af565b6105916000610e41565b6105ad6108af565b610591610ec1565b60048054610476906113e5565b33600081815260016020908152604080832073ffffffffffffffffffffffffffffffffffffffff8716845290915281205490919083811015610630576040517f2c5211c600000000000000000000000000000000000000000000000000000000815260040160405180910390fd5b61052a8286868403610938565b600033610505818585610abb565b60085460009060ff161561068b576040517f0dc149f000000000000000000000000000000000000000000000000000000000815260040160405180910390fd5b61069482610e41565b60036106a087826114cd565b5060046106ad86826114cd565b50600580547fffffffffffffffffffffffffffffffffffffffffffffffffffffffffffff00ff1661120017908190556107089083906106f69060ff61010090910416600a611707565b6107039062989680611716565b610f1e565b610711846103cc565b61071a836107a9565b600880547fffffffffffffffffffffffffffffffffffffffffffffffffffffffffffffff001660019081179091556040805191825273ffffffffffffffffffffffffffffffffffffffff8616602083015281018490527fe2caa72f44603dc34ead113bb378c2afee107eaa0becf55010999a23723ced539060600160405180910390a150600195945050505050565b6107b16108af565b6101f48111156107ed576040517f6a43f8d100000000000000000000000000000000000000000000000000000000815260040160405180910390fd5b61046681600755565b6107fe6108af565b73ffffffffffffffffffffffffffffffffffffffff81166108a6576040517f08c379a000000000000000000000000000000000000000000000000000000000815260206004820152602660248201527f4f776e61626c653a206e6577206f776e657220697320746865207a65726f206160448201527f646472657373000000000000000000000000000000000000000000000000000060648201526084015b60405180910390fd5b61046681610e41565b60055473ffffffffffffffffffffffffffffffffffffffff6301000000909104163314610591576040517f08c379a000000000000000000000000000000000000000000000000000000000815260206004820181905260248201527f4f776e61626c653a2063616c6c6572206973206e6f7420746865206f776e6572604482015260640161089d565b73ffffffffffffffffffffffffffffffffffffffff8316158061096f575073ffffffffffffffffffffffffffffffffffffffff8216155b156109a6576040517fbeac2bc600000000000000000000000000000000000000000000000000000000815260040160405180910390fd5b73ffffffffffffffffffffffffffffffffffffffff83811660008181526001602090815260408083209487168084529482529182902085905590518481527f8c5be1e5ebec7d5bd14f71427d1e84f3dd0314c0f7b2291e5b200ac8c7c3b925910160405180910390a3505050565b73ffffffffffffffffffffffffffffffffffffffff8381166000908152600160209081526040808320938616835292905220547fffffffffffffffffffffffffffffffffffffffffffffffffffffffffffffffff8114610ab55781811015610aa8576040517f2c5211c600000000000000000000000000000000000000000000000000000000815260040160405180910390fd5b610ab58484848403610938565b50505050565b73ffffffffffffffffffffffffffffffffffffffff83161580610af2575073ffffffffffffffffffffffffffffffffffffffff8216155b15610b29576040517f2f35253100000000000000000000000000000000000000000000000000000000815260040160405180910390fd5b610b3483838361101a565b73ffffffffffffffffffffffffffffffffffffffff831660009081526020819052604090205481811015610b94576040517f2f35253100000000000000000000000000000000000000000000000000000000815260040160405180910390fd5b73ffffffffffffffffffffffffffffffffffffffff84166000908152602081905260409020828203905560075415610d1c57600061271060075484610bd99190611716565b610be39190611753565b90506000610bf1828561178e565b60065473ffffffffffffffffffffffffffffffffffffffff16600090815260208190526040812080549293508492909190610c2d908490611467565b909155505060065460405183815273ffffffffffffffffffffffffffffffffffffffff918216918816907fddf252ad1be2c89b69c2b068fc378daa952ba7f163c4a11628f55a4df523b3ef9060200160405180910390a373ffffffffffffffffffffffffffffffffffffffff851660009081526020819052604081208054839290610cb9908490611467565b909155505073ffffffffffffffffffffffffffffffffffffffff8086169087167fddf252ad1be2c89b69c2b068fc378daa952ba7f163c4a11628f55a4df523b3ef610d04858861178e565b60405190815260200160405180910390a35050610ab5565b73ffffffffffffffffffffffffffffffffffffffff831660009081526020819052604081208054849290610d51908490611467565b925050819055508273ffffffffffffffffffffffffffffffffffffffff168473ffffffffffffffffffffffffffffffffffffffff167fddf252ad1be2c89b69c2b068fc378daa952ba7f163c4a11628f55a4df523b3ef84604051610db791815260200190565b60405180910390a3610ab5565b610dcc611027565b600580547fffffffffffffffffffffffffffffffffffffffffffffffffffffffffff00ffff1690557f5db9ee0a495bf2e6ff9c91a7834c1ba4fdd244a5e8aa4e537bd38aeae4b073aa335b60405173ffffffffffffffffffffffffffffffffffffffff909116815260200160405180910390a1565b6005805473ffffffffffffffffffffffffffffffffffffffff83811663010000008181027fffffffffffffffffff0000000000000000000000000000000000000000ffffff85161790945560405193909204169182907f8be0079c531659141344cd1fd0a4f28419497f9722a3daafe3b4186f6b6457e090600090a35050565b610ec9611099565b600580547fffffffffffffffffffffffffffffffffffffffffffffffffffffffffff00ffff16620100001790557f62e78cea01bee320cd4e420270b5ea74000d11b0c9f74754ebdbfc544b05a258610e173390565b73ffffffffffffffffffffffffffffffffffffffff8216610f6b576040517fe6c4247b00000000000000000000000000000000000000000000000000000000815260040160405180910390fd5b610f776000838361101a565b8060026000828254610f899190611467565b909155505073ffffffffffffffffffffffffffffffffffffffff821660009081526020819052604081208054839290610fc3908490611467565b909155505060405181815273ffffffffffffffffffffffffffffffffffffffff8316906000907fddf252ad1be2c89b69c2b068fc378daa952ba7f163c4a11628f55a4df523b3ef9060200160405180910390a35050565b611022611099565b505050565b60055462010000900460ff16610591576040517f08c379a000000000000000000000000000000000000000000000000000000000815260206004820152601460248201527f5061757361626c653a206e6f7420706175736564000000000000000000000000604482015260640161089d565b60055462010000900460ff1615610591576040517f08c379a000000000000000000000000000000000000000000000000000000000815260206004820152601060248201527f5061757361626c653a2070617573656400000000000000000000000000000000604482015260640161089d565b803573ffffffffffffffffffffffffffffffffffffffff8116811461113057600080fd5b919050565b60006020828403121561114757600080fd5b6111508261110c565b9392505050565b600060208083528351808285015260005b8181101561118457858101830151858201604001528201611168565b81811115611196576000604083870101525b50601f017fffffffffffffffffffffffffffffffffffffffffffffffffffffffffffffffe016929092016040019392505050565b600080604083850312156111dd57600080fd5b6111e68361110c565b946020939093013593505050565b60008060006060848603121561120957600080fd5b6112128461110c565b92506112206020850161110c565b9150604084013590509250925092565b7f4e487b7100000000000000000000000000000000000000000000000000000000600052604160045260246000fd5b600082601f83011261127057600080fd5b813567ffffffffffffffff8082111561128b5761128b611230565b604051601f83017fffffffffffffffffffffffffffffffffffffffffffffffffffffffffffffffe0908116603f011681019082821181831017156112d1576112d1611230565b816040528381528660208588010111156112ea57600080fd5b836020870160208301376000602085830101528094505050505092915050565b600080600080600060a0868803121561132257600080fd5b853567ffffffffffffffff8082111561133a57600080fd5b61134689838a0161125f565b9650602088013591508082111561135c57600080fd5b506113698882890161125f565b9450506113786040870161110c565b92506060860135915061138d6080870161110c565b90509295509295909350565b6000602082840312156113ab57600080fd5b5035919050565b600080604083850312156113c557600080fd5b6113ce8361110c565b91506113dc6020840161110c565b90509250929050565b600181811c908216806113f957607f821691505b602082108103611432577f4e487b7100000000000000000000000000000000000000000000000000000000600052602260045260246000fd5b50919050565b7f4e487b7100000000000000000000000000000000000000000000000000000000600052601160045260246000fd5b6000821982111561147a5761147a611438565b500190565b601f82111561102257600081815260208120601f850160051c810160208610156114a65750805b601f850160051c820191505b818110156114c5578281556001016114b2565b505050505050565b815167ffffffffffffffff8111156114e7576114e7611230565b6114fb816114f584546113e5565b8461147f565b602080601f83116001811461154e57600084156115185750858301515b7fffffffffffffffffffffffffffffffffffffffffffffffffffffffffffffffff600386901b1c1916600185901b1785556114c5565b6000858152602081207fffffffffffffffffffffffffffffffffffffffffffffffffffffffffffffffe08616915b8281101561159b5788860151825594840194600190910190840161157c565b50858210156115d757878501517fffffffffffffffffffffffffffffffffffffffffffffffffffffffffffffffff600388901b60f8161c191681555b5050505050600190811b01905550565b600181815b8085111561164057817fffffffffffffffffffffffffffffffffffffffffffffffffffffffffffffffff0482111561162657611626611438565b8085161561163357918102915b93841c93908002906115ec565b509250929050565b6000826116575750600161050b565b816116645750600061050b565b816001811461167a5760028114611684576116a0565b600191505061050b565b60ff84111561169557611695611438565b50506001821b61050b565b5060208310610133831016604e8410600b84101617156116c3575081810a61050b565b6116cd83836115e7565b807fffffffffffffffffffffffffffffffffffffffffffffffffffffffffffffffff048211156116ff576116ff611438565b029392505050565b600061115060ff841683611648565b6000817fffffffffffffffffffffffffffffffffffffffffffffffffffffffffffffffff048311821515161561174e5761174e611438565b500290565b600082611789577f4e487b7100000000000000000000000000000000000000000000000000000000600052601260045260246000fd5b500490565b6000828210156117a0576117a0611438565b50039056fea2646970667358221220416e0bc522a8d1f35c993da0e5f85b2a169291aec1d5ad5dc62b74c70821ef3d64736f6c634300080f0033",
  "linkReferences": {},
  "deployedLinkReferences": {}
}