{
  "_format": "hh-sol-artifact-1",
  "contractName": "AMORxGuildToken",
  "sourceName": "contracts/AMORxGuildToken.sol",
  "abi": [
    {
      "inputs": [],
      "name": "AlreadyInitialized",
      "type": "error"
    },
    {
      "inputs": [],
      "name": "AlreadySet",
      "type": "error"
    },
    {
      "inputs": [],
      "name": "InvalidAddress",
      "type": "error"
    },
    {
      "inputs": [],
      "name": "InvalidAmount",
      "type": "error"
    },
    {
      "inputs": [],
      "name": "InvalidApprove",
      "type": "error"
    },
    {
      "inputs": [],
      "name": "InvalidTaxRate",
      "type": "error"
    },
    {
      "inputs": [],
      "name": "InvalidTransfer",
      "type": "error"
    },
    {
      "inputs": [],
      "name": "UnsufficientAmount",
      "type": "error"
    },
    {
      "anonymous": false,
      "inputs": [
        {
          "indexed": true,
          "internalType": "address",
          "name": "owner",
          "type": "address"
        },
        {
          "indexed": true,
          "internalType": "address",
          "name": "spender",
          "type": "address"
        },
        {
          "indexed": false,
          "internalType": "uint256",
          "name": "value",
          "type": "uint256"
        }
      ],
      "name": "Approval",
      "type": "event"
    },
    {
      "anonymous": false,
      "inputs": [
        {
          "indexed": false,
          "internalType": "string",
          "name": "name",
          "type": "string"
        },
        {
          "indexed": false,
          "internalType": "string",
          "name": "symbol",
          "type": "string"
        },
        {
          "indexed": false,
          "internalType": "address",
          "name": "amorToken",
          "type": "address"
        }
      ],
      "name": "Initialized",
      "type": "event"
    },
    {
      "anonymous": false,
      "inputs": [
        {
          "indexed": true,
          "internalType": "address",
          "name": "previousOwner",
          "type": "address"
        },
        {
          "indexed": true,
          "internalType": "address",
          "name": "newOwner",
          "type": "address"
        }
      ],
      "name": "OwnershipTransferred",
      "type": "event"
    },
    {
      "anonymous": false,
      "inputs": [
        {
          "indexed": false,
          "internalType": "address",
          "name": "account",
          "type": "address"
        }
      ],
      "name": "Paused",
      "type": "event"
    },
    {
      "anonymous": false,
      "inputs": [
        {
          "indexed": true,
          "internalType": "address",
          "name": "newProxyAddress",
          "type": "address"
        }
      ],
      "name": "ProxyAddressChange",
      "type": "event"
    },
    {
      "anonymous": false,
      "inputs": [
        {
          "indexed": true,
          "internalType": "address",
          "name": "from",
          "type": "address"
        },
        {
          "indexed": true,
          "internalType": "address",
          "name": "to",
          "type": "address"
        },
        {
          "indexed": false,
          "internalType": "uint256",
          "name": "value",
          "type": "uint256"
        }
      ],
      "name": "Transfer",
      "type": "event"
    },
    {
      "anonymous": false,
      "inputs": [
        {
          "indexed": false,
          "internalType": "address",
          "name": "account",
          "type": "address"
        }
      ],
      "name": "Unpaused",
      "type": "event"
    },
    {
      "inputs": [],
      "name": "BASIS_POINTS",
      "outputs": [
        {
          "internalType": "uint256",
          "name": "",
          "type": "uint256"
        }
      ],
      "stateMutability": "view",
      "type": "function"
    },
    {
      "inputs": [
        {
          "internalType": "address",
          "name": "owner",
          "type": "address"
        },
        {
          "internalType": "address",
          "name": "spender",
          "type": "address"
        }
      ],
      "name": "allowance",
      "outputs": [
        {
          "internalType": "uint256",
          "name": "",
          "type": "uint256"
        }
      ],
      "stateMutability": "view",
      "type": "function"
    },
    {
      "inputs": [
        {
          "internalType": "address",
          "name": "spender",
          "type": "address"
        },
        {
          "internalType": "uint256",
          "name": "amount",
          "type": "uint256"
        }
      ],
      "name": "approve",
      "outputs": [
        {
          "internalType": "bool",
          "name": "",
          "type": "bool"
        }
      ],
      "stateMutability": "nonpayable",
      "type": "function"
    },
    {
      "inputs": [
        {
          "internalType": "address",
          "name": "account",
          "type": "address"
        }
      ],
      "name": "balanceOf",
      "outputs": [
        {
          "internalType": "uint256",
          "name": "",
          "type": "uint256"
        }
      ],
      "stateMutability": "view",
      "type": "function"
    },
    {
      "inputs": [],
      "name": "decimals",
      "outputs": [
        {
          "internalType": "uint8",
          "name": "",
          "type": "uint8"
        }
      ],
      "stateMutability": "view",
      "type": "function"
    },
    {
      "inputs": [
        {
          "internalType": "address",
          "name": "spender",
          "type": "address"
        },
        {
          "internalType": "uint256",
          "name": "subtractedValue",
          "type": "uint256"
        }
      ],
      "name": "decreaseAllowance",
      "outputs": [
        {
          "internalType": "bool",
          "name": "",
          "type": "bool"
        }
      ],
      "stateMutability": "nonpayable",
      "type": "function"
    },
    {
      "inputs": [],
      "name": "guildController",
      "outputs": [
        {
          "internalType": "address",
          "name": "",
          "type": "address"
        }
      ],
      "stateMutability": "view",
      "type": "function"
    },
    {
      "inputs": [
        {
          "internalType": "address",
          "name": "spender",
          "type": "address"
        },
        {
          "internalType": "uint256",
          "name": "addedValue",
          "type": "uint256"
        }
      ],
      "name": "increaseAllowance",
      "outputs": [
        {
          "internalType": "bool",
          "name": "",
          "type": "bool"
        }
      ],
      "stateMutability": "nonpayable",
      "type": "function"
    },
    {
      "inputs": [
        {
          "internalType": "string",
          "name": "name",
          "type": "string"
        },
        {
          "internalType": "string",
          "name": "symbol",
          "type": "string"
        },
        {
          "internalType": "address",
          "name": "amorAddress",
          "type": "address"
        },
        {
          "internalType": "address",
          "name": "controller",
          "type": "address"
        }
      ],
      "name": "init",
      "outputs": [],
      "stateMutability": "nonpayable",
      "type": "function"
    },
    {
      "inputs": [],
      "name": "name",
      "outputs": [
        {
          "internalType": "string",
          "name": "",
          "type": "string"
        }
      ],
      "stateMutability": "view",
      "type": "function"
    },
    {
      "inputs": [],
      "name": "owner",
      "outputs": [
        {
          "internalType": "address",
          "name": "",
          "type": "address"
        }
      ],
      "stateMutability": "view",
      "type": "function"
    },
    {
      "inputs": [],
      "name": "pause",
      "outputs": [],
      "stateMutability": "nonpayable",
      "type": "function"
    },
    {
      "inputs": [],
      "name": "paused",
      "outputs": [
        {
          "internalType": "bool",
          "name": "",
          "type": "bool"
        }
      ],
      "stateMutability": "view",
      "type": "function"
    },
    {
      "inputs": [],
      "name": "renounceOwnership",
      "outputs": [],
      "stateMutability": "nonpayable",
      "type": "function"
    },
    {
      "inputs": [
        {
          "internalType": "uint16",
          "name": "newRate",
          "type": "uint16"
        }
      ],
      "name": "setTax",
      "outputs": [],
      "stateMutability": "nonpayable",
      "type": "function"
    },
    {
      "inputs": [
        {
          "internalType": "address",
          "name": "to",
          "type": "address"
        },
        {
          "internalType": "uint256",
          "name": "amount",
          "type": "uint256"
        }
      ],
      "name": "stakeAmor",
      "outputs": [
        {
          "internalType": "uint256",
          "name": "",
          "type": "uint256"
        }
      ],
      "stateMutability": "nonpayable",
      "type": "function"
    },
    {
      "inputs": [],
      "name": "stakingTaxRate",
      "outputs": [
        {
          "internalType": "uint16",
          "name": "",
          "type": "uint16"
        }
      ],
      "stateMutability": "view",
      "type": "function"
    },
    {
      "inputs": [],
      "name": "symbol",
      "outputs": [
        {
          "internalType": "string",
          "name": "",
          "type": "string"
        }
      ],
      "stateMutability": "view",
      "type": "function"
    },
    {
      "inputs": [],
      "name": "totalSupply",
      "outputs": [
        {
          "internalType": "uint256",
          "name": "",
          "type": "uint256"
        }
      ],
      "stateMutability": "view",
      "type": "function"
    },
    {
      "inputs": [
        {
          "internalType": "address",
          "name": "to",
          "type": "address"
        },
        {
          "internalType": "uint256",
          "name": "amount",
          "type": "uint256"
        }
      ],
      "name": "transfer",
      "outputs": [
        {
          "internalType": "bool",
          "name": "",
          "type": "bool"
        }
      ],
      "stateMutability": "nonpayable",
      "type": "function"
    },
    {
      "inputs": [
        {
          "internalType": "address",
          "name": "from",
          "type": "address"
        },
        {
          "internalType": "address",
          "name": "to",
          "type": "address"
        },
        {
          "internalType": "uint256",
          "name": "amount",
          "type": "uint256"
        }
      ],
      "name": "transferFrom",
      "outputs": [
        {
          "internalType": "bool",
          "name": "",
          "type": "bool"
        }
      ],
      "stateMutability": "nonpayable",
      "type": "function"
    },
    {
      "inputs": [
        {
          "internalType": "address",
          "name": "newOwner",
          "type": "address"
        }
      ],
      "name": "transferOwnership",
      "outputs": [],
      "stateMutability": "nonpayable",
      "type": "function"
    },
    {
      "inputs": [],
      "name": "unpause",
      "outputs": [],
      "stateMutability": "nonpayable",
      "type": "function"
    },
    {
      "inputs": [
        {
          "internalType": "uint256",
          "name": "amount",
          "type": "uint256"
        }
      ],
      "name": "withdrawAmor",
      "outputs": [
        {
          "internalType": "uint256",
          "name": "",
          "type": "uint256"
        }
      ],
      "stateMutability": "nonpayable",
      "type": "function"
    }
  ],
  "bytecode": "0x608060405261271060085534801561001657600080fd5b506005805462ff00001916905561002c33610031565b61008f565b600580546001600160a01b0383811663010000008181026301000000600160b81b031985161790945560405193909204169182907f8be0079c531659141344cd1fd0a4f28419497f9722a3daafe3b4186f6b6457e090600090a35050565b61230a8061009e6000396000f3fe608060405234801561001057600080fd5b50600436106101985760003560e01c806370a08231116100e357806395d89b411161008c578063dd62ed3e11610066578063dd62ed3e146103b8578063e1f1c4a7146103fe578063f2fde38b1461040757600080fd5b806395d89b411461038a578063a457c2d714610392578063a9059cbb146103a557600080fd5b806371e6c572116100bd57806371e6c5721461034a5780638456cb591461035d5780638da5cb5b1461036557600080fd5b806370a08231146102d357806370f0f38714610309578063715018a61461034257600080fd5b8063313ce567116101455780633f4ba83a1161011f5780633f4ba83a146102a75780635c975abb146102af5780636845b90a146102c057600080fd5b8063313ce5671461025d578063319f5f6a14610281578063395093511461029457600080fd5b806318160ddd1161017657806318160ddd146101f357806323b872dd1461020557806325eb1c871461021857600080fd5b806306fdde031461019d578063095ea7b3146101bb5780630e07f854146101de575b600080fd5b6101a561041a565b6040516101b29190611b8a565b60405180910390f35b6101ce6101c9366004611bc1565b6104a8565b60405190151581526020016101b2565b6101f16101ec366004611cc5565b6104c2565b005b6002545b6040519081526020016101b2565b6101ce610213366004611d4a565b61062a565b6007546102389073ffffffffffffffffffffffffffffffffffffffff1681565b60405173ffffffffffffffffffffffffffffffffffffffff90911681526020016101b2565b60055461026f90610100900460ff1681565b60405160ff90911681526020016101b2565b6101f161028f366004611d86565b610650565b6101ce6102a2366004611bc1565b6106e5565b6101f1610731565b60055462010000900460ff166101ce565b6101f76102ce366004611bc1565b610743565b6101f76102e1366004611daa565b73ffffffffffffffffffffffffffffffffffffffff1660009081526020819052604090205490565b60065461032f9074010000000000000000000000000000000000000000900461ffff1681565b60405161ffff90911681526020016101b2565b6101f1610a6f565b6101f7610358366004611dc5565b610a81565b6101f1610b60565b6005546301000000900473ffffffffffffffffffffffffffffffffffffffff16610238565b6101a5610b70565b6101ce6103a0366004611bc1565b610b7d565b6101ce6103b3366004611bc1565b610c03565b6101f76103c6366004611dde565b73ffffffffffffffffffffffffffffffffffffffff918216600090815260016020908152604080832093909416825291909152205490565b6101f760085481565b6101f1610415366004611daa565b610c11565b6003805461042790611e11565b80601f016020809104026020016040519081016040528092919081815260200182805461045390611e11565b80156104a05780601f10610475576101008083540402835291602001916104a0565b820191906000526020600020905b81548152906001019060200180831161048357829003601f168201915b505050505081565b6000336104b6818585610ccd565b60019150505b92915050565b60055477010000000000000000000000000000000000000000000000900460ff161561051a576040517f0dc149f000000000000000000000000000000000000000000000000000000000815260040160405180910390fd5b600680547fffffffffffffffffffffffff00000000000000000000000000000000000000001673ffffffffffffffffffffffffffffffffffffffff84161790556105648484610daa565b6007805473ffffffffffffffffffffffffffffffffffffffff83167fffffffffffffffffffffffff0000000000000000000000000000000000000000909116179055600580547fffffffffffffffff00ffffffffffffffffffffffffffffffffffffffffffffff16770100000000000000000000000000000000000000000000001790556040517f2d91d6d870a160ae226bba06eb7e3d58dac90fbc97ef11c41fc758ebdce7ec779061061c90869086908690611e64565b60405180910390a150505050565b600033610638858285610e31565b610643858585610ed8565b60019150505b9392505050565b61065861105d565b6107d08161ffff161115610698576040517f67e3b83500000000000000000000000000000000000000000000000000000000815260040160405180910390fd5b6006805461ffff90921674010000000000000000000000000000000000000000027fffffffffffffffffffff0000ffffffffffffffffffffffffffffffffffffffff909216919091179055565b33600081815260016020908152604080832073ffffffffffffffffffffffffffffffffffffffff871684529091528120549091906104b6908290869061072c908790611edf565b610ccd565b61073961105d565b6107416110e6565b565b600061074d611163565b6006546040517f70a08231000000000000000000000000000000000000000000000000000000008152336004820152839173ffffffffffffffffffffffffffffffffffffffff16906370a0823190602401602060405180830381865afa1580156107bb573d6000803e3d6000fd5b505050506040513d601f19601f820116820180604052508101906107df9190611ef7565b1015610817576040517f1294074900000000000000000000000000000000000000000000000000000000815260040160405180910390fd5b6006546040517f70a0823100000000000000000000000000000000000000000000000000000000815230600482015260009173ffffffffffffffffffffffffffffffffffffffff16906370a0823190602401602060405180830381865afa158015610886573d6000803e3d6000fd5b505050506040513d601f19601f820116820180604052508101906108aa9190611ef7565b6006549091506108d29073ffffffffffffffffffffffffffffffffffffffff163330866111d6565b6006546040517f70a08231000000000000000000000000000000000000000000000000000000008152306004820152600091839173ffffffffffffffffffffffffffffffffffffffff909116906370a0823190602401602060405180830381865afa158015610945573d6000803e3d6000fd5b505050506040513d601f19601f820116820180604052508101906109699190611ef7565b6109739190611f10565b90506000610980836112b2565b61099261098d8585611edf565b6112b2565b61099c9190611f27565b6109bc906fffffffffffffffffffffffffffffffff16633b9aca00611f58565b600754600854600654929350610a1a9273ffffffffffffffffffffffffffffffffffffffff90921691610a0b9074010000000000000000000000000000000000000000900461ffff1685611f58565b610a159190611fc4565b611435565b600854600654610a469074010000000000000000000000000000000000000000900461ffff1682611f10565b610a509083611f58565b610a5a9190611fc4565b9050610a668682611435565b95945050505050565b610a7761105d565b6107416000611525565b6000610a8b611163565b33600090815260208190526040902054821115610ad4576040517f1294074900000000000000000000000000000000000000000000000000000000815260040160405180910390fd5b6000610adf60025490565b90506000610af26002633b9aca0061211f565b6002610afe8685611f10565b610b08919061211f565b610b1360028561211f565b610b1d9190611f10565b610b279190611fc4565b9050610b3333856115a5565b600654610b579073ffffffffffffffffffffffffffffffffffffffff1633836116e3565b9150505b919050565b610b6861105d565b610741611739565b6004805461042790611e11565b33600081815260016020908152604080832073ffffffffffffffffffffffffffffffffffffffff8716845290915281205490919083811015610beb576040517f2c5211c600000000000000000000000000000000000000000000000000000000815260040160405180910390fd5b610bf88286868403610ccd565b506001949350505050565b6000336104b6818585610ed8565b610c1961105d565b73ffffffffffffffffffffffffffffffffffffffff8116610cc1576040517f08c379a000000000000000000000000000000000000000000000000000000000815260206004820152602660248201527f4f776e61626c653a206e6577206f776e657220697320746865207a65726f206160448201527f646472657373000000000000000000000000000000000000000000000000000060648201526084015b60405180910390fd5b610cca81611525565b50565b73ffffffffffffffffffffffffffffffffffffffff83161580610d04575073ffffffffffffffffffffffffffffffffffffffff8216155b15610d3b576040517fbeac2bc600000000000000000000000000000000000000000000000000000000815260040160405180910390fd5b73ffffffffffffffffffffffffffffffffffffffff83811660008181526001602090815260408083209487168084529482529182902085905590518481527f8c5be1e5ebec7d5bd14f71427d1e84f3dd0314c0f7b2291e5b200ac8c7c3b92591015b60405180910390a3505050565b60055460ff1615610de7576040517fa741a04500000000000000000000000000000000000000000000000000000000815260040160405180910390fd5b6003610df3838261217c565b506004610e00828261217c565b5050600580547fffffffffffffffffffffffffffffffffffffffffffffffffffffffffffff00001661120117905550565b73ffffffffffffffffffffffffffffffffffffffff8381166000908152600160209081526040808320938616835292905220547fffffffffffffffffffffffffffffffffffffffffffffffffffffffffffffffff8114610ed25781811015610ec5576040517f2c5211c600000000000000000000000000000000000000000000000000000000815260040160405180910390fd5b610ed28484848403610ccd565b50505050565b73ffffffffffffffffffffffffffffffffffffffff83161580610f0f575073ffffffffffffffffffffffffffffffffffffffff8216155b15610f46576040517f2f35253100000000000000000000000000000000000000000000000000000000815260040160405180910390fd5b73ffffffffffffffffffffffffffffffffffffffff831660009081526020819052604090205481811015610fa6576040517f2c5211c600000000000000000000000000000000000000000000000000000000815260040160405180910390fd5b73ffffffffffffffffffffffffffffffffffffffff808516600090815260208190526040808220858503905591851681529081208054849290610fea908490611edf565b925050819055508273ffffffffffffffffffffffffffffffffffffffff168473ffffffffffffffffffffffffffffffffffffffff167fddf252ad1be2c89b69c2b068fc378daa952ba7f163c4a11628f55a4df523b3ef8460405161105091815260200190565b60405180910390a3610ed2565b60055473ffffffffffffffffffffffffffffffffffffffff6301000000909104163314610741576040517f08c379a000000000000000000000000000000000000000000000000000000000815260206004820181905260248201527f4f776e61626c653a2063616c6c6572206973206e6f7420746865206f776e65726044820152606401610cb8565b6110ee611796565b600580547fffffffffffffffffffffffffffffffffffffffffffffffffffffffffff00ffff1690557f5db9ee0a495bf2e6ff9c91a7834c1ba4fdd244a5e8aa4e537bd38aeae4b073aa335b60405173ffffffffffffffffffffffffffffffffffffffff909116815260200160405180910390a1565b60055462010000900460ff1615610741576040517f08c379a000000000000000000000000000000000000000000000000000000000815260206004820152601060248201527f5061757361626c653a20706175736564000000000000000000000000000000006044820152606401610cb8565b60405173ffffffffffffffffffffffffffffffffffffffff80851660248301528316604482015260648101829052610ed29085907f23b872dd00000000000000000000000000000000000000000000000000000000906084015b604080517fffffffffffffffffffffffffffffffffffffffffffffffffffffffffffffffe08184030181529190526020810180517bffffffffffffffffffffffffffffffffffffffffffffffffffffffff167fffffffff0000000000000000000000000000000000000000000000000000000090931692909217909152611808565b6000816000036112c457506000919050565b81600170010000000000000000000000000000000082106112ea5760809190911c9060401b5b6801000000000000000082106113055760409190911c9060201b5b640100000000821061131c5760209190911c9060101b5b6201000082106113315760109190911c9060081b5b61010082106113455760089190911c9060041b5b601082106113585760049190911c9060021b5b600882106113645760011b5b600181858161137557611375611f95565b048201901c9050600181858161138d5761138d611f95565b048201901c905060018185816113a5576113a5611f95565b048201901c905060018185816113bd576113bd611f95565b048201901c905060018185816113d5576113d5611f95565b048201901c905060018185816113ed576113ed611f95565b048201901c9050600181858161140557611405611f95565b048201901c9050600081858161141d5761141d611f95565b04905080821061142d5780610a66565b509392505050565b73ffffffffffffffffffffffffffffffffffffffff8216611482576040517fe6c4247b00000000000000000000000000000000000000000000000000000000815260040160405180910390fd5b80600260008282546114949190611edf565b909155505073ffffffffffffffffffffffffffffffffffffffff8216600090815260208190526040812080548392906114ce908490611edf565b909155505060405181815273ffffffffffffffffffffffffffffffffffffffff8316906000907fddf252ad1be2c89b69c2b068fc378daa952ba7f163c4a11628f55a4df523b3ef9060200160405180910390a35050565b6005805473ffffffffffffffffffffffffffffffffffffffff83811663010000008181027fffffffffffffffffff0000000000000000000000000000000000000000ffffff85161790945560405193909204169182907f8be0079c531659141344cd1fd0a4f28419497f9722a3daafe3b4186f6b6457e090600090a35050565b73ffffffffffffffffffffffffffffffffffffffff82166115f2576040517f2f35253100000000000000000000000000000000000000000000000000000000815260040160405180910390fd5b73ffffffffffffffffffffffffffffffffffffffff821660009081526020819052604090205481811015611652576040517f2c5211c600000000000000000000000000000000000000000000000000000000815260040160405180910390fd5b73ffffffffffffffffffffffffffffffffffffffff8316600090815260208190526040812083830390556002805484929061168e908490611f10565b909155505060405182815260009073ffffffffffffffffffffffffffffffffffffffff8516907fddf252ad1be2c89b69c2b068fc378daa952ba7f163c4a11628f55a4df523b3ef90602001610d9d565b505050565b60405173ffffffffffffffffffffffffffffffffffffffff83166024820152604481018290526116de9084907fa9059cbb0000000000000000000000000000000000000000000000000000000090606401611230565b611741611163565b600580547fffffffffffffffffffffffffffffffffffffffffffffffffffffffffff00ffff16620100001790557f62e78cea01bee320cd4e420270b5ea74000d11b0c9f74754ebdbfc544b05a2586111393390565b60055462010000900460ff16610741576040517f08c379a000000000000000000000000000000000000000000000000000000000815260206004820152601460248201527f5061757361626c653a206e6f74207061757365640000000000000000000000006044820152606401610cb8565b600061186a826040518060400160405280602081526020017f5361666545524332303a206c6f772d6c6576656c2063616c6c206661696c65648152508573ffffffffffffffffffffffffffffffffffffffff166119149092919063ffffffff16565b8051909150156116de57808060200190518101906118889190612296565b6116de576040517f08c379a000000000000000000000000000000000000000000000000000000000815260206004820152602a60248201527f5361666545524332303a204552433230206f7065726174696f6e20646964206e60448201527f6f742073756363656564000000000000000000000000000000000000000000006064820152608401610cb8565b6060611923848460008561192b565b949350505050565b6060824710156119bd576040517f08c379a000000000000000000000000000000000000000000000000000000000815260206004820152602660248201527f416464726573733a20696e73756666696369656e742062616c616e636520666f60448201527f722063616c6c00000000000000000000000000000000000000000000000000006064820152608401610cb8565b73ffffffffffffffffffffffffffffffffffffffff85163b611a3b576040517f08c379a000000000000000000000000000000000000000000000000000000000815260206004820152601d60248201527f416464726573733a2063616c6c20746f206e6f6e2d636f6e74726163740000006044820152606401610cb8565b6000808673ffffffffffffffffffffffffffffffffffffffff168587604051611a6491906122b8565b60006040518083038185875af1925050503d8060008114611aa1576040519150601f19603f3d011682016040523d82523d6000602084013e611aa6565b606091505b5091509150611ab6828286611ac1565b979650505050505050565b60608315611ad0575081610649565b825115611ae05782518084602001fd5b816040517f08c379a0000000000000000000000000000000000000000000000000000000008152600401610cb89190611b8a565b60005b83811015611b2f578181015183820152602001611b17565b83811115610ed25750506000910152565b60008151808452611b58816020860160208601611b14565b601f017fffffffffffffffffffffffffffffffffffffffffffffffffffffffffffffffe0169290920160200192915050565b6020815260006106496020830184611b40565b803573ffffffffffffffffffffffffffffffffffffffff81168114610b5b57600080fd5b60008060408385031215611bd457600080fd5b611bdd83611b9d565b946020939093013593505050565b7f4e487b7100000000000000000000000000000000000000000000000000000000600052604160045260246000fd5b600082601f830112611c2b57600080fd5b813567ffffffffffffffff80821115611c4657611c46611beb565b604051601f83017fffffffffffffffffffffffffffffffffffffffffffffffffffffffffffffffe0908116603f01168101908282118183101715611c8c57611c8c611beb565b81604052838152866020858801011115611ca557600080fd5b836020870160208301376000602085830101528094505050505092915050565b60008060008060808587031215611cdb57600080fd5b843567ffffffffffffffff80821115611cf357600080fd5b611cff88838901611c1a565b95506020870135915080821115611d1557600080fd5b50611d2287828801611c1a565b935050611d3160408601611b9d565b9150611d3f60608601611b9d565b905092959194509250565b600080600060608486031215611d5f57600080fd5b611d6884611b9d565b9250611d7660208501611b9d565b9150604084013590509250925092565b600060208284031215611d9857600080fd5b813561ffff8116811461064957600080fd5b600060208284031215611dbc57600080fd5b61064982611b9d565b600060208284031215611dd757600080fd5b5035919050565b60008060408385031215611df157600080fd5b611dfa83611b9d565b9150611e0860208401611b9d565b90509250929050565b600181811c90821680611e2557607f821691505b602082108103611e5e577f4e487b7100000000000000000000000000000000000000000000000000000000600052602260045260246000fd5b50919050565b606081526000611e776060830186611b40565b8281036020840152611e898186611b40565b91505073ffffffffffffffffffffffffffffffffffffffff83166040830152949350505050565b7f4e487b7100000000000000000000000000000000000000000000000000000000600052601160045260246000fd5b60008219821115611ef257611ef2611eb0565b500190565b600060208284031215611f0957600080fd5b5051919050565b600082821015611f2257611f22611eb0565b500390565b60006fffffffffffffffffffffffffffffffff83811690831681811015611f5057611f50611eb0565b039392505050565b6000817fffffffffffffffffffffffffffffffffffffffffffffffffffffffffffffffff0483118215151615611f9057611f90611eb0565b500290565b7f4e487b7100000000000000000000000000000000000000000000000000000000600052601260045260246000fd5b600082611ffa577f4e487b7100000000000000000000000000000000000000000000000000000000600052601260045260246000fd5b500490565b600181815b8085111561205857817fffffffffffffffffffffffffffffffffffffffffffffffffffffffffffffffff0482111561203e5761203e611eb0565b8085161561204b57918102915b93841c9390800290612004565b509250929050565b60008261206f575060016104bc565b8161207c575060006104bc565b8160018114612092576002811461209c576120b8565b60019150506104bc565b60ff8411156120ad576120ad611eb0565b50506001821b6104bc565b5060208310610133831016604e8410600b84101617156120db575081810a6104bc565b6120e58383611fff565b807fffffffffffffffffffffffffffffffffffffffffffffffffffffffffffffffff0482111561211757612117611eb0565b029392505050565b600061064960ff841683612060565b601f8211156116de57600081815260208120601f850160051c810160208610156121555750805b601f850160051c820191505b8181101561217457828155600101612161565b505050505050565b815167ffffffffffffffff81111561219657612196611beb565b6121aa816121a48454611e11565b8461212e565b602080601f8311600181146121fd57600084156121c75750858301515b7fffffffffffffffffffffffffffffffffffffffffffffffffffffffffffffffff600386901b1c1916600185901b178555612174565b6000858152602081207fffffffffffffffffffffffffffffffffffffffffffffffffffffffffffffffe08616915b8281101561224a5788860151825594840194600190910190840161222b565b508582101561228657878501517fffffffffffffffffffffffffffffffffffffffffffffffffffffffffffffffff600388901b60f8161c191681555b5050505050600190811b01905550565b6000602082840312156122a857600080fd5b8151801515811461064957600080fd5b600082516122ca818460208701611b14565b919091019291505056fea2646970667358221220b8ba174290c8e096907a083e07eb46f2bec63b1ab4c4f3850028006545425eff64736f6c634300080f0033",
  "linkReferences": {},
  "deployedLinkReferences": {}
}