{
  "_format": "hh-sol-artifact-1",
  "contractName": "AvatarxGuild",
  "sourceName": "contracts/AvatarxGuild.sol",
  "abi": [
    {
      "inputs": [],
      "name": "AlreadyInitialized",
      "type": "error"
    },
    {
      "inputs": [],
      "name": "InvalidParameters",
      "type": "error"
    },
    {
      "inputs": [],
      "name": "NotDisabled",
      "type": "error"
    },
    {
      "inputs": [],
      "name": "NotEnabled",
      "type": "error"
    },
    {
      "inputs": [],
      "name": "NotWhitelisted",
      "type": "error"
    },
    {
      "inputs": [],
      "name": "Unauthorized",
      "type": "error"
    },
    {
      "anonymous": false,
      "inputs": [
        {
          "indexed": false,
          "internalType": "address",
          "name": "module",
          "type": "address"
        }
      ],
      "name": "DisabledModule",
      "type": "event"
    },
    {
      "anonymous": false,
      "inputs": [
        {
          "indexed": false,
          "internalType": "address",
          "name": "module",
          "type": "address"
        }
      ],
      "name": "EnabledModule",
      "type": "event"
    },
    {
      "anonymous": false,
      "inputs": [
        {
          "indexed": false,
          "internalType": "address",
          "name": "governorAddress",
          "type": "address"
        }
      ],
      "name": "ExecutionFromGovernorFailure",
      "type": "event"
    },
    {
      "anonymous": false,
      "inputs": [
        {
          "indexed": false,
          "internalType": "address",
          "name": "governorAddress",
          "type": "address"
        }
      ],
      "name": "ExecutionFromGovernorSuccess",
      "type": "event"
    },
    {
      "anonymous": false,
      "inputs": [
        {
          "indexed": true,
          "internalType": "address",
          "name": "module",
          "type": "address"
        }
      ],
      "name": "ExecutionFromModuleFailure",
      "type": "event"
    },
    {
      "anonymous": false,
      "inputs": [
        {
          "indexed": true,
          "internalType": "address",
          "name": "module",
          "type": "address"
        }
      ],
      "name": "ExecutionFromModuleSuccess",
      "type": "event"
    },
    {
      "anonymous": false,
      "inputs": [
        {
          "indexed": false,
          "internalType": "bool",
          "name": "success",
          "type": "bool"
        },
        {
          "indexed": false,
          "internalType": "address",
          "name": "owner",
          "type": "address"
        },
        {
          "indexed": false,
          "internalType": "address",
          "name": "governorAddress",
          "type": "address"
        }
      ],
      "name": "Initialized",
      "type": "event"
    },
    {
      "inputs": [
        {
          "internalType": "address",
          "name": "prevModule",
          "type": "address"
        },
        {
          "internalType": "address",
          "name": "module",
          "type": "address"
        }
      ],
      "name": "disableModule",
      "outputs": [],
      "stateMutability": "nonpayable",
      "type": "function"
    },
    {
      "inputs": [
        {
          "internalType": "address",
          "name": "module",
          "type": "address"
        }
      ],
      "name": "enableModule",
      "outputs": [],
      "stateMutability": "nonpayable",
      "type": "function"
    },
    {
      "inputs": [
        {
          "internalType": "address",
          "name": "to",
          "type": "address"
        },
        {
          "internalType": "uint256",
          "name": "value",
          "type": "uint256"
        },
        {
          "internalType": "bytes",
          "name": "data",
          "type": "bytes"
        },
        {
          "internalType": "enum Enum.Operation",
          "name": "operation",
          "type": "uint8"
        }
      ],
      "name": "execTransactionFromModule",
      "outputs": [
        {
          "internalType": "bool",
          "name": "success",
          "type": "bool"
        }
      ],
      "stateMutability": "nonpayable",
      "type": "function"
    },
    {
      "inputs": [
        {
          "internalType": "address",
          "name": "to",
          "type": "address"
        },
        {
          "internalType": "uint256",
          "name": "value",
          "type": "uint256"
        },
        {
          "internalType": "bytes",
          "name": "data",
          "type": "bytes"
        },
        {
          "internalType": "enum Enum.Operation",
          "name": "operation",
          "type": "uint8"
        }
      ],
      "name": "execTransactionFromModuleReturnData",
      "outputs": [
        {
          "internalType": "bool",
          "name": "success",
          "type": "bool"
        },
        {
          "internalType": "bytes",
          "name": "returnData",
          "type": "bytes"
        }
      ],
      "stateMutability": "nonpayable",
      "type": "function"
    },
    {
      "inputs": [
        {
          "internalType": "address",
          "name": "target",
          "type": "address"
        },
        {
          "internalType": "uint256",
          "name": "value",
          "type": "uint256"
        },
        {
          "internalType": "bytes",
          "name": "proposal",
          "type": "bytes"
        },
        {
          "internalType": "enum Enum.Operation",
          "name": "operation",
          "type": "uint8"
        }
      ],
      "name": "executeProposal",
      "outputs": [
        {
          "internalType": "bool",
          "name": "",
          "type": "bool"
        }
      ],
      "stateMutability": "nonpayable",
      "type": "function"
    },
    {
      "inputs": [
        {
          "internalType": "address",
          "name": "start",
          "type": "address"
        },
        {
          "internalType": "uint256",
          "name": "pageSize",
          "type": "uint256"
        }
      ],
      "name": "getModulesPaginated",
      "outputs": [
        {
          "internalType": "address[]",
          "name": "array",
          "type": "address[]"
        },
        {
          "internalType": "address",
          "name": "next",
          "type": "address"
        }
      ],
      "stateMutability": "view",
      "type": "function"
    },
    {
      "inputs": [],
      "name": "governor",
      "outputs": [
        {
          "internalType": "address",
          "name": "",
          "type": "address"
        }
      ],
      "stateMutability": "view",
      "type": "function"
    },
    {
      "inputs": [
        {
          "internalType": "address",
          "name": "initOwner",
          "type": "address"
        },
        {
          "internalType": "address",
          "name": "governorAddress_",
          "type": "address"
        }
      ],
      "name": "init",
      "outputs": [
        {
          "internalType": "bool",
          "name": "",
          "type": "bool"
        }
      ],
      "stateMutability": "nonpayable",
      "type": "function"
    },
    {
      "inputs": [
        {
          "internalType": "address",
          "name": "module",
          "type": "address"
        }
      ],
      "name": "isModuleEnabled",
      "outputs": [
        {
          "internalType": "bool",
          "name": "",
          "type": "bool"
        }
      ],
      "stateMutability": "view",
      "type": "function"
    },
    {
      "inputs": [],
      "name": "owner",
      "outputs": [
        {
          "internalType": "address",
          "name": "",
          "type": "address"
        }
      ],
      "stateMutability": "view",
      "type": "function"
    },
    {
      "inputs": [
        {
          "internalType": "address",
          "name": "newGovernor",
          "type": "address"
        }
      ],
      "name": "setGovernor",
      "outputs": [],
      "stateMutability": "nonpayable",
      "type": "function"
    }
  ],
  "bytecode": "0x608060405234801561001057600080fd5b50611319806100206000396000f3fe608060405234801561001057600080fd5b50600436106100c95760003560e01c8063610b592511610081578063cc2f84521161005b578063cc2f8452146101ca578063e009cfde146101eb578063f09a4016146101fe57600080fd5b8063610b5925146101825780638da5cb5b14610197578063c42cf535146101b757600080fd5b8063468721a7116100b2578063468721a71461013b5780634ed2c9631461014e5780635229073f1461016157600080fd5b80630c340a24146100ce5780632d9ad53d14610118575b600080fd5b6001546100ee9073ffffffffffffffffffffffffffffffffffffffff1681565b60405173ffffffffffffffffffffffffffffffffffffffff90911681526020015b60405180910390f35b61012b610126366004610ea4565b610211565b604051901515815260200161010f565b61012b610149366004610ed5565b610266565b61012b61015c366004610fa2565b610465565b61017461016f366004610ed5565b61062f565b60405161010f9291906110cc565b610195610190366004610ea4565b6107f9565b005b6000546100ee9073ffffffffffffffffffffffffffffffffffffffff1681565b6101956101c5366004610ea4565b610982565b6101dd6101d8366004611126565b610a6f565b60405161010f929190611150565b6101956101f93660046111c7565b610b9b565b61012b61020c3660046111c7565b610d0f565b6000600173ffffffffffffffffffffffffffffffffffffffff831614801590610260575073ffffffffffffffffffffffffffffffffffffffff8281166000908152600260205260409020541615155b92915050565b6000336001148061029a57503360009081526002602052604090205473ffffffffffffffffffffffffffffffffffffffff16155b156102d1576040517f584a793800000000000000000000000000000000000000000000000000000000815260040160405180910390fd5b60405133907f6895c13664aa4f67288b25d7a21d7aaa34916e355fb9b6fae0a139a9085becb890600090a281600181111561030e5761030e6111fa565b60ff1660010361038a578573ffffffffffffffffffffffffffffffffffffffff16848460405161033f929190611229565b600060405180830381855af49150503d806000811461037a576040519150601f19603f3d011682016040523d82523d6000602084013e61037f565b606091505b5050809150506103fa565b8573ffffffffffffffffffffffffffffffffffffffff168585856040516103b2929190611229565b60006040518083038185875af1925050503d80600081146103ef576040519150601f19603f3d011682016040523d82523d6000602084013e6103f4565b606091505b50909150505b80156104305760405133907f6895c13664aa4f67288b25d7a21d7aaa34916e355fb9b6fae0a139a9085becb890600090a261045c565b60405133907facd2c8702804128fdb0db2bb49f6d127dd0181c13fd45dbfe16de0930e2bd37590600090a25b95945050505050565b60015460009073ffffffffffffffffffffffffffffffffffffffff1633146104b9576040517f82b4290000000000000000000000000000000000000000000000000000000000815260040160405180910390fd5b60008260018111156104cd576104cd6111fa565b60ff16600103610547578573ffffffffffffffffffffffffffffffffffffffff16846040516104fc9190611239565b600060405180830381855af49150503d8060008114610537576040519150601f19603f3d011682016040523d82523d6000602084013e61053c565b606091505b5050809150506105b5565b8573ffffffffffffffffffffffffffffffffffffffff16858560405161056d9190611239565b60006040518083038185875af1925050503d80600081146105aa576040519150601f19603f3d011682016040523d82523d6000602084013e6105af565b606091505b50909150505b80156105f3576040513381527f419042a06aef1fd82621f5ded2b69de152b3826c11b125ef4b8bccf780b27bed9060200160405180910390a161045c565b6040513381527f8dd6c7c84239eb0a066e4cc72c8aa1d89da995ca7fe9629d124c14a5d2dea1339060200160405180910390a195945050505050565b3360009081526002602052604081205460609073ffffffffffffffffffffffffffffffffffffffff1661068e576040517f584a793800000000000000000000000000000000000000000000000000000000815260040160405180910390fd5b8260018111156106a0576106a06111fa565b60ff1660010361071c578673ffffffffffffffffffffffffffffffffffffffff1685856040516106d1929190611229565b600060405180830381855af49150503d806000811461070c576040519150601f19603f3d011682016040523d82523d6000602084013e610711565b606091505b50508092505061078d565b8673ffffffffffffffffffffffffffffffffffffffff16868686604051610744929190611229565b60006040518083038185875af1925050503d8060008114610781576040519150601f19603f3d011682016040523d82523d6000602084013e610786565b606091505b5090925090505b81156107c35760405133907f6895c13664aa4f67288b25d7a21d7aaa34916e355fb9b6fae0a139a9085becb890600090a26107ef565b60405133907facd2c8702804128fdb0db2bb49f6d127dd0181c13fd45dbfe16de0930e2bd37590600090a25b9550959350505050565b73ffffffffffffffffffffffffffffffffffffffff81161580610832575073ffffffffffffffffffffffffffffffffffffffff81166001145b15610869576040517f7ea8ac5600000000000000000000000000000000000000000000000000000000815260040160405180910390fd5b73ffffffffffffffffffffffffffffffffffffffff81811660009081526002602052604090205416156108c8576040517fe523909000000000000000000000000000000000000000000000000000000000815260040160405180910390fd5b600260209081527fe90b7bceb6e7df5418fb78d8ee546e97c83a08bbccc01a0644d599ccd2a7c2e0805473ffffffffffffffffffffffffffffffffffffffff848116600081815260408082208054949095167fffffffffffffffffffffffff0000000000000000000000000000000000000000948516179094556001905283549091168117909255519081527fecdf3a3effea5783a3c4c2140e677577666428d44ed9d474a0b3a4c9943f8440910160405180910390a150565b60005473ffffffffffffffffffffffffffffffffffffffff1633146109d3576040517f82b4290000000000000000000000000000000000000000000000000000000000815260040160405180910390fd5b60015473ffffffffffffffffffffffffffffffffffffffff90811690821603610a28576040517f0dc149f000000000000000000000000000000000000000000000000000000000815260040160405180910390fd5b600180547fffffffffffffffffffffffff00000000000000000000000000000000000000001673ffffffffffffffffffffffffffffffffffffffff92909216919091179055565b606060008267ffffffffffffffff811115610a8c57610a8c610f73565b604051908082528060200260200182016040528015610ab5578160200160208202803683370190505b5073ffffffffffffffffffffffffffffffffffffffff80861660009081526002602052604081205492945091165b73ffffffffffffffffffffffffffffffffffffffff811615801590610b1f575073ffffffffffffffffffffffffffffffffffffffff8116600114155b8015610b2a57508482105b15610b8f5780848381518110610b4257610b42611255565b73ffffffffffffffffffffffffffffffffffffffff928316602091820292909201810191909152918116600090815260029092526040909120541681610b8781611284565b925050610ae3565b90835290509250929050565b73ffffffffffffffffffffffffffffffffffffffff81161580610bd4575073ffffffffffffffffffffffffffffffffffffffff81166001145b15610c0b576040517f5b3d539f00000000000000000000000000000000000000000000000000000000815260040160405180910390fd5b73ffffffffffffffffffffffffffffffffffffffff828116600090815260026020526040902054811690821614610c6e576040517fe523909000000000000000000000000000000000000000000000000000000000815260040160405180910390fd5b73ffffffffffffffffffffffffffffffffffffffff8181166000818152600260209081526040808320805488871685528285208054919097167fffffffffffffffffffffffff00000000000000000000000000000000000000009182161790965592849052825490941690915591519081527faab4fa2b463f581b2b32cb3b7e3b704b9ce37cc209b5fb4d77e593ace4054276910160405180910390a15050565b60015460009074010000000000000000000000000000000000000000900460ff1615610d67576040517f0dc149f000000000000000000000000000000000000000000000000000000000815260040160405180910390fd5b60018054600080547fffffffffffffffffffffffff000000000000000000000000000000000000000090811673ffffffffffffffffffffffffffffffffffffffff888116918217845592859052600260208181527fe90b7bceb6e7df5418fb78d8ee546e97c83a08bbccc01a0644d599ccd2a7c2e08054909416909117909255740100000000000000000000000000000000000000009287167fffffffffffffffffffffff00000000000000000000000000000000000000000090941684178317948590556040805160ff949096049390931615158552908401528201527fc87c04922c077302cf4c93ca0785707d2272b98c125c11c3c98f545718f3e27c9060600160405180910390a150600192915050565b803573ffffffffffffffffffffffffffffffffffffffff81168114610e9f57600080fd5b919050565b600060208284031215610eb657600080fd5b610ebf82610e7b565b9392505050565b803560028110610e9f57600080fd5b600080600080600060808688031215610eed57600080fd5b610ef686610e7b565b945060208601359350604086013567ffffffffffffffff80821115610f1a57600080fd5b818801915088601f830112610f2e57600080fd5b813581811115610f3d57600080fd5b896020828501011115610f4f57600080fd5b602083019550809450505050610f6760608701610ec6565b90509295509295909350565b7f4e487b7100000000000000000000000000000000000000000000000000000000600052604160045260246000fd5b60008060008060808587031215610fb857600080fd5b610fc185610e7b565b935060208501359250604085013567ffffffffffffffff80821115610fe557600080fd5b818701915087601f830112610ff957600080fd5b81358181111561100b5761100b610f73565b604051601f82017fffffffffffffffffffffffffffffffffffffffffffffffffffffffffffffffe0908116603f0116810190838211818310171561105157611051610f73565b816040528281528a602084870101111561106a57600080fd5b82602086016020830137600060208483010152809650505050505061109160608601610ec6565b905092959194509250565b60005b838110156110b757818101518382015260200161109f565b838111156110c6576000848401525b50505050565b821515815260406020820152600082518060408401526110f381606085016020870161109c565b601f017fffffffffffffffffffffffffffffffffffffffffffffffffffffffffffffffe016919091016060019392505050565b6000806040838503121561113957600080fd5b61114283610e7b565b946020939093013593505050565b604080825283519082018190526000906020906060840190828701845b8281101561119f57815173ffffffffffffffffffffffffffffffffffffffff168452928401929084019060010161116d565b50505073ffffffffffffffffffffffffffffffffffffffff9490941692019190915250919050565b600080604083850312156111da57600080fd5b6111e383610e7b565b91506111f160208401610e7b565b90509250929050565b7f4e487b7100000000000000000000000000000000000000000000000000000000600052602160045260246000fd5b8183823760009101908152919050565b6000825161124b81846020870161109c565b9190910192915050565b7f4e487b7100000000000000000000000000000000000000000000000000000000600052603260045260246000fd5b60007fffffffffffffffffffffffffffffffffffffffffffffffffffffffffffffffff82036112dc577f4e487b7100000000000000000000000000000000000000000000000000000000600052601160045260246000fd5b506001019056fea26469706673582212205da62745c8c05cb34ae97e71a28a55161840692b7baf924c4dd8e69c879f15d864736f6c634300080f0033",
  "linkReferences": {},
  "deployedLinkReferences": {}
}