{
  "_format": "hh-sol-artifact-1",
  "contractName": "dAMORxGuild",
  "sourceName": "contracts/dAMORxGuild.sol",
  "abi": [
    {
      "inputs": [],
      "name": "AddressZero",
      "type": "error"
    },
    {
      "inputs": [],
      "name": "AlreadyInitialized",
      "type": "error"
    },
    {
      "inputs": [],
      "name": "AlreadySet",
      "type": "error"
    },
    {
      "inputs": [],
      "name": "EmptyArray",
      "type": "error"
    },
    {
      "inputs": [],
      "name": "InvalidAddress",
      "type": "error"
    },
    {
      "inputs": [],
      "name": "InvalidAmount",
      "type": "error"
    },
    {
      "inputs": [],
      "name": "InvalidApprove",
      "type": "error"
    },
    {
      "inputs": [],
      "name": "InvalidSender",
      "type": "error"
    },
    {
      "inputs": [],
      "name": "InvalidTransfer",
      "type": "error"
    },
    {
      "inputs": [],
      "name": "NotDelegatedAny",
      "type": "error"
    },
    {
      "inputs": [],
      "name": "TimeTooBig",
      "type": "error"
    },
    {
      "inputs": [],
      "name": "TimeTooSmall",
      "type": "error"
    },
    {
      "inputs": [],
      "name": "Unauthorized",
      "type": "error"
    },
    {
      "anonymous": false,
      "inputs": [
        {
          "indexed": true,
          "internalType": "address",
          "name": "owner",
          "type": "address"
        },
        {
          "indexed": true,
          "internalType": "address",
          "name": "spender",
          "type": "address"
        },
        {
          "indexed": false,
          "internalType": "uint256",
          "name": "value",
          "type": "uint256"
        }
      ],
      "name": "Approval",
      "type": "event"
    },
    {
      "anonymous": false,
      "inputs": [
        {
          "indexed": false,
          "internalType": "bool",
          "name": "success",
          "type": "bool"
        },
        {
          "indexed": false,
          "internalType": "address",
          "name": "owner",
          "type": "address"
        },
        {
          "indexed": false,
          "internalType": "address",
          "name": "AMORxGuild",
          "type": "address"
        },
        {
          "indexed": false,
          "internalType": "uint256",
          "name": "amount",
          "type": "uint256"
        }
      ],
      "name": "Initialized",
      "type": "event"
    },
    {
      "anonymous": false,
      "inputs": [
        {
          "indexed": true,
          "internalType": "address",
          "name": "previousOwner",
          "type": "address"
        },
        {
          "indexed": true,
          "internalType": "address",
          "name": "newOwner",
          "type": "address"
        }
      ],
      "name": "OwnershipTransferred",
      "type": "event"
    },
    {
      "anonymous": false,
      "inputs": [
        {
          "indexed": true,
          "internalType": "address",
          "name": "from",
          "type": "address"
        },
        {
          "indexed": true,
          "internalType": "address",
          "name": "to",
          "type": "address"
        },
        {
          "indexed": false,
          "internalType": "uint256",
          "name": "value",
          "type": "uint256"
        }
      ],
      "name": "Transfer",
      "type": "event"
    },
    {
      "inputs": [],
      "name": "COEFFICIENT",
      "outputs": [
        {
          "internalType": "uint256",
          "name": "",
          "type": "uint256"
        }
      ],
      "stateMutability": "view",
      "type": "function"
    },
    {
      "inputs": [],
      "name": "MAX_LOCK_TIME",
      "outputs": [
        {
          "internalType": "uint256",
          "name": "",
          "type": "uint256"
        }
      ],
      "stateMutability": "view",
      "type": "function"
    },
    {
      "inputs": [],
      "name": "MIN_LOCK_TIME",
      "outputs": [
        {
          "internalType": "uint256",
          "name": "",
          "type": "uint256"
        }
      ],
      "stateMutability": "view",
      "type": "function"
    },
    {
      "inputs": [],
      "name": "TIME_DENOMINATOR",
      "outputs": [
        {
          "internalType": "uint256",
          "name": "",
          "type": "uint256"
        }
      ],
      "stateMutability": "view",
      "type": "function"
    },
    {
      "inputs": [
        {
          "internalType": "address",
          "name": "owner",
          "type": "address"
        },
        {
          "internalType": "address",
          "name": "spender",
          "type": "address"
        }
      ],
      "name": "allowance",
      "outputs": [
        {
          "internalType": "uint256",
          "name": "",
          "type": "uint256"
        }
      ],
      "stateMutability": "view",
      "type": "function"
    },
    {
      "inputs": [
        {
          "internalType": "address",
          "name": "",
          "type": "address"
        }
      ],
      "name": "amountDelegated",
      "outputs": [
        {
          "internalType": "uint256",
          "name": "",
          "type": "uint256"
        }
      ],
      "stateMutability": "view",
      "type": "function"
    },
    {
      "inputs": [
        {
          "internalType": "address",
          "name": "spender",
          "type": "address"
        },
        {
          "internalType": "uint256",
          "name": "amount",
          "type": "uint256"
        }
      ],
      "name": "approve",
      "outputs": [
        {
          "internalType": "bool",
          "name": "",
          "type": "bool"
        }
      ],
      "stateMutability": "nonpayable",
      "type": "function"
    },
    {
      "inputs": [
        {
          "internalType": "address",
          "name": "account",
          "type": "address"
        }
      ],
      "name": "balanceOf",
      "outputs": [
        {
          "internalType": "uint256",
          "name": "",
          "type": "uint256"
        }
      ],
      "stateMutability": "view",
      "type": "function"
    },
    {
      "inputs": [],
      "name": "decimals",
      "outputs": [
        {
          "internalType": "uint8",
          "name": "",
          "type": "uint8"
        }
      ],
      "stateMutability": "view",
      "type": "function"
    },
    {
      "inputs": [
        {
          "internalType": "address",
          "name": "spender",
          "type": "address"
        },
        {
          "internalType": "uint256",
          "name": "subtractedValue",
          "type": "uint256"
        }
      ],
      "name": "decreaseAllowance",
      "outputs": [
        {
          "internalType": "bool",
          "name": "",
          "type": "bool"
        }
      ],
      "stateMutability": "nonpayable",
      "type": "function"
    },
    {
      "inputs": [
        {
          "internalType": "address",
          "name": "to",
          "type": "address"
        },
        {
          "internalType": "uint256",
          "name": "amount",
          "type": "uint256"
        }
      ],
      "name": "delegate",
      "outputs": [],
      "stateMutability": "nonpayable",
      "type": "function"
    },
    {
      "inputs": [
        {
          "internalType": "address",
          "name": "",
          "type": "address"
        },
        {
          "internalType": "uint256",
          "name": "",
          "type": "uint256"
        }
      ],
      "name": "delegation",
      "outputs": [
        {
          "internalType": "address",
          "name": "",
          "type": "address"
        }
      ],
      "stateMutability": "view",
      "type": "function"
    },
    {
      "inputs": [
        {
          "internalType": "address",
          "name": "",
          "type": "address"
        },
        {
          "internalType": "address",
          "name": "",
          "type": "address"
        }
      ],
      "name": "delegations",
      "outputs": [
        {
          "internalType": "uint256",
          "name": "",
          "type": "uint256"
        }
      ],
      "stateMutability": "view",
      "type": "function"
    },
    {
      "inputs": [
        {
          "internalType": "address",
          "name": "",
          "type": "address"
        },
        {
          "internalType": "uint256",
          "name": "",
          "type": "uint256"
        }
      ],
      "name": "delegators",
      "outputs": [
        {
          "internalType": "address",
          "name": "",
          "type": "address"
        }
      ],
      "stateMutability": "view",
      "type": "function"
    },
    {
      "inputs": [
        {
          "internalType": "address",
          "name": "spender",
          "type": "address"
        },
        {
          "internalType": "uint256",
          "name": "addedValue",
          "type": "uint256"
        }
      ],
      "name": "increaseAllowance",
      "outputs": [
        {
          "internalType": "bool",
          "name": "",
          "type": "bool"
        }
      ],
      "stateMutability": "nonpayable",
      "type": "function"
    },
    {
      "inputs": [
        {
          "internalType": "uint256",
          "name": "amount",
          "type": "uint256"
        }
      ],
      "name": "increaseStake",
      "outputs": [
        {
          "internalType": "uint256",
          "name": "",
          "type": "uint256"
        }
      ],
      "stateMutability": "nonpayable",
      "type": "function"
    },
    {
      "inputs": [
        {
          "internalType": "string",
          "name": "name",
          "type": "string"
        },
        {
          "internalType": "string",
          "name": "symbol",
          "type": "string"
        },
        {
          "internalType": "address",
          "name": "initOwner",
          "type": "address"
        },
        {
          "internalType": "address",
          "name": "_AMORxGuild",
          "type": "address"
        },
        {
          "internalType": "uint256",
          "name": "amount",
          "type": "uint256"
        }
      ],
      "name": "init",
      "outputs": [
        {
          "internalType": "bool",
          "name": "",
          "type": "bool"
        }
      ],
      "stateMutability": "nonpayable",
      "type": "function"
    },
    {
      "inputs": [],
      "name": "name",
      "outputs": [
        {
          "internalType": "string",
          "name": "",
          "type": "string"
        }
      ],
      "stateMutability": "view",
      "type": "function"
    },
    {
      "inputs": [],
      "name": "owner",
      "outputs": [
        {
          "internalType": "address",
          "name": "",
          "type": "address"
        }
      ],
      "stateMutability": "view",
      "type": "function"
    },
    {
      "inputs": [],
      "name": "renounceOwnership",
      "outputs": [],
      "stateMutability": "nonpayable",
      "type": "function"
    },
    {
      "inputs": [
        {
          "internalType": "uint256",
          "name": "amount",
          "type": "uint256"
        },
        {
          "internalType": "uint256",
          "name": "time",
          "type": "uint256"
        }
      ],
      "name": "stake",
      "outputs": [
        {
          "internalType": "uint256",
          "name": "",
          "type": "uint256"
        }
      ],
      "stateMutability": "nonpayable",
      "type": "function"
    },
    {
      "inputs": [
        {
          "internalType": "address",
          "name": "",
          "type": "address"
        }
      ],
      "name": "stakes",
      "outputs": [
        {
          "internalType": "uint256",
          "name": "",
          "type": "uint256"
        }
      ],
      "stateMutability": "view",
      "type": "function"
    },
    {
      "inputs": [
        {
          "internalType": "address",
          "name": "",
          "type": "address"
        }
      ],
      "name": "stakesTimes",
      "outputs": [
        {
          "internalType": "uint256",
          "name": "",
          "type": "uint256"
        }
      ],
      "stateMutability": "view",
      "type": "function"
    },
    {
      "inputs": [],
      "name": "symbol",
      "outputs": [
        {
          "internalType": "string",
          "name": "",
          "type": "string"
        }
      ],
      "stateMutability": "view",
      "type": "function"
    },
    {
      "inputs": [],
      "name": "totalSupply",
      "outputs": [
        {
          "internalType": "uint256",
          "name": "",
          "type": "uint256"
        }
      ],
      "stateMutability": "view",
      "type": "function"
    },
    {
      "inputs": [
        {
          "internalType": "address",
          "name": "to",
          "type": "address"
        },
        {
          "internalType": "uint256",
          "name": "amount",
          "type": "uint256"
        }
      ],
      "name": "transfer",
      "outputs": [
        {
          "internalType": "bool",
          "name": "",
          "type": "bool"
        }
      ],
      "stateMutability": "nonpayable",
      "type": "function"
    },
    {
      "inputs": [
        {
          "internalType": "address",
          "name": "from",
          "type": "address"
        },
        {
          "internalType": "address",
          "name": "to",
          "type": "address"
        },
        {
          "internalType": "uint256",
          "name": "amount",
          "type": "uint256"
        }
      ],
      "name": "transferFrom",
      "outputs": [
        {
          "internalType": "bool",
          "name": "",
          "type": "bool"
        }
      ],
      "stateMutability": "nonpayable",
      "type": "function"
    },
    {
      "inputs": [
        {
          "internalType": "address",
          "name": "newOwner",
          "type": "address"
        }
      ],
      "name": "transferOwnership",
      "outputs": [],
      "stateMutability": "nonpayable",
      "type": "function"
    },
    {
      "inputs": [
        {
          "internalType": "address",
          "name": "account",
          "type": "address"
        },
        {
          "internalType": "uint256",
          "name": "amount",
          "type": "uint256"
        }
      ],
      "name": "undelegate",
      "outputs": [],
      "stateMutability": "nonpayable",
      "type": "function"
    },
    {
      "inputs": [],
      "name": "undelegateAll",
      "outputs": [],
      "stateMutability": "nonpayable",
      "type": "function"
    },
    {
      "inputs": [],
      "name": "withdraw",
      "outputs": [
        {
          "internalType": "uint256",
          "name": "",
          "type": "uint256"
        }
      ],
      "stateMutability": "nonpayable",
      "type": "function"
    }
  ],
  "bytecode": "0x608060405234801561001057600080fd5b5061001a3361001f565b61007b565b600580546001600160a01b038381166201000081810262010000600160b01b031985161790945560405193909204169182907f8be0079c531659141344cd1fd0a4f28419497f9722a3daafe3b4186f6b6457e090600090a35050565b6128808061008a6000396000f3fe608060405234801561001057600080fd5b50600436106101e55760003560e01c80636f6f58091161010f578063a9059cbb116100a2578063dd62ed3e11610071578063dd62ed3e1461046f578063eedad66b146104b5578063f2fde38b146104c8578063fa78668f146104db57600080fd5b8063a9059cbb14610413578063ae3dd09514610429578063b302f3931461043c578063c64814dd1461044457600080fd5b80638da5cb5b116100de5780638da5cb5b146103b45780638e49d0fd146103d857806395d89b41146103f8578063a457c2d71461040057600080fd5b80636f6f58091461035057806370a0823114610363578063715018a6146103995780637b0472f0146103a157600080fd5b806323b872dd116101875780633ff03207116101565780633ff03207146102ec5780634d60a9c8146102f65780634d99dd16146103055780636649764b1461031857600080fd5b806323b872dd1461029a578063313ce567146102ad57806339509351146102d15780633ccfd60b146102e457600080fd5b8063095ea7b3116101c3578063095ea7b31461022f57806309a4da851461025257806316934fc41461027257806318160ddd1461029257600080fd5b8063026e402b146101ea578063065decc6146101ff57806306fdde031461021a575b600080fd5b6101fd6101f83660046121ff565b6104e6565b005b610207600281565b6040519081526020015b60405180910390f35b6102226106c7565b6040516102119190612255565b61024261023d3660046121ff565b610755565b6040519015158152602001610211565b6102076102603660046122a6565b60066020526000908152604090205481565b6102076102803660046122a6565b60076020526000908152604090205481565b600254610207565b6102426102a83660046122c1565b61076d565b6005546102bf90610100900460ff1681565b60405160ff9091168152602001610211565b6102426102df3660046121ff565b610777565b6102076107c3565b61020762093a8081565b610207670de0b6b3a764000081565b6101fd6103133660046121ff565b6109c5565b61032b6103263660046121ff565b610f6c565b60405173ffffffffffffffffffffffffffffffffffffffff9091168152602001610211565b61032b61035e3660046121ff565b610fb1565b6102076103713660046122a6565b73ffffffffffffffffffffffffffffffffffffffff1660009081526020819052604090205490565b6101fd610fcd565b6102076103af3660046122fd565b610fe1565b60055462010000900473ffffffffffffffffffffffffffffffffffffffff1661032b565b6102076103e63660046122a6565b600b6020526000908152604090205481565b610222611194565b61024261040e3660046121ff565b6111a1565b6102426104213660046121ff565b600092915050565b6102426104373660046123f9565b611227565b6101fd611356565b610207610452366004612486565b600960209081526000928352604080842090915290825290205481565b61020761047d366004612486565b73ffffffffffffffffffffffffffffffffffffffff918216600090815260016020908152604080832093909416825291909152205490565b6102076104c33660046124b9565b6116b1565b6101fd6104d63660046122a6565b611808565b6102076301e1338081565b3373ffffffffffffffffffffffffffffffffffffffff831603610535576040517fddb5de5e00000000000000000000000000000000000000000000000000000000815260040160405180910390fd5b336000908152600b6020908152604080832054600790925282205490919061055e908390612501565b90508281101561059a576040517f2c5211c600000000000000000000000000000000000000000000000000000000815260040160405180910390fd5b33600090815260096020908152604080832073ffffffffffffffffffffffffffffffffffffffff88168452909152812054900361065857336000818152600a6020908152604080832080546001818101835591855283852001805473ffffffffffffffffffffffffffffffffffffffff8b167fffffffffffffffffffffffff00000000000000000000000000000000000000009182168117909255908552600884529184208054918201815584529190922001805490911690911790555b33600090815260096020908152604080832073ffffffffffffffffffffffffffffffffffffffff8816845290915281208054859290610698908490612518565b9091555050336000908152600b6020526040812080548592906106bc908490612518565b909155505050505050565b600380546106d490612530565b80601f016020809104026020016040519081016040528092919081815260200182805461070090612530565b801561074d5780601f106107225761010080835404028352916020019161074d565b820191906000526020600020905b81548152906001019060200180831161073057829003601f168201915b505050505081565b6000336107638185856118c4565b5060019392505050565b60005b9392505050565b33600081815260016020908152604080832073ffffffffffffffffffffffffffffffffffffffff8716845290915281205490919061076390829086906107be908790612518565b6118c4565b3360009081526006602052604081205442101561080c576040517f73454ea700000000000000000000000000000000000000000000000000000000815260040160405180910390fd5b3360009081526007602052604090205480610853576040517f2c5211c600000000000000000000000000000000000000000000000000000000815260040160405180910390fd5b61085d33826119a0565b33600090815260076020908152604080832083905560088252808320805482518185028101850190935280835291929091908301828280156108d557602002820191906000526020600020905b815473ffffffffffffffffffffffffffffffffffffffff1681526001909101906020018083116108aa575b5050505050905060005b815181101561096757336000908152600960205260408120835190919084908490811061090e5761090e61257d565b602002602001015173ffffffffffffffffffffffffffffffffffffffff1673ffffffffffffffffffffffffffffffffffffffff16815260200190815260200160002060009055808061095f906125ac565b9150506108df565b50336000818152600b6020526040812055600c546109a29161010090910473ffffffffffffffffffffffffffffffffffffffff169084611af4565b336000908152600a6020526040902054156109bf576109bf611356565b50919050565b3373ffffffffffffffffffffffffffffffffffffffff831603610a14576040517fddb5de5e00000000000000000000000000000000000000000000000000000000815260040160405180910390fd5b33600090815260096020908152604080832073ffffffffffffffffffffffffffffffffffffffff861684529091528120549003610a7d576040517f6f5e06a600000000000000000000000000000000000000000000000000000000815260040160405180910390fd5b33600090815260096020908152604080832073ffffffffffffffffffffffffffffffffffffffff861684529091529020548111610b235733600090815260096020908152604080832073ffffffffffffffffffffffffffffffffffffffff8616845290915281208054839290610af4908490612501565b9091555050336000908152600b602052604081208054839290610b18908490612501565b90915550610f689050565b33600081815260096020908152604080832073ffffffffffffffffffffffffffffffffffffffff87168452825280832054938352600b90915281208054909190610b6e908490612501565b909155505033600090815260096020908152604080832073ffffffffffffffffffffffffffffffffffffffff8616845290915281208190555b336000908152600a6020526040902054811015610d6e57336000908152600a60205260409020805473ffffffffffffffffffffffffffffffffffffffff8516919083908110610bf857610bf861257d565b60009182526020909120015473ffffffffffffffffffffffffffffffffffffffff1603610d5c57336000908152600a602052604090208054610c3c90600190612501565b81548110610c4c57610c4c61257d565b6000918252602080832090910154338352600a9091526040909120805473ffffffffffffffffffffffffffffffffffffffff9092169183908110610c9257610c9261257d565b600091825260208083209190910180547fffffffffffffffffffffffff00000000000000000000000000000000000000001673ffffffffffffffffffffffffffffffffffffffff9490941693909317909255338152600a90915260409020805480610cff57610cff6125e4565b60008281526020902081017fffffffffffffffffffffffffffffffffffffffffffffffffffffffffffffffff90810180547fffffffffffffffffffffffff0000000000000000000000000000000000000000169055019055610d6e565b80610d66816125ac565b915050610ba7565b5060005b73ffffffffffffffffffffffffffffffffffffffff8316600090815260086020526040902054811015610f665773ffffffffffffffffffffffffffffffffffffffff83166000908152600860205260409020805433919083908110610dd957610dd961257d565b60009182526020909120015473ffffffffffffffffffffffffffffffffffffffff1603610f545773ffffffffffffffffffffffffffffffffffffffff831660009081526008602052604090208054610e3390600190612501565b81548110610e4357610e4361257d565b600091825260208083209091015473ffffffffffffffffffffffffffffffffffffffff868116845260089092526040909220805491909216919083908110610e8d57610e8d61257d565b600091825260208083209190910180547fffffffffffffffffffffffff00000000000000000000000000000000000000001673ffffffffffffffffffffffffffffffffffffffff9485161790559185168152600890915260409020805480610ef757610ef76125e4565b60008281526020902081017fffffffffffffffffffffffffffffffffffffffffffffffffffffffffffffffff90810180547fffffffffffffffffffffffff0000000000000000000000000000000000000000169055019055610f66565b80610f5e816125ac565b915050610d72565b505b5050565b600a6020528160005260406000208181548110610f8857600080fd5b60009182526020909120015473ffffffffffffffffffffffffffffffffffffffff169150829050565b60086020528160005260406000208181548110610f8857600080fd5b610fd5611bc8565b610fdf6000611c50565b565b600062093a80821015611020576040517f73454ea700000000000000000000000000000000000000000000000000000000815260040160405180910390fd5b6301e1338082111561105e576040517f1a9bb44e00000000000000000000000000000000000000000000000000000000815260040160405180910390fd5b600c546040517f70a082310000000000000000000000000000000000000000000000000000000081523360048201528491610100900473ffffffffffffffffffffffffffffffffffffffff16906370a0823190602401602060405180830381865afa1580156110d1573d6000803e3d6000fd5b505050506040513d601f19601f820116820180604052508101906110f59190612613565b101561112d576040517f2c5211c600000000000000000000000000000000000000000000000000000000815260040160405180910390fd5b600c5461115790610100900473ffffffffffffffffffffffffffffffffffffffff16333086611ccf565b60006111638484611d33565b905061116f8342612518565b3360009081526006602090815260408083209390935560079052208190559392505050565b600480546106d490612530565b33600081815260016020908152604080832073ffffffffffffffffffffffffffffffffffffffff871684529091528120549091908381101561120f576040517f2c5211c600000000000000000000000000000000000000000000000000000000815260040160405180910390fd5b61121c82868684036118c4565b506001949350505050565b600c5460009060ff1615611267576040517f0dc149f000000000000000000000000000000000000000000000000000000000815260040160405180910390fd5b61127084611c50565b600c80547fffffffffffffffffffffff0000000000000000000000000000000000000000ff1661010073ffffffffffffffffffffffffffffffffffffffff8616021790556112be8686611dab565b600c80547fffffffffffffffffffffffffffffffffffffffffffffffffffffffffffffff001660019081179091556040805191825273ffffffffffffffffffffffffffffffffffffffff8681166020840152851690820152606081018390527fbe4985a944401434239f4dda415d2cfefe7b57aef283e6eeae01bb32e6c5a2a19060800160405180910390a150600195945050505050565b336000908152600a60209081526040808320805482518185028101850190935280835291929091908301828280156113c457602002820191906000526020600020905b815473ffffffffffffffffffffffffffffffffffffffff168152600190910190602001808311611399575b505050505090508051600003611406576040517f6f5e06a600000000000000000000000000000000000000000000000000000000815260040160405180910390fd5b6000805b825181101561166c578281815181106114255761142561257d565b60209081029190910181015133600090815260098352604080822073ffffffffffffffffffffffffffffffffffffffff8416835290935291822082905592505b73ffffffffffffffffffffffffffffffffffffffff83166000908152600860205260409020548110156116595773ffffffffffffffffffffffffffffffffffffffff831660009081526008602052604090208054339190839081106114cc576114cc61257d565b60009182526020909120015473ffffffffffffffffffffffffffffffffffffffff16036116475773ffffffffffffffffffffffffffffffffffffffff83166000908152600860205260409020805461152690600190612501565b815481106115365761153661257d565b600091825260208083209091015473ffffffffffffffffffffffffffffffffffffffff8681168452600890925260409092208054919092169190839081106115805761158061257d565b600091825260208083209190910180547fffffffffffffffffffffffff00000000000000000000000000000000000000001673ffffffffffffffffffffffffffffffffffffffff94851617905591851681526008909152604090208054806115ea576115ea6125e4565b60008281526020902081017fffffffffffffffffffffffffffffffffffffffffffffffffffffffffffffffff90810180547fffffffffffffffffffffffff0000000000000000000000000000000000000000169055019055611659565b80611651816125ac565b915050611465565b5080611664816125ac565b91505061140a565b50336000908152600a60205260408120611685916121a4565b33600090815260086020526040812061169d916121a4565b5050336000908152600b6020526040812055565b600c546040517f70a08231000000000000000000000000000000000000000000000000000000008152336004820152600091839161010090910473ffffffffffffffffffffffffffffffffffffffff16906370a0823190602401602060405180830381865afa158015611728573d6000803e3d6000fd5b505050506040513d601f19601f8201168201806040525081019061174c9190612613565b1015611784576040517f2c5211c600000000000000000000000000000000000000000000000000000000815260040160405180910390fd5b600c546117ae90610100900473ffffffffffffffffffffffffffffffffffffffff16333085611ccf565b336000908152600660205260408120546117c9904290612501565b905060006117d78483611d33565b336000908152600760205260408120805492935083929091906117fb908490612518565b9091555090949350505050565b611810611bc8565b73ffffffffffffffffffffffffffffffffffffffff81166118b8576040517f08c379a000000000000000000000000000000000000000000000000000000000815260206004820152602660248201527f4f776e61626c653a206e6577206f776e657220697320746865207a65726f206160448201527f646472657373000000000000000000000000000000000000000000000000000060648201526084015b60405180910390fd5b6118c181611c50565b50565b73ffffffffffffffffffffffffffffffffffffffff831615806118fb575073ffffffffffffffffffffffffffffffffffffffff8216155b15611932576040517fbeac2bc600000000000000000000000000000000000000000000000000000000815260040160405180910390fd5b73ffffffffffffffffffffffffffffffffffffffff83811660008181526001602090815260408083209487168084529482529182902085905590518481527f8c5be1e5ebec7d5bd14f71427d1e84f3dd0314c0f7b2291e5b200ac8c7c3b925910160405180910390a3505050565b73ffffffffffffffffffffffffffffffffffffffff82166119ed576040517f2f35253100000000000000000000000000000000000000000000000000000000815260040160405180910390fd5b6119f982600083610f66565b73ffffffffffffffffffffffffffffffffffffffff821660009081526020819052604090205481811015611a59576040517f2c5211c600000000000000000000000000000000000000000000000000000000815260040160405180910390fd5b73ffffffffffffffffffffffffffffffffffffffff83166000908152602081905260408120838303905560028054849290611a95908490612501565b909155505060405182815260009073ffffffffffffffffffffffffffffffffffffffff8516907fddf252ad1be2c89b69c2b068fc378daa952ba7f163c4a11628f55a4df523b3ef9060200160405180910390a3610f6683600084610f66565b60405173ffffffffffffffffffffffffffffffffffffffff8316602482015260448101829052610f669084907fa9059cbb00000000000000000000000000000000000000000000000000000000906064015b604080517fffffffffffffffffffffffffffffffffffffffffffffffffffffffffffffffe08184030181529190526020810180517bffffffffffffffffffffffffffffffffffffffffffffffffffffffff167fffffffff0000000000000000000000000000000000000000000000000000000090931692909217909152611e32565b60055473ffffffffffffffffffffffffffffffffffffffff62010000909104163314610fdf576040517f08c379a000000000000000000000000000000000000000000000000000000000815260206004820181905260248201527f4f776e61626c653a2063616c6c6572206973206e6f7420746865206f776e657260448201526064016118af565b6005805473ffffffffffffffffffffffffffffffffffffffff838116620100008181027fffffffffffffffffffff0000000000000000000000000000000000000000ffff85161790945560405193909204169182907f8be0079c531659141344cd1fd0a4f28419497f9722a3daafe3b4186f6b6457e090600090a35050565b60405173ffffffffffffffffffffffffffffffffffffffff80851660248301528316604482015260648101829052611d2d9085907f23b872dd0000000000000000000000000000000000000000000000000000000090608401611b46565b50505050565b6000806301e13380611d4d670de0b6b3a76400008561262c565b611d579190612669565b90506000611d6d670de0b6b3a76400008061262c565b85611d78848061262c565b611d8390600261262c565b611d8d919061262c565b611d979190612669565b9050611da33382611f3e565b949350505050565b60055460ff1615611de8576040517fa741a04500000000000000000000000000000000000000000000000000000000815260040160405180910390fd5b6003611df483826126f2565b506004611e0182826126f2565b5050600580547fffffffffffffffffffffffffffffffffffffffffffffffffffffffffffff00001661120117905550565b6000611e94826040518060400160405280602081526020017f5361666545524332303a206c6f772d6c6576656c2063616c6c206661696c65648152508573ffffffffffffffffffffffffffffffffffffffff166120429092919063ffffffff16565b805190915015610f665780806020019051810190611eb2919061280c565b610f66576040517f08c379a000000000000000000000000000000000000000000000000000000000815260206004820152602a60248201527f5361666545524332303a204552433230206f7065726174696f6e20646964206e60448201527f6f7420737563636565640000000000000000000000000000000000000000000060648201526084016118af565b73ffffffffffffffffffffffffffffffffffffffff8216611f8b576040517fe6c4247b00000000000000000000000000000000000000000000000000000000815260040160405180910390fd5b611f9760008383610f66565b8060026000828254611fa99190612518565b909155505073ffffffffffffffffffffffffffffffffffffffff821660009081526020819052604081208054839290611fe3908490612518565b909155505060405181815273ffffffffffffffffffffffffffffffffffffffff8316906000907fddf252ad1be2c89b69c2b068fc378daa952ba7f163c4a11628f55a4df523b3ef9060200160405180910390a3610f6860008383610f66565b6060611da384846000858573ffffffffffffffffffffffffffffffffffffffff85163b6120cb576040517f08c379a000000000000000000000000000000000000000000000000000000000815260206004820152601d60248201527f416464726573733a2063616c6c20746f206e6f6e2d636f6e747261637400000060448201526064016118af565b6000808673ffffffffffffffffffffffffffffffffffffffff1685876040516120f4919061282e565b60006040518083038185875af1925050503d8060008114612131576040519150601f19603f3d011682016040523d82523d6000602084013e612136565b606091505b5091509150612146828286612151565b979650505050505050565b60608315612160575081610770565b8251156121705782518084602001fd5b816040517f08c379a00000000000000000000000000000000000000000000000000000000081526004016118af9190612255565b50805460008255906000526020600020908101906118c191905b808211156121d257600081556001016121be565b5090565b803573ffffffffffffffffffffffffffffffffffffffff811681146121fa57600080fd5b919050565b6000806040838503121561221257600080fd5b61221b836121d6565b946020939093013593505050565b60005b8381101561224457818101518382015260200161222c565b83811115611d2d5750506000910152565b6020815260008251806020840152612274816040850160208701612229565b601f017fffffffffffffffffffffffffffffffffffffffffffffffffffffffffffffffe0169190910160400192915050565b6000602082840312156122b857600080fd5b610770826121d6565b6000806000606084860312156122d657600080fd5b6122df846121d6565b92506122ed602085016121d6565b9150604084013590509250925092565b6000806040838503121561231057600080fd5b50508035926020909101359150565b7f4e487b7100000000000000000000000000000000000000000000000000000000600052604160045260246000fd5b600082601f83011261235f57600080fd5b813567ffffffffffffffff8082111561237a5761237a61231f565b604051601f83017fffffffffffffffffffffffffffffffffffffffffffffffffffffffffffffffe0908116603f011681019082821181831017156123c0576123c061231f565b816040528381528660208588010111156123d957600080fd5b836020870160208301376000602085830101528094505050505092915050565b600080600080600060a0868803121561241157600080fd5b853567ffffffffffffffff8082111561242957600080fd5b61243589838a0161234e565b9650602088013591508082111561244b57600080fd5b506124588882890161234e565b945050612467604087016121d6565b9250612475606087016121d6565b949793965091946080013592915050565b6000806040838503121561249957600080fd5b6124a2836121d6565b91506124b0602084016121d6565b90509250929050565b6000602082840312156124cb57600080fd5b5035919050565b7f4e487b7100000000000000000000000000000000000000000000000000000000600052601160045260246000fd5b600082821015612513576125136124d2565b500390565b6000821982111561252b5761252b6124d2565b500190565b600181811c9082168061254457607f821691505b6020821081036109bf577f4e487b7100000000000000000000000000000000000000000000000000000000600052602260045260246000fd5b7f4e487b7100000000000000000000000000000000000000000000000000000000600052603260045260246000fd5b60007fffffffffffffffffffffffffffffffffffffffffffffffffffffffffffffffff82036125dd576125dd6124d2565b5060010190565b7f4e487b7100000000000000000000000000000000000000000000000000000000600052603160045260246000fd5b60006020828403121561262557600080fd5b5051919050565b6000817fffffffffffffffffffffffffffffffffffffffffffffffffffffffffffffffff0483118215151615612664576126646124d2565b500290565b60008261269f577f4e487b7100000000000000000000000000000000000000000000000000000000600052601260045260246000fd5b500490565b601f821115610f6657600081815260208120601f850160051c810160208610156126cb5750805b601f850160051c820191505b818110156126ea578281556001016126d7565b505050505050565b815167ffffffffffffffff81111561270c5761270c61231f565b6127208161271a8454612530565b846126a4565b602080601f831160018114612773576000841561273d5750858301515b7fffffffffffffffffffffffffffffffffffffffffffffffffffffffffffffffff600386901b1c1916600185901b1785556126ea565b6000858152602081207fffffffffffffffffffffffffffffffffffffffffffffffffffffffffffffffe08616915b828110156127c0578886015182559484019460019091019084016127a1565b50858210156127fc57878501517fffffffffffffffffffffffffffffffffffffffffffffffffffffffffffffffff600388901b60f8161c191681555b5050505050600190811b01905550565b60006020828403121561281e57600080fd5b8151801515811461077057600080fd5b60008251612840818460208701612229565b919091019291505056fea264697066735822122084dc3fe76ddca1c761b9d0b27feac93baa5898ac9af63893ecad08acc1ba6cce64736f6c634300080f0033",
  "linkReferences": {},
  "deployedLinkReferences": {}
}