{
  "_format": "hh-sol-artifact-1",
  "contractName": "DoinGudGovernor",
  "sourceName": "contracts/Governor.sol",
  "abi": [
    {
      "inputs": [
        {
          "internalType": "contract IVotes",
          "name": "_token",
          "type": "address"
        },
        {
          "internalType": "string",
          "name": "name",
          "type": "string"
        }
      ],
      "stateMutability": "nonpayable",
      "type": "constructor"
    },
    {
      "inputs": [],
      "name": "AlreadyInitialized",
      "type": "error"
    },
    {
      "inputs": [],
      "name": "AlreadyVoted",
      "type": "error"
    },
    {
      "inputs": [],
      "name": "CancelNotApproved",
      "type": "error"
    },
    {
      "inputs": [],
      "name": "InvalidAmount",
      "type": "error"
    },
    {
      "inputs": [],
      "name": "InvalidParameters",
      "type": "error"
    },
    {
      "inputs": [],
      "name": "InvalidState",
      "type": "error"
    },
    {
      "inputs": [],
      "name": "NotEnoughGuardians",
      "type": "error"
    },
    {
      "inputs": [],
      "name": "ProposalNotExists",
      "type": "error"
    },
    {
      "inputs": [],
      "name": "Unauthorized",
      "type": "error"
    },
    {
      "inputs": [],
      "name": "UnderlyingTransactionReverted",
      "type": "error"
    },
    {
      "inputs": [],
      "name": "VotingTimeExpired",
      "type": "error"
    },
    {
      "anonymous": false,
      "inputs": [
        {
          "indexed": false,
          "internalType": "bool",
          "name": "success",
          "type": "bool"
        },
        {
          "indexed": false,
          "internalType": "address",
          "name": "avatarAddress",
          "type": "address"
        },
        {
          "indexed": false,
          "internalType": "address",
          "name": "snapshotAddress",
          "type": "address"
        }
      ],
      "name": "Initialized",
      "type": "event"
    },
    {
      "anonymous": false,
      "inputs": [
        {
          "indexed": false,
          "internalType": "uint256",
          "name": "proposalId",
          "type": "uint256"
        }
      ],
      "name": "ProposalCanceled",
      "type": "event"
    },
    {
      "anonymous": false,
      "inputs": [
        {
          "indexed": false,
          "internalType": "uint256",
          "name": "proposalId",
          "type": "uint256"
        },
        {
          "indexed": false,
          "internalType": "address",
          "name": "proposer",
          "type": "address"
        },
        {
          "indexed": false,
          "internalType": "address[]",
          "name": "targets",
          "type": "address[]"
        },
        {
          "indexed": false,
          "internalType": "uint256[]",
          "name": "values",
          "type": "uint256[]"
        },
        {
          "indexed": false,
          "internalType": "bytes[]",
          "name": "calldatas",
          "type": "bytes[]"
        },
        {
          "indexed": false,
          "internalType": "uint256",
          "name": "startBlock",
          "type": "uint256"
        },
        {
          "indexed": false,
          "internalType": "uint256",
          "name": "endBlock",
          "type": "uint256"
        }
      ],
      "name": "ProposalCreated",
      "type": "event"
    },
    {
      "anonymous": false,
      "inputs": [
        {
          "indexed": false,
          "internalType": "uint256",
          "name": "proposalId",
          "type": "uint256"
        }
      ],
      "name": "ProposalExecuted",
      "type": "event"
    },
    {
      "inputs": [],
      "name": "GUARDIANS_LIMIT",
      "outputs": [
        {
          "internalType": "uint256",
          "name": "",
          "type": "uint256"
        }
      ],
      "stateMutability": "view",
      "type": "function"
    },
    {
      "inputs": [],
      "name": "_name",
      "outputs": [
        {
          "internalType": "string",
          "name": "",
          "type": "string"
        }
      ],
      "stateMutability": "view",
      "type": "function"
    },
    {
      "inputs": [
        {
          "internalType": "address",
          "name": "guardian",
          "type": "address"
        }
      ],
      "name": "addGuardian",
      "outputs": [],
      "stateMutability": "nonpayable",
      "type": "function"
    },
    {
      "inputs": [],
      "name": "avatarAddress",
      "outputs": [
        {
          "internalType": "address",
          "name": "",
          "type": "address"
        }
      ],
      "stateMutability": "view",
      "type": "function"
    },
    {
      "inputs": [
        {
          "internalType": "uint256",
          "name": "proposalId",
          "type": "uint256"
        }
      ],
      "name": "cancel",
      "outputs": [],
      "stateMutability": "nonpayable",
      "type": "function"
    },
    {
      "inputs": [
        {
          "internalType": "uint256",
          "name": "",
          "type": "uint256"
        },
        {
          "internalType": "uint256",
          "name": "",
          "type": "uint256"
        }
      ],
      "name": "cancellers",
      "outputs": [
        {
          "internalType": "address",
          "name": "",
          "type": "address"
        }
      ],
      "stateMutability": "view",
      "type": "function"
    },
    {
      "inputs": [
        {
          "internalType": "uint256",
          "name": "proposalId",
          "type": "uint256"
        },
        {
          "internalType": "bool",
          "name": "support",
          "type": "bool"
        }
      ],
      "name": "castVote",
      "outputs": [],
      "stateMutability": "nonpayable",
      "type": "function"
    },
    {
      "inputs": [
        {
          "internalType": "uint256",
          "name": "proposalId",
          "type": "uint256"
        }
      ],
      "name": "castVoteForCancelling",
      "outputs": [],
      "stateMutability": "nonpayable",
      "type": "function"
    },
    {
      "inputs": [
        {
          "internalType": "uint256",
          "name": "current",
          "type": "uint256"
        },
        {
          "internalType": "address",
          "name": "newGuardian",
          "type": "address"
        }
      ],
      "name": "changeGuardian",
      "outputs": [],
      "stateMutability": "nonpayable",
      "type": "function"
    },
    {
      "inputs": [
        {
          "internalType": "address[]",
          "name": "targets",
          "type": "address[]"
        },
        {
          "internalType": "uint256[]",
          "name": "values",
          "type": "uint256[]"
        },
        {
          "internalType": "bytes[]",
          "name": "calldatas",
          "type": "bytes[]"
        }
      ],
      "name": "execute",
      "outputs": [
        {
          "internalType": "uint256",
          "name": "",
          "type": "uint256"
        }
      ],
      "stateMutability": "nonpayable",
      "type": "function"
    },
    {
      "inputs": [
        {
          "internalType": "uint256",
          "name": "",
          "type": "uint256"
        }
      ],
      "name": "guardians",
      "outputs": [
        {
          "internalType": "address",
          "name": "",
          "type": "address"
        }
      ],
      "stateMutability": "view",
      "type": "function"
    },
    {
      "inputs": [
        {
          "internalType": "address[]",
          "name": "targets",
          "type": "address[]"
        },
        {
          "internalType": "uint256[]",
          "name": "values",
          "type": "uint256[]"
        },
        {
          "internalType": "bytes[]",
          "name": "calldatas",
          "type": "bytes[]"
        }
      ],
      "name": "hashProposal",
      "outputs": [
        {
          "internalType": "uint256",
          "name": "",
          "type": "uint256"
        }
      ],
      "stateMutability": "pure",
      "type": "function"
    },
    {
      "inputs": [
        {
          "internalType": "address",
          "name": "AMORxGuild_",
          "type": "address"
        },
        {
          "internalType": "address",
          "name": "snapshotAddress_",
          "type": "address"
        },
        {
          "internalType": "address",
          "name": "avatarAddress_",
          "type": "address"
        }
      ],
      "name": "init",
      "outputs": [
        {
          "internalType": "bool",
          "name": "",
          "type": "bool"
        }
      ],
      "stateMutability": "nonpayable",
      "type": "function"
    },
    {
      "inputs": [
        {
          "internalType": "uint256",
          "name": "",
          "type": "uint256"
        }
      ],
      "name": "proposalCancelApproval",
      "outputs": [
        {
          "internalType": "int256",
          "name": "",
          "type": "int256"
        }
      ],
      "stateMutability": "view",
      "type": "function"
    },
    {
      "inputs": [],
      "name": "proposalMaxOperations",
      "outputs": [
        {
          "internalType": "uint256",
          "name": "",
          "type": "uint256"
        }
      ],
      "stateMutability": "view",
      "type": "function"
    },
    {
      "inputs": [
        {
          "internalType": "uint256",
          "name": "",
          "type": "uint256"
        }
      ],
      "name": "proposalVoting",
      "outputs": [
        {
          "internalType": "int256",
          "name": "",
          "type": "int256"
        }
      ],
      "stateMutability": "view",
      "type": "function"
    },
    {
      "inputs": [
        {
          "internalType": "uint256",
          "name": "",
          "type": "uint256"
        }
      ],
      "name": "proposalWeight",
      "outputs": [
        {
          "internalType": "int256",
          "name": "",
          "type": "int256"
        }
      ],
      "stateMutability": "view",
      "type": "function"
    },
    {
      "inputs": [
        {
          "internalType": "uint256",
          "name": "",
          "type": "uint256"
        }
      ],
      "name": "proposals",
      "outputs": [
        {
          "internalType": "uint256",
          "name": "",
          "type": "uint256"
        }
      ],
      "stateMutability": "view",
      "type": "function"
    },
    {
      "inputs": [
        {
          "internalType": "address[]",
          "name": "targets",
          "type": "address[]"
        },
        {
          "internalType": "uint256[]",
          "name": "values",
          "type": "uint256[]"
        },
        {
          "internalType": "bytes[]",
          "name": "calldatas",
          "type": "bytes[]"
        }
      ],
      "name": "propose",
      "outputs": [
        {
          "internalType": "uint256",
          "name": "",
          "type": "uint256"
        }
      ],
      "stateMutability": "nonpayable",
      "type": "function"
    },
    {
      "inputs": [
        {
          "internalType": "address",
          "name": "guardian",
          "type": "address"
        }
      ],
      "name": "removeGuardian",
      "outputs": [],
      "stateMutability": "nonpayable",
      "type": "function"
    },
    {
      "inputs": [
        {
          "internalType": "address[]",
          "name": "arrGuardians",
          "type": "address[]"
        }
      ],
      "name": "setGuardians",
      "outputs": [],
      "stateMutability": "nonpayable",
      "type": "function"
    },
    {
      "inputs": [],
      "name": "snapshotAddress",
      "outputs": [
        {
          "internalType": "address",
          "name": "",
          "type": "address"
        }
      ],
      "stateMutability": "view",
      "type": "function"
    },
    {
      "inputs": [
        {
          "internalType": "uint256",
          "name": "proposalId",
          "type": "uint256"
        }
      ],
      "name": "state",
      "outputs": [
        {
          "internalType": "enum DoinGudGovernor.ProposalState",
          "name": "",
          "type": "uint8"
        }
      ],
      "stateMutability": "view",
      "type": "function"
    },
    {
      "inputs": [],
      "name": "token",
      "outputs": [
        {
          "internalType": "contract IVotes",
          "name": "",
          "type": "address"
        }
      ],
      "stateMutability": "view",
      "type": "function"
    },
    {
      "inputs": [
        {
          "internalType": "uint256",
          "name": "",
          "type": "uint256"
        },
        {
          "internalType": "uint256",
          "name": "",
          "type": "uint256"
        }
      ],
      "name": "voters",
      "outputs": [
        {
          "internalType": "address",
          "name": "",
          "type": "address"
        }
      ],
      "stateMutability": "view",
      "type": "function"
    },
    {
      "inputs": [],
      "name": "votingDelay",
      "outputs": [
        {
          "internalType": "uint256",
          "name": "",
          "type": "uint256"
        }
      ],
      "stateMutability": "view",
      "type": "function"
    },
    {
      "inputs": [],
      "name": "votingPeriod",
      "outputs": [
        {
          "internalType": "uint256",
          "name": "",
          "type": "uint256"
        }
      ],
      "stateMutability": "view",
      "type": "function"
    },
    {
      "inputs": [
        {
          "internalType": "address",
          "name": "",
          "type": "address"
        }
      ],
      "name": "weights",
      "outputs": [
        {
          "internalType": "uint256",
          "name": "",
          "type": "uint256"
        }
      ],
      "stateMutability": "view",
      "type": "function"
    }
  ],
  "bytecode": "0x60a0604052600a6000553480156200001657600080fd5b5060405162002d7038038062002d708339810160408190526200003991620000b5565b6001600160a01b038216608052600e62000054828262000244565b5050600980546001810182556000919091527f6e1540171b6c0c960b71a7020d9f60077f6af931a8bbf590da0223dacf75c7af0180546001600160a01b031916331790555062000310565b634e487b7160e01b600052604160045260246000fd5b60008060408385031215620000c957600080fd5b82516001600160a01b0381168114620000e157600080fd5b602084810151919350906001600160401b03808211156200010157600080fd5b818601915086601f8301126200011657600080fd5b8151818111156200012b576200012b6200009f565b604051601f8201601f19908116603f011681019083821181831017156200015657620001566200009f565b8160405282815289868487010111156200016f57600080fd5b600093505b8284101562000193578484018601518185018701529285019262000174565b82841115620001a55760008684830101525b8096505050505050509250929050565b600181811c90821680620001ca57607f821691505b602082108103620001eb57634e487b7160e01b600052602260045260246000fd5b50919050565b601f8211156200023f57600081815260208120601f850160051c810160208610156200021a5750805b601f850160051c820191505b818110156200023b5782815560010162000226565b5050505b505050565b81516001600160401b038111156200026057620002606200009f565b6200027881620002718454620001b5565b84620001f1565b602080601f831160018114620002b05760008415620002975750858301515b600019600386901b1c1916600185901b1785556200023b565b600085815260208120601f198616915b82811015620002e157888601518255948401946001909101908401620002c0565b5085821015620003005787850151600019600388901b60f8161c191681555b5050505050600190811b01905550565b608051612a446200032c600039600061044c0152612a446000f3fe608060405234801561001057600080fd5b50600436106101c45760003560e01c80637bdbe4d0116100f9578063bbd0a19f11610097578063f047435011610071578063f047435014610401578063f560c73414610421578063fba00cbd14610434578063fc0c546a1461044757600080fd5b8063bbd0a19f146103b9578063c51a62ea146103cc578063d28d8852146103ec57600080fd5b8063a516a5bf116100d3578063a516a5bf14610360578063a526d83b14610373578063a7cac84614610386578063a8f84259146103a657600080fd5b80637bdbe4d01461033157806380b884df1461033a5780639b70dec31461034d57600080fd5b80634d383176116101665780635459f179116101405780635459f179146102d85780635cb782fe146102f857806367d784981461030b578063714041561461031e57600080fd5b80634d3831761461026a57806351e9cb8d146102af578063532dea6a146102b857600080fd5b8063184b9559116101a2578063184b95591461020c5780633932abb11461022f5780633e4f49e61461023757806340e58ee51461025757600080fd5b8063013cf08b146101c957806302a251a3146101ef57806315373e3d146101f7575b600080fd5b6101dc6101d7366004611f72565b61046e565b6040519081526020015b60405180910390f35b6011546101dc565b61020a610205366004611f99565b61048f565b005b61021f61021a366004611ff2565b61074a565b60405190151581526020016101e6565b6010546101dc565b61024a610245366004611f72565b610871565b6040516101e69190612064565b61020a610265366004611f72565b6109c5565b600c5461028a9073ffffffffffffffffffffffffffffffffffffffff1681565b60405173ffffffffffffffffffffffffffffffffffffffff90911681526020016101e6565b6101dc60085481565b6101dc6102c6366004611f72565b60026020526000908152604090205481565b6101dc6102e6366004611f72565b60066020526000908152604090205481565b61020a61030636600461207e565b610c58565b61028a6103193660046120aa565b610df9565b61020a61032c3660046120cc565b610e3e565b6101dc60005481565b61020a610348366004611f72565b611037565b61020a61035b366004612202565b6112c5565b6101dc61036e366004612341565b61177c565b61020a6103813660046120cc565b6119be565b6101dc6103943660046120cc565b600a6020526000908152604090205481565b6101dc6103b4366004612341565b611b22565b6101dc6103c7366004612341565b611e0a565b600b5461028a9073ffffffffffffffffffffffffffffffffffffffff1681565b6103f4611e5f565b6040516101e69190612488565b6101dc61040f366004611f72565b60076020526000908152604090205481565b61028a61042f366004611f72565b611eed565b61028a6104423660046120aa565b611f24565b61028a7f000000000000000000000000000000000000000000000000000000000000000081565b6004818154811061047e57600080fd5b600091825260209091200154905081565b336000908152600a602052604081205490036104d7576040517f82b4290000000000000000000000000000000000000000000000000000000000815260040160405180910390fd5b6000828152600160208190526040909120906104f284610871565b600581111561050357610503612035565b1461053a576040517fbaf3f0f700000000000000000000000000000000000000000000000000000000815260040160405180910390fd5b600d546040517f70a0823100000000000000000000000000000000000000000000000000000000815233600482015260009173ffffffffffffffffffffffffffffffffffffffff16906370a0823190602401602060405180830381865afa1580156105a9573d6000803e3d6000fd5b505050506040513d601f19601f820116820180604052508101906105cd919061249b565b1115610605576040517f2c5211c600000000000000000000000000000000000000000000000000000000815260040160405180910390fd5b60005b6000848152600560205260409020548110156106ac576000848152600560205260409020805433919083908110610641576106416124b4565b60009182526020909120015473ffffffffffffffffffffffffffffffffffffffff160361069a576040517f7c9a1cf900000000000000000000000000000000000000000000000000000000815260040160405180910390fd5b806106a481612512565b915050610608565b5060008381526007602052604081208054600192906106cc90849061254a565b90915550508115156001036107005760008381526006602052604081208054600192906106fa90849061254a565b90915550505b505060009081526005602090815260408220805460018101825590835291200180547fffffffffffffffffffffffff00000000000000000000000000000000000000001633179055565b600f5460009060ff161561078a576040517f0dc149f000000000000000000000000000000000000000000000000000000000815260040160405180910390fd5b600d805473ffffffffffffffffffffffffffffffffffffffff8681167fffffffffffffffffffffffff000000000000000000000000000000000000000092831617909255600b80548684169083168117909155600c8054938616939092168317909155600f80547fffffffffffffffffffffffffffffffffffffffffffffffffffffffffffffff00166001908117909155601081905562127500601155604080519182526020820193909352918201527fc87c04922c077302cf4c93ca0785707d2272b98c125c11c3c98f545718f3e27c9060600160405180910390a15060019392505050565b6000818152600160205260408120805482036108ed576040517f08c379a000000000000000000000000000000000000000000000000000000000815260206004820152601d60248201527f476f7665726e6f723a20756e6b6e6f776e2070726f706f73616c206964000000604482015260640160405180910390fd5b6002810154610100900460ff16156109085750600292915050565b805442116109195750600092915050565b6000838152600160208190526040909120810154908201544211610941575060019392505050565b600954600085815260066020526040902054601491906109629060646125be565b61096c91906126a9565b121580156109ac57506000848152600760209081526040808320546006909252909120546033919061099f9060646125be565b6109a991906126a9565b12155b156109bb575060049392505050565b5060039392505050565b60006109d082610871565b905060018160058111156109e6576109e6612035565b14610a1d576040517fbaf3f0f700000000000000000000000000000000000000000000000000000000815260040160405180910390fd5b600954606490610a2e906014612711565b610a38919061274e565b6000838152600260205260409020541280610a5f5750600082815260026020526040902054155b15610a96576040517f53a0ee7800000000000000000000000000000000000000000000000000000000815260040160405180910390fd5b600082815260016020526040812060020180547fffffffffffffffffffffffffffffffffffffffffffffffffffffffffffff00ff166101001790555b600454811015610b88578260048281548110610af057610af06124b4565b906000526020600020015403610b765760048054610b1090600190612762565b81548110610b2057610b206124b4565b906000526020600020015460048281548110610b3e57610b3e6124b4565b6000918252602090912001556004805480610b5b57610b5b612779565b60019003818190600052602060002001600090559055610b88565b80610b8081612512565b915050610ad2565b5060008281526007602090815260408083208390556006825280832083905560059091528120610bb791611f40565b6000828152600360205260408120610bce91611f40565b6000828152600260208181526040808420849055600191829052808420848155918201939093550180547fffffffffffffffffffffffffffffffffffffffffffffffffffffffffffff0000169055517f789cf55be980739dad1d0699b93b58e806b51c9d96619bfa8fe0a28abaa7b30c90610c4c9084815260200190565b60405180910390a15050565b600b5473ffffffffffffffffffffffffffffffffffffffff163314610ca9576040517f82b4290000000000000000000000000000000000000000000000000000000000815260040160405180910390fd5b60005b600954811015610d395760098181548110610cc957610cc96124b4565b60009182526020909120015473ffffffffffffffffffffffffffffffffffffffff90811690831603610d27576040517fe523909000000000000000000000000000000000000000000000000000000000815260040160405180910390fd5b80610d3181612512565b915050610cac565b508060098381548110610d4e57610d4e6124b4565b9060005260206000200160006101000a81548173ffffffffffffffffffffffffffffffffffffffff021916908373ffffffffffffffffffffffffffffffffffffffff160217905550600a600060098481548110610dad57610dad6124b4565b600091825260208083209091015473ffffffffffffffffffffffffffffffffffffffff90811684528382019490945260409283018220829055939092168252600a909252206001905550565b60036020528160005260406000208181548110610e1557600080fd5b60009182526020909120015473ffffffffffffffffffffffffffffffffffffffff169150829050565b600b5473ffffffffffffffffffffffffffffffffffffffff163314610e8f576040517f82b4290000000000000000000000000000000000000000000000000000000000815260040160405180910390fd5b60005b600954811015611033578173ffffffffffffffffffffffffffffffffffffffff1660098281548110610ec657610ec66124b4565b60009182526020909120015473ffffffffffffffffffffffffffffffffffffffff16036110215760098054610efd90600190612762565b81548110610f0d57610f0d6124b4565b6000918252602090912001546009805473ffffffffffffffffffffffffffffffffffffffff9092169183908110610f4657610f466124b4565b9060005260206000200160006101000a81548173ffffffffffffffffffffffffffffffffffffffff021916908373ffffffffffffffffffffffffffffffffffffffff1602179055506009805480610f9f57610f9f612779565b6000828152602080822083017fffffffffffffffffffffffffffffffffffffffffffffffffffffffffffffffff90810180547fffffffffffffffffffffffff000000000000000000000000000000000000000016905590920190925573ffffffffffffffffffffffffffffffffffffffff84168252600a905260408120555050565b8061102b81612512565b915050610e92565b5050565b336000908152600a6020526040812054900361107f576040517f82b4290000000000000000000000000000000000000000000000000000000000815260040160405180910390fd5b60008181526001602052604081209061109783610871565b905060018160058111156110ad576110ad612035565b146110e4576040517fbaf3f0f700000000000000000000000000000000000000000000000000000000815260040160405180910390fd5b600d546040517f70a0823100000000000000000000000000000000000000000000000000000000815233600482015260009173ffffffffffffffffffffffffffffffffffffffff16906370a0823190602401602060405180830381865afa158015611153573d6000803e3d6000fd5b505050506040513d601f19601f82011682018060405250810190611177919061249b565b11156111af576040517f2c5211c600000000000000000000000000000000000000000000000000000000815260040160405180910390fd5b60005b6000848152600360205260409020548110156112565760008481526003602052604090208054339190839081106111eb576111eb6124b4565b60009182526020909120015473ffffffffffffffffffffffffffffffffffffffff1603611244576040517f7c9a1cf900000000000000000000000000000000000000000000000000000000815260040160405180910390fd5b8061124e81612512565b9150506111b2565b50600083815260026020526040812080546001929061127690849061254a565b9091555050506000918252506003602090815260408220805460018101825590835291200180547fffffffffffffffffffffffff00000000000000000000000000000000000000001633179055565b600b5473ffffffffffffffffffffffffffffffffffffffff163314611316576040517f82b4290000000000000000000000000000000000000000000000000000000000815260040160405180910390fd5b8051600003611351576040517fe523909000000000000000000000000000000000000000000000000000000000815260040160405180910390fd5b8051600954101561158e5760005b60095481101561149a57600a600060098381548110611380576113806124b4565b600091825260208083209091015473ffffffffffffffffffffffffffffffffffffffff16835282019290925260400181205581518290829081106113c6576113c66124b4565b6020026020010151600982815481106113e1576113e16124b4565b9060005260206000200160006101000a81548173ffffffffffffffffffffffffffffffffffffffff021916908373ffffffffffffffffffffffffffffffffffffffff1602179055506001600a6000848481518110611441576114416124b4565b602002602001015173ffffffffffffffffffffffffffffffffffffffff1673ffffffffffffffffffffffffffffffffffffffff16815260200190815260200160002081905550808061149290612512565b91505061135f565b506009545b81518110156110335760098282815181106114bc576114bc6124b4565b60209081029190910181015182546001808201855560009485529284200180547fffffffffffffffffffffffff00000000000000000000000000000000000000001673ffffffffffffffffffffffffffffffffffffffff90921691909117905583519091600a91859085908110611535576115356124b4565b602002602001015173ffffffffffffffffffffffffffffffffffffffff1673ffffffffffffffffffffffffffffffffffffffff16815260200190815260200160002081905550808061158690612512565b91505061149f565b60005b81518110156116cb57600a6000600983815481106115b1576115b16124b4565b600091825260208083209091015473ffffffffffffffffffffffffffffffffffffffff16835282019290925260400181205581518290829081106115f7576115f76124b4565b602002602001015160098281548110611612576116126124b4565b9060005260206000200160006101000a81548173ffffffffffffffffffffffffffffffffffffffff021916908373ffffffffffffffffffffffffffffffffffffffff1602179055506001600a6000848481518110611672576116726124b4565b602002602001015173ffffffffffffffffffffffffffffffffffffffff1673ffffffffffffffffffffffffffffffffffffffff1681526020019081526020016000208190555080806116c390612512565b915050611591565b5080515b60095481101561103357600981815481106116ec576116ec6124b4565b6000918252602082200180547fffffffffffffffffffffffff000000000000000000000000000000000000000016905560098054600a92919084908110611735576117356124b4565b600091825260208083209091015473ffffffffffffffffffffffffffffffffffffffff1683528201929092526040018120558061177181612512565b9150506116cf565b50565b60008061178a858585611e0a565b9050600061179782610871565b905060048160058111156117ad576117ad612035565b146117e4576040517fbaf3f0f700000000000000000000000000000000000000000000000000000000815260040160405180910390fd5b60005b865181101561191157600c54875160009173ffffffffffffffffffffffffffffffffffffffff1690634ed2c963908a9085908110611827576118276124b4565b6020026020010151898581518110611841576118416124b4565b602002602001015189868151811061185b5761185b6124b4565b602002602001015160006040518563ffffffff1660e01b815260040161188494939291906127a8565b6020604051808303816000875af11580156118a3573d6000803e3d6000fd5b505050506040513d601f19601f820116820180604052508101906118c791906127fe565b905080611900576040517fc5df25a600000000000000000000000000000000000000000000000000000000815260040160405180910390fd5b5061190a81612512565b90506117e7565b506040518281527f712ae1383f79ac853f8d882153778e0260ef8f03b504e2866e0593e04d2b291f9060200160405180910390a16000828152600160208181526040808420848155928301849055600290920180547fffffffffffffffffffffffffffffffffffffffffffffffffffffffffffff000016905560059052812061199991611f40565b5060008181526006602090815260408083208390556007909152812055949350505050565b600b5473ffffffffffffffffffffffffffffffffffffffff163314611a0f576040517f82b4290000000000000000000000000000000000000000000000000000000000815260040160405180910390fd5b60005b600954811015611a9f5760098181548110611a2f57611a2f6124b4565b60009182526020909120015473ffffffffffffffffffffffffffffffffffffffff90811690831603611a8d576040517fe523909000000000000000000000000000000000000000000000000000000000815260040160405180910390fd5b80611a9781612512565b915050611a12565b506009805460018181019092557f6e1540171b6c0c960b71a7020d9f60077f6af931a8bbf590da0223dacf75c7af01805473ffffffffffffffffffffffffffffffffffffffff9093167fffffffffffffffffffffffff0000000000000000000000000000000000000000909316831790556000918252600a602052604090912055565b600b5460009073ffffffffffffffffffffffffffffffffffffffff163314611b76576040517f82b4290000000000000000000000000000000000000000000000000000000000815260040160405180910390fd5b82518451148015611b88575081518451145b611bbe576040517fe523909000000000000000000000000000000000000000000000000000000000815260040160405180910390fd5b8351600003611bf9576040517fe523909000000000000000000000000000000000000000000000000000000000815260040160405180910390fd5b60005484511115611c36576040517fe523909000000000000000000000000000000000000000000000000000000000815260040160405180910390fd5b6000611c43858585611e0a565b600081815260016020526040902080549192509015611c8e576040517fbaf3f0f700000000000000000000000000000000000000000000000000000000815260040160405180910390fd5b600060105442611c9e919061281b565b9050600060115482611cb0919061281b565b82845560018085018281556000878152600660209081526040808320839055600782528083208390559084905280822088548155925483850155600280890180549190940180547fffffffffffffffffffffffffffffffffffffffffffffffffffffffffffffff00811660ff9384161515908117835595547fffffffffffffffffffffffffffffffffffffffffffffffffffffffffffff00009091167fffffffffffffffffffffffffffffffffffffffffffffffffffffffffffff00ff909616959095176101009586900490921615159094021790925560048054938401815590527f8a35acfbc15ff81a39ae7d344fd709f28e8600b4aa8c65c6b64bfe7fe36bd19b909101869055519091507fa2366c4f1e103949cc41bc8117f334969890a670cfe1bbc5f09eb8ceaac0bae090611df690869033908c908c908c9089908990612906565b60405180910390a150919695505050505050565b6000838383604051602001611e2193929190612978565b604080517fffffffffffffffffffffffffffffffffffffffffffffffffffffffffffffffe08184030181529190528051602090910120949350505050565b600e8054611e6c906129bb565b80601f0160208091040260200160405190810160405280929190818152602001828054611e98906129bb565b8015611ee55780601f10611eba57610100808354040283529160200191611ee5565b820191906000526020600020905b815481529060010190602001808311611ec857829003601f168201915b505050505081565b60098181548110611efd57600080fd5b60009182526020909120015473ffffffffffffffffffffffffffffffffffffffff16905081565b60056020528160005260406000208181548110610e1557600080fd5b508054600082559060005260206000209081019061177991905b80821115611f6e5760008155600101611f5a565b5090565b600060208284031215611f8457600080fd5b5035919050565b801515811461177957600080fd5b60008060408385031215611fac57600080fd5b823591506020830135611fbe81611f8b565b809150509250929050565b803573ffffffffffffffffffffffffffffffffffffffff81168114611fed57600080fd5b919050565b60008060006060848603121561200757600080fd5b61201084611fc9565b925061201e60208501611fc9565b915061202c60408501611fc9565b90509250925092565b7f4e487b7100000000000000000000000000000000000000000000000000000000600052602160045260246000fd5b602081016006831061207857612078612035565b91905290565b6000806040838503121561209157600080fd5b823591506120a160208401611fc9565b90509250929050565b600080604083850312156120bd57600080fd5b50508035926020909101359150565b6000602082840312156120de57600080fd5b6120e782611fc9565b9392505050565b7f4e487b7100000000000000000000000000000000000000000000000000000000600052604160045260246000fd5b604051601f82017fffffffffffffffffffffffffffffffffffffffffffffffffffffffffffffffe016810167ffffffffffffffff81118282101715612164576121646120ee565b604052919050565b600067ffffffffffffffff821115612186576121866120ee565b5060051b60200190565b600082601f8301126121a157600080fd5b813560206121b66121b18361216c565b61211d565b82815260059290921b840181019181810190868411156121d557600080fd5b8286015b848110156121f7576121ea81611fc9565b83529183019183016121d9565b509695505050505050565b60006020828403121561221457600080fd5b813567ffffffffffffffff81111561222b57600080fd5b61223784828501612190565b949350505050565b6000601f838184011261225157600080fd5b823560206122616121b18361216c565b82815260059290921b8501810191818101908784111561228057600080fd5b8287015b8481101561233557803567ffffffffffffffff808211156122a55760008081fd5b818a0191508a603f8301126122ba5760008081fd5b858201356040828211156122d0576122d06120ee565b6122ff887fffffffffffffffffffffffffffffffffffffffffffffffffffffffffffffffe08c8501160161211d565b92508183528c818386010111156123165760008081fd5b8181850189850137506000908201870152845250918301918301612284565b50979650505050505050565b60008060006060848603121561235657600080fd5b833567ffffffffffffffff8082111561236e57600080fd5b61237a87838801612190565b945060209150818601358181111561239157600080fd5b8601601f810188136123a257600080fd5b80356123b06121b18261216c565b81815260059190911b8201840190848101908a8311156123cf57600080fd5b928501925b828410156123ed578335825292850192908501906123d4565b9650505050604086013591508082111561240657600080fd5b506124138682870161223f565b9150509250925092565b6000815180845260005b8181101561244357602081850181015186830182015201612427565b81811115612455576000602083870101525b50601f017fffffffffffffffffffffffffffffffffffffffffffffffffffffffffffffffe0169290920160200192915050565b6020815260006120e7602083018461241d565b6000602082840312156124ad57600080fd5b5051919050565b7f4e487b7100000000000000000000000000000000000000000000000000000000600052603260045260246000fd5b7f4e487b7100000000000000000000000000000000000000000000000000000000600052601160045260246000fd5b60007fffffffffffffffffffffffffffffffffffffffffffffffffffffffffffffffff8203612543576125436124e3565b5060010190565b6000808212827f7fffffffffffffffffffffffffffffffffffffffffffffffffffffffffffffff03841381151615612584576125846124e3565b827f80000000000000000000000000000000000000000000000000000000000000000384128116156125b8576125b86124e3565b50500190565b60007f7fffffffffffffffffffffffffffffffffffffffffffffffffffffffffffffff6000841360008413858304851182821616156125ff576125ff6124e3565b7f8000000000000000000000000000000000000000000000000000000000000000600087128682058812818416161561263a5761263a6124e3565b60008712925087820587128484161615612656576126566124e3565b8785058712818416161561266c5761266c6124e3565b505050929093029392505050565b7f4e487b7100000000000000000000000000000000000000000000000000000000600052601260045260246000fd5b6000826126b8576126b861267a565b7fffffffffffffffffffffffffffffffffffffffffffffffffffffffffffffffff83147f80000000000000000000000000000000000000000000000000000000000000008314161561270c5761270c6124e3565b500590565b6000817fffffffffffffffffffffffffffffffffffffffffffffffffffffffffffffffff0483118215151615612749576127496124e3565b500290565b60008261275d5761275d61267a565b500490565b600082821015612774576127746124e3565b500390565b7f4e487b7100000000000000000000000000000000000000000000000000000000600052603160045260246000fd5b73ffffffffffffffffffffffffffffffffffffffff851681528360208201526080604082015260006127dd608083018561241d565b9050600283106127ef576127ef612035565b82606083015295945050505050565b60006020828403121561281057600080fd5b81516120e781611f8b565b6000821982111561282e5761282e6124e3565b500190565b600081518084526020808501945080840160005b8381101561287957815173ffffffffffffffffffffffffffffffffffffffff1687529582019590820190600101612847565b509495945050505050565b600081518084526020808501945080840160005b8381101561287957815187529582019590820190600101612898565b6000815180845260208085019450848260051b860182860160005b858110156128f95783830389526128e783835161241d565b988501989250908401906001016128cf565b5090979650505050505050565b87815273ffffffffffffffffffffffffffffffffffffffff8716602082015260e06040820152600061293b60e0830188612833565b828103606084015261294d8188612884565b9050828103608084015261296181876128b4565b60a0840195909552505060c0015295945050505050565b60608152600061298b6060830186612833565b828103602084015261299d8186612884565b905082810360408401526129b181856128b4565b9695505050505050565b600181811c908216806129cf57607f821691505b602082108103612a08577f4e487b7100000000000000000000000000000000000000000000000000000000600052602260045260246000fd5b5091905056fea2646970667358221220e905f9a58421b111381e3fd459147b580402be6b50660509f5c53ac07900244464736f6c634300080f0033",
  "linkReferences": {},
  "deployedLinkReferences": {}
}