{
  "_format": "hh-sol-artifact-1",
  "contractName": "DoinGudGovernor",
  "sourceName": "contracts/Governor.sol",
  "abi": [
    {
      "inputs": [],
      "name": "AlreadyInitialized",
      "type": "error"
    },
    {
      "inputs": [],
      "name": "AlreadyVoted",
      "type": "error"
    },
    {
      "inputs": [],
      "name": "CancelNotApproved",
      "type": "error"
    },
    {
      "inputs": [],
      "name": "InvalidAmount",
      "type": "error"
    },
    {
      "inputs": [],
      "name": "InvalidParameters",
      "type": "error"
    },
    {
      "inputs": [],
      "name": "InvalidState",
      "type": "error"
    },
    {
      "inputs": [],
      "name": "NotEnoughGuardians",
      "type": "error"
    },
    {
      "inputs": [],
      "name": "ProposalNotExists",
      "type": "error"
    },
    {
      "inputs": [],
      "name": "Unauthorized",
      "type": "error"
    },
    {
      "inputs": [],
      "name": "UnderlyingTransactionReverted",
      "type": "error"
    },
    {
      "inputs": [],
      "name": "VotingTimeExpired",
      "type": "error"
    },
    {
      "anonymous": false,
      "inputs": [
        {
          "indexed": false,
          "internalType": "bool",
          "name": "success",
          "type": "bool"
        },
        {
          "indexed": false,
          "internalType": "address",
          "name": "avatarAddress",
          "type": "address"
        },
        {
          "indexed": false,
          "internalType": "address",
          "name": "snapshotAddress",
          "type": "address"
        }
      ],
      "name": "Initialized",
      "type": "event"
    },
    {
      "anonymous": false,
      "inputs": [
        {
          "indexed": false,
          "internalType": "uint256",
          "name": "proposalId",
          "type": "uint256"
        }
      ],
      "name": "ProposalCanceled",
      "type": "event"
    },
    {
      "anonymous": false,
      "inputs": [
        {
          "indexed": false,
          "internalType": "uint256",
          "name": "proposalId",
          "type": "uint256"
        },
        {
          "indexed": false,
          "internalType": "address",
          "name": "proposer",
          "type": "address"
        },
        {
          "indexed": false,
          "internalType": "address[]",
          "name": "targets",
          "type": "address[]"
        },
        {
          "indexed": false,
          "internalType": "uint256[]",
          "name": "values",
          "type": "uint256[]"
        },
        {
          "indexed": false,
          "internalType": "bytes[]",
          "name": "calldatas",
          "type": "bytes[]"
        },
        {
          "indexed": false,
          "internalType": "uint256",
          "name": "startBlock",
          "type": "uint256"
        },
        {
          "indexed": false,
          "internalType": "uint256",
          "name": "endBlock",
          "type": "uint256"
        }
      ],
      "name": "ProposalCreated",
      "type": "event"
    },
    {
      "anonymous": false,
      "inputs": [
        {
          "indexed": false,
          "internalType": "uint256",
          "name": "proposalId",
          "type": "uint256"
        }
      ],
      "name": "ProposalExecuted",
      "type": "event"
    },
    {
      "inputs": [],
      "name": "GUARDIANS_LIMIT",
      "outputs": [
        {
          "internalType": "uint256",
          "name": "",
          "type": "uint256"
        }
      ],
      "stateMutability": "view",
      "type": "function"
    },
    {
      "inputs": [],
      "name": "_name",
      "outputs": [
        {
          "internalType": "string",
          "name": "",
          "type": "string"
        }
      ],
      "stateMutability": "view",
      "type": "function"
    },
    {
      "inputs": [
        {
          "internalType": "address",
          "name": "guardian",
          "type": "address"
        }
      ],
      "name": "addGuardian",
      "outputs": [],
      "stateMutability": "nonpayable",
      "type": "function"
    },
    {
      "inputs": [],
      "name": "avatarAddress",
      "outputs": [
        {
          "internalType": "address",
          "name": "",
          "type": "address"
        }
      ],
      "stateMutability": "view",
      "type": "function"
    },
    {
      "inputs": [
        {
          "internalType": "uint256",
          "name": "proposalId",
          "type": "uint256"
        }
      ],
      "name": "cancel",
      "outputs": [],
      "stateMutability": "nonpayable",
      "type": "function"
    },
    {
      "inputs": [
        {
          "internalType": "uint256",
          "name": "",
          "type": "uint256"
        },
        {
          "internalType": "uint256",
          "name": "",
          "type": "uint256"
        }
      ],
      "name": "cancellers",
      "outputs": [
        {
          "internalType": "address",
          "name": "",
          "type": "address"
        }
      ],
      "stateMutability": "view",
      "type": "function"
    },
    {
      "inputs": [
        {
          "internalType": "uint256",
          "name": "proposalId",
          "type": "uint256"
        },
        {
          "internalType": "bool",
          "name": "support",
          "type": "bool"
        }
      ],
      "name": "castVote",
      "outputs": [],
      "stateMutability": "nonpayable",
      "type": "function"
    },
    {
      "inputs": [
        {
          "internalType": "uint256",
          "name": "proposalId",
          "type": "uint256"
        }
      ],
      "name": "castVoteForCancelling",
      "outputs": [],
      "stateMutability": "nonpayable",
      "type": "function"
    },
    {
      "inputs": [
        {
          "internalType": "uint256",
          "name": "current",
          "type": "uint256"
        },
        {
          "internalType": "address",
          "name": "newGuardian",
          "type": "address"
        }
      ],
      "name": "changeGuardian",
      "outputs": [],
      "stateMutability": "nonpayable",
      "type": "function"
    },
    {
      "inputs": [
        {
          "internalType": "address[]",
          "name": "targets",
          "type": "address[]"
        },
        {
          "internalType": "uint256[]",
          "name": "values",
          "type": "uint256[]"
        },
        {
          "internalType": "bytes[]",
          "name": "calldatas",
          "type": "bytes[]"
        }
      ],
      "name": "execute",
      "outputs": [
        {
          "internalType": "uint256",
          "name": "",
          "type": "uint256"
        }
      ],
      "stateMutability": "nonpayable",
      "type": "function"
    },
    {
      "inputs": [
        {
          "internalType": "uint256",
          "name": "",
          "type": "uint256"
        }
      ],
      "name": "guardians",
      "outputs": [
        {
          "internalType": "address",
          "name": "",
          "type": "address"
        }
      ],
      "stateMutability": "view",
      "type": "function"
    },
    {
      "inputs": [
        {
          "internalType": "address[]",
          "name": "targets",
          "type": "address[]"
        },
        {
          "internalType": "uint256[]",
          "name": "values",
          "type": "uint256[]"
        },
        {
          "internalType": "bytes[]",
          "name": "calldatas",
          "type": "bytes[]"
        }
      ],
      "name": "hashProposal",
      "outputs": [
        {
          "internalType": "uint256",
          "name": "",
          "type": "uint256"
        }
      ],
      "stateMutability": "pure",
      "type": "function"
    },
    {
      "inputs": [
        {
          "internalType": "string",
          "name": "name",
          "type": "string"
        },
        {
          "internalType": "address",
          "name": "AMORxGuild_",
          "type": "address"
        },
        {
          "internalType": "address",
          "name": "snapshotAddress_",
          "type": "address"
        },
        {
          "internalType": "address",
          "name": "avatarAddress_",
          "type": "address"
        }
      ],
      "name": "init",
      "outputs": [
        {
          "internalType": "bool",
          "name": "",
          "type": "bool"
        }
      ],
      "stateMutability": "nonpayable",
      "type": "function"
    },
    {
      "inputs": [
        {
          "internalType": "uint256",
          "name": "",
          "type": "uint256"
        }
      ],
      "name": "proposalCancelApproval",
      "outputs": [
        {
          "internalType": "int256",
          "name": "",
          "type": "int256"
        }
      ],
      "stateMutability": "view",
      "type": "function"
    },
    {
      "inputs": [],
      "name": "proposalMaxOperations",
      "outputs": [
        {
          "internalType": "uint256",
          "name": "",
          "type": "uint256"
        }
      ],
      "stateMutability": "view",
      "type": "function"
    },
    {
      "inputs": [
        {
          "internalType": "uint256",
          "name": "",
          "type": "uint256"
        }
      ],
      "name": "proposalVoting",
      "outputs": [
        {
          "internalType": "int256",
          "name": "",
          "type": "int256"
        }
      ],
      "stateMutability": "view",
      "type": "function"
    },
    {
      "inputs": [
        {
          "internalType": "uint256",
          "name": "",
          "type": "uint256"
        }
      ],
      "name": "proposalWeight",
      "outputs": [
        {
          "internalType": "int256",
          "name": "",
          "type": "int256"
        }
      ],
      "stateMutability": "view",
      "type": "function"
    },
    {
      "inputs": [
        {
          "internalType": "uint256",
          "name": "",
          "type": "uint256"
        }
      ],
      "name": "proposals",
      "outputs": [
        {
          "internalType": "uint256",
          "name": "",
          "type": "uint256"
        }
      ],
      "stateMutability": "view",
      "type": "function"
    },
    {
      "inputs": [
        {
          "internalType": "address[]",
          "name": "targets",
          "type": "address[]"
        },
        {
          "internalType": "uint256[]",
          "name": "values",
          "type": "uint256[]"
        },
        {
          "internalType": "bytes[]",
          "name": "calldatas",
          "type": "bytes[]"
        }
      ],
      "name": "propose",
      "outputs": [
        {
          "internalType": "uint256",
          "name": "",
          "type": "uint256"
        }
      ],
      "stateMutability": "nonpayable",
      "type": "function"
    },
    {
      "inputs": [
        {
          "internalType": "address",
          "name": "guardian",
          "type": "address"
        }
      ],
      "name": "removeGuardian",
      "outputs": [],
      "stateMutability": "nonpayable",
      "type": "function"
    },
    {
      "inputs": [
        {
          "internalType": "address[]",
          "name": "arrGuardians",
          "type": "address[]"
        }
      ],
      "name": "setGuardians",
      "outputs": [],
      "stateMutability": "nonpayable",
      "type": "function"
    },
    {
      "inputs": [],
      "name": "snapshotAddress",
      "outputs": [
        {
          "internalType": "address",
          "name": "",
          "type": "address"
        }
      ],
      "stateMutability": "view",
      "type": "function"
    },
    {
      "inputs": [
        {
          "internalType": "uint256",
          "name": "proposalId",
          "type": "uint256"
        }
      ],
      "name": "state",
      "outputs": [
        {
          "internalType": "enum IDoinGudGovernor.ProposalState",
          "name": "",
          "type": "uint8"
        }
      ],
      "stateMutability": "view",
      "type": "function"
    },
    {
      "inputs": [],
      "name": "token",
      "outputs": [
        {
          "internalType": "contract IVotes",
          "name": "",
          "type": "address"
        }
      ],
      "stateMutability": "view",
      "type": "function"
    },
    {
      "inputs": [
        {
          "internalType": "uint256",
          "name": "",
          "type": "uint256"
        },
        {
          "internalType": "uint256",
          "name": "",
          "type": "uint256"
        }
      ],
      "name": "voters",
      "outputs": [
        {
          "internalType": "address",
          "name": "",
          "type": "address"
        }
      ],
      "stateMutability": "view",
      "type": "function"
    },
    {
      "inputs": [],
      "name": "votingDelay",
      "outputs": [
        {
          "internalType": "uint256",
          "name": "",
          "type": "uint256"
        }
      ],
      "stateMutability": "view",
      "type": "function"
    },
    {
      "inputs": [],
      "name": "votingPeriod",
      "outputs": [
        {
          "internalType": "uint256",
          "name": "",
          "type": "uint256"
        }
      ],
      "stateMutability": "view",
      "type": "function"
    },
    {
      "inputs": [
        {
          "internalType": "address",
          "name": "",
          "type": "address"
        }
      ],
      "name": "weights",
      "outputs": [
        {
          "internalType": "uint256",
          "name": "",
          "type": "uint256"
        }
      ],
      "stateMutability": "view",
      "type": "function"
    }
  ],
  "bytecode": "0x6080604052600a60005534801561001557600080fd5b50612c7a806100256000396000f3fe608060405234801561001057600080fd5b50600436106101c45760003560e01c80637bdbe4d0116100f9578063bbd0a19f11610097578063f047435011610071578063f047435014610401578063f560c73414610421578063fba00cbd14610434578063fc0c546a1461044757600080fd5b8063bbd0a19f146103b9578063c51a62ea146103cc578063d28d8852146103ec57600080fd5b8063a516a5bf116100d3578063a516a5bf14610360578063a526d83b14610373578063a7cac84614610386578063a8f84259146103a657600080fd5b80637bdbe4d01461033157806380b884df1461033a5780639b70dec31461034d57600080fd5b80634d383176116101665780635459f179116101405780635459f179146102d85780635cb782fe146102f857806367d784981461030b578063714041561461031e57600080fd5b80634d3831761461026a57806351e9cb8d146102af578063532dea6a146102b857600080fd5b806315373e3d116101a257806315373e3d1461021a5780633932abb11461022f5780633e4f49e61461023757806340e58ee51461025757600080fd5b8063013cf08b146101c957806302a251a3146101ef5780630bceb974146101f7575b600080fd5b6101dc6101d7366004611ff3565b610467565b6040519081526020015b60405180910390f35b6012546101dc565b61020a610205366004612129565b610488565b60405190151581526020016101e6565b61022d6102283660046121ba565b610637565b005b6011546101dc565b61024a610245366004611ff3565b6108f2565b6040516101e69190612219565b61022d610265366004611ff3565b610a46565b600c5461028a9073ffffffffffffffffffffffffffffffffffffffff1681565b60405173ffffffffffffffffffffffffffffffffffffffff90911681526020016101e6565b6101dc60085481565b6101dc6102c6366004611ff3565b60026020526000908152604090205481565b6101dc6102e6366004611ff3565b60066020526000908152604090205481565b61022d610306366004612233565b610cd9565b61028a61031936600461225f565b610e7a565b61022d61032c366004612281565b610ebf565b6101dc60005481565b61022d610348366004611ff3565b6110b8565b61022d61035b366004612339565b611346565b6101dc61036e36600461240b565b6117fd565b61022d610381366004612281565b611a3f565b6101dc610394366004612281565b600a6020526000908152604090205481565b6101dc6103b436600461240b565b611ba3565b6101dc6103c736600461240b565b611e8b565b600b5461028a9073ffffffffffffffffffffffffffffffffffffffff1681565b6103f4611ee0565b6040516101e69190612552565b6101dc61040f366004611ff3565b60076020526000908152604090205481565b61028a61042f366004611ff3565b611f6e565b61028a61044236600461225f565b611fa5565b600e5461028a9073ffffffffffffffffffffffffffffffffffffffff1681565b6004818154811061047757600080fd5b600091825260209091200154905081565b60105460009060ff16156104c8576040517f0dc149f000000000000000000000000000000000000000000000000000000000815260040160405180910390fd5b600e80547fffffffffffffffffffffffff00000000000000000000000000000000000000001673ffffffffffffffffffffffffffffffffffffffff8616179055600f6105148682612607565b5060098054600180820183556000929092527f6e1540171b6c0c960b71a7020d9f60077f6af931a8bbf590da0223dacf75c7af018054337fffffffffffffffffffffffff000000000000000000000000000000000000000091821617909155600d8054821673ffffffffffffffffffffffffffffffffffffffff88811691909117909155600b80548316878316908117909155600c8054909316918616918217909255601080547fffffffffffffffffffffffffffffffffffffffffffffffffffffffffffffff0016841790556011839055621275006012556040805193845260208401919091528201527fc87c04922c077302cf4c93ca0785707d2272b98c125c11c3c98f545718f3e27c9060600160405180910390a1506001949350505050565b336000908152600a6020526040812054900361067f576040517f82b4290000000000000000000000000000000000000000000000000000000000815260040160405180910390fd5b60008281526001602081905260409091209061069a846108f2565b60058111156106ab576106ab6121ea565b146106e2576040517fbaf3f0f700000000000000000000000000000000000000000000000000000000815260040160405180910390fd5b600d546040517f70a0823100000000000000000000000000000000000000000000000000000000815233600482015260009173ffffffffffffffffffffffffffffffffffffffff16906370a0823190602401602060405180830381865afa158015610751573d6000803e3d6000fd5b505050506040513d601f19601f820116820180604052508101906107759190612721565b11156107ad576040517f2c5211c600000000000000000000000000000000000000000000000000000000815260040160405180910390fd5b60005b6000848152600560205260409020548110156108545760008481526005602052604090208054339190839081106107e9576107e961273a565b60009182526020909120015473ffffffffffffffffffffffffffffffffffffffff1603610842576040517f7c9a1cf900000000000000000000000000000000000000000000000000000000815260040160405180910390fd5b8061084c81612798565b9150506107b0565b5060008381526007602052604081208054600192906108749084906127d0565b90915550508115156001036108a85760008381526006602052604081208054600192906108a29084906127d0565b90915550505b505060009081526005602090815260408220805460018101825590835291200180547fffffffffffffffffffffffff00000000000000000000000000000000000000001633179055565b60008181526001602052604081208054820361096e576040517f08c379a000000000000000000000000000000000000000000000000000000000815260206004820152601d60248201527f476f7665726e6f723a20756e6b6e6f776e2070726f706f73616c206964000000604482015260640160405180910390fd5b6002810154610100900460ff16156109895750600292915050565b8054421161099a5750600092915050565b60008381526001602081905260409091208101549082015442116109c2575060019392505050565b600954600085815260066020526040902054601491906109e3906064612844565b6109ed919061292f565b12158015610a2d575060008481526007602090815260408083205460069092529091205460339190610a20906064612844565b610a2a919061292f565b12155b15610a3c575060049392505050565b5060039392505050565b6000610a51826108f2565b90506001816005811115610a6757610a676121ea565b14610a9e576040517fbaf3f0f700000000000000000000000000000000000000000000000000000000815260040160405180910390fd5b600954606490610aaf906014612997565b610ab991906129d4565b6000838152600260205260409020541280610ae05750600082815260026020526040902054155b15610b17576040517f53a0ee7800000000000000000000000000000000000000000000000000000000815260040160405180910390fd5b600082815260016020526040812060020180547fffffffffffffffffffffffffffffffffffffffffffffffffffffffffffff00ff166101001790555b600454811015610c09578260048281548110610b7157610b7161273a565b906000526020600020015403610bf75760048054610b91906001906129e8565b81548110610ba157610ba161273a565b906000526020600020015460048281548110610bbf57610bbf61273a565b6000918252602090912001556004805480610bdc57610bdc6129ff565b60019003818190600052602060002001600090559055610c09565b80610c0181612798565b915050610b53565b5060008281526007602090815260408083208390556006825280832083905560059091528120610c3891611fc1565b6000828152600360205260408120610c4f91611fc1565b6000828152600260208181526040808420849055600191829052808420848155918201939093550180547fffffffffffffffffffffffffffffffffffffffffffffffffffffffffffff0000169055517f789cf55be980739dad1d0699b93b58e806b51c9d96619bfa8fe0a28abaa7b30c90610ccd9084815260200190565b60405180910390a15050565b600b5473ffffffffffffffffffffffffffffffffffffffff163314610d2a576040517f82b4290000000000000000000000000000000000000000000000000000000000815260040160405180910390fd5b60005b600954811015610dba5760098181548110610d4a57610d4a61273a565b60009182526020909120015473ffffffffffffffffffffffffffffffffffffffff90811690831603610da8576040517fe523909000000000000000000000000000000000000000000000000000000000815260040160405180910390fd5b80610db281612798565b915050610d2d565b508060098381548110610dcf57610dcf61273a565b9060005260206000200160006101000a81548173ffffffffffffffffffffffffffffffffffffffff021916908373ffffffffffffffffffffffffffffffffffffffff160217905550600a600060098481548110610e2e57610e2e61273a565b600091825260208083209091015473ffffffffffffffffffffffffffffffffffffffff90811684528382019490945260409283018220829055939092168252600a909252206001905550565b60036020528160005260406000208181548110610e9657600080fd5b60009182526020909120015473ffffffffffffffffffffffffffffffffffffffff169150829050565b600b5473ffffffffffffffffffffffffffffffffffffffff163314610f10576040517f82b4290000000000000000000000000000000000000000000000000000000000815260040160405180910390fd5b60005b6009548110156110b4578173ffffffffffffffffffffffffffffffffffffffff1660098281548110610f4757610f4761273a565b60009182526020909120015473ffffffffffffffffffffffffffffffffffffffff16036110a25760098054610f7e906001906129e8565b81548110610f8e57610f8e61273a565b6000918252602090912001546009805473ffffffffffffffffffffffffffffffffffffffff9092169183908110610fc757610fc761273a565b9060005260206000200160006101000a81548173ffffffffffffffffffffffffffffffffffffffff021916908373ffffffffffffffffffffffffffffffffffffffff1602179055506009805480611020576110206129ff565b6000828152602080822083017fffffffffffffffffffffffffffffffffffffffffffffffffffffffffffffffff90810180547fffffffffffffffffffffffff000000000000000000000000000000000000000016905590920190925573ffffffffffffffffffffffffffffffffffffffff84168252600a905260408120555050565b806110ac81612798565b915050610f13565b5050565b336000908152600a60205260408120549003611100576040517f82b4290000000000000000000000000000000000000000000000000000000000815260040160405180910390fd5b600081815260016020526040812090611118836108f2565b9050600181600581111561112e5761112e6121ea565b14611165576040517fbaf3f0f700000000000000000000000000000000000000000000000000000000815260040160405180910390fd5b600d546040517f70a0823100000000000000000000000000000000000000000000000000000000815233600482015260009173ffffffffffffffffffffffffffffffffffffffff16906370a0823190602401602060405180830381865afa1580156111d4573d6000803e3d6000fd5b505050506040513d601f19601f820116820180604052508101906111f89190612721565b1115611230576040517f2c5211c600000000000000000000000000000000000000000000000000000000815260040160405180910390fd5b60005b6000848152600360205260409020548110156112d757600084815260036020526040902080543391908390811061126c5761126c61273a565b60009182526020909120015473ffffffffffffffffffffffffffffffffffffffff16036112c5576040517f7c9a1cf900000000000000000000000000000000000000000000000000000000815260040160405180910390fd5b806112cf81612798565b915050611233565b5060008381526002602052604081208054600192906112f79084906127d0565b9091555050506000918252506003602090815260408220805460018101825590835291200180547fffffffffffffffffffffffff00000000000000000000000000000000000000001633179055565b600b5473ffffffffffffffffffffffffffffffffffffffff163314611397576040517f82b4290000000000000000000000000000000000000000000000000000000000815260040160405180910390fd5b80516000036113d2576040517fe523909000000000000000000000000000000000000000000000000000000000815260040160405180910390fd5b8051600954101561160f5760005b60095481101561151b57600a6000600983815481106114015761140161273a565b600091825260208083209091015473ffffffffffffffffffffffffffffffffffffffff16835282019290925260400181205581518290829081106114475761144761273a565b6020026020010151600982815481106114625761146261273a565b9060005260206000200160006101000a81548173ffffffffffffffffffffffffffffffffffffffff021916908373ffffffffffffffffffffffffffffffffffffffff1602179055506001600a60008484815181106114c2576114c261273a565b602002602001015173ffffffffffffffffffffffffffffffffffffffff1673ffffffffffffffffffffffffffffffffffffffff16815260200190815260200160002081905550808061151390612798565b9150506113e0565b506009545b81518110156110b457600982828151811061153d5761153d61273a565b60209081029190910181015182546001808201855560009485529284200180547fffffffffffffffffffffffff00000000000000000000000000000000000000001673ffffffffffffffffffffffffffffffffffffffff90921691909117905583519091600a918590859081106115b6576115b661273a565b602002602001015173ffffffffffffffffffffffffffffffffffffffff1673ffffffffffffffffffffffffffffffffffffffff16815260200190815260200160002081905550808061160790612798565b915050611520565b60005b815181101561174c57600a6000600983815481106116325761163261273a565b600091825260208083209091015473ffffffffffffffffffffffffffffffffffffffff16835282019290925260400181205581518290829081106116785761167861273a565b6020026020010151600982815481106116935761169361273a565b9060005260206000200160006101000a81548173ffffffffffffffffffffffffffffffffffffffff021916908373ffffffffffffffffffffffffffffffffffffffff1602179055506001600a60008484815181106116f3576116f361273a565b602002602001015173ffffffffffffffffffffffffffffffffffffffff1673ffffffffffffffffffffffffffffffffffffffff16815260200190815260200160002081905550808061174490612798565b915050611612565b5080515b6009548110156110b4576009818154811061176d5761176d61273a565b6000918252602082200180547fffffffffffffffffffffffff000000000000000000000000000000000000000016905560098054600a929190849081106117b6576117b661273a565b600091825260208083209091015473ffffffffffffffffffffffffffffffffffffffff168352820192909252604001812055806117f281612798565b915050611750565b50565b60008061180b858585611e8b565b90506000611818826108f2565b9050600481600581111561182e5761182e6121ea565b14611865576040517fbaf3f0f700000000000000000000000000000000000000000000000000000000815260040160405180910390fd5b60005b865181101561199257600c54875160009173ffffffffffffffffffffffffffffffffffffffff1690634ed2c963908a90859081106118a8576118a861273a565b60200260200101518985815181106118c2576118c261273a565b60200260200101518986815181106118dc576118dc61273a565b602002602001015160006040518563ffffffff1660e01b81526004016119059493929190612a2e565b6020604051808303816000875af1158015611924573d6000803e3d6000fd5b505050506040513d601f19601f820116820180604052508101906119489190612a84565b905080611981576040517fc5df25a600000000000000000000000000000000000000000000000000000000815260040160405180910390fd5b5061198b81612798565b9050611868565b506040518281527f712ae1383f79ac853f8d882153778e0260ef8f03b504e2866e0593e04d2b291f9060200160405180910390a16000828152600160208181526040808420848155928301849055600290920180547fffffffffffffffffffffffffffffffffffffffffffffffffffffffffffff0000169055600590528120611a1a91611fc1565b5060008181526006602090815260408083208390556007909152812055949350505050565b600b5473ffffffffffffffffffffffffffffffffffffffff163314611a90576040517f82b4290000000000000000000000000000000000000000000000000000000000815260040160405180910390fd5b60005b600954811015611b205760098181548110611ab057611ab061273a565b60009182526020909120015473ffffffffffffffffffffffffffffffffffffffff90811690831603611b0e576040517fe523909000000000000000000000000000000000000000000000000000000000815260040160405180910390fd5b80611b1881612798565b915050611a93565b506009805460018181019092557f6e1540171b6c0c960b71a7020d9f60077f6af931a8bbf590da0223dacf75c7af01805473ffffffffffffffffffffffffffffffffffffffff9093167fffffffffffffffffffffffff0000000000000000000000000000000000000000909316831790556000918252600a602052604090912055565b600b5460009073ffffffffffffffffffffffffffffffffffffffff163314611bf7576040517f82b4290000000000000000000000000000000000000000000000000000000000815260040160405180910390fd5b82518451148015611c09575081518451145b611c3f576040517fe523909000000000000000000000000000000000000000000000000000000000815260040160405180910390fd5b8351600003611c7a576040517fe523909000000000000000000000000000000000000000000000000000000000815260040160405180910390fd5b60005484511115611cb7576040517fe523909000000000000000000000000000000000000000000000000000000000815260040160405180910390fd5b6000611cc4858585611e8b565b600081815260016020526040902080549192509015611d0f576040517fbaf3f0f700000000000000000000000000000000000000000000000000000000815260040160405180910390fd5b600060115442611d1f9190612aa1565b9050600060125482611d319190612aa1565b82845560018085018281556000878152600660209081526040808320839055600782528083208390559084905280822088548155925483850155600280890180549190940180547fffffffffffffffffffffffffffffffffffffffffffffffffffffffffffffff00811660ff9384161515908117835595547fffffffffffffffffffffffffffffffffffffffffffffffffffffffffffff00009091167fffffffffffffffffffffffffffffffffffffffffffffffffffffffffffff00ff909616959095176101009586900490921615159094021790925560048054938401815590527f8a35acfbc15ff81a39ae7d344fd709f28e8600b4aa8c65c6b64bfe7fe36bd19b909101869055519091507fa2366c4f1e103949cc41bc8117f334969890a670cfe1bbc5f09eb8ceaac0bae090611e7790869033908c908c908c9089908990612b8f565b60405180910390a150919695505050505050565b6000838383604051602001611ea293929190612c01565b604080517fffffffffffffffffffffffffffffffffffffffffffffffffffffffffffffffe08184030181529190528051602090910120949350505050565b600f8054611eed90612565565b80601f0160208091040260200160405190810160405280929190818152602001828054611f1990612565565b8015611f665780601f10611f3b57610100808354040283529160200191611f66565b820191906000526020600020905b815481529060010190602001808311611f4957829003601f168201915b505050505081565b60098181548110611f7e57600080fd5b60009182526020909120015473ffffffffffffffffffffffffffffffffffffffff16905081565b60056020528160005260406000208181548110610e9657600080fd5b50805460008255906000526020600020908101906117fa91905b80821115611fef5760008155600101611fdb565b5090565b60006020828403121561200557600080fd5b5035919050565b7f4e487b7100000000000000000000000000000000000000000000000000000000600052604160045260246000fd5b604051601f82017fffffffffffffffffffffffffffffffffffffffffffffffffffffffffffffffe016810167ffffffffffffffff811182821017156120825761208261200c565b604052919050565b600067ffffffffffffffff8311156120a4576120a461200c565b6120d560207fffffffffffffffffffffffffffffffffffffffffffffffffffffffffffffffe0601f8601160161203b565b90508281528383830111156120e957600080fd5b828260208301376000602084830101529392505050565b803573ffffffffffffffffffffffffffffffffffffffff8116811461212457600080fd5b919050565b6000806000806080858703121561213f57600080fd5b843567ffffffffffffffff81111561215657600080fd5b8501601f8101871361216757600080fd5b6121768782356020840161208a565b94505061218560208601612100565b925061219360408601612100565b91506121a160608601612100565b905092959194509250565b80151581146117fa57600080fd5b600080604083850312156121cd57600080fd5b8235915060208301356121df816121ac565b809150509250929050565b7f4e487b7100000000000000000000000000000000000000000000000000000000600052602160045260246000fd5b602081016006831061222d5761222d6121ea565b91905290565b6000806040838503121561224657600080fd5b8235915061225660208401612100565b90509250929050565b6000806040838503121561227257600080fd5b50508035926020909101359150565b60006020828403121561229357600080fd5b61229c82612100565b9392505050565b600067ffffffffffffffff8211156122bd576122bd61200c565b5060051b60200190565b600082601f8301126122d857600080fd5b813560206122ed6122e8836122a3565b61203b565b82815260059290921b8401810191818101908684111561230c57600080fd5b8286015b8481101561232e5761232181612100565b8352918301918301612310565b509695505050505050565b60006020828403121561234b57600080fd5b813567ffffffffffffffff81111561236257600080fd5b61236e848285016122c7565b949350505050565b600082601f83011261238757600080fd5b813560206123976122e8836122a3565b82815260059290921b840181019181810190868411156123b657600080fd5b8286015b8481101561232e57803567ffffffffffffffff8111156123da5760008081fd5b8701603f810189136123ec5760008081fd5b6123fd89868301356040840161208a565b8452509183019183016123ba565b60008060006060848603121561242057600080fd5b833567ffffffffffffffff8082111561243857600080fd5b612444878388016122c7565b945060209150818601358181111561245b57600080fd5b8601601f8101881361246c57600080fd5b803561247a6122e8826122a3565b81815260059190911b8201840190848101908a83111561249957600080fd5b928501925b828410156124b75783358252928501929085019061249e565b965050505060408601359150808211156124d057600080fd5b506124dd86828701612376565b9150509250925092565b6000815180845260005b8181101561250d576020818501810151868301820152016124f1565b8181111561251f576000602083870101525b50601f017fffffffffffffffffffffffffffffffffffffffffffffffffffffffffffffffe0169290920160200192915050565b60208152600061229c60208301846124e7565b600181811c9082168061257957607f821691505b6020821081036125b2577f4e487b7100000000000000000000000000000000000000000000000000000000600052602260045260246000fd5b50919050565b601f82111561260257600081815260208120601f850160051c810160208610156125df5750805b601f850160051c820191505b818110156125fe578281556001016125eb565b5050505b505050565b815167ffffffffffffffff8111156126215761262161200c565b6126358161262f8454612565565b846125b8565b602080601f83116001811461268857600084156126525750858301515b7fffffffffffffffffffffffffffffffffffffffffffffffffffffffffffffffff600386901b1c1916600185901b1785556125fe565b6000858152602081207fffffffffffffffffffffffffffffffffffffffffffffffffffffffffffffffe08616915b828110156126d5578886015182559484019460019091019084016126b6565b508582101561271157878501517fffffffffffffffffffffffffffffffffffffffffffffffffffffffffffffffff600388901b60f8161c191681555b5050505050600190811b01905550565b60006020828403121561273357600080fd5b5051919050565b7f4e487b7100000000000000000000000000000000000000000000000000000000600052603260045260246000fd5b7f4e487b7100000000000000000000000000000000000000000000000000000000600052601160045260246000fd5b60007fffffffffffffffffffffffffffffffffffffffffffffffffffffffffffffffff82036127c9576127c9612769565b5060010190565b6000808212827f7fffffffffffffffffffffffffffffffffffffffffffffffffffffffffffffff0384138115161561280a5761280a612769565b827f800000000000000000000000000000000000000000000000000000000000000003841281161561283e5761283e612769565b50500190565b60007f7fffffffffffffffffffffffffffffffffffffffffffffffffffffffffffffff60008413600084138583048511828216161561288557612885612769565b7f800000000000000000000000000000000000000000000000000000000000000060008712868205881281841616156128c0576128c0612769565b600087129250878205871284841616156128dc576128dc612769565b878505871281841616156128f2576128f2612769565b505050929093029392505050565b7f4e487b7100000000000000000000000000000000000000000000000000000000600052601260045260246000fd5b60008261293e5761293e612900565b7fffffffffffffffffffffffffffffffffffffffffffffffffffffffffffffffff83147f80000000000000000000000000000000000000000000000000000000000000008314161561299257612992612769565b500590565b6000817fffffffffffffffffffffffffffffffffffffffffffffffffffffffffffffffff04831182151516156129cf576129cf612769565b500290565b6000826129e3576129e3612900565b500490565b6000828210156129fa576129fa612769565b500390565b7f4e487b7100000000000000000000000000000000000000000000000000000000600052603160045260246000fd5b73ffffffffffffffffffffffffffffffffffffffff85168152836020820152608060408201526000612a6360808301856124e7565b905060028310612a7557612a756121ea565b82606083015295945050505050565b600060208284031215612a9657600080fd5b815161229c816121ac565b60008219821115612ab457612ab4612769565b500190565b600081518084526020808501945080840160005b83811015612aff57815173ffffffffffffffffffffffffffffffffffffffff1687529582019590820190600101612acd565b509495945050505050565b600081518084526020808501945080840160005b83811015612aff57815187529582019590820190600101612b1e565b600081518084526020808501808196508360051b8101915082860160005b85811015612b82578284038952612b708483516124e7565b98850198935090840190600101612b58565b5091979650505050505050565b87815273ffffffffffffffffffffffffffffffffffffffff8716602082015260e060408201526000612bc460e0830188612ab9565b8281036060840152612bd68188612b0a565b90508281036080840152612bea8187612b3a565b60a0840195909552505060c0015295945050505050565b606081526000612c146060830186612ab9565b8281036020840152612c268186612b0a565b90508281036040840152612c3a8185612b3a565b969550505050505056fea26469706673582212209aeae4b46b75bc74d7e9b85823253407570b3fa6be69535f54764fe69841a6f564736f6c634300080f0033",
  "linkReferences": {},
  "deployedLinkReferences": {}
}