{
  "_format": "hh-sol-artifact-1",
  "contractName": "FXAMORxGuild",
  "sourceName": "contracts/FXAMORxGuildToken.sol",
  "abi": [
    {
      "inputs": [],
      "name": "AddressZero",
      "type": "error"
    },
    {
      "inputs": [],
      "name": "AlreadyInitialized",
      "type": "error"
    },
    {
      "inputs": [],
      "name": "AlreadySet",
      "type": "error"
    },
    {
      "inputs": [],
      "name": "EmptyArray",
      "type": "error"
    },
    {
      "inputs": [],
      "name": "InvalidAddress",
      "type": "error"
    },
    {
      "inputs": [],
      "name": "InvalidAmount",
      "type": "error"
    },
    {
      "inputs": [],
      "name": "InvalidApprove",
      "type": "error"
    },
    {
      "inputs": [],
      "name": "InvalidSender",
      "type": "error"
    },
    {
      "inputs": [],
      "name": "InvalidTransfer",
      "type": "error"
    },
    {
      "inputs": [],
      "name": "NotDelegatedAny",
      "type": "error"
    },
    {
      "inputs": [],
      "name": "Unauthorized",
      "type": "error"
    },
    {
      "anonymous": false,
      "inputs": [
        {
          "indexed": true,
          "internalType": "address",
          "name": "owner",
          "type": "address"
        },
        {
          "indexed": true,
          "internalType": "address",
          "name": "spender",
          "type": "address"
        },
        {
          "indexed": false,
          "internalType": "uint256",
          "name": "value",
          "type": "uint256"
        }
      ],
      "name": "Approval",
      "type": "event"
    },
    {
      "anonymous": false,
      "inputs": [
        {
          "indexed": false,
          "internalType": "bool",
          "name": "success",
          "type": "bool"
        },
        {
          "indexed": false,
          "internalType": "address",
          "name": "owner",
          "type": "address"
        },
        {
          "indexed": false,
          "internalType": "address",
          "name": "AMORxGuild",
          "type": "address"
        }
      ],
      "name": "Initialized",
      "type": "event"
    },
    {
      "anonymous": false,
      "inputs": [
        {
          "indexed": true,
          "internalType": "address",
          "name": "previousOwner",
          "type": "address"
        },
        {
          "indexed": true,
          "internalType": "address",
          "name": "newOwner",
          "type": "address"
        }
      ],
      "name": "OwnershipTransferred",
      "type": "event"
    },
    {
      "anonymous": false,
      "inputs": [
        {
          "indexed": true,
          "internalType": "address",
          "name": "from",
          "type": "address"
        },
        {
          "indexed": true,
          "internalType": "address",
          "name": "to",
          "type": "address"
        },
        {
          "indexed": false,
          "internalType": "uint256",
          "name": "value",
          "type": "uint256"
        }
      ],
      "name": "Transfer",
      "type": "event"
    },
    {
      "inputs": [],
      "name": "AMORxGuild",
      "outputs": [
        {
          "internalType": "contract IERC20",
          "name": "",
          "type": "address"
        }
      ],
      "stateMutability": "view",
      "type": "function"
    },
    {
      "inputs": [],
      "name": "_owner",
      "outputs": [
        {
          "internalType": "address",
          "name": "",
          "type": "address"
        }
      ],
      "stateMutability": "view",
      "type": "function"
    },
    {
      "inputs": [
        {
          "internalType": "address",
          "name": "owner",
          "type": "address"
        },
        {
          "internalType": "address",
          "name": "spender",
          "type": "address"
        }
      ],
      "name": "allowance",
      "outputs": [
        {
          "internalType": "uint256",
          "name": "",
          "type": "uint256"
        }
      ],
      "stateMutability": "view",
      "type": "function"
    },
    {
      "inputs": [
        {
          "internalType": "address",
          "name": "",
          "type": "address"
        }
      ],
      "name": "amountDelegated",
      "outputs": [
        {
          "internalType": "uint256",
          "name": "",
          "type": "uint256"
        }
      ],
      "stateMutability": "view",
      "type": "function"
    },
    {
      "inputs": [
        {
          "internalType": "address",
          "name": "spender",
          "type": "address"
        },
        {
          "internalType": "uint256",
          "name": "amount",
          "type": "uint256"
        }
      ],
      "name": "approve",
      "outputs": [
        {
          "internalType": "bool",
          "name": "",
          "type": "bool"
        }
      ],
      "stateMutability": "nonpayable",
      "type": "function"
    },
    {
      "inputs": [
        {
          "internalType": "address",
          "name": "account",
          "type": "address"
        }
      ],
      "name": "balanceOf",
      "outputs": [
        {
          "internalType": "uint256",
          "name": "",
          "type": "uint256"
        }
      ],
      "stateMutability": "view",
      "type": "function"
    },
    {
      "inputs": [
        {
          "internalType": "address",
          "name": "account",
          "type": "address"
        },
        {
          "internalType": "uint256",
          "name": "amount",
          "type": "uint256"
        }
      ],
      "name": "burn",
      "outputs": [],
      "stateMutability": "nonpayable",
      "type": "function"
    },
    {
      "inputs": [],
      "name": "controller",
      "outputs": [
        {
          "internalType": "address",
          "name": "",
          "type": "address"
        }
      ],
      "stateMutability": "view",
      "type": "function"
    },
    {
      "inputs": [],
      "name": "decimals",
      "outputs": [
        {
          "internalType": "uint8",
          "name": "",
          "type": "uint8"
        }
      ],
      "stateMutability": "view",
      "type": "function"
    },
    {
      "inputs": [
        {
          "internalType": "address",
          "name": "spender",
          "type": "address"
        },
        {
          "internalType": "uint256",
          "name": "subtractedValue",
          "type": "uint256"
        }
      ],
      "name": "decreaseAllowance",
      "outputs": [
        {
          "internalType": "bool",
          "name": "",
          "type": "bool"
        }
      ],
      "stateMutability": "nonpayable",
      "type": "function"
    },
    {
      "inputs": [
        {
          "internalType": "address",
          "name": "to",
          "type": "address"
        },
        {
          "internalType": "uint256",
          "name": "amount",
          "type": "uint256"
        }
      ],
      "name": "delegate",
      "outputs": [],
      "stateMutability": "nonpayable",
      "type": "function"
    },
    {
      "inputs": [
        {
          "internalType": "address",
          "name": "",
          "type": "address"
        },
        {
          "internalType": "address",
          "name": "",
          "type": "address"
        }
      ],
      "name": "delegations",
      "outputs": [
        {
          "internalType": "uint256",
          "name": "",
          "type": "uint256"
        }
      ],
      "stateMutability": "view",
      "type": "function"
    },
    {
      "inputs": [
        {
          "internalType": "address",
          "name": "",
          "type": "address"
        },
        {
          "internalType": "uint256",
          "name": "",
          "type": "uint256"
        }
      ],
      "name": "delegators",
      "outputs": [
        {
          "internalType": "address",
          "name": "",
          "type": "address"
        }
      ],
      "stateMutability": "view",
      "type": "function"
    },
    {
      "inputs": [
        {
          "internalType": "address",
          "name": "spender",
          "type": "address"
        },
        {
          "internalType": "uint256",
          "name": "addedValue",
          "type": "uint256"
        }
      ],
      "name": "increaseAllowance",
      "outputs": [
        {
          "internalType": "bool",
          "name": "",
          "type": "bool"
        }
      ],
      "stateMutability": "nonpayable",
      "type": "function"
    },
    {
      "inputs": [
        {
          "internalType": "string",
          "name": "name_",
          "type": "string"
        },
        {
          "internalType": "string",
          "name": "symbol_",
          "type": "string"
        },
        {
          "internalType": "address",
          "name": "initOwner_",
          "type": "address"
        },
        {
          "internalType": "address",
          "name": "AMORxGuild_",
          "type": "address"
        }
      ],
      "name": "init",
      "outputs": [],
      "stateMutability": "nonpayable",
      "type": "function"
    },
    {
      "inputs": [],
      "name": "name",
      "outputs": [
        {
          "internalType": "string",
          "name": "",
          "type": "string"
        }
      ],
      "stateMutability": "view",
      "type": "function"
    },
    {
      "inputs": [],
      "name": "owner",
      "outputs": [
        {
          "internalType": "address",
          "name": "",
          "type": "address"
        }
      ],
      "stateMutability": "view",
      "type": "function"
    },
    {
      "inputs": [],
      "name": "renounceOwnership",
      "outputs": [],
      "stateMutability": "nonpayable",
      "type": "function"
    },
    {
      "inputs": [
        {
          "internalType": "address",
          "name": "_controller",
          "type": "address"
        }
      ],
      "name": "setController",
      "outputs": [],
      "stateMutability": "nonpayable",
      "type": "function"
    },
    {
      "inputs": [
        {
          "internalType": "address",
          "name": "to",
          "type": "address"
        },
        {
          "internalType": "uint256",
          "name": "amount",
          "type": "uint256"
        }
      ],
      "name": "stake",
      "outputs": [
        {
          "internalType": "uint256",
          "name": "",
          "type": "uint256"
        }
      ],
      "stateMutability": "nonpayable",
      "type": "function"
    },
    {
      "inputs": [
        {
          "internalType": "address",
          "name": "",
          "type": "address"
        }
      ],
      "name": "stakes",
      "outputs": [
        {
          "internalType": "uint256",
          "name": "",
          "type": "uint256"
        }
      ],
      "stateMutability": "view",
      "type": "function"
    },
    {
      "inputs": [],
      "name": "symbol",
      "outputs": [
        {
          "internalType": "string",
          "name": "",
          "type": "string"
        }
      ],
      "stateMutability": "view",
      "type": "function"
    },
    {
      "inputs": [],
      "name": "totalSupply",
      "outputs": [
        {
          "internalType": "uint256",
          "name": "",
          "type": "uint256"
        }
      ],
      "stateMutability": "view",
      "type": "function"
    },
    {
      "inputs": [
        {
          "internalType": "address",
          "name": "to",
          "type": "address"
        },
        {
          "internalType": "uint256",
          "name": "amount",
          "type": "uint256"
        }
      ],
      "name": "transfer",
      "outputs": [
        {
          "internalType": "bool",
          "name": "",
          "type": "bool"
        }
      ],
      "stateMutability": "nonpayable",
      "type": "function"
    },
    {
      "inputs": [
        {
          "internalType": "address",
          "name": "from",
          "type": "address"
        },
        {
          "internalType": "address",
          "name": "to",
          "type": "address"
        },
        {
          "internalType": "uint256",
          "name": "amount",
          "type": "uint256"
        }
      ],
      "name": "transferFrom",
      "outputs": [
        {
          "internalType": "bool",
          "name": "",
          "type": "bool"
        }
      ],
      "stateMutability": "nonpayable",
      "type": "function"
    },
    {
      "inputs": [
        {
          "internalType": "address",
          "name": "newOwner",
          "type": "address"
        }
      ],
      "name": "transferOwnership",
      "outputs": [],
      "stateMutability": "nonpayable",
      "type": "function"
    },
    {
      "inputs": [
        {
          "internalType": "address",
          "name": "account",
          "type": "address"
        },
        {
          "internalType": "uint256",
          "name": "amount",
          "type": "uint256"
        }
      ],
      "name": "undelegate",
      "outputs": [],
      "stateMutability": "nonpayable",
      "type": "function"
    }
  ],
  "bytecode": "0x608060405234801561001057600080fd5b5061001a3361001f565b61007b565b600580546001600160a01b038381166201000081810262010000600160b01b031985161790945560405193909204169182907f8be0079c531659141344cd1fd0a4f28419497f9722a3daafe3b4186f6b6457e090600090a35050565b6120698061008a6000396000f3fe608060405234801561001057600080fd5b50600436106101b95760003560e01c80637bb576f5116100f9578063a9059cbb11610097578063c64814dd11610071578063c64814dd14610420578063dd62ed3e1461044b578063f2fde38b14610491578063f77c4791146104a457600080fd5b8063a9059cbb146103d5578063adc9772e146103e8578063b2bdfa7b146103fb57600080fd5b806392eefe9b116100d357806392eefe9b1461039457806395d89b41146103a75780639dc29fac146103af578063a457c2d7146103c257600080fd5b80637bb576f5146103305780638da5cb5b146103505780638e49d0fd1461037457600080fd5b806323b872dd116101665780634d99dd16116101405780634d99dd16146102a75780636f6f5809146102ba57806370a08231146102f2578063715018a61461032857600080fd5b806323b872dd1461025d578063313ce56714610270578063395093511461029457600080fd5b80630e07f854116101975780630e07f8541461021457806316934fc41461022757806318160ddd1461025557600080fd5b8063026e402b146101be57806306fdde03146101d3578063095ea7b3146101f1575b600080fd5b6101d16101cc366004611b33565b6104c4565b005b6101db610673565b6040516101e89190611b89565b60405180910390f35b6102046101ff366004611b33565b610701565b60405190151581526020016101e8565b6101d1610222366004611cb4565b610719565b610247610235366004611d39565b60066020526000908152604090205481565b6040519081526020016101e8565b600254610247565b61020461026b366004611d54565b610889565b60055461028290610100900460ff1681565b60405160ff90911681526020016101e8565b6102046102a2366004611b33565b6108af565b6101d16102b5366004611b33565b6108fb565b6102cd6102c8366004611b33565b610a9c565b60405173ffffffffffffffffffffffffffffffffffffffff90911681526020016101e8565b610247610300366004611d39565b73ffffffffffffffffffffffffffffffffffffffff1660009081526020819052604090205490565b6101d1610ae1565b600c546102cd9073ffffffffffffffffffffffffffffffffffffffff1681565b60055462010000900473ffffffffffffffffffffffffffffffffffffffff166102cd565b610247610382366004611d39565b60096020526000908152604090205481565b6101d16103a2366004611d39565b610af5565b6101db610be1565b6101d16103bd366004611b33565b610bee565b6102046103d0366004611b33565b610d0d565b6102046103e3366004611b33565b610d93565b6102476103f6366004611b33565b610da1565b600a546102cd90610100900473ffffffffffffffffffffffffffffffffffffffff1681565b61024761042e366004611d90565b600860209081526000928352604080842090915290825290205481565b610247610459366004611d90565b73ffffffffffffffffffffffffffffffffffffffff918216600090815260016020908152604080832093909416825291909152205490565b6101d161049f366004611d39565b610fd2565b600b546102cd9073ffffffffffffffffffffffffffffffffffffffff1681565b3373ffffffffffffffffffffffffffffffffffffffff831603610513576040517fddb5de5e00000000000000000000000000000000000000000000000000000000815260040160405180910390fd5b73ffffffffffffffffffffffffffffffffffffffff8216610560576040517f9fabe1c100000000000000000000000000000000000000000000000000000000815260040160405180910390fd5b3360009081526009602090815260408083205460069092528220546105859190611df2565b9050818110156105c1576040517f2c5211c600000000000000000000000000000000000000000000000000000000815260040160405180910390fd5b73ffffffffffffffffffffffffffffffffffffffff8316600081815260076020908152604080832080546001810182559084528284200180547fffffffffffffffffffffffff000000000000000000000000000000000000000016339081179091558352600882528083209383529290529081208054849290610645908490611e09565b90915550503360009081526009602052604081208054849290610669908490611e09565b9091555050505050565b6003805461068090611e21565b80601f01602080910402602001604051908101604052809291908181526020018280546106ac90611e21565b80156106f95780601f106106ce576101008083540402835291602001916106f9565b820191906000526020600020905b8154815290600101906020018083116106dc57829003601f168201915b505050505081565b60003361070f81858561108e565b5060019392505050565b600a5460ff1615610756576040517f0dc149f000000000000000000000000000000000000000000000000000000000815260040160405180910390fd5b61075f8261116b565b600a80547fffffffffffffffffffffff0000000000000000000000000000000000000000ff1661010073ffffffffffffffffffffffffffffffffffffffff85811691820292909217909255600b80547fffffffffffffffffffffffff00000000000000000000000000000000000000009081169093179055600c805490921690831617905560036107f08582611ec2565b5060046107fd8482611ec2565b50600a80547fffffffffffffffffffffffffffffffffffffffffffffffffffffffffffffff001660019081179091556040805191825273ffffffffffffffffffffffffffffffffffffffff84811660208401528316908201527fc87c04922c077302cf4c93ca0785707d2272b98c125c11c3c98f545718f3e27c9060600160405180910390a150505050565b6000336108978582856111ea565b6108a2858585611291565b60019150505b9392505050565b33600081815260016020908152604080832073ffffffffffffffffffffffffffffffffffffffff8716845290915281205490919061070f90829086906108f6908790611e09565b61108e565b3373ffffffffffffffffffffffffffffffffffffffff83160361094a576040517fddb5de5e00000000000000000000000000000000000000000000000000000000815260040160405180910390fd5b33600090815260086020908152604080832073ffffffffffffffffffffffffffffffffffffffff8616845290915281205490036109b3576040517f6f5e06a600000000000000000000000000000000000000000000000000000000815260040160405180910390fd5b33600090815260086020908152604080832073ffffffffffffffffffffffffffffffffffffffff861684529091529020548111610a595733600090815260086020908152604080832073ffffffffffffffffffffffffffffffffffffffff8616845290915281208054839290610a2a908490611df2565b90915550503360009081526009602052604081208054839290610a4e908490611df2565b90915550610a989050565b33600081815260086020908152604080832073ffffffffffffffffffffffffffffffffffffffff87168452825280832083905592825260099052908120555b5050565b60076020528160005260406000208181548110610ab857600080fd5b60009182526020909120015473ffffffffffffffffffffffffffffffffffffffff169150829050565b610ae9611416565b610af3600061116b565b565b600a54610100900473ffffffffffffffffffffffffffffffffffffffff16338114610b4c576040517f82b4290000000000000000000000000000000000000000000000000000000000815260040160405180910390fd5b73ffffffffffffffffffffffffffffffffffffffff8216610b99576040517f9fabe1c100000000000000000000000000000000000000000000000000000000815260040160405180910390fd5b50600b80547fffffffffffffffffffffffff00000000000000000000000000000000000000001673ffffffffffffffffffffffffffffffffffffffff92909216919091179055565b6004805461068090611e21565b600a54610100900473ffffffffffffffffffffffffffffffffffffffff16338114610c45576040517f82b4290000000000000000000000000000000000000000000000000000000000815260040160405180910390fd5b73ffffffffffffffffffffffffffffffffffffffff8316600090815260066020526040902054821115610ca4576040517f2c5211c600000000000000000000000000000000000000000000000000000000815260040160405180910390fd5b610cae838361149e565b600b54600c54610cd89173ffffffffffffffffffffffffffffffffffffffff9182169116846115dc565b73ffffffffffffffffffffffffffffffffffffffff831660009081526006602052604081208054849290610669908490611df2565b33600081815260016020908152604080832073ffffffffffffffffffffffffffffffffffffffff8716845290915281205490919083811015610d7b576040517f2c5211c600000000000000000000000000000000000000000000000000000000815260040160405180910390fd5b610d88828686840361108e565b506001949350505050565b60003361070f818585611291565b600a54600090610100900473ffffffffffffffffffffffffffffffffffffffff16338114610dfb576040517f82b4290000000000000000000000000000000000000000000000000000000000815260040160405180910390fd5b3373ffffffffffffffffffffffffffffffffffffffff851603610e4a576040517fddb5de5e00000000000000000000000000000000000000000000000000000000815260040160405180910390fd5b73ffffffffffffffffffffffffffffffffffffffff8416610e97576040517f9fabe1c100000000000000000000000000000000000000000000000000000000815260040160405180910390fd5b600c546040517f70a08231000000000000000000000000000000000000000000000000000000008152336004820152849173ffffffffffffffffffffffffffffffffffffffff16906370a0823190602401602060405180830381865afa158015610f05573d6000803e3d6000fd5b505050506040513d601f19601f82011682018060405250810190610f299190611fdc565b1015610f61576040517f2c5211c600000000000000000000000000000000000000000000000000000000815260040160405180910390fd5b600c54610f869073ffffffffffffffffffffffffffffffffffffffff163330866116b0565b610f90848461170e565b73ffffffffffffffffffffffffffffffffffffffff841660009081526006602052604081208054859290610fc5908490611e09565b9091555092949350505050565b610fda611416565b73ffffffffffffffffffffffffffffffffffffffff8116611082576040517f08c379a000000000000000000000000000000000000000000000000000000000815260206004820152602660248201527f4f776e61626c653a206e6577206f776e657220697320746865207a65726f206160448201527f646472657373000000000000000000000000000000000000000000000000000060648201526084015b60405180910390fd5b61108b8161116b565b50565b73ffffffffffffffffffffffffffffffffffffffff831615806110c5575073ffffffffffffffffffffffffffffffffffffffff8216155b156110fc576040517fbeac2bc600000000000000000000000000000000000000000000000000000000815260040160405180910390fd5b73ffffffffffffffffffffffffffffffffffffffff83811660008181526001602090815260408083209487168084529482529182902085905590518481527f8c5be1e5ebec7d5bd14f71427d1e84f3dd0314c0f7b2291e5b200ac8c7c3b92591015b60405180910390a3505050565b6005805473ffffffffffffffffffffffffffffffffffffffff838116620100008181027fffffffffffffffffffff0000000000000000000000000000000000000000ffff85161790945560405193909204169182907f8be0079c531659141344cd1fd0a4f28419497f9722a3daafe3b4186f6b6457e090600090a35050565b73ffffffffffffffffffffffffffffffffffffffff8381166000908152600160209081526040808320938616835292905220547fffffffffffffffffffffffffffffffffffffffffffffffffffffffffffffffff811461128b578181101561127e576040517f2c5211c600000000000000000000000000000000000000000000000000000000815260040160405180910390fd5b61128b848484840361108e565b50505050565b73ffffffffffffffffffffffffffffffffffffffff831615806112c8575073ffffffffffffffffffffffffffffffffffffffff8216155b156112ff576040517f2f35253100000000000000000000000000000000000000000000000000000000815260040160405180910390fd5b73ffffffffffffffffffffffffffffffffffffffff83166000908152602081905260409020548181101561135f576040517f2c5211c600000000000000000000000000000000000000000000000000000000815260040160405180910390fd5b73ffffffffffffffffffffffffffffffffffffffff8085166000908152602081905260408082208585039055918516815290812080548492906113a3908490611e09565b925050819055508273ffffffffffffffffffffffffffffffffffffffff168473ffffffffffffffffffffffffffffffffffffffff167fddf252ad1be2c89b69c2b068fc378daa952ba7f163c4a11628f55a4df523b3ef8460405161140991815260200190565b60405180910390a361128b565b60055473ffffffffffffffffffffffffffffffffffffffff62010000909104163314610af3576040517f08c379a000000000000000000000000000000000000000000000000000000000815260206004820181905260248201527f4f776e61626c653a2063616c6c6572206973206e6f7420746865206f776e65726044820152606401611079565b73ffffffffffffffffffffffffffffffffffffffff82166114eb576040517f2f35253100000000000000000000000000000000000000000000000000000000815260040160405180910390fd5b73ffffffffffffffffffffffffffffffffffffffff82166000908152602081905260409020548181101561154b576040517f2c5211c600000000000000000000000000000000000000000000000000000000815260040160405180910390fd5b73ffffffffffffffffffffffffffffffffffffffff83166000908152602081905260408120838303905560028054849290611587908490611df2565b909155505060405182815260009073ffffffffffffffffffffffffffffffffffffffff8516907fddf252ad1be2c89b69c2b068fc378daa952ba7f163c4a11628f55a4df523b3ef9060200161115e565b505050565b60405173ffffffffffffffffffffffffffffffffffffffff83166024820152604481018290526115d79084907fa9059cbb00000000000000000000000000000000000000000000000000000000906064015b604080517fffffffffffffffffffffffffffffffffffffffffffffffffffffffffffffffe08184030181529190526020810180517bffffffffffffffffffffffffffffffffffffffffffffffffffffffff167fffffffff00000000000000000000000000000000000000000000000000000000909316929092179091526117fe565b60405173ffffffffffffffffffffffffffffffffffffffff8085166024830152831660448201526064810182905261128b9085907f23b872dd000000000000000000000000000000000000000000000000000000009060840161162e565b73ffffffffffffffffffffffffffffffffffffffff821661175b576040517fe6c4247b00000000000000000000000000000000000000000000000000000000815260040160405180910390fd5b806002600082825461176d9190611e09565b909155505073ffffffffffffffffffffffffffffffffffffffff8216600090815260208190526040812080548392906117a7908490611e09565b909155505060405181815273ffffffffffffffffffffffffffffffffffffffff8316906000907fddf252ad1be2c89b69c2b068fc378daa952ba7f163c4a11628f55a4df523b3ef9060200160405180910390a35050565b6000611860826040518060400160405280602081526020017f5361666545524332303a206c6f772d6c6576656c2063616c6c206661696c65648152508573ffffffffffffffffffffffffffffffffffffffff1661190a9092919063ffffffff16565b8051909150156115d7578080602001905181019061187e9190611ff5565b6115d7576040517f08c379a000000000000000000000000000000000000000000000000000000000815260206004820152602a60248201527f5361666545524332303a204552433230206f7065726174696f6e20646964206e60448201527f6f742073756363656564000000000000000000000000000000000000000000006064820152608401611079565b60606119198484600085611921565b949350505050565b6060824710156119b3576040517f08c379a000000000000000000000000000000000000000000000000000000000815260206004820152602660248201527f416464726573733a20696e73756666696369656e742062616c616e636520666f60448201527f722063616c6c00000000000000000000000000000000000000000000000000006064820152608401611079565b73ffffffffffffffffffffffffffffffffffffffff85163b611a31576040517f08c379a000000000000000000000000000000000000000000000000000000000815260206004820152601d60248201527f416464726573733a2063616c6c20746f206e6f6e2d636f6e74726163740000006044820152606401611079565b6000808673ffffffffffffffffffffffffffffffffffffffff168587604051611a5a9190612017565b60006040518083038185875af1925050503d8060008114611a97576040519150601f19603f3d011682016040523d82523d6000602084013e611a9c565b606091505b5091509150611aac828286611ab7565b979650505050505050565b60608315611ac65750816108a8565b825115611ad65782518084602001fd5b816040517f08c379a00000000000000000000000000000000000000000000000000000000081526004016110799190611b89565b803573ffffffffffffffffffffffffffffffffffffffff81168114611b2e57600080fd5b919050565b60008060408385031215611b4657600080fd5b611b4f83611b0a565b946020939093013593505050565b60005b83811015611b78578181015183820152602001611b60565b8381111561128b5750506000910152565b6020815260008251806020840152611ba8816040850160208701611b5d565b601f017fffffffffffffffffffffffffffffffffffffffffffffffffffffffffffffffe0169190910160400192915050565b7f4e487b7100000000000000000000000000000000000000000000000000000000600052604160045260246000fd5b600082601f830112611c1a57600080fd5b813567ffffffffffffffff80821115611c3557611c35611bda565b604051601f83017fffffffffffffffffffffffffffffffffffffffffffffffffffffffffffffffe0908116603f01168101908282118183101715611c7b57611c7b611bda565b81604052838152866020858801011115611c9457600080fd5b836020870160208301376000602085830101528094505050505092915050565b60008060008060808587031215611cca57600080fd5b843567ffffffffffffffff80821115611ce257600080fd5b611cee88838901611c09565b95506020870135915080821115611d0457600080fd5b50611d1187828801611c09565b935050611d2060408601611b0a565b9150611d2e60608601611b0a565b905092959194509250565b600060208284031215611d4b57600080fd5b6108a882611b0a565b600080600060608486031215611d6957600080fd5b611d7284611b0a565b9250611d8060208501611b0a565b9150604084013590509250925092565b60008060408385031215611da357600080fd5b611dac83611b0a565b9150611dba60208401611b0a565b90509250929050565b7f4e487b7100000000000000000000000000000000000000000000000000000000600052601160045260246000fd5b600082821015611e0457611e04611dc3565b500390565b60008219821115611e1c57611e1c611dc3565b500190565b600181811c90821680611e3557607f821691505b602082108103611e6e577f4e487b7100000000000000000000000000000000000000000000000000000000600052602260045260246000fd5b50919050565b601f8211156115d757600081815260208120601f850160051c81016020861015611e9b5750805b601f850160051c820191505b81811015611eba57828155600101611ea7565b505050505050565b815167ffffffffffffffff811115611edc57611edc611bda565b611ef081611eea8454611e21565b84611e74565b602080601f831160018114611f435760008415611f0d5750858301515b7fffffffffffffffffffffffffffffffffffffffffffffffffffffffffffffffff600386901b1c1916600185901b178555611eba565b6000858152602081207fffffffffffffffffffffffffffffffffffffffffffffffffffffffffffffffe08616915b82811015611f9057888601518255948401946001909101908401611f71565b5085821015611fcc57878501517fffffffffffffffffffffffffffffffffffffffffffffffffffffffffffffffff600388901b60f8161c191681555b5050505050600190811b01905550565b600060208284031215611fee57600080fd5b5051919050565b60006020828403121561200757600080fd5b815180151581146108a857600080fd5b60008251612029818460208701611b5d565b919091019291505056fea2646970667358221220324f47679b3a98813164256e44f7d1c367dbe5ab49ee098fcdf65ecc6b17aa6d64736f6c634300080f0033",
  "linkReferences": {},
  "deployedLinkReferences": {}
}