{
  "_format": "hh-sol-artifact-1",
  "contractName": "GuildFactory",
  "sourceName": "contracts/GuildFactory.sol",
  "abi": [
    {
      "inputs": [
        {
          "internalType": "address",
          "name": "_amorToken",
          "type": "address"
        },
        {
          "internalType": "address",
          "name": "_amorxGuildToken",
          "type": "address"
        },
        {
          "internalType": "address",
          "name": "_fxAMORxGuildToken",
          "type": "address"
        },
        {
          "internalType": "address",
          "name": "_dAMORxGuildToken",
          "type": "address"
        },
        {
          "internalType": "address",
          "name": "_doinGudProxy",
          "type": "address"
        },
        {
          "internalType": "address",
          "name": "_controllerxGuild",
          "type": "address"
        },
        {
          "internalType": "address",
          "name": "_metaDaoController",
          "type": "address"
        },
        {
          "internalType": "address",
          "name": "_multisig",
          "type": "address"
        }
      ],
      "stateMutability": "nonpayable",
      "type": "constructor"
    },
    {
      "inputs": [],
      "name": "ArrayMismatch",
      "type": "error"
    },
    {
      "inputs": [],
      "name": "CreationFailed",
      "type": "error"
    },
    {
      "anonymous": false,
      "inputs": [
        {
          "indexed": true,
          "internalType": "address",
          "name": "previousOwner",
          "type": "address"
        },
        {
          "indexed": true,
          "internalType": "address",
          "name": "newOwner",
          "type": "address"
        }
      ],
      "name": "OwnershipTransferred",
      "type": "event"
    },
    {
      "inputs": [],
      "name": "MetaDaoController",
      "outputs": [
        {
          "internalType": "address",
          "name": "",
          "type": "address"
        }
      ],
      "stateMutability": "view",
      "type": "function"
    },
    {
      "inputs": [],
      "name": "amorToken",
      "outputs": [
        {
          "internalType": "address",
          "name": "",
          "type": "address"
        }
      ],
      "stateMutability": "view",
      "type": "function"
    },
    {
      "inputs": [],
      "name": "amorxGuildToken",
      "outputs": [
        {
          "internalType": "address",
          "name": "",
          "type": "address"
        }
      ],
      "stateMutability": "view",
      "type": "function"
    },
    {
      "inputs": [
        {
          "internalType": "uint256",
          "name": "",
          "type": "uint256"
        }
      ],
      "name": "amorxGuildTokens",
      "outputs": [
        {
          "internalType": "address",
          "name": "",
          "type": "address"
        }
      ],
      "stateMutability": "view",
      "type": "function"
    },
    {
      "inputs": [],
      "name": "cloneTarget",
      "outputs": [
        {
          "internalType": "address",
          "name": "",
          "type": "address"
        }
      ],
      "stateMutability": "view",
      "type": "function"
    },
    {
      "inputs": [],
      "name": "controllerxGuild",
      "outputs": [
        {
          "internalType": "address",
          "name": "",
          "type": "address"
        }
      ],
      "stateMutability": "view",
      "type": "function"
    },
    {
      "inputs": [],
      "name": "dAMORxGuildToken",
      "outputs": [
        {
          "internalType": "address",
          "name": "",
          "type": "address"
        }
      ],
      "stateMutability": "view",
      "type": "function"
    },
    {
      "inputs": [
        {
          "internalType": "address",
          "name": "",
          "type": "address"
        }
      ],
      "name": "dAMORxGuildTokens",
      "outputs": [
        {
          "internalType": "address",
          "name": "",
          "type": "address"
        }
      ],
      "stateMutability": "view",
      "type": "function"
    },
    {
      "inputs": [],
      "name": "defaultGuardianThreshold",
      "outputs": [
        {
          "internalType": "uint256",
          "name": "",
          "type": "uint256"
        }
      ],
      "stateMutability": "view",
      "type": "function"
    },
    {
      "inputs": [
        {
          "internalType": "address",
          "name": "guildOwner",
          "type": "address"
        },
        {
          "internalType": "string",
          "name": "_name",
          "type": "string"
        },
        {
          "internalType": "string",
          "name": "_symbol",
          "type": "string"
        }
      ],
      "name": "deployGuildContracts",
      "outputs": [
        {
          "internalType": "address",
          "name": "",
          "type": "address"
        }
      ],
      "stateMutability": "nonpayable",
      "type": "function"
    },
    {
      "inputs": [],
      "name": "fxAMORxGuildToken",
      "outputs": [
        {
          "internalType": "address",
          "name": "",
          "type": "address"
        }
      ],
      "stateMutability": "view",
      "type": "function"
    },
    {
      "inputs": [
        {
          "internalType": "address",
          "name": "",
          "type": "address"
        }
      ],
      "name": "fxAMORxGuildTokens",
      "outputs": [
        {
          "internalType": "address",
          "name": "",
          "type": "address"
        }
      ],
      "stateMutability": "view",
      "type": "function"
    },
    {
      "inputs": [
        {
          "internalType": "address",
          "name": "",
          "type": "address"
        }
      ],
      "name": "guildControllers",
      "outputs": [
        {
          "internalType": "address",
          "name": "",
          "type": "address"
        }
      ],
      "stateMutability": "view",
      "type": "function"
    },
    {
      "inputs": [],
      "name": "multisig",
      "outputs": [
        {
          "internalType": "address",
          "name": "",
          "type": "address"
        }
      ],
      "stateMutability": "view",
      "type": "function"
    },
    {
      "inputs": [],
      "name": "owner",
      "outputs": [
        {
          "internalType": "address",
          "name": "",
          "type": "address"
        }
      ],
      "stateMutability": "view",
      "type": "function"
    },
    {
      "inputs": [],
      "name": "renounceOwnership",
      "outputs": [],
      "stateMutability": "nonpayable",
      "type": "function"
    },
    {
      "inputs": [
        {
          "internalType": "address",
          "name": "newOwner",
          "type": "address"
        }
      ],
      "name": "transferOwnership",
      "outputs": [],
      "stateMutability": "nonpayable",
      "type": "function"
    }
  ],
  "bytecode": "0x6080604052600a600d553480156200001657600080fd5b50604051620016f0380380620016f0833981016040819052620000399162000143565b6200004433620000d6565b600180546001600160a01b03199081166001600160a01b039a8b1617909155600280548216988a1698909817909755600380548816968916969096179095556004805487169488169490941790935560088054861692871692909217909155600580548516918616919091179055600680548416918516919091179055600780549092169216919091179055620001eb565b600080546001600160a01b038381166001600160a01b0319831681178455604051919092169283917f8be0079c531659141344cd1fd0a4f28419497f9722a3daafe3b4186f6b6457e09190a35050565b80516001600160a01b03811681146200013e57600080fd5b919050565b600080600080600080600080610100898b0312156200016157600080fd5b6200016c8962000126565b97506200017c60208a0162000126565b96506200018c60408a0162000126565b95506200019c60608a0162000126565b9450620001ac60808a0162000126565b9350620001bc60a08a0162000126565b9250620001cc60c08a0162000126565b9150620001dc60e08a0162000126565b90509295985092959890939650565b6114f580620001fb6000396000f3fe608060405234801561001057600080fd5b506004361061011b5760003560e01c8063557ca791116100b2578063877194c5116100815780638da5cb5b116100665780638da5cb5b146102fd578063bc05d43a1461031b578063f2fde38b1461035157600080fd5b8063877194c5146102bd5780638bdef504146102dd57600080fd5b8063557ca7911461025357806361e7fd5514610273578063715018a6146102935780637f01df221461029d57600080fd5b8063449dbe14116100ee578063449dbe14146101b45780634783c35b146101c75780634a239de2146101e75780634a8cc60f1461021d57600080fd5b80630377a4161461012057806323ad544a1461016a5780632953836c1461017d57806341ea243e1461019d575b600080fd5b6001546101409073ffffffffffffffffffffffffffffffffffffffff1681565b60405173ffffffffffffffffffffffffffffffffffffffff90911681526020015b60405180910390f35b610140610178366004610fca565b610364565b6008546101409073ffffffffffffffffffffffffffffffffffffffff1681565b6101a6600d5481565b604051908152602001610161565b6101406101c23660046110e1565b61039b565b6007546101409073ffffffffffffffffffffffffffffffffffffffff1681565b6101406101f5366004611155565b600b6020526000908152604090205473ffffffffffffffffffffffffffffffffffffffff1681565b61014061022b366004611155565b600c6020526000908152604090205473ffffffffffffffffffffffffffffffffffffffff1681565b6003546101409073ffffffffffffffffffffffffffffffffffffffff1681565b6004546101409073ffffffffffffffffffffffffffffffffffffffff1681565b61029b6107bf565b005b6005546101409073ffffffffffffffffffffffffffffffffffffffff1681565b6002546101409073ffffffffffffffffffffffffffffffffffffffff1681565b6006546101409073ffffffffffffffffffffffffffffffffffffffff1681565b60005473ffffffffffffffffffffffffffffffffffffffff16610140565b610140610329366004611155565b600a6020526000908152604090205473ffffffffffffffffffffffffffffffffffffffff1681565b61029b61035f366004611155565b6107d3565b6009818154811061037457600080fd5b60009182526020909120015473ffffffffffffffffffffffffffffffffffffffff16905081565b60006060806000856040516020016103b391906111a7565b6040516020818303038152906040529250846040516020016103d591906111ec565b604080517fffffffffffffffffffffffffffffffffffffffffffffffffffffffffffffffe081840301815291905260025490925061042c908490849073ffffffffffffffffffffffffffffffffffffffff1661088f565b600980546001810182556000919091527f6e1540171b6c0c960b71a7020d9f60077f6af931a8bbf590da0223dacf75c7af0180547fffffffffffffffffffffffff00000000000000000000000000000000000000001673ffffffffffffffffffffffffffffffffffffffff83161790556040519091506104b0908790602001611231565b6040516020818303038152906040529250846040516020016104d29190611276565b604051602081830303815290604052915061053c600960016009805490506104fa91906112bb565b8154811061050a5761050a6112f9565b60009182526020909120015460035473ffffffffffffffffffffffffffffffffffffffff918216918691869116610a1f565b905080600a60006009600160098054905061055791906112bb565b81548110610567576105676112f9565b60009182526020808320919091015473ffffffffffffffffffffffffffffffffffffffff908116845283820194909452604092830190912080547fffffffffffffffffffffffff0000000000000000000000000000000000000000169490931693909317909155516105db91889101611328565b6040516020818303038152906040529250846040516020016105fd919061136d565b60405160208183030381529060405291506106676009600160098054905061062591906112bb565b81548110610635576106356112f9565b60009182526020909120015460045473ffffffffffffffffffffffffffffffffffffffff918216918691869116610a1f565b905080600b60006009600160098054905061068291906112bb565b81548110610692576106926112f9565b60009182526020808320919091015473ffffffffffffffffffffffffffffffffffffffff9081168452908301939093526040909101902080547fffffffffffffffffffffffff0000000000000000000000000000000000000000169282169290921790915560055460015460025460035460065460075461072596958616958e9581169481169381169281169116610c7f565b905080600c60006009600160098054905061074091906112bb565b81548110610750576107506112f9565b60009182526020808320919091015473ffffffffffffffffffffffffffffffffffffffff9081168452908301939093526040909101902080547fffffffffffffffffffffffff000000000000000000000000000000000000000016929091169190911790559695505050505050565b6107c7610df2565b6107d16000610e73565b565b6107db610df2565b73ffffffffffffffffffffffffffffffffffffffff8116610883576040517f08c379a000000000000000000000000000000000000000000000000000000000815260206004820152602660248201527f4f776e61626c653a206e6577206f776e657220697320746865207a65726f206160448201527f646472657373000000000000000000000000000000000000000000000000000060648201526084015b60405180910390fd5b61088c81610e73565b50565b60085460009081906108b69073ffffffffffffffffffffffffffffffffffffffff16610ee8565b905073ffffffffffffffffffffffffffffffffffffffff8116610905576040517fd786d39300000000000000000000000000000000000000000000000000000000815260040160405180910390fd5b6040517f9c02006100000000000000000000000000000000000000000000000000000000815273ffffffffffffffffffffffffffffffffffffffff8481166004830152821690639c02006190602401600060405180830381600087803b15801561096e57600080fd5b505af1158015610982573d6000803e3d6000fd5b50506001546040517f0e07f85400000000000000000000000000000000000000000000000000000000815273ffffffffffffffffffffffffffffffffffffffff8581169450630e07f85493506109e4928a928a929091169033906004016113ef565b600060405180830381600087803b1580156109fe57600080fd5b505af1158015610a12573d6000803e3d6000fd5b5092979650505050505050565b6008546000908190610a469073ffffffffffffffffffffffffffffffffffffffff16610ee8565b6040517f9c02006100000000000000000000000000000000000000000000000000000000815273ffffffffffffffffffffffffffffffffffffffff858116600483015291925090821690639c02006190602401600060405180830381600087803b158015610ab357600080fd5b505af1158015610ac7573d6000803e3d6000fd5b50505073ffffffffffffffffffffffffffffffffffffffff82169050610b19576040517fd786d39300000000000000000000000000000000000000000000000000000000815260040160405180910390fd5b73ffffffffffffffffffffffffffffffffffffffff8681166000908152600a60205260409020541615610beb57600d546040517fae3dd09500000000000000000000000000000000000000000000000000000000815273ffffffffffffffffffffffffffffffffffffffff83169163ae3dd09591610ba2918991899133918d9190600401611446565b6020604051808303816000875af1158015610bc1573d6000803e3d6000fd5b505050506040513d601f19601f82011682018060405250810190610be5919061149d565b50610c76565b6040517f0e07f85400000000000000000000000000000000000000000000000000000000815273ffffffffffffffffffffffffffffffffffffffff821690630e07f85490610c43908890889033908c906004016113ef565b600060405180830381600087803b158015610c5d57600080fd5b505af1158015610c71573d6000803e3d6000fd5b505050505b95945050505050565b6008546000908190610ca69073ffffffffffffffffffffffffffffffffffffffff16610ee8565b6040517f9c02006100000000000000000000000000000000000000000000000000000000815273ffffffffffffffffffffffffffffffffffffffff8b8116600483015291925090821690639c02006190602401600060405180830381600087803b158015610d1357600080fd5b505af1158015610d27573d6000803e3d6000fd5b50506040517f99e133f900000000000000000000000000000000000000000000000000000000815273ffffffffffffffffffffffffffffffffffffffff8b811660048301528a8116602483015289811660448301528881166064830152878116608483015286811660a4830152841692506399e133f9915060c4016020604051808303816000875af1158015610dc1573d6000803e3d6000fd5b505050506040513d601f19601f82011682018060405250810190610de5919061149d565b5098975050505050505050565b60005473ffffffffffffffffffffffffffffffffffffffff1633146107d1576040517f08c379a000000000000000000000000000000000000000000000000000000000815260206004820181905260248201527f4f776e61626c653a2063616c6c6572206973206e6f7420746865206f776e6572604482015260640161087a565b6000805473ffffffffffffffffffffffffffffffffffffffff8381167fffffffffffffffffffffffff0000000000000000000000000000000000000000831681178455604051919092169283917f8be0079c531659141344cd1fd0a4f28419497f9722a3daafe3b4186f6b6457e09190a35050565b60006040517f3d602d80600a3d3981f3363d3d373d3d3d363d7300000000000000000000000081528260601b60148201527f5af43d82803e903d91602b57fd5bf3000000000000000000000000000000000060288201526037816000f091505073ffffffffffffffffffffffffffffffffffffffff8116610fc5576040517f08c379a000000000000000000000000000000000000000000000000000000000815260206004820152601660248201527f455243313136373a20637265617465206661696c656400000000000000000000604482015260640161087a565b919050565b600060208284031215610fdc57600080fd5b5035919050565b803573ffffffffffffffffffffffffffffffffffffffff81168114610fc557600080fd5b7f4e487b7100000000000000000000000000000000000000000000000000000000600052604160045260246000fd5b600082601f83011261104757600080fd5b813567ffffffffffffffff8082111561106257611062611007565b604051601f83017fffffffffffffffffffffffffffffffffffffffffffffffffffffffffffffffe0908116603f011681019082821181831017156110a8576110a8611007565b816040528381528660208588010111156110c157600080fd5b836020870160208301376000602085830101528094505050505092915050565b6000806000606084860312156110f657600080fd5b6110ff84610fe3565b9250602084013567ffffffffffffffff8082111561111c57600080fd5b61112887838801611036565b9350604086013591508082111561113e57600080fd5b5061114b86828701611036565b9150509250925092565b60006020828403121561116757600080fd5b61117082610fe3565b9392505050565b60005b8381101561119257818101518382015260200161117a565b838111156111a1576000848401525b50505050565b7f414d4f52780000000000000000000000000000000000000000000000000000008152600082516111df816005850160208701611177565b9190910160050192915050565b7f4178000000000000000000000000000000000000000000000000000000000000815260008251611224816002850160208701611177565b9190910160020192915050565b7f4658414d4f527800000000000000000000000000000000000000000000000000815260008251611269816007850160208701611177565b9190910160070192915050565b7f46587800000000000000000000000000000000000000000000000000000000008152600082516112ae816003850160208701611177565b9190910160030192915050565b6000828210156112f4577f4e487b7100000000000000000000000000000000000000000000000000000000600052601160045260246000fd5b500390565b7f4e487b7100000000000000000000000000000000000000000000000000000000600052603260045260246000fd5b7f64414d4f52780000000000000000000000000000000000000000000000000000815260008251611360816006850160208701611177565b9190910160060192915050565b7f4478000000000000000000000000000000000000000000000000000000000000815260008251611224816002850160208701611177565b600081518084526113bd816020860160208601611177565b601f017fffffffffffffffffffffffffffffffffffffffffffffffffffffffffffffffe0169290920160200192915050565b60808152600061140260808301876113a5565b828103602084015261141481876113a5565b91505073ffffffffffffffffffffffffffffffffffffffff808516604084015280841660608401525095945050505050565b60a08152600061145960a08301886113a5565b828103602084015261146b81886113a5565b73ffffffffffffffffffffffffffffffffffffffff968716604085015294909516606083015250608001529392505050565b6000602082840312156114af57600080fd5b8151801515811461117057600080fdfea26469706673582212206231a77dfc807eb90f8e39cb5f6a3475acafe043c861d25d69b040408ded6e5964736f6c634300080f0033",
  "linkReferences": {},
  "deployedLinkReferences": {}
}