{
  "_format": "hh-sol-artifact-1",
  "contractName": "GuildController",
  "sourceName": "contracts/GuildController.sol",
  "abi": [
    {
      "inputs": [],
      "name": "AddressZero",
      "type": "error"
    },
    {
      "inputs": [],
      "name": "AlreadyInitialized",
      "type": "error"
    },
    {
      "inputs": [],
      "name": "EmptyArray",
      "type": "error"
    },
    {
      "inputs": [],
      "name": "InvalidAmount",
      "type": "error"
    },
    {
      "inputs": [],
      "name": "InvalidParameters",
      "type": "error"
    },
    {
      "inputs": [],
      "name": "InvalidSender",
      "type": "error"
    },
    {
      "inputs": [],
      "name": "NotWhitelistedToken",
      "type": "error"
    },
    {
      "inputs": [],
      "name": "ReportNotExists",
      "type": "error"
    },
    {
      "inputs": [],
      "name": "Unauthorized",
      "type": "error"
    },
    {
      "inputs": [],
      "name": "VotingNotStarted",
      "type": "error"
    },
    {
      "inputs": [],
      "name": "VotingTimeExpired",
      "type": "error"
    },
    {
      "inputs": [],
      "name": "VotingTimeNotFinished",
      "type": "error"
    },
    {
      "anonymous": false,
      "inputs": [
        {
          "indexed": false,
          "internalType": "bool",
          "name": "success",
          "type": "bool"
        },
        {
          "indexed": false,
          "internalType": "address",
          "name": "owner",
          "type": "address"
        },
        {
          "indexed": false,
          "internalType": "address",
          "name": "AMORxGuild",
          "type": "address"
        }
      ],
      "name": "Initialized",
      "type": "event"
    },
    {
      "anonymous": false,
      "inputs": [
        {
          "indexed": true,
          "internalType": "address",
          "name": "previousOwner",
          "type": "address"
        },
        {
          "indexed": true,
          "internalType": "address",
          "name": "newOwner",
          "type": "address"
        }
      ],
      "name": "OwnershipTransferred",
      "type": "event"
    },
    {
      "inputs": [],
      "name": "ADDITIONAL_VOTING_TIME",
      "outputs": [
        {
          "internalType": "uint256",
          "name": "",
          "type": "uint256"
        }
      ],
      "stateMutability": "view",
      "type": "function"
    },
    {
      "inputs": [],
      "name": "AMOR",
      "outputs": [
        {
          "internalType": "address",
          "name": "",
          "type": "address"
        }
      ],
      "stateMutability": "view",
      "type": "function"
    },
    {
      "inputs": [],
      "name": "AMORxGuild",
      "outputs": [
        {
          "internalType": "address",
          "name": "",
          "type": "address"
        }
      ],
      "stateMutability": "view",
      "type": "function"
    },
    {
      "inputs": [],
      "name": "DAY",
      "outputs": [
        {
          "internalType": "uint256",
          "name": "",
          "type": "uint256"
        }
      ],
      "stateMutability": "view",
      "type": "function"
    },
    {
      "inputs": [],
      "name": "FEE_DENOMINATOR",
      "outputs": [
        {
          "internalType": "uint256",
          "name": "",
          "type": "uint256"
        }
      ],
      "stateMutability": "view",
      "type": "function"
    },
    {
      "inputs": [],
      "name": "FXAMORxGuild",
      "outputs": [
        {
          "internalType": "address",
          "name": "",
          "type": "address"
        }
      ],
      "stateMutability": "view",
      "type": "function"
    },
    {
      "inputs": [],
      "name": "HOUR",
      "outputs": [
        {
          "internalType": "uint256",
          "name": "",
          "type": "uint256"
        }
      ],
      "stateMutability": "view",
      "type": "function"
    },
    {
      "inputs": [],
      "name": "MetaDaoController",
      "outputs": [
        {
          "internalType": "address",
          "name": "",
          "type": "address"
        }
      ],
      "stateMutability": "view",
      "type": "function"
    },
    {
      "inputs": [],
      "name": "WEEK",
      "outputs": [
        {
          "internalType": "uint256",
          "name": "",
          "type": "uint256"
        }
      ],
      "stateMutability": "view",
      "type": "function"
    },
    {
      "inputs": [
        {
          "internalType": "address",
          "name": "impactMaker",
          "type": "address"
        },
        {
          "internalType": "uint256",
          "name": "weight",
          "type": "uint256"
        }
      ],
      "name": "addImpactMaker",
      "outputs": [],
      "stateMutability": "nonpayable",
      "type": "function"
    },
    {
      "inputs": [
        {
          "internalType": "bytes32",
          "name": "report",
          "type": "bytes32"
        },
        {
          "internalType": "uint8",
          "name": "v",
          "type": "uint8"
        },
        {
          "internalType": "bytes32",
          "name": "r",
          "type": "bytes32"
        },
        {
          "internalType": "bytes32",
          "name": "s",
          "type": "bytes32"
        }
      ],
      "name": "addReport",
      "outputs": [],
      "stateMutability": "nonpayable",
      "type": "function"
    },
    {
      "inputs": [
        {
          "internalType": "address",
          "name": "impactMaker",
          "type": "address"
        },
        {
          "internalType": "uint256",
          "name": "weight",
          "type": "uint256"
        }
      ],
      "name": "changeImpactMaker",
      "outputs": [],
      "stateMutability": "nonpayable",
      "type": "function"
    },
    {
      "inputs": [
        {
          "internalType": "address",
          "name": "impact",
          "type": "address"
        },
        {
          "internalType": "address[]",
          "name": "token",
          "type": "address[]"
        }
      ],
      "name": "claim",
      "outputs": [],
      "stateMutability": "nonpayable",
      "type": "function"
    },
    {
      "inputs": [
        {
          "internalType": "address",
          "name": "",
          "type": "address"
        },
        {
          "internalType": "address",
          "name": "",
          "type": "address"
        }
      ],
      "name": "claimableTokens",
      "outputs": [
        {
          "internalType": "uint256",
          "name": "",
          "type": "uint256"
        }
      ],
      "stateMutability": "view",
      "type": "function"
    },
    {
      "inputs": [],
      "name": "dAMORxGuild",
      "outputs": [
        {
          "internalType": "address",
          "name": "",
          "type": "address"
        }
      ],
      "stateMutability": "view",
      "type": "function"
    },
    {
      "inputs": [
        {
          "internalType": "uint256",
          "name": "allAmount",
          "type": "uint256"
        },
        {
          "internalType": "address",
          "name": "token",
          "type": "address"
        }
      ],
      "name": "donate",
      "outputs": [
        {
          "internalType": "uint256",
          "name": "",
          "type": "uint256"
        }
      ],
      "stateMutability": "nonpayable",
      "type": "function"
    },
    {
      "inputs": [],
      "name": "finalizeVoting",
      "outputs": [],
      "stateMutability": "nonpayable",
      "type": "function"
    },
    {
      "inputs": [
        {
          "internalType": "address",
          "name": "token",
          "type": "address"
        }
      ],
      "name": "gatherDonation",
      "outputs": [],
      "stateMutability": "nonpayable",
      "type": "function"
    },
    {
      "inputs": [
        {
          "internalType": "uint256",
          "name": "timestamp",
          "type": "uint256"
        }
      ],
      "name": "getWeekday",
      "outputs": [
        {
          "internalType": "uint8",
          "name": "",
          "type": "uint8"
        }
      ],
      "stateMutability": "pure",
      "type": "function"
    },
    {
      "inputs": [
        {
          "internalType": "uint256",
          "name": "",
          "type": "uint256"
        }
      ],
      "name": "impactMakers",
      "outputs": [
        {
          "internalType": "address",
          "name": "",
          "type": "address"
        }
      ],
      "stateMutability": "view",
      "type": "function"
    },
    {
      "inputs": [
        {
          "internalType": "address",
          "name": "initOwner",
          "type": "address"
        },
        {
          "internalType": "address",
          "name": "AMOR_",
          "type": "address"
        },
        {
          "internalType": "address",
          "name": "AMORxGuild_",
          "type": "address"
        },
        {
          "internalType": "address",
          "name": "FXAMORxGuild_",
          "type": "address"
        },
        {
          "internalType": "address",
          "name": "MetaDaoController_",
          "type": "address"
        },
        {
          "internalType": "address",
          "name": "multisig_",
          "type": "address"
        }
      ],
      "name": "init",
      "outputs": [
        {
          "internalType": "bool",
          "name": "",
          "type": "bool"
        }
      ],
      "stateMutability": "nonpayable",
      "type": "function"
    },
    {
      "inputs": [],
      "name": "multisig",
      "outputs": [
        {
          "internalType": "address",
          "name": "",
          "type": "address"
        }
      ],
      "stateMutability": "view",
      "type": "function"
    },
    {
      "inputs": [],
      "name": "owner",
      "outputs": [
        {
          "internalType": "address",
          "name": "",
          "type": "address"
        }
      ],
      "stateMutability": "view",
      "type": "function"
    },
    {
      "inputs": [],
      "name": "percentToConvert",
      "outputs": [
        {
          "internalType": "uint256",
          "name": "",
          "type": "uint256"
        }
      ],
      "stateMutability": "view",
      "type": "function"
    },
    {
      "inputs": [
        {
          "internalType": "uint256",
          "name": "",
          "type": "uint256"
        }
      ],
      "name": "queueReportsAuthors",
      "outputs": [
        {
          "internalType": "address",
          "name": "",
          "type": "address"
        }
      ],
      "stateMutability": "view",
      "type": "function"
    },
    {
      "inputs": [
        {
          "internalType": "address",
          "name": "impactMaker",
          "type": "address"
        }
      ],
      "name": "removeImpactMaker",
      "outputs": [],
      "stateMutability": "nonpayable",
      "type": "function"
    },
    {
      "inputs": [],
      "name": "renounceOwnership",
      "outputs": [],
      "stateMutability": "nonpayable",
      "type": "function"
    },
    {
      "inputs": [
        {
          "internalType": "uint256",
          "name": "",
          "type": "uint256"
        }
      ],
      "name": "reportsAuthors",
      "outputs": [
        {
          "internalType": "address",
          "name": "",
          "type": "address"
        }
      ],
      "stateMutability": "view",
      "type": "function"
    },
    {
      "inputs": [
        {
          "internalType": "uint256",
          "name": "",
          "type": "uint256"
        }
      ],
      "name": "reportsQueue",
      "outputs": [
        {
          "internalType": "uint256",
          "name": "",
          "type": "uint256"
        }
      ],
      "stateMutability": "view",
      "type": "function"
    },
    {
      "inputs": [
        {
          "internalType": "uint256",
          "name": "",
          "type": "uint256"
        }
      ],
      "name": "reportsVoting",
      "outputs": [
        {
          "internalType": "int256",
          "name": "",
          "type": "int256"
        }
      ],
      "stateMutability": "view",
      "type": "function"
    },
    {
      "inputs": [
        {
          "internalType": "uint256",
          "name": "",
          "type": "uint256"
        }
      ],
      "name": "reportsWeight",
      "outputs": [
        {
          "internalType": "int256",
          "name": "",
          "type": "int256"
        }
      ],
      "stateMutability": "view",
      "type": "function"
    },
    {
      "inputs": [
        {
          "internalType": "address[]",
          "name": "arrImpactMakers",
          "type": "address[]"
        },
        {
          "internalType": "uint256[]",
          "name": "arrWeight",
          "type": "uint256[]"
        }
      ],
      "name": "setImpactMakers",
      "outputs": [],
      "stateMutability": "nonpayable",
      "type": "function"
    },
    {
      "inputs": [
        {
          "internalType": "uint256",
          "name": "newPercentToConvert",
          "type": "uint256"
        }
      ],
      "name": "setPercentToConvert",
      "outputs": [],
      "stateMutability": "nonpayable",
      "type": "function"
    },
    {
      "inputs": [
        {
          "internalType": "uint256",
          "name": "newTime",
          "type": "uint256"
        }
      ],
      "name": "setVotingPeriod",
      "outputs": [],
      "stateMutability": "nonpayable",
      "type": "function"
    },
    {
      "inputs": [],
      "name": "startVoting",
      "outputs": [],
      "stateMutability": "nonpayable",
      "type": "function"
    },
    {
      "inputs": [],
      "name": "timeVoting",
      "outputs": [
        {
          "internalType": "uint256",
          "name": "",
          "type": "uint256"
        }
      ],
      "stateMutability": "view",
      "type": "function"
    },
    {
      "inputs": [],
      "name": "totalReportsWeight",
      "outputs": [
        {
          "internalType": "uint256",
          "name": "",
          "type": "uint256"
        }
      ],
      "stateMutability": "view",
      "type": "function"
    },
    {
      "inputs": [],
      "name": "totalWeight",
      "outputs": [
        {
          "internalType": "uint256",
          "name": "",
          "type": "uint256"
        }
      ],
      "stateMutability": "view",
      "type": "function"
    },
    {
      "inputs": [
        {
          "internalType": "address",
          "name": "newOwner",
          "type": "address"
        }
      ],
      "name": "transferOwnership",
      "outputs": [],
      "stateMutability": "nonpayable",
      "type": "function"
    },
    {
      "inputs": [],
      "name": "trigger",
      "outputs": [
        {
          "internalType": "bool",
          "name": "",
          "type": "bool"
        }
      ],
      "stateMutability": "view",
      "type": "function"
    },
    {
      "inputs": [
        {
          "internalType": "uint256",
          "name": "id",
          "type": "uint256"
        },
        {
          "internalType": "uint256",
          "name": "amount",
          "type": "uint256"
        },
        {
          "internalType": "bool",
          "name": "sign",
          "type": "bool"
        }
      ],
      "name": "voteForReport",
      "outputs": [],
      "stateMutability": "nonpayable",
      "type": "function"
    },
    {
      "inputs": [
        {
          "internalType": "uint256",
          "name": "",
          "type": "uint256"
        },
        {
          "internalType": "uint256",
          "name": "",
          "type": "uint256"
        }
      ],
      "name": "voters",
      "outputs": [
        {
          "internalType": "address",
          "name": "",
          "type": "address"
        }
      ],
      "stateMutability": "view",
      "type": "function"
    },
    {
      "inputs": [
        {
          "internalType": "uint256",
          "name": "",
          "type": "uint256"
        },
        {
          "internalType": "address",
          "name": "",
          "type": "address"
        }
      ],
      "name": "votes",
      "outputs": [
        {
          "internalType": "int256",
          "name": "",
          "type": "int256"
        }
      ],
      "stateMutability": "view",
      "type": "function"
    },
    {
      "inputs": [
        {
          "internalType": "address",
          "name": "",
          "type": "address"
        }
      ],
      "name": "weights",
      "outputs": [
        {
          "internalType": "uint256",
          "name": "",
          "type": "uint256"
        }
      ],
      "stateMutability": "view",
      "type": "function"
    }
  ],
  "bytecode": "0x608060405260646017553480156200001657600080fd5b50620000223362000028565b62000078565b600080546001600160a01b038381166001600160a01b0319831681178455604051919092169283917f8be0079c531659141344cd1fd0a4f28419497f9722a3daafe3b4186f6b6457e09190a35050565b613a6c80620000886000396000f3fe608060405234801561001057600080fd5b50600436106102f45760003560e01c80638e2eba0911610191578063c12a03b1116100e3578063ea0217cf11610097578063fba00cbd11610071578063fba00cbd146106d5578063fbdc47f0146106e8578063fc0a8438146106fb57600080fd5b8063ea0217cf146106a5578063f2fde38b146106b8578063f4359ce5146106cb57600080fd5b8063d23254b4116100c8578063d23254b414610668578063d73792a914610693578063dc37bc7d1461069c57600080fd5b8063c12a03b11461063f578063c76035d21461064857600080fd5b8063a7cac84611610145578063b209659b1161011f578063b209659b146105f9578063b5db443514610619578063ba36c1f71461062c57600080fd5b8063a7cac84614610590578063a7e1af3c146105b0578063aadf16bf146105c357600080fd5b806399e133f91161017657806399e133f9146105495780639aabdf891461055c578063a39dc9be1461058757600080fd5b80638e2eba091461052d57806396c82e571461054057600080fd5b8063608851651161024a5780637bb576f5116101fe5780638004f9fa116101d85780638004f9fa146104dc5780638bdef504146104ef5780638da5cb5b1461050f57600080fd5b80637bb576f5146104745780637f005b42146104945780637fec8d38146104a757600080fd5b80636c2101dd1161022f5780636c2101dd14610450578063715018a614610463578063728a0d141461046b57600080fd5b8063608851651461042a5780636a067a491461043d57600080fd5b80632b8247a7116102ac5780634783c35b116102865780634783c35b146103dc5780634ac1ad78146103fc5780635144171b1461042157600080fd5b80632b8247a7146103965780632d96d461146103a9578063435680a2146103c957600080fd5b80632260b98b116102dd5780632260b98b1461036357806327cfe8561461036b578063281e0af91461038357600080fd5b80630ba796de146102f95780631ec6b60a14610359575b600080fd5b61032f61030736600461315f565b60056020526000908152604090205473ffffffffffffffffffffffffffffffffffffffff1681565b60405173ffffffffffffffffffffffffffffffffffffffff90911681526020015b60405180910390f35b61036161070e565b005b6103616109bf565b6103756201518081565b604051908152602001610350565b6103616103913660046131a1565b6110bc565b6103616103a436600461315f565b6111bb565b60105461032f9073ffffffffffffffffffffffffffffffffffffffff1681565b6103616103d73660046131d9565b6111c8565b60135461032f9073ffffffffffffffffffffffffffffffffffffffff1681565b61040f61040a36600461315f565b6115a9565b60405160ff9091168152602001610350565b61037560165481565b610361610438366004613326565b6115d5565b61037561044b36600461315f565b611724565b61037561045e36600461315f565b611745565b610361611755565b610375600b5481565b600f5461032f9073ffffffffffffffffffffffffffffffffffffffff1681565b61032f6104a236600461315f565b611769565b6013546104cc9074010000000000000000000000000000000000000000900460ff1681565b6040519015158152602001610350565b6103756104ea3660046133e1565b6117a0565b60125461032f9073ffffffffffffffffffffffffffffffffffffffff1681565b60005473ffffffffffffffffffffffffffffffffffffffff1661032f565b61036161053b36600461340d565b611f92565b610375600a5481565b6104cc61055736600461345b565b612143565b61037561056a3660046134cf565b600860209081526000928352604080842090915290825290205481565b610375610e1081565b61037561059e3660046134f9565b60096020526000908152604090205481565b6103616105be3660046131a1565b6122c7565b61032f6105d136600461315f565b60156020526000908152604090205473ffffffffffffffffffffffffffffffffffffffff1681565b60115461032f9073ffffffffffffffffffffffffffffffffffffffff1681565b6103616106273660046134f9565b6123b9565b61037561063a36600461315f565b6125a6565b61037560065481565b600e5461032f9073ffffffffffffffffffffffffffffffffffffffff1681565b6103756106763660046133e1565b600260209081526000928352604080842090915290825290205481565b6103756103e881565b61037560175481565b6103616106b336600461315f565b6125b6565b6103616106c63660046134f9565b612600565b61037562093a8081565b61032f6106e3366004613514565b6126bc565b6103616106f63660046134f9565b612701565b610361610709366004613536565b612915565b601654600b5461071e91906135a8565b421015610757576040517f8a05045100000000000000000000000000000000000000000000000000000000815260040160405180910390fd5b601454600a1115610794576040517f2c5211c600000000000000000000000000000000000000000000000000000000815260040160405180910390fd5b601654600b546107a491906135a8565b42101580156107b45750600b5415155b156107c1576107c16109bf565b4260006107cd826115a9565b60ff169050806000036107ee576107e762093a80836135a8565b9150610858565b80600614806107fd5750806005145b156108315761080d8160076135c0565b61081a90620151806135d7565b6108279062093a806135a8565b6107e790836135a8565b61083e81620151806135d7565b61084b9062093a806135c0565b61085590836135a8565b91505b620151806108668184613643565b61087091906135d7565b915061087f610e10600c6135d7565b61088990836135a8565b915060005b60145481101561096a576000818152601560208181526040808420805460058452918520805473ffffffffffffffffffffffffffffffffffffffff9093167fffffffffffffffffffffffff00000000000000000000000000000000000000009384161790556001805480820182557fb10e2d527612073b26eecdfd717e6a320cf44b4afac2b0732d9fcbe2b7fa0cf6018690556004805491820190557f8a35acfbc15ff81a39ae7d344fd709f28e8600b4aa8c65c6b64bfe7fe36bd19b019490945591905281541690558061096281613657565b91505061088e565b50600b829055601380547fffffffffffffffffffffff00ffffffffffffffffffffffffffffffffffffffff16740100000000000000000000000000000000000000001790556109bb60146000613131565b5050565b60135474010000000000000000000000000000000000000000900460ff161515600003610a18576040517f513befd600000000000000000000000000000000000000000000000000000000815260040160405180910390fd5b601654600b54610a2891906135a8565b421015610a61576040517f8a05045100000000000000000000000000000000000000000000000000000000815260040160405180910390fd5b60005b60015481101561101b576000606460018381548110610a8557610a8561368f565b90600052602060002001546032610a9c91906136be565b610aa6919061377a565b600083815260036020908152604080832080548251818502810185019093528083529495509293909291830182828015610b1657602002820191906000526020600020905b815473ffffffffffffffffffffffffffffffffffffffff168152600190910190602001808311610aeb575b50505050509050600060048481548110610b3257610b3261368f565b90600052602060002001541315610d6857600083815260056020526040902054600c54610b799173ffffffffffffffffffffffffffffffffffffffff918216911684612ada565b60005b600084815260036020526040902054811015610d6257600084815260026020526040812083518290859085908110610bb657610bb661368f565b602002602001015173ffffffffffffffffffffffffffffffffffffffff1673ffffffffffffffffffffffffffffffffffffffff168152602001908152602001600020541315610ce257600060018581548110610c1457610c1461368f565b9060005260206000200154600260008781526020019081526020016000206000858581518110610c4657610c4661368f565b602002602001015173ffffffffffffffffffffffffffffffffffffffff1673ffffffffffffffffffffffffffffffffffffffff1681526020019081526020016000205485610c9491906136be565b610c9e919061377a565b9050610ce0838381518110610cb557610cb561368f565b6020908102919091010151600c5473ffffffffffffffffffffffffffffffffffffffff169083612ada565b505b600260008581526020019081526020016000206000838381518110610d0957610d0961368f565b602002602001015173ffffffffffffffffffffffffffffffffffffffff1673ffffffffffffffffffffffffffffffffffffffff168152602001908152602001600020600090558080610d5a90613657565b915050610b7c565b50610fef565b60005b600084815260036020526040902054811015610f3457600084815260026020526040812083518290859085908110610da557610da561368f565b602002602001015173ffffffffffffffffffffffffffffffffffffffff1673ffffffffffffffffffffffffffffffffffffffff168152602001908152602001600020541215610eb4576000610e62600260008781526020019081526020016000206000858581518110610e1a57610e1a61368f565b602002602001015173ffffffffffffffffffffffffffffffffffffffff1673ffffffffffffffffffffffffffffffffffffffff16815260200190815260200160002054612bae565b9050600060018681548110610e7957610e7961368f565b90600052602060002001548286610e9091906136be565b610e9a919061377a565b9050610eb1848481518110610cb557610cb561368f565b50505b600260008581526020019081526020016000206000838381518110610edb57610edb61368f565b602002602001015173ffffffffffffffffffffffffffffffffffffffff1673ffffffffffffffffffffffffffffffffffffffff168152602001908152602001600020600090558080610f2c90613657565b915050610d6b565b5060005b600154811015610fed57600060048281548110610f5757610f5761368f565b90600052602060002001541315610fdb57600060065460018381548110610f8057610f8061368f565b906000526020600020015485610f9691906136be565b610fa0919061377a565b600083815260056020526040902054600c54919250610fd99173ffffffffffffffffffffffffffffffffffffffff908116911683612ada565b505b80610fe581613657565b915050610f38565b505b600083815260036020526040812061100691613131565b5050808061101390613657565b915050610a64565b5060005b60015481101561106f57600081815260056020526040902080547fffffffffffffffffffffffff00000000000000000000000000000000000000001690558061106781613657565b91505061101f565b5061107c60016000613131565b61108860046000613131565b60006006819055600b55601380547fffffffffffffffffffffff00ffffffffffffffffffffffffffffffffffffffff169055565b6110c4612bca565b73ffffffffffffffffffffffffffffffffffffffff821660009081526009602052604090205415611121576040517fe523909000000000000000000000000000000000000000000000000000000000815260040160405180910390fd5b60078054600181019091557fa66cc928b5edb82af9bd49922954155ab7b0942694bea4ce44661d9a8736c6880180547fffffffffffffffffffffffff00000000000000000000000000000000000000001673ffffffffffffffffffffffffffffffffffffffff84169081179091556000908152600960205260408120829055600a80548392906111b29084906135a8565b90915550505050565b6111c3612bca565b601755565b60135474010000000000000000000000000000000000000000900460ff161515600003611221576040517f7fa0120200000000000000000000000000000000000000000000000000000000815260040160405180910390fd5b8115801561122f5750333014155b15611266576040517f2c5211c600000000000000000000000000000000000000000000000000000000815260040160405180910390fd5b6001548311156112a2576040517f513befd600000000000000000000000000000000000000000000000000000000815260040160405180910390fd5b601654600b546112b291906135a8565b4211156112eb576040517fe9e735df00000000000000000000000000000000000000000000000000000000815260040160405180910390fd5b6011546040517f70a08231000000000000000000000000000000000000000000000000000000008152336004820152839173ffffffffffffffffffffffffffffffffffffffff16906370a0823190602401602060405180830381865afa158015611359573d6000803e3d6000fd5b505050506040513d601f19601f8201168201806040525081019061137d91906137e2565b10156113b5576040517f2c5211c600000000000000000000000000000000000000000000000000000000815260040160405180910390fd5b600d546040517f9dc29fac0000000000000000000000000000000000000000000000000000000081523360048201526024810184905273ffffffffffffffffffffffffffffffffffffffff90911690639dc29fac90604401600060405180830381600087803b15801561142757600080fd5b505af115801561143b573d6000803e3d6000fd5b50505060008481526003602090815260408220805460018181018355918452919092200180547fffffffffffffffffffffffff0000000000000000000000000000000000000000163317905580548492508590811061149c5761149c61368f565b9060005260206000200160008282546114b591906137fb565b9250508190555081600660008282546114ce91906135a8565b90915550508015156001036115435781600484815481106114f1576114f161368f565b90600052602060002001600082825461150a91906137fb565b90915550506000838152600260209081526040808320338452909152812080548492906115389084906137fb565b909155506115a49050565b81600484815481106115575761155761368f565b906000526020600020016000828254611570919061386f565b909155505060008381526002602090815260408083203384529091528120805484929061159e90849061386f565b90915550505b505050565b600060076115ba6201518084613643565b6115c59060046135a8565b6115cf91906138e3565b92915050565b6115dd612bca565b6115e960076000613131565b60005b82518110156115a45760078382815181106116095761160961368f565b60209081029190910181015182546001810184556000938452919092200180547fffffffffffffffffffffffff00000000000000000000000000000000000000001673ffffffffffffffffffffffffffffffffffffffff909216919091179055815182908290811061167d5761167d61368f565b60200260200101516009600085848151811061169b5761169b61368f565b602002602001015173ffffffffffffffffffffffffffffffffffffffff1673ffffffffffffffffffffffffffffffffffffffff168152602001908152602001600020819055508181815181106116f3576116f361368f565b6020026020010151600a600082825461170c91906135a8565b9091555081905061171c81613657565b9150506115ec565b6001818154811061173457600080fd5b600091825260209091200154905081565b6004818154811061173457600080fd5b61175d612bca565b6117676000612c4b565b565b6007818154811061177957600080fd5b60009182526020909120015473ffffffffffffffffffffffffffffffffffffffff16905081565b6012546040517f3af32abf00000000000000000000000000000000000000000000000000000000815273ffffffffffffffffffffffffffffffffffffffff83811660048301526000921690633af32abf90602401602060405180830381865afa158015611811573d6000803e3d6000fd5b505050506040513d601f19601f8201168201806040525081019061183591906138f7565b61186b576040517f65a9cebb00000000000000000000000000000000000000000000000000000000815260040160405180910390fd5b6040517f70a08231000000000000000000000000000000000000000000000000000000008152336004820152839073ffffffffffffffffffffffffffffffffffffffff8416906370a0823190602401602060405180830381865afa1580156118d7573d6000803e3d6000fd5b505050506040513d601f19601f820116820180604052508101906118fb91906137e2565b10806119075750600a83105b1561193e576040517f2c5211c600000000000000000000000000000000000000000000000000000000815260040160405180910390fd5b60006103e86017548561195191906135d7565b61195b9190613643565b600f54909150819073ffffffffffffffffffffffffffffffffffffffff8581169116148015906119a65750600e5473ffffffffffffffffffffffffffffffffffffffff858116911614155b156119b45760009150611c92565b600e5473ffffffffffffffffffffffffffffffffffffffff90811690851603611c6d576040517f70a0823100000000000000000000000000000000000000000000000000000000815230600482015260009073ffffffffffffffffffffffffffffffffffffffff8616906370a0823190602401602060405180830381865afa158015611a44573d6000803e3d6000fd5b505050506040513d601f19601f82011682018060405250810190611a6891906137e2565b9050611a8c73ffffffffffffffffffffffffffffffffffffffff8616333086612cc0565b6040517f70a08231000000000000000000000000000000000000000000000000000000008152306004820152600090829073ffffffffffffffffffffffffffffffffffffffff8816906370a0823190602401602060405180830381865afa158015611afb573d6000803e3d6000fd5b505050506040513d601f19601f82011682018060405250810190611b1f91906137e2565b611b2991906135c0565b600f546040517f095ea7b300000000000000000000000000000000000000000000000000000000815273ffffffffffffffffffffffffffffffffffffffff91821660048201526024810183905291925087169063095ea7b3906044016020604051808303816000875af1158015611ba4573d6000803e3d6000fd5b505050506040513d601f19601f82011682018060405250810190611bc891906138f7565b50600f546040517f6845b90a0000000000000000000000000000000000000000000000000000000081523060048201526024810183905273ffffffffffffffffffffffffffffffffffffffff90911690636845b90a906044016020604051808303816000875af1158015611c40573d6000803e3d6000fd5b505050506040513d601f19601f82011682018060405250810190611c6491906137e2565b92505050611c92565b600c54611c929073ffffffffffffffffffffffffffffffffffffffff16333084612cc0565b600f5473ffffffffffffffffffffffffffffffffffffffff85811691161480611cd55750600e5473ffffffffffffffffffffffffffffffffffffffff8581169116145b15611e1757600c546011546040517f095ea7b300000000000000000000000000000000000000000000000000000000815273ffffffffffffffffffffffffffffffffffffffff91821660048201526024810184905291169063095ea7b3906044016020604051808303816000875af1158015611d55573d6000803e3d6000fd5b505050506040513d601f19601f82011682018060405250810190611d7991906138f7565b50600d546040517fadc9772e0000000000000000000000000000000000000000000000000000000081523360048201526024810183905273ffffffffffffffffffffffffffffffffffffffff9091169063adc9772e906044016020604051808303816000875af1158015611df1573d6000803e3d6000fd5b505050506040513d601f19601f82011682018060405250810190611e1591906137e2565b505b6000611e2383876135c0565b6040517f70a0823100000000000000000000000000000000000000000000000000000000815230600482015290915060009073ffffffffffffffffffffffffffffffffffffffff8716906370a0823190602401602060405180830381865afa158015611e93573d6000803e3d6000fd5b505050506040513d601f19601f82011682018060405250810190611eb791906137e2565b9050611edb73ffffffffffffffffffffffffffffffffffffffff8716333085612cc0565b6040517f70a08231000000000000000000000000000000000000000000000000000000008152306004820152600090829073ffffffffffffffffffffffffffffffffffffffff8916906370a0823190602401602060405180830381865afa158015611f4a573d6000803e3d6000fd5b505050506040513d601f19601f82011682018060405250810190611f6e91906137e2565b611f7891906135c0565b9050611f85818833612d24565b5092979650505050505050565b73ffffffffffffffffffffffffffffffffffffffff82163314611fe1576040517f82b4290000000000000000000000000000000000000000000000000000000000815260040160405180910390fd5b60005b81518110156115a45773ffffffffffffffffffffffffffffffffffffffff8316600090815260086020526040812083516120af9286929186908690811061202d5761202d61368f565b602002602001015173ffffffffffffffffffffffffffffffffffffffff1673ffffffffffffffffffffffffffffffffffffffff168152602001908152602001600020548484815181106120825761208261368f565b602002602001015173ffffffffffffffffffffffffffffffffffffffff16612ada9092919063ffffffff16565b73ffffffffffffffffffffffffffffffffffffffff83166000908152600860205260408120835182908590859081106120ea576120ea61368f565b602002602001015173ffffffffffffffffffffffffffffffffffffffff1673ffffffffffffffffffffffffffffffffffffffff16815260200190815260200160002081905550808061213b90613657565b915050611fe4565b60185460009060ff1615612183576040517f0dc149f000000000000000000000000000000000000000000000000000000000815260040160405180910390fd5b61218c87612c4b565b600e805473ffffffffffffffffffffffffffffffffffffffff8881167fffffffffffffffffffffffff000000000000000000000000000000000000000092831617909255600f80548884169083168117909155600c8054831682179055600d8054888516908416811790915560118054841690911790556012805487851693169290921790915560138054600060168190557fffffffffffffffffffffff00000000000000000000000000000000000000000090911686851617909155600b55601880547fffffffffffffffffffffffffffffffffffffffffffffffffffffffffffffff0016600190811790915560408051918252928a166020820152918201527fc87c04922c077302cf4c93ca0785707d2272b98c125c11c3c98f545718f3e27c9060600160405180910390a15060019695505050505050565b6122cf612bca565b73ffffffffffffffffffffffffffffffffffffffff82166000908152600960205260409020548111156123485773ffffffffffffffffffffffffffffffffffffffff821660009081526009602052604090205461232c90826135c0565b600a600082825461233d91906135a8565b909155506123909050565b73ffffffffffffffffffffffffffffffffffffffff82166000908152600960205260409020546123799082906135c0565b600a600082825461238a91906135c0565b90915550505b73ffffffffffffffffffffffffffffffffffffffff909116600090815260096020526040902055565b6123c1612bca565b60005b600754811015612540578173ffffffffffffffffffffffffffffffffffffffff16600782815481106123f8576123f861368f565b60009182526020909120015473ffffffffffffffffffffffffffffffffffffffff160361252e576007805461242f906001906135c0565b8154811061243f5761243f61368f565b6000918252602090912001546007805473ffffffffffffffffffffffffffffffffffffffff90921691839081106124785761247861368f565b9060005260206000200160006101000a81548173ffffffffffffffffffffffffffffffffffffffff021916908373ffffffffffffffffffffffffffffffffffffffff16021790555060078054806124d1576124d1613914565b60008281526020902081017fffffffffffffffffffffffffffffffffffffffffffffffffffffffffffffffff90810180547fffffffffffffffffffffffff0000000000000000000000000000000000000000169055019055612540565b8061253881613657565b9150506123c4565b5073ffffffffffffffffffffffffffffffffffffffff8116600090815260096020526040812054600a80549192909161257a9084906135c0565b909155505073ffffffffffffffffffffffffffffffffffffffff16600090815260096020526040812055565b6014818154811061173457600080fd5b6125be612bca565b6202a3008110156125fb576040517f2c5211c600000000000000000000000000000000000000000000000000000000815260040160405180910390fd5b601655565b612608612bca565b73ffffffffffffffffffffffffffffffffffffffff81166126b0576040517f08c379a000000000000000000000000000000000000000000000000000000000815260206004820152602660248201527f4f776e61626c653a206e6577206f776e657220697320746865207a65726f206160448201527f646472657373000000000000000000000000000000000000000000000000000060648201526084015b60405180910390fd5b6126b981612c4b565b50565b600360205281600052604060002081815481106126d857600080fd5b60009182526020909120015473ffffffffffffffffffffffffffffffffffffffff169150829050565b6012546040517f3af32abf00000000000000000000000000000000000000000000000000000000815273ffffffffffffffffffffffffffffffffffffffff838116600483015290911690633af32abf90602401602060405180830381865afa158015612771573d6000803e3d6000fd5b505050506040513d601f19601f8201168201806040525081019061279591906138f7565b6127cb576040517f65a9cebb00000000000000000000000000000000000000000000000000000000815260040160405180910390fd5b6012546040517ffb4662bf00000000000000000000000000000000000000000000000000000000815230600482015273ffffffffffffffffffffffffffffffffffffffff8381166024830152600092169063fb4662bf906044016020604051808303816000875af1158015612844573d6000803e3d6000fd5b505050506040513d601f19601f8201168201806040525081019061286891906137e2565b6012546040517f32f289cf00000000000000000000000000000000000000000000000000000000815273ffffffffffffffffffffffffffffffffffffffff85811660048301529293509116906332f289cf90602401600060405180830381600087803b1580156128d757600080fd5b505af11580156128eb573d6000803e3d6000fd5b50506012546115a49250839150849073ffffffffffffffffffffffffffffffffffffffff16612d24565b60006040518060400160405280601c81526020017f19457468657265756d205369676e6564204d6573736167653a0a33320000000081525090506000818660405160200161296492919061396f565b604080517fffffffffffffffffffffffffffffffffffffffffffffffffffffffffffffffe08184030181528282528051602091820120600080855291840180845281905260ff89169284019290925260608301879052608083018690529092509060019060a0016020604051602081039080840390855afa1580156129ed573d6000803e3d6000fd5b50506040517fffffffffffffffffffffffffffffffffffffffffffffffffffffffffffffffe0015191505073ffffffffffffffffffffffffffffffffffffffff81163314612a67576040517f82b4290000000000000000000000000000000000000000000000000000000000815260040160405180910390fd5b505060148054600081815260156020526040812080547fffffffffffffffffffffffff0000000000000000000000000000000000000000163317905582546001810184559290527fce6d7b5282bd9a3661ae061feed1dbda4e52ab073b1f9285be6e155d9c38d4ec909101555050505050565b60405173ffffffffffffffffffffffffffffffffffffffff83166024820152604481018290526115a49084907fa9059cbb00000000000000000000000000000000000000000000000000000000906064015b604080517fffffffffffffffffffffffffffffffffffffffffffffffffffffffffffffffe08184030181529190526020810180517bffffffffffffffffffffffffffffffffffffffffffffffffffffffff167fffffffff0000000000000000000000000000000000000000000000000000000090931692909217909152612e25565b600080821215612bc657612bc182613991565b6115cf565b5090565b60005473ffffffffffffffffffffffffffffffffffffffff163314611767576040517f08c379a000000000000000000000000000000000000000000000000000000000815260206004820181905260248201527f4f776e61626c653a2063616c6c6572206973206e6f7420746865206f776e657260448201526064016126a7565b6000805473ffffffffffffffffffffffffffffffffffffffff8381167fffffffffffffffffffffffff0000000000000000000000000000000000000000831681178455604051919092169283917f8be0079c531659141344cd1fd0a4f28419497f9722a3daafe3b4186f6b6457e09190a35050565b60405173ffffffffffffffffffffffffffffffffffffffff80851660248301528316604482015260648101829052612d1e9085907f23b872dd0000000000000000000000000000000000000000000000000000000090608401612b2c565b50505050565b6000805b600754811015612e19576000600a546009600060078581548110612d4e57612d4e61368f565b600091825260208083209091015473ffffffffffffffffffffffffffffffffffffffff168352820192909252604001902054612d8a90886135d7565b612d949190613643565b9050806008600060078581548110612dae57612dae61368f565b600091825260208083209091015473ffffffffffffffffffffffffffffffffffffffff90811684528382019490945260409283018220938a1682529290925281208054909190612dff9084906135a8565b90915550829150612e11905081613657565b915050612d28565b508390505b9392505050565b6000612e87826040518060400160405280602081526020017f5361666545524332303a206c6f772d6c6576656c2063616c6c206661696c65648152508573ffffffffffffffffffffffffffffffffffffffff16612f319092919063ffffffff16565b8051909150156115a45780806020019051810190612ea591906138f7565b6115a4576040517f08c379a000000000000000000000000000000000000000000000000000000000815260206004820152602a60248201527f5361666545524332303a204552433230206f7065726174696f6e20646964206e60448201527f6f7420737563636565640000000000000000000000000000000000000000000060648201526084016126a7565b6060612f408484600085612f48565b949350505050565b606082471015612fda576040517f08c379a000000000000000000000000000000000000000000000000000000000815260206004820152602660248201527f416464726573733a20696e73756666696369656e742062616c616e636520666f60448201527f722063616c6c000000000000000000000000000000000000000000000000000060648201526084016126a7565b73ffffffffffffffffffffffffffffffffffffffff85163b613058576040517f08c379a000000000000000000000000000000000000000000000000000000000815260206004820152601d60248201527f416464726573733a2063616c6c20746f206e6f6e2d636f6e747261637400000060448201526064016126a7565b6000808673ffffffffffffffffffffffffffffffffffffffff16858760405161308191906139c9565b60006040518083038185875af1925050503d80600081146130be576040519150601f19603f3d011682016040523d82523d6000602084013e6130c3565b606091505b50915091506130d38282866130de565b979650505050505050565b606083156130ed575081612e1e565b8251156130fd5782518084602001fd5b816040517f08c379a00000000000000000000000000000000000000000000000000000000081526004016126a791906139e5565b50805460008255906000526020600020908101906126b991905b80821115612bc6576000815560010161314b565b60006020828403121561317157600080fd5b5035919050565b803573ffffffffffffffffffffffffffffffffffffffff8116811461319c57600080fd5b919050565b600080604083850312156131b457600080fd5b6131bd83613178565b946020939093013593505050565b80151581146126b957600080fd5b6000806000606084860312156131ee57600080fd5b83359250602084013591506040840135613207816131cb565b809150509250925092565b7f4e487b7100000000000000000000000000000000000000000000000000000000600052604160045260246000fd5b604051601f82017fffffffffffffffffffffffffffffffffffffffffffffffffffffffffffffffe016810167ffffffffffffffff8111828210171561328857613288613212565b604052919050565b600067ffffffffffffffff8211156132aa576132aa613212565b5060051b60200190565b600082601f8301126132c557600080fd5b813560206132da6132d583613290565b613241565b82815260059290921b840181019181810190868411156132f957600080fd5b8286015b8481101561331b5761330e81613178565b83529183019183016132fd565b509695505050505050565b6000806040838503121561333957600080fd5b823567ffffffffffffffff8082111561335157600080fd5b61335d868387016132b4565b935060209150818501358181111561337457600080fd5b85019050601f8101861361338757600080fd5b80356133956132d582613290565b81815260059190911b820183019083810190888311156133b457600080fd5b928401925b828410156133d2578335825292840192908401906133b9565b80955050505050509250929050565b600080604083850312156133f457600080fd5b8235915061340460208401613178565b90509250929050565b6000806040838503121561342057600080fd5b61342983613178565b9150602083013567ffffffffffffffff81111561344557600080fd5b613451858286016132b4565b9150509250929050565b60008060008060008060c0878903121561347457600080fd5b61347d87613178565b955061348b60208801613178565b945061349960408801613178565b93506134a760608801613178565b92506134b560808801613178565b91506134c360a08801613178565b90509295509295509295565b600080604083850312156134e257600080fd5b6134eb83613178565b915061340460208401613178565b60006020828403121561350b57600080fd5b612e1e82613178565b6000806040838503121561352757600080fd5b50508035926020909101359150565b6000806000806080858703121561354c57600080fd5b84359350602085013560ff8116811461356457600080fd5b93969395505050506040820135916060013590565b7f4e487b7100000000000000000000000000000000000000000000000000000000600052601160045260246000fd5b600082198211156135bb576135bb613579565b500190565b6000828210156135d2576135d2613579565b500390565b6000817fffffffffffffffffffffffffffffffffffffffffffffffffffffffffffffffff048311821515161561360f5761360f613579565b500290565b7f4e487b7100000000000000000000000000000000000000000000000000000000600052601260045260246000fd5b60008261365257613652613614565b500490565b60007fffffffffffffffffffffffffffffffffffffffffffffffffffffffffffffffff820361368857613688613579565b5060010190565b7f4e487b7100000000000000000000000000000000000000000000000000000000600052603260045260246000fd5b60007f7fffffffffffffffffffffffffffffffffffffffffffffffffffffffffffffff6000841360008413858304851182821616156136ff576136ff613579565b7f8000000000000000000000000000000000000000000000000000000000000000600087128682058812818416161561373a5761373a613579565b6000871292508782058712848416161561375657613756613579565b8785058712818416161561376c5761376c613579565b505050929093029392505050565b60008261378957613789613614565b7fffffffffffffffffffffffffffffffffffffffffffffffffffffffffffffffff83147f8000000000000000000000000000000000000000000000000000000000000000831416156137dd576137dd613579565b500590565b6000602082840312156137f457600080fd5b5051919050565b6000808212827f7fffffffffffffffffffffffffffffffffffffffffffffffffffffffffffffff0384138115161561383557613835613579565b827f800000000000000000000000000000000000000000000000000000000000000003841281161561386957613869613579565b50500190565b6000808312837f8000000000000000000000000000000000000000000000000000000000000000018312811516156138a9576138a9613579565b837f7fffffffffffffffffffffffffffffffffffffffffffffffffffffffffffffff0183138116156138dd576138dd613579565b50500390565b6000826138f2576138f2613614565b500690565b60006020828403121561390957600080fd5b8151612e1e816131cb565b7f4e487b7100000000000000000000000000000000000000000000000000000000600052603160045260246000fd5b60005b8381101561395e578181015183820152602001613946565b83811115612d1e5750506000910152565b60008351613981818460208801613943565b9190910191825250602001919050565b60007f800000000000000000000000000000000000000000000000000000000000000082036139c2576139c2613579565b5060000390565b600082516139db818460208701613943565b9190910192915050565b6020815260008251806020840152613a04816040850160208701613943565b601f017fffffffffffffffffffffffffffffffffffffffffffffffffffffffffffffffe016919091016040019291505056fea2646970667358221220ecf364e1606203b7cf7562cbe9e877237de266cdda92ff281b07362d938a11c664736f6c634300080f0033",
  "linkReferences": {},
  "deployedLinkReferences": {}
}