{
  "_format": "hh-sol-artifact-1",
  "contractName": "MetaDaoController",
  "sourceName": "contracts/MetaDaoController.sol",
  "abi": [
    {
      "inputs": [
        {
          "internalType": "address",
          "name": "admin",
          "type": "address"
        }
      ],
      "stateMutability": "nonpayable",
      "type": "constructor"
    },
    {
      "inputs": [],
      "name": "Exists",
      "type": "error"
    },
    {
      "inputs": [],
      "name": "IndexError",
      "type": "error"
    },
    {
      "inputs": [],
      "name": "InvalidArray",
      "type": "error"
    },
    {
      "inputs": [],
      "name": "InvalidClaim",
      "type": "error"
    },
    {
      "inputs": [],
      "name": "InvalidGuild",
      "type": "error"
    },
    {
      "inputs": [],
      "name": "NoIndex",
      "type": "error"
    },
    {
      "inputs": [],
      "name": "NotListed",
      "type": "error"
    },
    {
      "anonymous": false,
      "inputs": [
        {
          "indexed": true,
          "internalType": "address",
          "name": "previousOwner",
          "type": "address"
        },
        {
          "indexed": true,
          "internalType": "address",
          "name": "newOwner",
          "type": "address"
        }
      ],
      "name": "OwnershipTransferred",
      "type": "event"
    },
    {
      "inputs": [],
      "name": "FEES_INDEX",
      "outputs": [
        {
          "internalType": "bytes32",
          "name": "",
          "type": "bytes32"
        }
      ],
      "stateMutability": "view",
      "type": "function"
    },
    {
      "inputs": [],
      "name": "SENTINEL",
      "outputs": [
        {
          "internalType": "address",
          "name": "",
          "type": "address"
        }
      ],
      "stateMutability": "view",
      "type": "function"
    },
    {
      "inputs": [
        {
          "internalType": "address",
          "name": "guildAddress",
          "type": "address"
        }
      ],
      "name": "addExternalGuild",
      "outputs": [],
      "stateMutability": "nonpayable",
      "type": "function"
    },
    {
      "inputs": [
        {
          "internalType": "bytes[]",
          "name": "weights",
          "type": "bytes[]"
        }
      ],
      "name": "addIndex",
      "outputs": [
        {
          "internalType": "uint256",
          "name": "",
          "type": "uint256"
        }
      ],
      "stateMutability": "nonpayable",
      "type": "function"
    },
    {
      "inputs": [
        {
          "internalType": "address",
          "name": "_token",
          "type": "address"
        }
      ],
      "name": "addWhitelist",
      "outputs": [],
      "stateMutability": "nonpayable",
      "type": "function"
    },
    {
      "inputs": [],
      "name": "amorToken",
      "outputs": [
        {
          "internalType": "contract IERC20",
          "name": "",
          "type": "address"
        }
      ],
      "stateMutability": "view",
      "type": "function"
    },
    {
      "inputs": [
        {
          "internalType": "address",
          "name": "guild",
          "type": "address"
        }
      ],
      "name": "claimFees",
      "outputs": [],
      "stateMutability": "nonpayable",
      "type": "function"
    },
    {
      "inputs": [
        {
          "internalType": "address",
          "name": "token",
          "type": "address"
        }
      ],
      "name": "claimToken",
      "outputs": [],
      "stateMutability": "nonpayable",
      "type": "function"
    },
    {
      "inputs": [
        {
          "internalType": "address",
          "name": "guildOwner",
          "type": "address"
        },
        {
          "internalType": "string",
          "name": "name",
          "type": "string"
        },
        {
          "internalType": "string",
          "name": "tokenSymbol",
          "type": "string"
        }
      ],
      "name": "createGuild",
      "outputs": [],
      "stateMutability": "nonpayable",
      "type": "function"
    },
    {
      "inputs": [],
      "name": "distributeFees",
      "outputs": [],
      "stateMutability": "nonpayable",
      "type": "function"
    },
    {
      "inputs": [
        {
          "internalType": "address",
          "name": "token",
          "type": "address"
        },
        {
          "internalType": "uint256",
          "name": "amount",
          "type": "uint256"
        },
        {
          "internalType": "uint256",
          "name": "index",
          "type": "uint256"
        }
      ],
      "name": "donate",
      "outputs": [],
      "stateMutability": "nonpayable",
      "type": "function"
    },
    {
      "inputs": [
        {
          "internalType": "address",
          "name": "",
          "type": "address"
        }
      ],
      "name": "donations",
      "outputs": [
        {
          "internalType": "uint256",
          "name": "",
          "type": "uint256"
        }
      ],
      "stateMutability": "view",
      "type": "function"
    },
    {
      "inputs": [
        {
          "internalType": "address",
          "name": "",
          "type": "address"
        }
      ],
      "name": "guildAvatar",
      "outputs": [
        {
          "internalType": "address",
          "name": "",
          "type": "address"
        }
      ],
      "stateMutability": "view",
      "type": "function"
    },
    {
      "inputs": [],
      "name": "guildCounter",
      "outputs": [
        {
          "internalType": "uint256",
          "name": "",
          "type": "uint256"
        }
      ],
      "stateMutability": "view",
      "type": "function"
    },
    {
      "inputs": [],
      "name": "guildFactory",
      "outputs": [
        {
          "internalType": "address",
          "name": "",
          "type": "address"
        }
      ],
      "stateMutability": "view",
      "type": "function"
    },
    {
      "inputs": [
        {
          "internalType": "address",
          "name": "",
          "type": "address"
        }
      ],
      "name": "guildFees",
      "outputs": [
        {
          "internalType": "uint256",
          "name": "",
          "type": "uint256"
        }
      ],
      "stateMutability": "view",
      "type": "function"
    },
    {
      "inputs": [
        {
          "internalType": "address",
          "name": "",
          "type": "address"
        },
        {
          "internalType": "address",
          "name": "",
          "type": "address"
        }
      ],
      "name": "guildFunds",
      "outputs": [
        {
          "internalType": "uint256",
          "name": "",
          "type": "uint256"
        }
      ],
      "stateMutability": "view",
      "type": "function"
    },
    {
      "inputs": [
        {
          "internalType": "address",
          "name": "",
          "type": "address"
        }
      ],
      "name": "guildWeight",
      "outputs": [
        {
          "internalType": "uint256",
          "name": "",
          "type": "uint256"
        }
      ],
      "stateMutability": "view",
      "type": "function"
    },
    {
      "inputs": [
        {
          "internalType": "address",
          "name": "",
          "type": "address"
        }
      ],
      "name": "guilds",
      "outputs": [
        {
          "internalType": "address",
          "name": "",
          "type": "address"
        }
      ],
      "stateMutability": "view",
      "type": "function"
    },
    {
      "inputs": [],
      "name": "guildsTotalWeight",
      "outputs": [
        {
          "internalType": "uint256",
          "name": "",
          "type": "uint256"
        }
      ],
      "stateMutability": "view",
      "type": "function"
    },
    {
      "inputs": [
        {
          "internalType": "uint256",
          "name": "",
          "type": "uint256"
        }
      ],
      "name": "indexHashes",
      "outputs": [
        {
          "internalType": "bytes32",
          "name": "",
          "type": "bytes32"
        }
      ],
      "stateMutability": "view",
      "type": "function"
    },
    {
      "inputs": [
        {
          "internalType": "bytes32",
          "name": "",
          "type": "bytes32"
        }
      ],
      "name": "indexes",
      "outputs": [
        {
          "internalType": "address",
          "name": "creator",
          "type": "address"
        },
        {
          "internalType": "uint256",
          "name": "indexDenominator",
          "type": "uint256"
        }
      ],
      "stateMutability": "view",
      "type": "function"
    },
    {
      "inputs": [
        {
          "internalType": "address",
          "name": "amor",
          "type": "address"
        },
        {
          "internalType": "address",
          "name": "cloneFactory",
          "type": "address"
        }
      ],
      "name": "init",
      "outputs": [],
      "stateMutability": "nonpayable",
      "type": "function"
    },
    {
      "inputs": [
        {
          "internalType": "address",
          "name": "token",
          "type": "address"
        }
      ],
      "name": "isWhitelisted",
      "outputs": [
        {
          "internalType": "bool",
          "name": "",
          "type": "bool"
        }
      ],
      "stateMutability": "view",
      "type": "function"
    },
    {
      "inputs": [],
      "name": "owner",
      "outputs": [
        {
          "internalType": "address",
          "name": "",
          "type": "address"
        }
      ],
      "stateMutability": "view",
      "type": "function"
    },
    {
      "inputs": [
        {
          "internalType": "address",
          "name": "controller",
          "type": "address"
        }
      ],
      "name": "removeGuild",
      "outputs": [],
      "stateMutability": "nonpayable",
      "type": "function"
    },
    {
      "inputs": [],
      "name": "renounceOwnership",
      "outputs": [],
      "stateMutability": "nonpayable",
      "type": "function"
    },
    {
      "inputs": [],
      "name": "sentinelGuilds",
      "outputs": [
        {
          "internalType": "address",
          "name": "",
          "type": "address"
        }
      ],
      "stateMutability": "view",
      "type": "function"
    },
    {
      "inputs": [],
      "name": "sentinelWhitelist",
      "outputs": [
        {
          "internalType": "address",
          "name": "",
          "type": "address"
        }
      ],
      "stateMutability": "view",
      "type": "function"
    },
    {
      "inputs": [
        {
          "internalType": "address",
          "name": "newOwner",
          "type": "address"
        }
      ],
      "name": "transferOwnership",
      "outputs": [],
      "stateMutability": "nonpayable",
      "type": "function"
    },
    {
      "inputs": [
        {
          "internalType": "bytes[]",
          "name": "weights",
          "type": "bytes[]"
        },
        {
          "internalType": "uint256",
          "name": "index",
          "type": "uint256"
        }
      ],
      "name": "updateIndex",
      "outputs": [
        {
          "internalType": "uint256",
          "name": "",
          "type": "uint256"
        }
      ],
      "stateMutability": "nonpayable",
      "type": "function"
    },
    {
      "inputs": [
        {
          "internalType": "address",
          "name": "",
          "type": "address"
        }
      ],
      "name": "whitelist",
      "outputs": [
        {
          "internalType": "address",
          "name": "",
          "type": "address"
        }
      ],
      "stateMutability": "view",
      "type": "function"
    }
  ],
  "bytecode": "0x60806040523480156200001157600080fd5b50604051620027a5380380620027a58339810160408190526200003491620000a1565b6200003f3362000051565b6200004a8162000051565b50620000d3565b600080546001600160a01b038381166001600160a01b0319831681178455604051919092169283917f8be0079c531659141344cd1fd0a4f28419497f9722a3daafe3b4186f6b6457e09190a35050565b600060208284031215620000b457600080fd5b81516001600160a01b0381168114620000cc57600080fd5b9392505050565b6126c280620000e36000396000f3fe608060405234801561001057600080fd5b50600436106101f05760003560e01c80639b19251a1161010f578063e390f324116100a2578063f2fde38b11610071578063f2fde38b1461055a578063f7180c121461056d578063f80f5dd514610580578063fb4662bf1461059357600080fd5b8063e390f324146104ff578063e8f2a3511461051f578063f00cab431461053f578063f09a40161461054757600080fd5b8063c8b9fb76116100de578063c8b9fb7614610457578063cc6cb19a146104c3578063d4632276146104e3578063d83b8d6d146104f657600080fd5b80639b19251a146103c3578063a6c9f635146103f9578063a75859e114610419578063bb57ad201461044f57600080fd5b8063715018a6116101875780639254ad7d116101565780639254ad7d1461035657806392e2daf2146103695780639494d8171461037c578063999773321461039c57600080fd5b8063715018a6146102f95780637c1bcfc514610301578063826a4255146103185780638da5cb5b1461033857600080fd5b80633af32abf116101c35780633af32abf1461027a5780633dfcd8e71461029d578063586e2ee4146102d35780636d10dce2146102e657600080fd5b80630377a416146101f55780631041095d1461023f57806315a0ea6a1461025457806332f289cf14610267575b600080fd5b600d546102159073ffffffffffffffffffffffffffffffffffffffff1681565b60405173ffffffffffffffffffffffffffffffffffffffff90911681526020015b60405180910390f35b61025261024d366004611f59565b6105be565b005b610252610262366004611f59565b610809565b610252610275366004611f59565b6108c5565b61028d610288366004611f59565b610a66565b6040519015158152602001610236565b6102156102ab366004611f59565b60076020526000908152604090205473ffffffffffffffffffffffffffffffffffffffff1681565b6102526102e1366004612050565b610ace565b6102526102f4366004611f59565b610c07565b610252610cfc565b61030a60065481565b604051908152602001610236565b61030a610326366004611f59565b60046020526000908152604090205481565b60005473ffffffffffffffffffffffffffffffffffffffff16610215565b61030a610364366004612112565b610d10565b61030a61037736600461215e565b610eb9565b600b546102159073ffffffffffffffffffffffffffffffffffffffff1681565b61030a7f5ad9e2d19e9d3c60c3ce63f9fc00f54a1daac743b8e56fbfc74101ea268f816d81565b6102156103d1366004611f59565b600a6020526000908152604090205473ffffffffffffffffffffffffffffffffffffffff1681565b61030a610407366004611f59565b60086020526000908152604090205481565b610215610427366004611f59565b60016020526000908152604090205473ffffffffffffffffffffffffffffffffffffffff1681565b610252610fc2565b6104976104653660046121a0565b600e602052600090815260409020805460019091015473ffffffffffffffffffffffffffffffffffffffff9091169082565b6040805173ffffffffffffffffffffffffffffffffffffffff9093168352602083019190915201610236565b61030a6104d1366004611f59565b60096020526000908152604090205481565b6102526104f13660046121b9565b6111a1565b61030a60035481565b600c546102159073ffffffffffffffffffffffffffffffffffffffff1681565b6002546102159073ffffffffffffffffffffffffffffffffffffffff1681565b610215600181565b6102526105553660046121ee565b61151b565b610252610568366004611f59565b611687565b61030a61057b3660046121a0565b611743565b61025261058e366004611f59565b611764565b61030a6105a13660046121ee565b600560209081526000928352604080842090915290825290205481565b6105c66117e0565b73ffffffffffffffffffffffffffffffffffffffff81811660009081526001602052604090205416610624576040517fc10499a600000000000000000000000000000000000000000000000000000000815260040160405180910390fd5b60015b73ffffffffffffffffffffffffffffffffffffffff8181166000908152600a60205260409020541660011461071f5773ffffffffffffffffffffffffffffffffffffffff82811660009081526001602090815260408083205484168352600582528083208585168452600a835281842054909416835292815282822054600990915291812080549091906106bc908490612256565b909155505073ffffffffffffffffffffffffffffffffffffffff8083166000908152600160209081526040808320548416835260058252808320948416808452600a80845282852080548716865296845291842084905590925252905416610627565b5060015b73ffffffffffffffffffffffffffffffffffffffff8181166000908152600160205260409020548116908316146107815773ffffffffffffffffffffffffffffffffffffffff90811660009081526001602052604090205416610723565b73ffffffffffffffffffffffffffffffffffffffff8281166000818152600160208190526040808320805487871685529184208054929096167fffffffffffffffffffffffff0000000000000000000000000000000000000000928316179095559282528354909216909255600380549192909161080090849061226e565b90915550505050565b73ffffffffffffffffffffffffffffffffffffffff81811660009081526001602052604090205416610867576040517fc10499a600000000000000000000000000000000000000000000000000000000815260040160405180910390fd5b73ffffffffffffffffffffffffffffffffffffffff808216600090815260086020526040902054600d5461089e9216908390611861565b73ffffffffffffffffffffffffffffffffffffffff16600090815260086020526040812055565b3360009081526001602052604090205473ffffffffffffffffffffffffffffffffffffffff16610921576040517fc10499a600000000000000000000000000000000000000000000000000000000815260040160405180910390fd5b73ffffffffffffffffffffffffffffffffffffffff8181166000908152600a60205260409020541661097f576040517f665c1c5700000000000000000000000000000000000000000000000000000000815260040160405180910390fd5b33600090815260056020908152604080832073ffffffffffffffffffffffffffffffffffffffff85168452909152812054908190036109ea576040517fed3c247c00000000000000000000000000000000000000000000000000000000815260040160405180910390fd5b73ffffffffffffffffffffffffffffffffffffffff821660009081526009602052604081208054839290610a1f90849061226e565b909155505033600081815260056020908152604080832073ffffffffffffffffffffffffffffffffffffffff87168085529252822091909155610a629183611861565b5050565b73ffffffffffffffffffffffffffffffffffffffff8181166000908152600a6020526040812054909116610ac6576040517f665c1c5700000000000000000000000000000000000000000000000000000000815260040160405180910390fd5b506001919050565b610ad66117e0565b600c546040517f449dbe1400000000000000000000000000000000000000000000000000000000815260009173ffffffffffffffffffffffffffffffffffffffff169063449dbe1490610b31908790879087906004016122fb565b6020604051808303816000875af1158015610b50573d6000803e3d6000fd5b505050506040513d601f19601f82011682018060405250810190610b749190612346565b6002805473ffffffffffffffffffffffffffffffffffffffff908116600090815260016020819052604080832080549487167fffffffffffffffffffffffff0000000000000000000000000000000000000000958616811790915585548516811790955593825292812080549092168317909155600380549394509192610bfc908490612256565b909155505050505050565b610c0f6117e0565b73ffffffffffffffffffffffffffffffffffffffff8181166000908152600160205260409020541615610c6e576040517f846ec05600000000000000000000000000000000000000000000000000000000815260040160405180910390fd5b6002805473ffffffffffffffffffffffffffffffffffffffff908116600090815260016020819052604080832080549487167fffffffffffffffffffffffff000000000000000000000000000000000000000095861681179091558554851681179095559382529281208054909216831790915560038054909190610cf4908490612256565b909155505050565b610d046117e0565b610d0e6000611935565b565b60003373ffffffffffffffffffffffffffffffffffffffff16600e6000600f8581548110610d4057610d40612363565b6000918252602080832090910154835282019290925260400190205473ffffffffffffffffffffffffffffffffffffffff1614610da9576040517fa857911300000000000000000000000000000000000000000000000000000000815260040160405180910390fd5b6000610dd38585600f8681548110610dc357610dc3612363565b90600052602060002001546119aa565b90508215610eac57600f8054610deb9060019061226e565b81548110610dfb57610dfb612363565b9060005260206000200154600f8481548110610e1957610e19612363565b600091825260209091200155600f805480610e3657610e36612392565b60008281526020812082017fffffffffffffffffffffffffffffffffffffffffffffffffffffffffffffffff908101829055909101909155600f8054600181018255918190527f8d1108e10bcb7c27dddfc02ed9d693a074039d026cf4ea4240b40f7d581ac80290910191909155549050610eb2565b60009150505b9392505050565b6000808383604051602001610ecf92919061240a565b604080517fffffffffffffffffffffffffffffffffffffffffffffffffffffffffffffffe081840301815291815281516020928301206000818152600e90935291206001015490915015610f4f576040517f846ec05600000000000000000000000000000000000000000000000000000000815260040160405180910390fd5b600f80546001818101835560008390527f8d1108e10bcb7c27dddfc02ed9d693a074039d026cf4ea4240b40f7d581ac8029091018390558154610faa9287928792610f9a919061226e565b81548110610dc357610dc3612363565b50600f54610fba9060019061226e565b949350505050565b600d5473ffffffffffffffffffffffffffffffffffffffff166000818152600960205260408082205490517f70a082310000000000000000000000000000000000000000000000000000000081523060048201527f7faf3829692615eb77df3a98f801088138aff20cd4b3b4ae457883695f2e89ae9360019392916370a0823190602401602060405180830381865afa158015611063573d6000803e3d6000fd5b505050506040513d601f19601f8201168201806040525081019061108791906124e1565b611091919061226e565b90505b73ffffffffffffffffffffffffffffffffffffffff8281166000908152600160208190526040909120549091161461119c5760018084015473ffffffffffffffffffffffffffffffffffffffff8085166000908152602093845260408082205490921681526002870190935282205461110d90846124fa565b6111179190612537565b9050801561116b5773ffffffffffffffffffffffffffffffffffffffff8084166000908152600160209081526040808320549093168252600890529081208054839290611165908490612256565b90915550505b5073ffffffffffffffffffffffffffffffffffffffff91821660009081526001602052604090205490911690611094565b505050565b6040517f3af32abf00000000000000000000000000000000000000000000000000000000815273ffffffffffffffffffffffffffffffffffffffff841660048201523090633af32abf90602401602060405180830381865afa15801561120b573d6000803e3d6000fd5b505050506040513d601f19601f8201168201806040525081019061122f9190612572565b151560000361126a576040517f665c1c5700000000000000000000000000000000000000000000000000000000815260040160405180910390fd5b7f5ad9e2d19e9d3c60c3ce63f9fc00f54a1daac743b8e56fbfc74101ea268f816d6000908152600e6020527f7faf3829692615eb77df3a98f801088138aff20cd4b3b4ae457883695f2e89af5490036112ef576040517f1f4ac37a00000000000000000000000000000000000000000000000000000000815260040160405180910390fd5b600d5473ffffffffffffffffffffffffffffffffffffffff908116908416036114b357600d546040517f70a0823100000000000000000000000000000000000000000000000000000000815230600482015260009173ffffffffffffffffffffffffffffffffffffffff16906370a0823190602401602060405180830381865afa158015611381573d6000803e3d6000fd5b505050506040513d601f19601f820116820180604052508101906113a591906124e1565b90506113c973ffffffffffffffffffffffffffffffffffffffff8516333086611b15565b600d546040517f70a08231000000000000000000000000000000000000000000000000000000008152306004820152829173ffffffffffffffffffffffffffffffffffffffff16906370a0823190602401602060405180830381865afa158015611437573d6000803e3d6000fd5b505050506040513d601f19601f8201168201806040525081019061145b91906124e1565b611465919061226e565b9050611472848284611b79565b73ffffffffffffffffffffffffffffffffffffffff8416600090815260096020526040812080548392906114a7908490612256565b9091555061119c915050565b73ffffffffffffffffffffffffffffffffffffffff8316600090815260096020526040812080548492906114e8908490612256565b90915550611510905073ffffffffffffffffffffffffffffffffffffffff8416333085611b15565b61119c838383611b79565b6115236117e0565b600d805473ffffffffffffffffffffffffffffffffffffffff9384167fffffffffffffffffffffffff00000000000000000000000000000000000000009182168117909255600c805493851693821693909317909255600b80548316821790556000818152600a6020908152604082208054851660019081179091557fbbc70db1b6c7afd11e79c0fb0051300458f1a3acb8ee9789d9b6b26c61ad9bc780548616909417909355600f80548085019091557f5ad9e2d19e9d3c60c3ce63f9fc00f54a1daac743b8e56fbfc74101ea268f816d7f8d1108e10bcb7c27dddfc02ed9d693a074039d026cf4ea4240b40f7d581ac8029091015581547f7faf3829692615eb77df3a98f801088138aff20cd4b3b4ae457883695f2e89ae80548616919096161790945560028054841683179055819052918290527fcc69885fda6bcc1a4ace058b4a62bf5e179ea78fd58a1ccd71c22cc9b688792f80549091169091179055565b61168f6117e0565b73ffffffffffffffffffffffffffffffffffffffff8116611737576040517f08c379a000000000000000000000000000000000000000000000000000000000815260206004820152602660248201527f4f776e61626c653a206e6577206f776e657220697320746865207a65726f206160448201527f646472657373000000000000000000000000000000000000000000000000000060648201526084015b60405180910390fd5b61174081611935565b50565b600f818154811061175357600080fd5b600091825260209091200154905081565b61176c6117e0565b600b805473ffffffffffffffffffffffffffffffffffffffff9081166000908152600a60205260408082208054939095167fffffffffffffffffffffffff00000000000000000000000000000000000000009384168117909555835483168517909355928352912080549091166001179055565b60005473ffffffffffffffffffffffffffffffffffffffff163314610d0e576040517f08c379a000000000000000000000000000000000000000000000000000000000815260206004820181905260248201527f4f776e61626c653a2063616c6c6572206973206e6f7420746865206f776e6572604482015260640161172e565b60405173ffffffffffffffffffffffffffffffffffffffff831660248201526044810182905261119c9084907fa9059cbb00000000000000000000000000000000000000000000000000000000906064015b604080517fffffffffffffffffffffffffffffffffffffffffffffffffffffffffffffffe08184030181529190526020810180517bffffffffffffffffffffffffffffffffffffffffffffffffffffffff167fffffffff0000000000000000000000000000000000000000000000000000000090931692909217909152611cc9565b6000805473ffffffffffffffffffffffffffffffffffffffff8381167fffffffffffffffffffffffff0000000000000000000000000000000000000000831681178455604051919092169283917f8be0079c531659141344cd1fd0a4f28419497f9722a3daafe3b4186f6b6457e09190a35050565b60007f5ad9e2d19e9d3c60c3ce63f9fc00f54a1daac743b8e56fbfc74101ea268f816d8214611a3a576000828152600e6020908152604080832080547fffffffffffffffffffffffff0000000000000000000000000000000000000000168155600101929092559051611a2191869186910161240a565b6040516020818303038152906040528051906020012091505b6000828152600e60205260408120905b84811015611b0b57600080878784818110611a6757611a67612363565b9050602002810190611a799190612594565b810190611a8691906125f9565b73ffffffffffffffffffffffffffffffffffffffff8216600090815260028701602052604081208290556001870180549395509193508392611ac9908490612256565b909155505083547fffffffffffffffffffffffff0000000000000000000000000000000000000000163317845550819050611b0381612625565b915050611a4a565b5091949350505050565b60405173ffffffffffffffffffffffffffffffffffffffff80851660248301528316604482015260648101829052611b739085907f23b872dd00000000000000000000000000000000000000000000000000000000906084016118b3565b50505050565b6000600190506000600e6000600f8581548110611b9857611b98612363565b9060005260206000200154815260200190815260200160002090505b73ffffffffffffffffffffffffffffffffffffffff82811660009081526001602081905260409091205490911614611cc25760018082015473ffffffffffffffffffffffffffffffffffffffff80851660009081526020938452604080822054909216815260028501909352822054611c2d90876124fa565b611c379190612537565b73ffffffffffffffffffffffffffffffffffffffff8085166000908152600160209081526040808320548416835260058252808320938b16835292905290812080549293508392909190611c8c908490612256565b90915550505073ffffffffffffffffffffffffffffffffffffffff91821660009081526001602052604090205490911690611bb4565b5050505050565b6000611d2b826040518060400160405280602081526020017f5361666545524332303a206c6f772d6c6576656c2063616c6c206661696c65648152508573ffffffffffffffffffffffffffffffffffffffff16611dd59092919063ffffffff16565b80519091501561119c5780806020019051810190611d499190612572565b61119c576040517f08c379a000000000000000000000000000000000000000000000000000000000815260206004820152602a60248201527f5361666545524332303a204552433230206f7065726174696f6e20646964206e60448201527f6f74207375636365656400000000000000000000000000000000000000000000606482015260840161172e565b6060610fba84846000858573ffffffffffffffffffffffffffffffffffffffff85163b611e5e576040517f08c379a000000000000000000000000000000000000000000000000000000000815260206004820152601d60248201527f416464726573733a2063616c6c20746f206e6f6e2d636f6e7472616374000000604482015260640161172e565b6000808673ffffffffffffffffffffffffffffffffffffffff168587604051611e87919061265d565b60006040518083038185875af1925050503d8060008114611ec4576040519150601f19603f3d011682016040523d82523d6000602084013e611ec9565b606091505b5091509150611ed9828286611ee4565b979650505050505050565b60608315611ef3575081610eb2565b825115611f035782518084602001fd5b816040517f08c379a000000000000000000000000000000000000000000000000000000000815260040161172e9190612679565b73ffffffffffffffffffffffffffffffffffffffff8116811461174057600080fd5b600060208284031215611f6b57600080fd5b8135610eb281611f37565b7f4e487b7100000000000000000000000000000000000000000000000000000000600052604160045260246000fd5b600082601f830112611fb657600080fd5b813567ffffffffffffffff80821115611fd157611fd1611f76565b604051601f83017fffffffffffffffffffffffffffffffffffffffffffffffffffffffffffffffe0908116603f0116810190828211818310171561201757612017611f76565b8160405283815286602085880101111561203057600080fd5b836020870160208301376000602085830101528094505050505092915050565b60008060006060848603121561206557600080fd5b833561207081611f37565b9250602084013567ffffffffffffffff8082111561208d57600080fd5b61209987838801611fa5565b935060408601359150808211156120af57600080fd5b506120bc86828701611fa5565b9150509250925092565b60008083601f8401126120d857600080fd5b50813567ffffffffffffffff8111156120f057600080fd5b6020830191508360208260051b850101111561210b57600080fd5b9250929050565b60008060006040848603121561212757600080fd5b833567ffffffffffffffff81111561213e57600080fd5b61214a868287016120c6565b909790965060209590950135949350505050565b6000806020838503121561217157600080fd5b823567ffffffffffffffff81111561218857600080fd5b612194858286016120c6565b90969095509350505050565b6000602082840312156121b257600080fd5b5035919050565b6000806000606084860312156121ce57600080fd5b83356121d981611f37565b95602085013595506040909401359392505050565b6000806040838503121561220157600080fd5b823561220c81611f37565b9150602083013561221c81611f37565b809150509250929050565b7f4e487b7100000000000000000000000000000000000000000000000000000000600052601160045260246000fd5b6000821982111561226957612269612227565b500190565b60008282101561228057612280612227565b500390565b60005b838110156122a0578181015183820152602001612288565b83811115611b735750506000910152565b600081518084526122c9816020860160208601612285565b601f017fffffffffffffffffffffffffffffffffffffffffffffffffffffffffffffffe0169290920160200192915050565b73ffffffffffffffffffffffffffffffffffffffff8416815260606020820152600061232a60608301856122b1565b828103604084015261233c81856122b1565b9695505050505050565b60006020828403121561235857600080fd5b8151610eb281611f37565b7f4e487b7100000000000000000000000000000000000000000000000000000000600052603260045260246000fd5b7f4e487b7100000000000000000000000000000000000000000000000000000000600052603160045260246000fd5b8183528181602085013750600060208284010152600060207fffffffffffffffffffffffffffffffffffffffffffffffffffffffffffffffe0601f840116840101905092915050565b60208082528181018390526000906040600585901b8401810190840186845b878110156124d4577fffffffffffffffffffffffffffffffffffffffffffffffffffffffffffffffc087850301835281357fffffffffffffffffffffffffffffffffffffffffffffffffffffffffffffffe18a360301811261248a57600080fd5b8901858101903567ffffffffffffffff8111156124a657600080fd5b8036038213156124b557600080fd5b6124c08682846123c1565b955050509184019190840190600101612429565b5091979650505050505050565b6000602082840312156124f357600080fd5b5051919050565b6000817fffffffffffffffffffffffffffffffffffffffffffffffffffffffffffffffff048311821515161561253257612532612227565b500290565b60008261256d577f4e487b7100000000000000000000000000000000000000000000000000000000600052601260045260246000fd5b500490565b60006020828403121561258457600080fd5b81518015158114610eb257600080fd5b60008083357fffffffffffffffffffffffffffffffffffffffffffffffffffffffffffffffe18436030181126125c957600080fd5b83018035915067ffffffffffffffff8211156125e457600080fd5b60200191503681900382131561210b57600080fd5b6000806040838503121561260c57600080fd5b823561261781611f37565b946020939093013593505050565b60007fffffffffffffffffffffffffffffffffffffffffffffffffffffffffffffffff820361265657612656612227565b5060010190565b6000825161266f818460208701612285565b9190910192915050565b602081526000610eb260208301846122b156fea264697066735822122006ac3e35bba591ce6bb8438b94a22ce4c1a48c2f95d1a549cd10aa793aaf469e64736f6c634300080f0033",
  "linkReferences": {},
  "deployedLinkReferences": {}
}