{
  "_format": "hh-sol-artifact-1",
  "contractName": "Controller",
  "sourceName": "contracts/Controller.sol",
  "abi": [
    {
      "inputs": [],
      "name": "AddressZero",
      "type": "error"
    },
    {
      "inputs": [],
      "name": "EmptyArray",
      "type": "error"
    },
    {
      "inputs": [
        {
          "internalType": "uint256",
          "name": "sent",
          "type": "uint256"
        },
        {
          "internalType": "uint256",
          "name": "minRequired",
          "type": "uint256"
        }
      ],
      "name": "InvalidAmount",
      "type": "error"
    },
    {
      "inputs": [],
      "name": "InvalidParameters",
      "type": "error"
    },
    {
      "inputs": [],
      "name": "InvalidSender",
      "type": "error"
    },
    {
      "inputs": [],
      "name": "Unauthorized",
      "type": "error"
    },
    {
      "anonymous": false,
      "inputs": [
        {
          "indexed": false,
          "internalType": "bool",
          "name": "success",
          "type": "bool"
        },
        {
          "indexed": false,
          "internalType": "address",
          "name": "owner",
          "type": "address"
        },
        {
          "indexed": false,
          "internalType": "address",
          "name": "AMORxGuild",
          "type": "address"
        }
      ],
      "name": "Initialized",
      "type": "event"
    },
    {
      "inputs": [],
      "name": "AMORxGuild",
      "outputs": [
        {
          "internalType": "address",
          "name": "",
          "type": "address"
        }
      ],
      "stateMutability": "view",
      "type": "function"
    },
    {
      "inputs": [],
      "name": "FEE_DENOMINATOR",
      "outputs": [
        {
          "internalType": "uint256",
          "name": "",
          "type": "uint256"
        }
      ],
      "stateMutability": "view",
      "type": "function"
    },
    {
      "inputs": [],
      "name": "FXAMORxGuild",
      "outputs": [
        {
          "internalType": "address",
          "name": "",
          "type": "address"
        }
      ],
      "stateMutability": "view",
      "type": "function"
    },
    {
      "inputs": [
        {
          "internalType": "uint256",
          "name": "amount",
          "type": "uint256"
        }
      ],
      "name": "donate",
      "outputs": [
        {
          "internalType": "uint256",
          "name": "",
          "type": "uint256"
        }
      ],
      "stateMutability": "nonpayable",
      "type": "function"
    },
    {
      "inputs": [],
      "name": "guild",
      "outputs": [
        {
          "internalType": "address",
          "name": "",
          "type": "address"
        }
      ],
      "stateMutability": "view",
      "type": "function"
    },
    {
      "inputs": [],
      "name": "impactFees",
      "outputs": [
        {
          "internalType": "uint256",
          "name": "",
          "type": "uint256"
        }
      ],
      "stateMutability": "view",
      "type": "function"
    },
    {
      "inputs": [],
      "name": "impactPoll",
      "outputs": [
        {
          "internalType": "address",
          "name": "",
          "type": "address"
        }
      ],
      "stateMutability": "view",
      "type": "function"
    },
    {
      "inputs": [
        {
          "internalType": "address",
          "name": "initOwner_",
          "type": "address"
        },
        {
          "internalType": "address",
          "name": "AMORxGuild_",
          "type": "address"
        },
        {
          "internalType": "address",
          "name": "FXAMORxGuild_",
          "type": "address"
        },
        {
          "internalType": "address",
          "name": "guild_",
          "type": "address"
        },
        {
          "internalType": "address",
          "name": "impactPoll_",
          "type": "address"
        },
        {
          "internalType": "address",
          "name": "projectPoll_",
          "type": "address"
        }
      ],
      "name": "init",
      "outputs": [
        {
          "internalType": "bool",
          "name": "",
          "type": "bool"
        }
      ],
      "stateMutability": "nonpayable",
      "type": "function"
    },
    {
      "inputs": [],
      "name": "owner",
      "outputs": [
        {
          "internalType": "address",
          "name": "",
          "type": "address"
        }
      ],
      "stateMutability": "view",
      "type": "function"
    },
    {
      "inputs": [],
      "name": "projectFees",
      "outputs": [
        {
          "internalType": "uint256",
          "name": "",
          "type": "uint256"
        }
      ],
      "stateMutability": "view",
      "type": "function"
    },
    {
      "inputs": [],
      "name": "projectPoll",
      "outputs": [
        {
          "internalType": "address",
          "name": "",
          "type": "address"
        }
      ],
      "stateMutability": "view",
      "type": "function"
    }
  ],
  "bytecode": "0x6080604052610320600b5560c8600c5534801561001b57600080fd5b506109098061002b6000396000f3fe608060405234801561001057600080fd5b50600436106100c95760003560e01c80639096dfd011610081578063b5a132b41161005b578063b5a132b4146101db578063d73792a9146101fb578063f14faf6f1461020457600080fd5b80639096dfd01461018f57806399e133f914610198578063b209659b146101bb57600080fd5b80637bb576f5116100b25780637bb576f51461012f57806380f5dbbc1461014f5780638da5cb5b1461016f57600080fd5b80631b5ee037146100ce5780631b78cd4314610118575b600080fd5b600a546100ee9073ffffffffffffffffffffffffffffffffffffffff1681565b60405173ffffffffffffffffffffffffffffffffffffffff90911681526020015b60405180910390f35b610121600c5481565b60405190815260200161010f565b6006546100ee9073ffffffffffffffffffffffffffffffffffffffff1681565b6009546100ee9073ffffffffffffffffffffffffffffffffffffffff1681565b6005546100ee9073ffffffffffffffffffffffffffffffffffffffff1681565b610121600b5481565b6101ab6101a6366004610765565b610217565b604051901515815260200161010f565b6007546100ee9073ffffffffffffffffffffffffffffffffffffffff1681565b6008546100ee9073ffffffffffffffffffffffffffffffffffffffff1681565b6101216103e881565b6101216102123660046107d9565b610394565b600d5460009060ff161561028c576040517f08c379a000000000000000000000000000000000000000000000000000000000815260206004820152601360248201527f416c726561647920696e697469616c697a65640000000000000000000000000060448201526064015b60405180910390fd5b600580547fffffffffffffffffffffffff000000000000000000000000000000000000000090811673ffffffffffffffffffffffffffffffffffffffff8a81169182179093556006805483168a85169081179091556007805484168a8616179055600880548416898616179055600980548416888616179055600a805490931693861693909317909155600d80547fffffffffffffffffffffffffffffffffffffffffffffffffffffffffffffff00166001908117909155604080519182526020820192909252908101919091527fc87c04922c077302cf4c93ca0785707d2272b98c125c11c3c98f545718f3e27c9060600160405180910390a15060019695505050505050565b6006546040517f70a08231000000000000000000000000000000000000000000000000000000008152336004820152600091839173ffffffffffffffffffffffffffffffffffffffff909116906370a0823190602401602060405180830381865afa158015610407573d6000803e3d6000fd5b505050506040513d601f19601f8201168201806040525081019061042b91906107f2565b10156104fe576006546040517f70a08231000000000000000000000000000000000000000000000000000000008152336004820152839173ffffffffffffffffffffffffffffffffffffffff16906370a0823190602401602060405180830381865afa15801561049f573d6000803e3d6000fd5b505050506040513d601f19601f820116820180604052508101906104c391906107f2565b6040517f7c83fcf000000000000000000000000000000000000000000000000000000000815260048101929092526024820152604401610283565b60006103e8600b5484610511919061080b565b61051b919061086f565b905060006103e8600c5485610530919061080b565b61053a919061086f565b6006546009546040517fa9059cbb00000000000000000000000000000000000000000000000000000000815273ffffffffffffffffffffffffffffffffffffffff918216600482015260248101869052929350169063a9059cbb906044016020604051808303816000875af11580156105b7573d6000803e3d6000fd5b505050506040513d601f19601f820116820180604052508101906105db91906108aa565b50600654600a546040517fa9059cbb00000000000000000000000000000000000000000000000000000000815273ffffffffffffffffffffffffffffffffffffffff91821660048201526024810184905291169063a9059cbb906044016020604051808303816000875af1158015610657573d6000803e3d6000fd5b505050506040513d601f19601f8201168201806040525081019061067b91906108aa565b5060006103e861068c86606461080b565b610696919061086f565b6007546040517fa9059cbb0000000000000000000000000000000000000000000000000000000081523360048201526024810183905291925073ffffffffffffffffffffffffffffffffffffffff169063a9059cbb906044016020604051808303816000875af115801561070e573d6000803e3d6000fd5b505050506040513d601f19601f8201168201806040525081019061073291906108aa565b5093949350505050565b803573ffffffffffffffffffffffffffffffffffffffff8116811461076057600080fd5b919050565b60008060008060008060c0878903121561077e57600080fd5b6107878761073c565b95506107956020880161073c565b94506107a36040880161073c565b93506107b16060880161073c565b92506107bf6080880161073c565b91506107cd60a0880161073c565b90509295509295509295565b6000602082840312156107eb57600080fd5b5035919050565b60006020828403121561080457600080fd5b5051919050565b6000817fffffffffffffffffffffffffffffffffffffffffffffffffffffffffffffffff048311821515161561086a577f4e487b7100000000000000000000000000000000000000000000000000000000600052601160045260246000fd5b500290565b6000826108a5577f4e487b7100000000000000000000000000000000000000000000000000000000600052601260045260246000fd5b500490565b6000602082840312156108bc57600080fd5b815180151581146108cc57600080fd5b939250505056fea2646970667358221220508b2537a1abc79718775d95037f0b6bb9c4f91e3d55c2a854219a9a4fe25a2164736f6c634300080e0033",
  "linkReferences": {},
  "deployedLinkReferences": {}
}